{
	"contracts/smartContractWallet.sol": {
		"SmartCobtractWallet": {
			"abi": [
				{
					"inputs": [],
					"stateMutability": "nonpayable",
					"type": "constructor"
				},
				{
					"inputs": [
						{
							"internalType": "address",
							"name": "",
							"type": "address"
						}
					],
					"name": "allowance",
					"outputs": [
						{
							"internalType": "uint256",
							"name": "",
							"type": "uint256"
						}
					],
					"stateMutability": "view",
					"type": "function"
				},
				{
					"inputs": [
						{
							"internalType": "address",
							"name": "",
							"type": "address"
						}
					],
					"name": "isAllowedToSend",
					"outputs": [
						{
							"internalType": "bool",
							"name": "",
							"type": "bool"
						}
					],
					"stateMutability": "view",
					"type": "function"
				},
				{
					"inputs": [
						{
							"internalType": "address payable",
							"name": "_to",
							"type": "address"
						},
						{
							"internalType": "uint256",
							"name": "_amount",
							"type": "uint256"
						},
						{
							"internalType": "bytes",
							"name": "_payload",
							"type": "bytes"
						}
					],
					"name": "transfer",
					"outputs": [
						{
							"internalType": "bytes",
							"name": "",
							"type": "bytes"
						}
					],
					"stateMutability": "nonpayable",
					"type": "function"
				},
				{
					"stateMutability": "payable",
					"type": "receive"
				}
			],
			"devdoc": {
				"kind": "dev",
				"methods": {},
				"version": 1
			},
			"evm": {
				"assembly": "    /* \"contracts/smartContractWallet.sol\":57:1013  contract SmartCobtractWallet {... */\n  mstore(0x40, 0x80)\n    /* \"contracts/smartContractWallet.sol\":221:279  constructor() {... */\n  callvalue\n  dup1\n  iszero\n  tag_1\n  jumpi\n  revert(0x00, 0x00)\ntag_1:\n  pop\n    /* \"contracts/smartContractWallet.sol\":261:271  msg.sender */\n  caller\n    /* \"contracts/smartContractWallet.sol\":245:250  owner */\n  0x00\n  0x00\n    /* \"contracts/smartContractWallet.sol\":245:272  owner = payable(msg.sender) */\n  0x0100\n  exp\n  dup2\n  sload\n  dup2\n  0xffffffffffffffffffffffffffffffffffffffff\n  mul\n  not\n  and\n  swap1\n  dup4\n  0xffffffffffffffffffffffffffffffffffffffff\n  and\n  mul\n  or\n  swap1\n  sstore\n  pop\n    /* \"contracts/smartContractWallet.sol\":57:1013  contract SmartCobtractWallet {... */\n  dataSize(sub_0)\n  dup1\n  dataOffset(sub_0)\n  0x00\n  codecopy\n  0x00\n  return\nstop\n\nsub_0: assembly {\n        /* \"contracts/smartContractWallet.sol\":57:1013  contract SmartCobtractWallet {... */\n      mstore(0x40, 0x80)\n      jumpi(tag_1, lt(calldatasize, 0x04))\n      shr(0xe0, calldataload(0x00))\n      dup1\n      0x0bc605ad\n      eq\n      tag_3\n      jumpi\n      dup1\n      0x3e5beab9\n      eq\n      tag_4\n      jumpi\n      dup1\n      0xbe45fd62\n      eq\n      tag_5\n      jumpi\n      jump(tag_2)\n    tag_1:\n      jumpi(tag_2, calldatasize)\n      stop\n    tag_2:\n      revert(0x00, 0x00)\n        /* \"contracts/smartContractWallet.sol\":167:214  mapping(address => bool) public isAllowedToSend */\n    tag_3:\n      callvalue\n      dup1\n      iszero\n      tag_8\n      jumpi\n      revert(0x00, 0x00)\n    tag_8:\n      pop\n      tag_9\n      0x04\n      dup1\n      calldatasize\n      sub\n      dup2\n      add\n      swap1\n      tag_10\n      swap2\n      swap1\n      tag_11\n      jump\t// in\n    tag_10:\n      tag_12\n      jump\t// in\n    tag_9:\n      mload(0x40)\n      tag_13\n      swap2\n      swap1\n      tag_14\n      jump\t// in\n    tag_13:\n      mload(0x40)\n      dup1\n      swap2\n      sub\n      swap1\n      return\n        /* \"contracts/smartContractWallet.sol\":120:161  mapping(address => uint) public allowance */\n    tag_4:\n      callvalue\n      dup1\n      iszero\n      tag_15\n      jumpi\n      revert(0x00, 0x00)\n    tag_15:\n      pop\n      tag_16\n      0x04\n      dup1\n      calldatasize\n      sub\n      dup2\n      add\n      swap1\n      tag_17\n      swap2\n      swap1\n      tag_11\n      jump\t// in\n    tag_17:\n      tag_18\n      jump\t// in\n    tag_16:\n      mload(0x40)\n      tag_19\n      swap2\n      swap1\n      tag_20\n      jump\t// in\n    tag_19:\n      mload(0x40)\n      dup1\n      swap2\n      sub\n      swap1\n      return\n        /* \"contracts/smartContractWallet.sol\":285:976  function transfer(... */\n    tag_5:\n      callvalue\n      dup1\n      iszero\n      tag_21\n      jumpi\n      revert(0x00, 0x00)\n    tag_21:\n      pop\n      tag_22\n      0x04\n      dup1\n      calldatasize\n      sub\n      dup2\n      add\n      swap1\n      tag_23\n      swap2\n      swap1\n      tag_24\n      jump\t// in\n    tag_23:\n      tag_25\n      jump\t// in\n    tag_22:\n      mload(0x40)\n      tag_26\n      swap2\n      swap1\n      tag_27\n      jump\t// in\n    tag_26:\n      mload(0x40)\n      dup1\n      swap2\n      sub\n      swap1\n      return\n        /* \"contracts/smartContractWallet.sol\":167:214  mapping(address => bool) public isAllowedToSend */\n    tag_12:\n      mstore(0x20, 0x02)\n      dup1\n      0x00\n      mstore\n      keccak256(0x00, 0x40)\n      0x00\n      swap2\n      pop\n      sload\n      swap1\n      0x0100\n      exp\n      swap1\n      div\n      0xff\n      and\n      dup2\n      jump\t// out\n        /* \"contracts/smartContractWallet.sol\":120:161  mapping(address => uint) public allowance */\n    tag_18:\n      mstore(0x20, 0x01)\n      dup1\n      0x00\n      mstore\n      keccak256(0x00, 0x40)\n      0x00\n      swap2\n      pop\n      swap1\n      pop\n      sload\n      dup2\n      jump\t// out\n        /* \"contracts/smartContractWallet.sol\":285:976  function transfer(... */\n    tag_25:\n        /* \"contracts/smartContractWallet.sol\":410:422  bytes memory */\n      0x60\n        /* \"contracts/smartContractWallet.sol\":456:461  owner */\n      0x00\n      0x00\n      swap1\n      sload\n      swap1\n      0x0100\n      exp\n      swap1\n      div\n      0xffffffffffffffffffffffffffffffffffffffff\n      and\n        /* \"contracts/smartContractWallet.sol\":442:461  msg.sender == owner */\n      0xffffffffffffffffffffffffffffffffffffffff\n      and\n        /* \"contracts/smartContractWallet.sol\":442:452  msg.sender */\n      caller\n        /* \"contracts/smartContractWallet.sol\":442:461  msg.sender == owner */\n      0xffffffffffffffffffffffffffffffffffffffff\n      and\n      eq\n        /* \"contracts/smartContractWallet.sol\":434:498  require(msg.sender == owner, \"you are not the owner, aborting!\") */\n      tag_29\n      jumpi\n      mload(0x40)\n      0x08c379a000000000000000000000000000000000000000000000000000000000\n      dup2\n      mstore\n      0x04\n      add\n      tag_30\n      swap1\n      tag_31\n      jump\t// in\n    tag_30:\n      mload(0x40)\n      dup1\n      swap2\n      sub\n      swap1\n      revert\n    tag_29:\n        /* \"contracts/smartContractWallet.sol\":525:530  owner */\n      0x00\n      0x00\n      swap1\n      sload\n      swap1\n      0x0100\n      exp\n      swap1\n      div\n      0xffffffffffffffffffffffffffffffffffffffff\n      and\n        /* \"contracts/smartContractWallet.sol\":511:530  msg.sender != owner */\n      0xffffffffffffffffffffffffffffffffffffffff\n      and\n        /* \"contracts/smartContractWallet.sol\":511:521  msg.sender */\n      caller\n        /* \"contracts/smartContractWallet.sol\":511:530  msg.sender != owner */\n      0xffffffffffffffffffffffffffffffffffffffff\n      and\n      eq\n        /* \"contracts/smartContractWallet.sol\":508:771  if(msg.sender != owner) {... */\n      tag_32\n      jumpi\n        /* \"contracts/smartContractWallet.sol\":577:584  _amount */\n      dup3\n        /* \"contracts/smartContractWallet.sol\":554:563  allowance */\n      0x01\n        /* \"contracts/smartContractWallet.sol\":554:575  allowance[msg.sender] */\n      0x00\n        /* \"contracts/smartContractWallet.sol\":564:574  msg.sender */\n      caller\n        /* \"contracts/smartContractWallet.sol\":554:575  allowance[msg.sender] */\n      0xffffffffffffffffffffffffffffffffffffffff\n      and\n      0xffffffffffffffffffffffffffffffffffffffff\n      and\n      dup2\n      mstore\n      0x20\n      add\n      swap1\n      dup2\n      mstore\n      0x20\n      add\n      0x00\n      keccak256\n      sload\n        /* \"contracts/smartContractWallet.sol\":554:584  allowance[msg.sender]>=_amount */\n      lt\n      iszero\n        /* \"contracts/smartContractWallet.sol\":546:647  require(allowance[msg.sender]>=_amount, \"You are trying to send more than you allowed to, aborting!\") */\n      tag_33\n      jumpi\n      mload(0x40)\n      0x08c379a000000000000000000000000000000000000000000000000000000000\n      dup2\n      mstore\n      0x04\n      add\n      tag_34\n      swap1\n      tag_35\n      jump\t// in\n    tag_34:\n      mload(0x40)\n      dup1\n      swap2\n      sub\n      swap1\n      revert\n    tag_33:\n        /* \"contracts/smartContractWallet.sol\":669:684  isAllowedToSend */\n      0x02\n        /* \"contracts/smartContractWallet.sol\":669:696  isAllowedToSend[msg.sender] */\n      0x00\n        /* \"contracts/smartContractWallet.sol\":685:695  msg.sender */\n      caller\n        /* \"contracts/smartContractWallet.sol\":669:696  isAllowedToSend[msg.sender] */\n      0xffffffffffffffffffffffffffffffffffffffff\n      and\n      0xffffffffffffffffffffffffffffffffffffffff\n      and\n      dup2\n      mstore\n      0x20\n      add\n      swap1\n      dup2\n      mstore\n      0x20\n      add\n      0x00\n      keccak256\n      0x00\n      swap1\n      sload\n      swap1\n      0x0100\n      exp\n      swap1\n      div\n      0xff\n      and\n        /* \"contracts/smartContractWallet.sol\":661:760  require(isAllowedToSend[msg.sender], \"You are not allowed to send anything from this sm aborting!\") */\n      tag_36\n      jumpi\n      mload(0x40)\n      0x08c379a000000000000000000000000000000000000000000000000000000000\n      dup2\n      mstore\n      0x04\n      add\n      tag_37\n      swap1\n      tag_38\n      jump\t// in\n    tag_37:\n      mload(0x40)\n      dup1\n      swap2\n      sub\n      swap1\n      revert\n    tag_36:\n        /* \"contracts/smartContractWallet.sol\":508:771  if(msg.sender != owner) {... */\n    tag_32:\n        /* \"contracts/smartContractWallet.sol\":782:794  bool success */\n      0x00\n        /* \"contracts/smartContractWallet.sol\":796:819  bytes memory returnData */\n      0x00\n        /* \"contracts/smartContractWallet.sol\":823:826  _to */\n      dup6\n        /* \"contracts/smartContractWallet.sol\":823:831  _to.call */\n      0xffffffffffffffffffffffffffffffffffffffff\n      and\n        /* \"contracts/smartContractWallet.sol\":839:846  _amount */\n      dup6\n        /* \"contracts/smartContractWallet.sol\":861:869  _payload */\n      dup6\n        /* \"contracts/smartContractWallet.sol\":823:879  _to.call{value: _amount}(... */\n      mload(0x40)\n      tag_39\n      swap2\n      swap1\n      tag_40\n      jump\t// in\n    tag_39:\n      0x00\n      mload(0x40)\n      dup1\n      dup4\n      sub\n      dup2\n      dup6\n      dup8\n      gas\n      call\n      swap3\n      pop\n      pop\n      pop\n      returndatasize\n      dup1\n      0x00\n      dup2\n      eq\n      tag_43\n      jumpi\n      mload(0x40)\n      swap2\n      pop\n      and(add(returndatasize, 0x3f), not(0x1f))\n      dup3\n      add\n      0x40\n      mstore\n      returndatasize\n      dup3\n      mstore\n      returndatasize\n      0x00\n      0x20\n      dup5\n      add\n      returndatacopy\n      jump(tag_42)\n    tag_43:\n      0x60\n      swap2\n      pop\n    tag_42:\n      pop\n        /* \"contracts/smartContractWallet.sol\":781:879  (bool success, bytes memory returnData) = _to.call{value: _amount}(... */\n      swap2\n      pop\n      swap2\n      pop\n        /* \"contracts/smartContractWallet.sol\":897:904  success */\n      dup2\n        /* \"contracts/smartContractWallet.sol\":889:942  require(success, \"Aborting, call was not successful\") */\n      tag_44\n      jumpi\n      mload(0x40)\n      0x08c379a000000000000000000000000000000000000000000000000000000000\n      dup2\n      mstore\n      0x04\n      add\n      tag_45\n      swap1\n      tag_46\n      jump\t// in\n    tag_45:\n      mload(0x40)\n      dup1\n      swap2\n      sub\n      swap1\n      revert\n    tag_44:\n        /* \"contracts/smartContractWallet.sol\":959:969  returnData */\n      dup1\n        /* \"contracts/smartContractWallet.sol\":952:969  return returnData */\n      swap3\n      pop\n      pop\n      pop\n        /* \"contracts/smartContractWallet.sol\":285:976  function transfer(... */\n      swap4\n      swap3\n      pop\n      pop\n      pop\n      jump\t// out\n        /* \"#utility.yul\":7:82   */\n    tag_47:\n        /* \"#utility.yul\":40:46   */\n      0x00\n        /* \"#utility.yul\":73:75   */\n      0x40\n        /* \"#utility.yul\":67:76   */\n      mload\n        /* \"#utility.yul\":57:76   */\n      swap1\n      pop\n        /* \"#utility.yul\":7:82   */\n      swap1\n      jump\t// out\n        /* \"#utility.yul\":88:205   */\n    tag_48:\n        /* \"#utility.yul\":197:198   */\n      0x00\n        /* \"#utility.yul\":194:195   */\n      0x00\n        /* \"#utility.yul\":187:199   */\n      revert\n        /* \"#utility.yul\":211:328   */\n    tag_49:\n        /* \"#utility.yul\":320:321   */\n      0x00\n        /* \"#utility.yul\":317:318   */\n      0x00\n        /* \"#utility.yul\":310:322   */\n      revert\n        /* \"#utility.yul\":334:460   */\n    tag_50:\n        /* \"#utility.yul\":371:378   */\n      0x00\n        /* \"#utility.yul\":411:453   */\n      0xffffffffffffffffffffffffffffffffffffffff\n        /* \"#utility.yul\":404:409   */\n      dup3\n        /* \"#utility.yul\":400:454   */\n      and\n        /* \"#utility.yul\":389:454   */\n      swap1\n      pop\n        /* \"#utility.yul\":334:460   */\n      swap2\n      swap1\n      pop\n      jump\t// out\n        /* \"#utility.yul\":466:562   */\n    tag_51:\n        /* \"#utility.yul\":503:510   */\n      0x00\n        /* \"#utility.yul\":532:556   */\n      tag_94\n        /* \"#utility.yul\":550:555   */\n      dup3\n        /* \"#utility.yul\":532:556   */\n      tag_50\n      jump\t// in\n    tag_94:\n        /* \"#utility.yul\":521:556   */\n      swap1\n      pop\n        /* \"#utility.yul\":466:562   */\n      swap2\n      swap1\n      pop\n      jump\t// out\n        /* \"#utility.yul\":568:690   */\n    tag_52:\n        /* \"#utility.yul\":641:665   */\n      tag_96\n        /* \"#utility.yul\":659:664   */\n      dup2\n        /* \"#utility.yul\":641:665   */\n      tag_51\n      jump\t// in\n    tag_96:\n        /* \"#utility.yul\":634:639   */\n      dup2\n        /* \"#utility.yul\":631:666   */\n      eq\n        /* \"#utility.yul\":621:684   */\n      tag_97\n      jumpi\n        /* \"#utility.yul\":680:681   */\n      0x00\n        /* \"#utility.yul\":677:678   */\n      0x00\n        /* \"#utility.yul\":670:682   */\n      revert\n        /* \"#utility.yul\":621:684   */\n    tag_97:\n        /* \"#utility.yul\":568:690   */\n      pop\n      jump\t// out\n        /* \"#utility.yul\":696:835   */\n    tag_53:\n        /* \"#utility.yul\":742:747   */\n      0x00\n        /* \"#utility.yul\":780:786   */\n      dup2\n        /* \"#utility.yul\":767:787   */\n      calldataload\n        /* \"#utility.yul\":758:787   */\n      swap1\n      pop\n        /* \"#utility.yul\":796:829   */\n      tag_99\n        /* \"#utility.yul\":823:828   */\n      dup2\n        /* \"#utility.yul\":796:829   */\n      tag_52\n      jump\t// in\n    tag_99:\n        /* \"#utility.yul\":696:835   */\n      swap3\n      swap2\n      pop\n      pop\n      jump\t// out\n        /* \"#utility.yul\":841:1170   */\n    tag_11:\n        /* \"#utility.yul\":900:906   */\n      0x00\n        /* \"#utility.yul\":949:951   */\n      0x20\n        /* \"#utility.yul\":937:946   */\n      dup3\n        /* \"#utility.yul\":928:935   */\n      dup5\n        /* \"#utility.yul\":924:947   */\n      sub\n        /* \"#utility.yul\":920:952   */\n      slt\n        /* \"#utility.yul\":917:1036   */\n      iszero\n      tag_101\n      jumpi\n        /* \"#utility.yul\":955:1034   */\n      tag_102\n      tag_48\n      jump\t// in\n    tag_102:\n        /* \"#utility.yul\":917:1036   */\n    tag_101:\n        /* \"#utility.yul\":1075:1076   */\n      0x00\n        /* \"#utility.yul\":1100:1153   */\n      tag_103\n        /* \"#utility.yul\":1145:1152   */\n      dup5\n        /* \"#utility.yul\":1136:1142   */\n      dup3\n        /* \"#utility.yul\":1125:1134   */\n      dup6\n        /* \"#utility.yul\":1121:1143   */\n      add\n        /* \"#utility.yul\":1100:1153   */\n      tag_53\n      jump\t// in\n    tag_103:\n        /* \"#utility.yul\":1090:1153   */\n      swap2\n      pop\n        /* \"#utility.yul\":1046:1163   */\n      pop\n        /* \"#utility.yul\":841:1170   */\n      swap3\n      swap2\n      pop\n      pop\n      jump\t// out\n        /* \"#utility.yul\":1176:1266   */\n    tag_54:\n        /* \"#utility.yul\":1210:1217   */\n      0x00\n        /* \"#utility.yul\":1253:1258   */\n      dup2\n        /* \"#utility.yul\":1246:1259   */\n      iszero\n        /* \"#utility.yul\":1239:1260   */\n      iszero\n        /* \"#utility.yul\":1228:1260   */\n      swap1\n      pop\n        /* \"#utility.yul\":1176:1266   */\n      swap2\n      swap1\n      pop\n      jump\t// out\n        /* \"#utility.yul\":1272:1381   */\n    tag_55:\n        /* \"#utility.yul\":1353:1374   */\n      tag_106\n        /* \"#utility.yul\":1368:1373   */\n      dup2\n        /* \"#utility.yul\":1353:1374   */\n      tag_54\n      jump\t// in\n    tag_106:\n        /* \"#utility.yul\":1348:1351   */\n      dup3\n        /* \"#utility.yul\":1341:1375   */\n      mstore\n        /* \"#utility.yul\":1272:1381   */\n      pop\n      pop\n      jump\t// out\n        /* \"#utility.yul\":1387:1597   */\n    tag_14:\n        /* \"#utility.yul\":1474:1478   */\n      0x00\n        /* \"#utility.yul\":1512:1514   */\n      0x20\n        /* \"#utility.yul\":1501:1510   */\n      dup3\n        /* \"#utility.yul\":1497:1515   */\n      add\n        /* \"#utility.yul\":1489:1515   */\n      swap1\n      pop\n        /* \"#utility.yul\":1525:1590   */\n      tag_108\n        /* \"#utility.yul\":1587:1588   */\n      0x00\n        /* \"#utility.yul\":1576:1585   */\n      dup4\n        /* \"#utility.yul\":1572:1589   */\n      add\n        /* \"#utility.yul\":1563:1569   */\n      dup5\n        /* \"#utility.yul\":1525:1590   */\n      tag_55\n      jump\t// in\n    tag_108:\n        /* \"#utility.yul\":1387:1597   */\n      swap3\n      swap2\n      pop\n      pop\n      jump\t// out\n        /* \"#utility.yul\":1603:1680   */\n    tag_56:\n        /* \"#utility.yul\":1640:1647   */\n      0x00\n        /* \"#utility.yul\":1669:1674   */\n      dup2\n        /* \"#utility.yul\":1658:1674   */\n      swap1\n      pop\n        /* \"#utility.yul\":1603:1680   */\n      swap2\n      swap1\n      pop\n      jump\t// out\n        /* \"#utility.yul\":1686:1804   */\n    tag_57:\n        /* \"#utility.yul\":1773:1797   */\n      tag_111\n        /* \"#utility.yul\":1791:1796   */\n      dup2\n        /* \"#utility.yul\":1773:1797   */\n      tag_56\n      jump\t// in\n    tag_111:\n        /* \"#utility.yul\":1768:1771   */\n      dup3\n        /* \"#utility.yul\":1761:1798   */\n      mstore\n        /* \"#utility.yul\":1686:1804   */\n      pop\n      pop\n      jump\t// out\n        /* \"#utility.yul\":1810:2032   */\n    tag_20:\n        /* \"#utility.yul\":1903:1907   */\n      0x00\n        /* \"#utility.yul\":1941:1943   */\n      0x20\n        /* \"#utility.yul\":1930:1939   */\n      dup3\n        /* \"#utility.yul\":1926:1944   */\n      add\n        /* \"#utility.yul\":1918:1944   */\n      swap1\n      pop\n        /* \"#utility.yul\":1954:2025   */\n      tag_113\n        /* \"#utility.yul\":2022:2023   */\n      0x00\n        /* \"#utility.yul\":2011:2020   */\n      dup4\n        /* \"#utility.yul\":2007:2024   */\n      add\n        /* \"#utility.yul\":1998:2004   */\n      dup5\n        /* \"#utility.yul\":1954:2025   */\n      tag_57\n      jump\t// in\n    tag_113:\n        /* \"#utility.yul\":1810:2032   */\n      swap3\n      swap2\n      pop\n      pop\n      jump\t// out\n        /* \"#utility.yul\":2038:2142   */\n    tag_58:\n        /* \"#utility.yul\":2083:2090   */\n      0x00\n        /* \"#utility.yul\":2112:2136   */\n      tag_115\n        /* \"#utility.yul\":2130:2135   */\n      dup3\n        /* \"#utility.yul\":2112:2136   */\n      tag_50\n      jump\t// in\n    tag_115:\n        /* \"#utility.yul\":2101:2136   */\n      swap1\n      pop\n        /* \"#utility.yul\":2038:2142   */\n      swap2\n      swap1\n      pop\n      jump\t// out\n        /* \"#utility.yul\":2148:2286   */\n    tag_59:\n        /* \"#utility.yul\":2229:2261   */\n      tag_117\n        /* \"#utility.yul\":2255:2260   */\n      dup2\n        /* \"#utility.yul\":2229:2261   */\n      tag_58\n      jump\t// in\n    tag_117:\n        /* \"#utility.yul\":2222:2227   */\n      dup2\n        /* \"#utility.yul\":2219:2262   */\n      eq\n        /* \"#utility.yul\":2209:2280   */\n      tag_118\n      jumpi\n        /* \"#utility.yul\":2276:2277   */\n      0x00\n        /* \"#utility.yul\":2273:2274   */\n      0x00\n        /* \"#utility.yul\":2266:2278   */\n      revert\n        /* \"#utility.yul\":2209:2280   */\n    tag_118:\n        /* \"#utility.yul\":2148:2286   */\n      pop\n      jump\t// out\n        /* \"#utility.yul\":2292:2447   */\n    tag_60:\n        /* \"#utility.yul\":2346:2351   */\n      0x00\n        /* \"#utility.yul\":2384:2390   */\n      dup2\n        /* \"#utility.yul\":2371:2391   */\n      calldataload\n        /* \"#utility.yul\":2362:2391   */\n      swap1\n      pop\n        /* \"#utility.yul\":2400:2441   */\n      tag_120\n        /* \"#utility.yul\":2435:2440   */\n      dup2\n        /* \"#utility.yul\":2400:2441   */\n      tag_59\n      jump\t// in\n    tag_120:\n        /* \"#utility.yul\":2292:2447   */\n      swap3\n      swap2\n      pop\n      pop\n      jump\t// out\n        /* \"#utility.yul\":2453:2575   */\n    tag_61:\n        /* \"#utility.yul\":2526:2550   */\n      tag_122\n        /* \"#utility.yul\":2544:2549   */\n      dup2\n        /* \"#utility.yul\":2526:2550   */\n      tag_56\n      jump\t// in\n    tag_122:\n        /* \"#utility.yul\":2519:2524   */\n      dup2\n        /* \"#utility.yul\":2516:2551   */\n      eq\n        /* \"#utility.yul\":2506:2569   */\n      tag_123\n      jumpi\n        /* \"#utility.yul\":2565:2566   */\n      0x00\n        /* \"#utility.yul\":2562:2563   */\n      0x00\n        /* \"#utility.yul\":2555:2567   */\n      revert\n        /* \"#utility.yul\":2506:2569   */\n    tag_123:\n        /* \"#utility.yul\":2453:2575   */\n      pop\n      jump\t// out\n        /* \"#utility.yul\":2581:2720   */\n    tag_62:\n        /* \"#utility.yul\":2627:2632   */\n      0x00\n        /* \"#utility.yul\":2665:2671   */\n      dup2\n        /* \"#utility.yul\":2652:2672   */\n      calldataload\n        /* \"#utility.yul\":2643:2672   */\n      swap1\n      pop\n        /* \"#utility.yul\":2681:2714   */\n      tag_125\n        /* \"#utility.yul\":2708:2713   */\n      dup2\n        /* \"#utility.yul\":2681:2714   */\n      tag_61\n      jump\t// in\n    tag_125:\n        /* \"#utility.yul\":2581:2720   */\n      swap3\n      swap2\n      pop\n      pop\n      jump\t// out\n        /* \"#utility.yul\":2726:2843   */\n    tag_63:\n        /* \"#utility.yul\":2835:2836   */\n      0x00\n        /* \"#utility.yul\":2832:2833   */\n      0x00\n        /* \"#utility.yul\":2825:2837   */\n      revert\n        /* \"#utility.yul\":2849:2966   */\n    tag_64:\n        /* \"#utility.yul\":2958:2959   */\n      0x00\n        /* \"#utility.yul\":2955:2956   */\n      0x00\n        /* \"#utility.yul\":2948:2960   */\n      revert\n        /* \"#utility.yul\":2972:3074   */\n    tag_65:\n        /* \"#utility.yul\":3013:3019   */\n      0x00\n        /* \"#utility.yul\":3064:3066   */\n      0x1f\n        /* \"#utility.yul\":3060:3067   */\n      not\n        /* \"#utility.yul\":3055:3057   */\n      0x1f\n        /* \"#utility.yul\":3048:3053   */\n      dup4\n        /* \"#utility.yul\":3044:3058   */\n      add\n        /* \"#utility.yul\":3040:3068   */\n      and\n        /* \"#utility.yul\":3030:3068   */\n      swap1\n      pop\n        /* \"#utility.yul\":2972:3074   */\n      swap2\n      swap1\n      pop\n      jump\t// out\n        /* \"#utility.yul\":3080:3260   */\n    tag_66:\n        /* \"#utility.yul\":3128:3205   */\n      0x4e487b7100000000000000000000000000000000000000000000000000000000\n        /* \"#utility.yul\":3125:3126   */\n      0x00\n        /* \"#utility.yul\":3118:3206   */\n      mstore\n        /* \"#utility.yul\":3225:3229   */\n      0x41\n        /* \"#utility.yul\":3222:3223   */\n      0x04\n        /* \"#utility.yul\":3215:3230   */\n      mstore\n        /* \"#utility.yul\":3249:3253   */\n      0x24\n        /* \"#utility.yul\":3246:3247   */\n      0x00\n        /* \"#utility.yul\":3239:3254   */\n      revert\n        /* \"#utility.yul\":3266:3547   */\n    tag_67:\n        /* \"#utility.yul\":3349:3376   */\n      tag_131\n        /* \"#utility.yul\":3371:3375   */\n      dup3\n        /* \"#utility.yul\":3349:3376   */\n      tag_65\n      jump\t// in\n    tag_131:\n        /* \"#utility.yul\":3341:3347   */\n      dup2\n        /* \"#utility.yul\":3337:3377   */\n      add\n        /* \"#utility.yul\":3479:3485   */\n      dup2\n        /* \"#utility.yul\":3467:3477   */\n      dup2\n        /* \"#utility.yul\":3464:3486   */\n      lt\n        /* \"#utility.yul\":3443:3461   */\n      0xffffffffffffffff\n        /* \"#utility.yul\":3431:3441   */\n      dup3\n        /* \"#utility.yul\":3428:3462   */\n      gt\n        /* \"#utility.yul\":3425:3487   */\n      or\n        /* \"#utility.yul\":3422:3510   */\n      iszero\n      tag_132\n      jumpi\n        /* \"#utility.yul\":3490:3508   */\n      tag_133\n      tag_66\n      jump\t// in\n    tag_133:\n        /* \"#utility.yul\":3422:3510   */\n    tag_132:\n        /* \"#utility.yul\":3530:3540   */\n      dup1\n        /* \"#utility.yul\":3526:3528   */\n      0x40\n        /* \"#utility.yul\":3519:3541   */\n      mstore\n        /* \"#utility.yul\":3309:3547   */\n      pop\n        /* \"#utility.yul\":3266:3547   */\n      pop\n      pop\n      jump\t// out\n        /* \"#utility.yul\":3553:3682   */\n    tag_68:\n        /* \"#utility.yul\":3587:3593   */\n      0x00\n        /* \"#utility.yul\":3614:3634   */\n      tag_135\n      tag_47\n      jump\t// in\n    tag_135:\n        /* \"#utility.yul\":3604:3634   */\n      swap1\n      pop\n        /* \"#utility.yul\":3643:3676   */\n      tag_136\n        /* \"#utility.yul\":3671:3675   */\n      dup3\n        /* \"#utility.yul\":3663:3669   */\n      dup3\n        /* \"#utility.yul\":3643:3676   */\n      tag_67\n      jump\t// in\n    tag_136:\n        /* \"#utility.yul\":3553:3682   */\n      swap2\n      swap1\n      pop\n      jump\t// out\n        /* \"#utility.yul\":3688:3995   */\n    tag_69:\n        /* \"#utility.yul\":3749:3753   */\n      0x00\n        /* \"#utility.yul\":3839:3857   */\n      0xffffffffffffffff\n        /* \"#utility.yul\":3831:3837   */\n      dup3\n        /* \"#utility.yul\":3828:3858   */\n      gt\n        /* \"#utility.yul\":3825:3881   */\n      iszero\n      tag_138\n      jumpi\n        /* \"#utility.yul\":3861:3879   */\n      tag_139\n      tag_66\n      jump\t// in\n    tag_139:\n        /* \"#utility.yul\":3825:3881   */\n    tag_138:\n        /* \"#utility.yul\":3899:3928   */\n      tag_140\n        /* \"#utility.yul\":3921:3927   */\n      dup3\n        /* \"#utility.yul\":3899:3928   */\n      tag_65\n      jump\t// in\n    tag_140:\n        /* \"#utility.yul\":3891:3928   */\n      swap1\n      pop\n        /* \"#utility.yul\":3983:3987   */\n      0x20\n        /* \"#utility.yul\":3977:3981   */\n      dup2\n        /* \"#utility.yul\":3973:3988   */\n      add\n        /* \"#utility.yul\":3965:3988   */\n      swap1\n      pop\n        /* \"#utility.yul\":3688:3995   */\n      swap2\n      swap1\n      pop\n      jump\t// out\n        /* \"#utility.yul\":4001:4149   */\n    tag_70:\n        /* \"#utility.yul\":4099:4105   */\n      dup3\n        /* \"#utility.yul\":4094:4097   */\n      dup2\n        /* \"#utility.yul\":4089:4092   */\n      dup4\n        /* \"#utility.yul\":4076:4106   */\n      calldatacopy\n        /* \"#utility.yul\":4140:4141   */\n      0x00\n        /* \"#utility.yul\":4131:4137   */\n      dup4\n        /* \"#utility.yul\":4126:4129   */\n      dup4\n        /* \"#utility.yul\":4122:4138   */\n      add\n        /* \"#utility.yul\":4115:4142   */\n      mstore\n        /* \"#utility.yul\":4001:4149   */\n      pop\n      pop\n      pop\n      jump\t// out\n        /* \"#utility.yul\":4155:4578   */\n    tag_71:\n        /* \"#utility.yul\":4232:4237   */\n      0x00\n        /* \"#utility.yul\":4257:4322   */\n      tag_143\n        /* \"#utility.yul\":4273:4321   */\n      tag_144\n        /* \"#utility.yul\":4314:4320   */\n      dup5\n        /* \"#utility.yul\":4273:4321   */\n      tag_69\n      jump\t// in\n    tag_144:\n        /* \"#utility.yul\":4257:4322   */\n      tag_68\n      jump\t// in\n    tag_143:\n        /* \"#utility.yul\":4248:4322   */\n      swap1\n      pop\n        /* \"#utility.yul\":4345:4351   */\n      dup3\n        /* \"#utility.yul\":4338:4343   */\n      dup2\n        /* \"#utility.yul\":4331:4352   */\n      mstore\n        /* \"#utility.yul\":4383:4387   */\n      0x20\n        /* \"#utility.yul\":4376:4381   */\n      dup2\n        /* \"#utility.yul\":4372:4388   */\n      add\n        /* \"#utility.yul\":4421:4424   */\n      dup5\n        /* \"#utility.yul\":4412:4418   */\n      dup5\n        /* \"#utility.yul\":4407:4410   */\n      dup5\n        /* \"#utility.yul\":4403:4419   */\n      add\n        /* \"#utility.yul\":4400:4425   */\n      gt\n        /* \"#utility.yul\":4397:4509   */\n      iszero\n      tag_145\n      jumpi\n        /* \"#utility.yul\":4428:4507   */\n      tag_146\n      tag_64\n      jump\t// in\n    tag_146:\n        /* \"#utility.yul\":4397:4509   */\n    tag_145:\n        /* \"#utility.yul\":4518:4572   */\n      tag_147\n        /* \"#utility.yul\":4565:4571   */\n      dup5\n        /* \"#utility.yul\":4560:4563   */\n      dup3\n        /* \"#utility.yul\":4555:4558   */\n      dup6\n        /* \"#utility.yul\":4518:4572   */\n      tag_70\n      jump\t// in\n    tag_147:\n        /* \"#utility.yul\":4238:4578   */\n      pop\n        /* \"#utility.yul\":4155:4578   */\n      swap4\n      swap3\n      pop\n      pop\n      pop\n      jump\t// out\n        /* \"#utility.yul\":4597:4935   */\n    tag_72:\n        /* \"#utility.yul\":4652:4657   */\n      0x00\n        /* \"#utility.yul\":4701:4704   */\n      dup3\n        /* \"#utility.yul\":4694:4698   */\n      0x1f\n        /* \"#utility.yul\":4686:4692   */\n      dup4\n        /* \"#utility.yul\":4682:4699   */\n      add\n        /* \"#utility.yul\":4678:4705   */\n      slt\n        /* \"#utility.yul\":4668:4790   */\n      tag_149\n      jumpi\n        /* \"#utility.yul\":4709:4788   */\n      tag_150\n      tag_63\n      jump\t// in\n    tag_150:\n        /* \"#utility.yul\":4668:4790   */\n    tag_149:\n        /* \"#utility.yul\":4826:4832   */\n      dup2\n        /* \"#utility.yul\":4813:4833   */\n      calldataload\n        /* \"#utility.yul\":4851:4929   */\n      tag_151\n        /* \"#utility.yul\":4925:4928   */\n      dup5\n        /* \"#utility.yul\":4917:4923   */\n      dup3\n        /* \"#utility.yul\":4910:4914   */\n      0x20\n        /* \"#utility.yul\":4902:4908   */\n      dup7\n        /* \"#utility.yul\":4898:4915   */\n      add\n        /* \"#utility.yul\":4851:4929   */\n      tag_71\n      jump\t// in\n    tag_151:\n        /* \"#utility.yul\":4842:4929   */\n      swap2\n      pop\n        /* \"#utility.yul\":4658:4935   */\n      pop\n        /* \"#utility.yul\":4597:4935   */\n      swap3\n      swap2\n      pop\n      pop\n      jump\t// out\n        /* \"#utility.yul\":4941:5754   */\n    tag_24:\n        /* \"#utility.yul\":5035:5041   */\n      0x00\n        /* \"#utility.yul\":5043:5049   */\n      0x00\n        /* \"#utility.yul\":5051:5057   */\n      0x00\n        /* \"#utility.yul\":5100:5102   */\n      0x60\n        /* \"#utility.yul\":5088:5097   */\n      dup5\n        /* \"#utility.yul\":5079:5086   */\n      dup7\n        /* \"#utility.yul\":5075:5098   */\n      sub\n        /* \"#utility.yul\":5071:5103   */\n      slt\n        /* \"#utility.yul\":5068:5187   */\n      iszero\n      tag_153\n      jumpi\n        /* \"#utility.yul\":5106:5185   */\n      tag_154\n      tag_48\n      jump\t// in\n    tag_154:\n        /* \"#utility.yul\":5068:5187   */\n    tag_153:\n        /* \"#utility.yul\":5226:5227   */\n      0x00\n        /* \"#utility.yul\":5251:5312   */\n      tag_155\n        /* \"#utility.yul\":5304:5311   */\n      dup7\n        /* \"#utility.yul\":5295:5301   */\n      dup3\n        /* \"#utility.yul\":5284:5293   */\n      dup8\n        /* \"#utility.yul\":5280:5302   */\n      add\n        /* \"#utility.yul\":5251:5312   */\n      tag_60\n      jump\t// in\n    tag_155:\n        /* \"#utility.yul\":5241:5312   */\n      swap4\n      pop\n        /* \"#utility.yul\":5197:5322   */\n      pop\n        /* \"#utility.yul\":5361:5363   */\n      0x20\n        /* \"#utility.yul\":5387:5440   */\n      tag_156\n        /* \"#utility.yul\":5432:5439   */\n      dup7\n        /* \"#utility.yul\":5423:5429   */\n      dup3\n        /* \"#utility.yul\":5412:5421   */\n      dup8\n        /* \"#utility.yul\":5408:5430   */\n      add\n        /* \"#utility.yul\":5387:5440   */\n      tag_62\n      jump\t// in\n    tag_156:\n        /* \"#utility.yul\":5377:5440   */\n      swap3\n      pop\n        /* \"#utility.yul\":5332:5450   */\n      pop\n        /* \"#utility.yul\":5517:5519   */\n      0x40\n        /* \"#utility.yul\":5506:5515   */\n      dup5\n        /* \"#utility.yul\":5502:5520   */\n      add\n        /* \"#utility.yul\":5489:5521   */\n      calldataload\n        /* \"#utility.yul\":5548:5566   */\n      0xffffffffffffffff\n        /* \"#utility.yul\":5540:5546   */\n      dup2\n        /* \"#utility.yul\":5537:5567   */\n      gt\n        /* \"#utility.yul\":5534:5651   */\n      iszero\n      tag_157\n      jumpi\n        /* \"#utility.yul\":5570:5649   */\n      tag_158\n      tag_49\n      jump\t// in\n    tag_158:\n        /* \"#utility.yul\":5534:5651   */\n    tag_157:\n        /* \"#utility.yul\":5675:5737   */\n      tag_159\n        /* \"#utility.yul\":5729:5736   */\n      dup7\n        /* \"#utility.yul\":5720:5726   */\n      dup3\n        /* \"#utility.yul\":5709:5718   */\n      dup8\n        /* \"#utility.yul\":5705:5727   */\n      add\n        /* \"#utility.yul\":5675:5737   */\n      tag_72\n      jump\t// in\n    tag_159:\n        /* \"#utility.yul\":5665:5737   */\n      swap2\n      pop\n        /* \"#utility.yul\":5460:5747   */\n      pop\n        /* \"#utility.yul\":4941:5754   */\n      swap3\n      pop\n      swap3\n      pop\n      swap3\n      jump\t// out\n        /* \"#utility.yul\":5760:5858   */\n    tag_73:\n        /* \"#utility.yul\":5811:5817   */\n      0x00\n        /* \"#utility.yul\":5845:5850   */\n      dup2\n        /* \"#utility.yul\":5839:5851   */\n      mload\n        /* \"#utility.yul\":5829:5851   */\n      swap1\n      pop\n        /* \"#utility.yul\":5760:5858   */\n      swap2\n      swap1\n      pop\n      jump\t// out\n        /* \"#utility.yul\":5864:6032   */\n    tag_74:\n        /* \"#utility.yul\":5947:5958   */\n      0x00\n        /* \"#utility.yul\":5981:5987   */\n      dup3\n        /* \"#utility.yul\":5976:5979   */\n      dup3\n        /* \"#utility.yul\":5969:5988   */\n      mstore\n        /* \"#utility.yul\":6021:6025   */\n      0x20\n        /* \"#utility.yul\":6016:6019   */\n      dup3\n        /* \"#utility.yul\":6012:6026   */\n      add\n        /* \"#utility.yul\":5997:6026   */\n      swap1\n      pop\n        /* \"#utility.yul\":5864:6032   */\n      swap3\n      swap2\n      pop\n      pop\n      jump\t// out\n        /* \"#utility.yul\":6038:6177   */\n    tag_75:\n        /* \"#utility.yul\":6127:6133   */\n      dup3\n        /* \"#utility.yul\":6122:6125   */\n      dup2\n        /* \"#utility.yul\":6117:6120   */\n      dup4\n        /* \"#utility.yul\":6111:6134   */\n      mcopy\n        /* \"#utility.yul\":6168:6169   */\n      0x00\n        /* \"#utility.yul\":6159:6165   */\n      dup4\n        /* \"#utility.yul\":6154:6157   */\n      dup4\n        /* \"#utility.yul\":6150:6166   */\n      add\n        /* \"#utility.yul\":6143:6170   */\n      mstore\n        /* \"#utility.yul\":6038:6177   */\n      pop\n      pop\n      pop\n      jump\t// out\n        /* \"#utility.yul\":6183:6556   */\n    tag_76:\n        /* \"#utility.yul\":6269:6272   */\n      0x00\n        /* \"#utility.yul\":6297:6335   */\n      tag_164\n        /* \"#utility.yul\":6329:6334   */\n      dup3\n        /* \"#utility.yul\":6297:6335   */\n      tag_73\n      jump\t// in\n    tag_164:\n        /* \"#utility.yul\":6351:6421   */\n      tag_165\n        /* \"#utility.yul\":6414:6420   */\n      dup2\n        /* \"#utility.yul\":6409:6412   */\n      dup6\n        /* \"#utility.yul\":6351:6421   */\n      tag_74\n      jump\t// in\n    tag_165:\n        /* \"#utility.yul\":6344:6421   */\n      swap4\n      pop\n        /* \"#utility.yul\":6430:6495   */\n      tag_166\n        /* \"#utility.yul\":6488:6494   */\n      dup2\n        /* \"#utility.yul\":6483:6486   */\n      dup6\n        /* \"#utility.yul\":6476:6480   */\n      0x20\n        /* \"#utility.yul\":6469:6474   */\n      dup7\n        /* \"#utility.yul\":6465:6481   */\n      add\n        /* \"#utility.yul\":6430:6495   */\n      tag_75\n      jump\t// in\n    tag_166:\n        /* \"#utility.yul\":6520:6549   */\n      tag_167\n        /* \"#utility.yul\":6542:6548   */\n      dup2\n        /* \"#utility.yul\":6520:6549   */\n      tag_65\n      jump\t// in\n    tag_167:\n        /* \"#utility.yul\":6515:6518   */\n      dup5\n        /* \"#utility.yul\":6511:6550   */\n      add\n        /* \"#utility.yul\":6504:6550   */\n      swap2\n      pop\n        /* \"#utility.yul\":6273:6556   */\n      pop\n        /* \"#utility.yul\":6183:6556   */\n      swap3\n      swap2\n      pop\n      pop\n      jump\t// out\n        /* \"#utility.yul\":6562:6871   */\n    tag_27:\n        /* \"#utility.yul\":6673:6677   */\n      0x00\n        /* \"#utility.yul\":6711:6713   */\n      0x20\n        /* \"#utility.yul\":6700:6709   */\n      dup3\n        /* \"#utility.yul\":6696:6714   */\n      add\n        /* \"#utility.yul\":6688:6714   */\n      swap1\n      pop\n        /* \"#utility.yul\":6760:6769   */\n      dup2\n        /* \"#utility.yul\":6754:6758   */\n      dup2\n        /* \"#utility.yul\":6750:6770   */\n      sub\n        /* \"#utility.yul\":6746:6747   */\n      0x00\n        /* \"#utility.yul\":6735:6744   */\n      dup4\n        /* \"#utility.yul\":6731:6748   */\n      add\n        /* \"#utility.yul\":6724:6771   */\n      mstore\n        /* \"#utility.yul\":6788:6864   */\n      tag_169\n        /* \"#utility.yul\":6859:6863   */\n      dup2\n        /* \"#utility.yul\":6850:6856   */\n      dup5\n        /* \"#utility.yul\":6788:6864   */\n      tag_76\n      jump\t// in\n    tag_169:\n        /* \"#utility.yul\":6780:6864   */\n      swap1\n      pop\n        /* \"#utility.yul\":6562:6871   */\n      swap3\n      swap2\n      pop\n      pop\n      jump\t// out\n        /* \"#utility.yul\":6877:7046   */\n    tag_77:\n        /* \"#utility.yul\":6961:6972   */\n      0x00\n        /* \"#utility.yul\":6995:7001   */\n      dup3\n        /* \"#utility.yul\":6990:6993   */\n      dup3\n        /* \"#utility.yul\":6983:7002   */\n      mstore\n        /* \"#utility.yul\":7035:7039   */\n      0x20\n        /* \"#utility.yul\":7030:7033   */\n      dup3\n        /* \"#utility.yul\":7026:7040   */\n      add\n        /* \"#utility.yul\":7011:7040   */\n      swap1\n      pop\n        /* \"#utility.yul\":6877:7046   */\n      swap3\n      swap2\n      pop\n      pop\n      jump\t// out\n        /* \"#utility.yul\":7052:7234   */\n    tag_78:\n        /* \"#utility.yul\":7192:7226   */\n      0x796f7520617265206e6f7420746865206f776e65722c2061626f7274696e6721\n        /* \"#utility.yul\":7188:7189   */\n      0x00\n        /* \"#utility.yul\":7180:7186   */\n      dup3\n        /* \"#utility.yul\":7176:7190   */\n      add\n        /* \"#utility.yul\":7169:7227   */\n      mstore\n        /* \"#utility.yul\":7052:7234   */\n      pop\n      jump\t// out\n        /* \"#utility.yul\":7240:7606   */\n    tag_79:\n        /* \"#utility.yul\":7382:7385   */\n      0x00\n        /* \"#utility.yul\":7403:7470   */\n      tag_173\n        /* \"#utility.yul\":7467:7469   */\n      0x20\n        /* \"#utility.yul\":7462:7465   */\n      dup4\n        /* \"#utility.yul\":7403:7470   */\n      tag_77\n      jump\t// in\n    tag_173:\n        /* \"#utility.yul\":7396:7470   */\n      swap2\n      pop\n        /* \"#utility.yul\":7479:7572   */\n      tag_174\n        /* \"#utility.yul\":7568:7571   */\n      dup3\n        /* \"#utility.yul\":7479:7572   */\n      tag_78\n      jump\t// in\n    tag_174:\n        /* \"#utility.yul\":7597:7599   */\n      0x20\n        /* \"#utility.yul\":7592:7595   */\n      dup3\n        /* \"#utility.yul\":7588:7600   */\n      add\n        /* \"#utility.yul\":7581:7600   */\n      swap1\n      pop\n        /* \"#utility.yul\":7240:7606   */\n      swap2\n      swap1\n      pop\n      jump\t// out\n        /* \"#utility.yul\":7612:8031   */\n    tag_31:\n        /* \"#utility.yul\":7778:7782   */\n      0x00\n        /* \"#utility.yul\":7816:7818   */\n      0x20\n        /* \"#utility.yul\":7805:7814   */\n      dup3\n        /* \"#utility.yul\":7801:7819   */\n      add\n        /* \"#utility.yul\":7793:7819   */\n      swap1\n      pop\n        /* \"#utility.yul\":7865:7874   */\n      dup2\n        /* \"#utility.yul\":7859:7863   */\n      dup2\n        /* \"#utility.yul\":7855:7875   */\n      sub\n        /* \"#utility.yul\":7851:7852   */\n      0x00\n        /* \"#utility.yul\":7840:7849   */\n      dup4\n        /* \"#utility.yul\":7836:7853   */\n      add\n        /* \"#utility.yul\":7829:7876   */\n      mstore\n        /* \"#utility.yul\":7893:8024   */\n      tag_176\n        /* \"#utility.yul\":8019:8023   */\n      dup2\n        /* \"#utility.yul\":7893:8024   */\n      tag_79\n      jump\t// in\n    tag_176:\n        /* \"#utility.yul\":7885:8024   */\n      swap1\n      pop\n        /* \"#utility.yul\":7612:8031   */\n      swap2\n      swap1\n      pop\n      jump\t// out\n        /* \"#utility.yul\":8037:8282   */\n    tag_80:\n        /* \"#utility.yul\":8177:8211   */\n      0x596f752061726520747279696e6720746f2073656e64206d6f7265207468616e\n        /* \"#utility.yul\":8173:8174   */\n      0x00\n        /* \"#utility.yul\":8165:8171   */\n      dup3\n        /* \"#utility.yul\":8161:8175   */\n      add\n        /* \"#utility.yul\":8154:8212   */\n      mstore\n        /* \"#utility.yul\":8246:8274   */\n      0x20796f7520616c6c6f77656420746f2c2061626f7274696e6721000000000000\n        /* \"#utility.yul\":8241:8243   */\n      0x20\n        /* \"#utility.yul\":8233:8239   */\n      dup3\n        /* \"#utility.yul\":8229:8244   */\n      add\n        /* \"#utility.yul\":8222:8275   */\n      mstore\n        /* \"#utility.yul\":8037:8282   */\n      pop\n      jump\t// out\n        /* \"#utility.yul\":8288:8654   */\n    tag_81:\n        /* \"#utility.yul\":8430:8433   */\n      0x00\n        /* \"#utility.yul\":8451:8518   */\n      tag_179\n        /* \"#utility.yul\":8515:8517   */\n      0x3a\n        /* \"#utility.yul\":8510:8513   */\n      dup4\n        /* \"#utility.yul\":8451:8518   */\n      tag_77\n      jump\t// in\n    tag_179:\n        /* \"#utility.yul\":8444:8518   */\n      swap2\n      pop\n        /* \"#utility.yul\":8527:8620   */\n      tag_180\n        /* \"#utility.yul\":8616:8619   */\n      dup3\n        /* \"#utility.yul\":8527:8620   */\n      tag_80\n      jump\t// in\n    tag_180:\n        /* \"#utility.yul\":8645:8647   */\n      0x40\n        /* \"#utility.yul\":8640:8643   */\n      dup3\n        /* \"#utility.yul\":8636:8648   */\n      add\n        /* \"#utility.yul\":8629:8648   */\n      swap1\n      pop\n        /* \"#utility.yul\":8288:8654   */\n      swap2\n      swap1\n      pop\n      jump\t// out\n        /* \"#utility.yul\":8660:9079   */\n    tag_35:\n        /* \"#utility.yul\":8826:8830   */\n      0x00\n        /* \"#utility.yul\":8864:8866   */\n      0x20\n        /* \"#utility.yul\":8853:8862   */\n      dup3\n        /* \"#utility.yul\":8849:8867   */\n      add\n        /* \"#utility.yul\":8841:8867   */\n      swap1\n      pop\n        /* \"#utility.yul\":8913:8922   */\n      dup2\n        /* \"#utility.yul\":8907:8911   */\n      dup2\n        /* \"#utility.yul\":8903:8923   */\n      sub\n        /* \"#utility.yul\":8899:8900   */\n      0x00\n        /* \"#utility.yul\":8888:8897   */\n      dup4\n        /* \"#utility.yul\":8884:8901   */\n      add\n        /* \"#utility.yul\":8877:8924   */\n      mstore\n        /* \"#utility.yul\":8941:9072   */\n      tag_182\n        /* \"#utility.yul\":9067:9071   */\n      dup2\n        /* \"#utility.yul\":8941:9072   */\n      tag_81\n      jump\t// in\n    tag_182:\n        /* \"#utility.yul\":8933:9072   */\n      swap1\n      pop\n        /* \"#utility.yul\":8660:9079   */\n      swap2\n      swap1\n      pop\n      jump\t// out\n        /* \"#utility.yul\":9085:9331   */\n    tag_82:\n        /* \"#utility.yul\":9225:9259   */\n      0x596f7520617265206e6f7420616c6c6f77656420746f2073656e6420616e7974\n        /* \"#utility.yul\":9221:9222   */\n      0x00\n        /* \"#utility.yul\":9213:9219   */\n      dup3\n        /* \"#utility.yul\":9209:9223   */\n      add\n        /* \"#utility.yul\":9202:9260   */\n      mstore\n        /* \"#utility.yul\":9294:9323   */\n      0x68696e672066726f6d207468697320736d2061626f7274696e67210000000000\n        /* \"#utility.yul\":9289:9291   */\n      0x20\n        /* \"#utility.yul\":9281:9287   */\n      dup3\n        /* \"#utility.yul\":9277:9292   */\n      add\n        /* \"#utility.yul\":9270:9324   */\n      mstore\n        /* \"#utility.yul\":9085:9331   */\n      pop\n      jump\t// out\n        /* \"#utility.yul\":9337:9703   */\n    tag_83:\n        /* \"#utility.yul\":9479:9482   */\n      0x00\n        /* \"#utility.yul\":9500:9567   */\n      tag_185\n        /* \"#utility.yul\":9564:9566   */\n      0x3b\n        /* \"#utility.yul\":9559:9562   */\n      dup4\n        /* \"#utility.yul\":9500:9567   */\n      tag_77\n      jump\t// in\n    tag_185:\n        /* \"#utility.yul\":9493:9567   */\n      swap2\n      pop\n        /* \"#utility.yul\":9576:9669   */\n      tag_186\n        /* \"#utility.yul\":9665:9668   */\n      dup3\n        /* \"#utility.yul\":9576:9669   */\n      tag_82\n      jump\t// in\n    tag_186:\n        /* \"#utility.yul\":9694:9696   */\n      0x40\n        /* \"#utility.yul\":9689:9692   */\n      dup3\n        /* \"#utility.yul\":9685:9697   */\n      add\n        /* \"#utility.yul\":9678:9697   */\n      swap1\n      pop\n        /* \"#utility.yul\":9337:9703   */\n      swap2\n      swap1\n      pop\n      jump\t// out\n        /* \"#utility.yul\":9709:10128   */\n    tag_38:\n        /* \"#utility.yul\":9875:9879   */\n      0x00\n        /* \"#utility.yul\":9913:9915   */\n      0x20\n        /* \"#utility.yul\":9902:9911   */\n      dup3\n        /* \"#utility.yul\":9898:9916   */\n      add\n        /* \"#utility.yul\":9890:9916   */\n      swap1\n      pop\n        /* \"#utility.yul\":9962:9971   */\n      dup2\n        /* \"#utility.yul\":9956:9960   */\n      dup2\n        /* \"#utility.yul\":9952:9972   */\n      sub\n        /* \"#utility.yul\":9948:9949   */\n      0x00\n        /* \"#utility.yul\":9937:9946   */\n      dup4\n        /* \"#utility.yul\":9933:9950   */\n      add\n        /* \"#utility.yul\":9926:9973   */\n      mstore\n        /* \"#utility.yul\":9990:10121   */\n      tag_188\n        /* \"#utility.yul\":10116:10120   */\n      dup2\n        /* \"#utility.yul\":9990:10121   */\n      tag_83\n      jump\t// in\n    tag_188:\n        /* \"#utility.yul\":9982:10121   */\n      swap1\n      pop\n        /* \"#utility.yul\":9709:10128   */\n      swap2\n      swap1\n      pop\n      jump\t// out\n        /* \"#utility.yul\":10134:10281   */\n    tag_84:\n        /* \"#utility.yul\":10235:10246   */\n      0x00\n        /* \"#utility.yul\":10272:10275   */\n      dup2\n        /* \"#utility.yul\":10257:10275   */\n      swap1\n      pop\n        /* \"#utility.yul\":10134:10281   */\n      swap3\n      swap2\n      pop\n      pop\n      jump\t// out\n        /* \"#utility.yul\":10287:10673   */\n    tag_85:\n        /* \"#utility.yul\":10391:10394   */\n      0x00\n        /* \"#utility.yul\":10419:10457   */\n      tag_191\n        /* \"#utility.yul\":10451:10456   */\n      dup3\n        /* \"#utility.yul\":10419:10457   */\n      tag_73\n      jump\t// in\n    tag_191:\n        /* \"#utility.yul\":10473:10561   */\n      tag_192\n        /* \"#utility.yul\":10554:10560   */\n      dup2\n        /* \"#utility.yul\":10549:10552   */\n      dup6\n        /* \"#utility.yul\":10473:10561   */\n      tag_84\n      jump\t// in\n    tag_192:\n        /* \"#utility.yul\":10466:10561   */\n      swap4\n      pop\n        /* \"#utility.yul\":10570:10635   */\n      tag_193\n        /* \"#utility.yul\":10628:10634   */\n      dup2\n        /* \"#utility.yul\":10623:10626   */\n      dup6\n        /* \"#utility.yul\":10616:10620   */\n      0x20\n        /* \"#utility.yul\":10609:10614   */\n      dup7\n        /* \"#utility.yul\":10605:10621   */\n      add\n        /* \"#utility.yul\":10570:10635   */\n      tag_75\n      jump\t// in\n    tag_193:\n        /* \"#utility.yul\":10660:10666   */\n      dup1\n        /* \"#utility.yul\":10655:10658   */\n      dup5\n        /* \"#utility.yul\":10651:10667   */\n      add\n        /* \"#utility.yul\":10644:10667   */\n      swap2\n      pop\n        /* \"#utility.yul\":10395:10673   */\n      pop\n        /* \"#utility.yul\":10287:10673   */\n      swap3\n      swap2\n      pop\n      pop\n      jump\t// out\n        /* \"#utility.yul\":10679:10950   */\n    tag_40:\n        /* \"#utility.yul\":10809:10812   */\n      0x00\n        /* \"#utility.yul\":10831:10924   */\n      tag_195\n        /* \"#utility.yul\":10920:10923   */\n      dup3\n        /* \"#utility.yul\":10911:10917   */\n      dup5\n        /* \"#utility.yul\":10831:10924   */\n      tag_85\n      jump\t// in\n    tag_195:\n        /* \"#utility.yul\":10824:10924   */\n      swap2\n      pop\n        /* \"#utility.yul\":10941:10944   */\n      dup2\n        /* \"#utility.yul\":10934:10944   */\n      swap1\n      pop\n        /* \"#utility.yul\":10679:10950   */\n      swap3\n      swap2\n      pop\n      pop\n      jump\t// out\n        /* \"#utility.yul\":10956:11176   */\n    tag_86:\n        /* \"#utility.yul\":11096:11130   */\n      0x41626f7274696e672c2063616c6c20776173206e6f7420737563636573736675\n        /* \"#utility.yul\":11092:11093   */\n      0x00\n        /* \"#utility.yul\":11084:11090   */\n      dup3\n        /* \"#utility.yul\":11080:11094   */\n      add\n        /* \"#utility.yul\":11073:11131   */\n      mstore\n        /* \"#utility.yul\":11165:11168   */\n      0x6c00000000000000000000000000000000000000000000000000000000000000\n        /* \"#utility.yul\":11160:11162   */\n      0x20\n        /* \"#utility.yul\":11152:11158   */\n      dup3\n        /* \"#utility.yul\":11148:11163   */\n      add\n        /* \"#utility.yul\":11141:11169   */\n      mstore\n        /* \"#utility.yul\":10956:11176   */\n      pop\n      jump\t// out\n        /* \"#utility.yul\":11182:11548   */\n    tag_87:\n        /* \"#utility.yul\":11324:11327   */\n      0x00\n        /* \"#utility.yul\":11345:11412   */\n      tag_198\n        /* \"#utility.yul\":11409:11411   */\n      0x21\n        /* \"#utility.yul\":11404:11407   */\n      dup4\n        /* \"#utility.yul\":11345:11412   */\n      tag_77\n      jump\t// in\n    tag_198:\n        /* \"#utility.yul\":11338:11412   */\n      swap2\n      pop\n        /* \"#utility.yul\":11421:11514   */\n      tag_199\n        /* \"#utility.yul\":11510:11513   */\n      dup3\n        /* \"#utility.yul\":11421:11514   */\n      tag_86\n      jump\t// in\n    tag_199:\n        /* \"#utility.yul\":11539:11541   */\n      0x40\n        /* \"#utility.yul\":11534:11537   */\n      dup3\n        /* \"#utility.yul\":11530:11542   */\n      add\n        /* \"#utility.yul\":11523:11542   */\n      swap1\n      pop\n        /* \"#utility.yul\":11182:11548   */\n      swap2\n      swap1\n      pop\n      jump\t// out\n        /* \"#utility.yul\":11554:11973   */\n    tag_46:\n        /* \"#utility.yul\":11720:11724   */\n      0x00\n        /* \"#utility.yul\":11758:11760   */\n      0x20\n        /* \"#utility.yul\":11747:11756   */\n      dup3\n        /* \"#utility.yul\":11743:11761   */\n      add\n        /* \"#utility.yul\":11735:11761   */\n      swap1\n      pop\n        /* \"#utility.yul\":11807:11816   */\n      dup2\n        /* \"#utility.yul\":11801:11805   */\n      dup2\n        /* \"#utility.yul\":11797:11817   */\n      sub\n        /* \"#utility.yul\":11793:11794   */\n      0x00\n        /* \"#utility.yul\":11782:11791   */\n      dup4\n        /* \"#utility.yul\":11778:11795   */\n      add\n        /* \"#utility.yul\":11771:11818   */\n      mstore\n        /* \"#utility.yul\":11835:11966   */\n      tag_201\n        /* \"#utility.yul\":11961:11965   */\n      dup2\n        /* \"#utility.yul\":11835:11966   */\n      tag_87\n      jump\t// in\n    tag_201:\n        /* \"#utility.yul\":11827:11966   */\n      swap1\n      pop\n        /* \"#utility.yul\":11554:11973   */\n      swap2\n      swap1\n      pop\n      jump\t// out\n\n    auxdata: 0xa2646970667358221220d7db9345d30f6814d76315f2522d628323a44c5d767ba0912e24bf023770410364736f6c634300081e0033\n}\n",
				"bytecode": {
					"linkReferences": {},
					"object": "6080604052348015600e575f5ffd5b50335f5f6101000a81548173ffffffffffffffffffffffffffffffffffffffff021916908373ffffffffffffffffffffffffffffffffffffffff1602179055506109fc8061005b5f395ff3fe608060405260043610610037575f3560e01c80630bc605ad146100425780633e5beab91461007e578063be45fd62146100ba5761003e565b3661003e57005b5f5ffd5b34801561004d575f5ffd5b5061006860048036038101906100639190610438565b6100f6565b604051610075919061047d565b60405180910390f35b348015610089575f5ffd5b506100a4600480360381019061009f9190610438565b610113565b6040516100b191906104ae565b60405180910390f35b3480156100c5575f5ffd5b506100e060048036038101906100db9190610668565b610128565b6040516100ed9190610734565b60405180910390f35b6002602052805f5260405f205f915054906101000a900460ff1681565b6001602052805f5260405f205f915090505481565b60605f5f9054906101000a900473ffffffffffffffffffffffffffffffffffffffff1673ffffffffffffffffffffffffffffffffffffffff163373ffffffffffffffffffffffffffffffffffffffff16146101b8576040517f08c379a00000000000000000000000000000000000000000000000000000000081526004016101af906107ae565b60405180910390fd5b5f5f9054906101000a900473ffffffffffffffffffffffffffffffffffffffff1673ffffffffffffffffffffffffffffffffffffffff163373ffffffffffffffffffffffffffffffffffffffff1614610315578260015f3373ffffffffffffffffffffffffffffffffffffffff1673ffffffffffffffffffffffffffffffffffffffff1681526020019081526020015f2054101561028b576040517f08c379a00000000000000000000000000000000000000000000000000000000081526004016102829061083c565b60405180910390fd5b60025f3373ffffffffffffffffffffffffffffffffffffffff1673ffffffffffffffffffffffffffffffffffffffff1681526020019081526020015f205f9054906101000a900460ff16610314576040517f08c379a000000000000000000000000000000000000000000000000000000000815260040161030b906108ca565b60405180910390fd5b5b5f5f8573ffffffffffffffffffffffffffffffffffffffff16858560405161033d9190610922565b5f6040518083038185875af1925050503d805f8114610377576040519150601f19603f3d011682016040523d82523d5f602084013e61037c565b606091505b5091509150816103c1576040517f08c379a00000000000000000000000000000000000000000000000000000000081526004016103b8906109a8565b60405180910390fd5b80925050509392505050565b5f604051905090565b5f5ffd5b5f5ffd5b5f73ffffffffffffffffffffffffffffffffffffffff82169050919050565b5f610407826103de565b9050919050565b610417816103fd565b8114610421575f5ffd5b50565b5f813590506104328161040e565b92915050565b5f6020828403121561044d5761044c6103d6565b5b5f61045a84828501610424565b91505092915050565b5f8115159050919050565b61047781610463565b82525050565b5f6020820190506104905f83018461046e565b92915050565b5f819050919050565b6104a881610496565b82525050565b5f6020820190506104c15f83018461049f565b92915050565b5f6104d1826103de565b9050919050565b6104e1816104c7565b81146104eb575f5ffd5b50565b5f813590506104fc816104d8565b92915050565b61050b81610496565b8114610515575f5ffd5b50565b5f8135905061052681610502565b92915050565b5f5ffd5b5f5ffd5b5f601f19601f8301169050919050565b7f4e487b71000000000000000000000000000000000000000000000000000000005f52604160045260245ffd5b61057a82610534565b810181811067ffffffffffffffff8211171561059957610598610544565b5b80604052505050565b5f6105ab6103cd565b90506105b78282610571565b919050565b5f67ffffffffffffffff8211156105d6576105d5610544565b5b6105df82610534565b9050602081019050919050565b828183375f83830152505050565b5f61060c610607846105bc565b6105a2565b90508281526020810184848401111561062857610627610530565b5b6106338482856105ec565b509392505050565b5f82601f83011261064f5761064e61052c565b5b813561065f8482602086016105fa565b91505092915050565b5f5f5f6060848603121561067f5761067e6103d6565b5b5f61068c868287016104ee565b935050602061069d86828701610518565b925050604084013567ffffffffffffffff8111156106be576106bd6103da565b5b6106ca8682870161063b565b9150509250925092565b5f81519050919050565b5f82825260208201905092915050565b8281835e5f83830152505050565b5f610706826106d4565b61071081856106de565b93506107208185602086016106ee565b61072981610534565b840191505092915050565b5f6020820190508181035f83015261074c81846106fc565b905092915050565b5f82825260208201905092915050565b7f796f7520617265206e6f7420746865206f776e65722c2061626f7274696e67215f82015250565b5f610798602083610754565b91506107a382610764565b602082019050919050565b5f6020820190508181035f8301526107c58161078c565b9050919050565b7f596f752061726520747279696e6720746f2073656e64206d6f7265207468616e5f8201527f20796f7520616c6c6f77656420746f2c2061626f7274696e6721000000000000602082015250565b5f610826603a83610754565b9150610831826107cc565b604082019050919050565b5f6020820190508181035f8301526108538161081a565b9050919050565b7f596f7520617265206e6f7420616c6c6f77656420746f2073656e6420616e79745f8201527f68696e672066726f6d207468697320736d2061626f7274696e67210000000000602082015250565b5f6108b4603b83610754565b91506108bf8261085a565b604082019050919050565b5f6020820190508181035f8301526108e1816108a8565b9050919050565b5f81905092915050565b5f6108fc826106d4565b61090681856108e8565b93506109168185602086016106ee565b80840191505092915050565b5f61092d82846108f2565b915081905092915050565b7f41626f7274696e672c2063616c6c20776173206e6f74207375636365737366755f8201527f6c00000000000000000000000000000000000000000000000000000000000000602082015250565b5f610992602183610754565b915061099d82610938565b604082019050919050565b5f6020820190508181035f8301526109bf81610986565b905091905056fea2646970667358221220d7db9345d30f6814d76315f2522d628323a44c5d767ba0912e24bf023770410364736f6c634300081e0033",
					"opcodes": "PUSH1 0x80 PUSH1 0x40 MSTORE CALLVALUE DUP1 ISZERO PUSH1 0xE JUMPI PUSH0 PUSH0 REVERT JUMPDEST POP CALLER PUSH0 PUSH0 PUSH2 0x100 EXP DUP2 SLOAD DUP2 PUSH20 0xFFFFFFFFFFFFFFFFFFFFFFFFFFFFFFFFFFFFFFFF MUL NOT AND SWAP1 DUP4 PUSH20 0xFFFFFFFFFFFFFFFFFFFFFFFFFFFFFFFFFFFFFFFF AND MUL OR SWAP1 SSTORE POP PUSH2 0x9FC DUP1 PUSH2 0x5B PUSH0 CODECOPY PUSH0 RETURN INVALID PUSH1 0x80 PUSH1 0x40 MSTORE PUSH1 0x4 CALLDATASIZE LT PUSH2 0x37 JUMPI PUSH0 CALLDATALOAD PUSH1 0xE0 SHR DUP1 PUSH4 0xBC605AD EQ PUSH2 0x42 JUMPI DUP1 PUSH4 0x3E5BEAB9 EQ PUSH2 0x7E JUMPI DUP1 PUSH4 0xBE45FD62 EQ PUSH2 0xBA JUMPI PUSH2 0x3E JUMP JUMPDEST CALLDATASIZE PUSH2 0x3E JUMPI STOP JUMPDEST PUSH0 PUSH0 REVERT JUMPDEST CALLVALUE DUP1 ISZERO PUSH2 0x4D JUMPI PUSH0 PUSH0 REVERT JUMPDEST POP PUSH2 0x68 PUSH1 0x4 DUP1 CALLDATASIZE SUB DUP2 ADD SWAP1 PUSH2 0x63 SWAP2 SWAP1 PUSH2 0x438 JUMP JUMPDEST PUSH2 0xF6 JUMP JUMPDEST PUSH1 0x40 MLOAD PUSH2 0x75 SWAP2 SWAP1 PUSH2 0x47D JUMP JUMPDEST PUSH1 0x40 MLOAD DUP1 SWAP2 SUB SWAP1 RETURN JUMPDEST CALLVALUE DUP1 ISZERO PUSH2 0x89 JUMPI PUSH0 PUSH0 REVERT JUMPDEST POP PUSH2 0xA4 PUSH1 0x4 DUP1 CALLDATASIZE SUB DUP2 ADD SWAP1 PUSH2 0x9F SWAP2 SWAP1 PUSH2 0x438 JUMP JUMPDEST PUSH2 0x113 JUMP JUMPDEST PUSH1 0x40 MLOAD PUSH2 0xB1 SWAP2 SWAP1 PUSH2 0x4AE JUMP JUMPDEST PUSH1 0x40 MLOAD DUP1 SWAP2 SUB SWAP1 RETURN JUMPDEST CALLVALUE DUP1 ISZERO PUSH2 0xC5 JUMPI PUSH0 PUSH0 REVERT JUMPDEST POP PUSH2 0xE0 PUSH1 0x4 DUP1 CALLDATASIZE SUB DUP2 ADD SWAP1 PUSH2 0xDB SWAP2 SWAP1 PUSH2 0x668 JUMP JUMPDEST PUSH2 0x128 JUMP JUMPDEST PUSH1 0x40 MLOAD PUSH2 0xED SWAP2 SWAP1 PUSH2 0x734 JUMP JUMPDEST PUSH1 0x40 MLOAD DUP1 SWAP2 SUB SWAP1 RETURN JUMPDEST PUSH1 0x2 PUSH1 0x20 MSTORE DUP1 PUSH0 MSTORE PUSH1 0x40 PUSH0 KECCAK256 PUSH0 SWAP2 POP SLOAD SWAP1 PUSH2 0x100 EXP SWAP1 DIV PUSH1 0xFF AND DUP2 JUMP JUMPDEST PUSH1 0x1 PUSH1 0x20 MSTORE DUP1 PUSH0 MSTORE PUSH1 0x40 PUSH0 KECCAK256 PUSH0 SWAP2 POP SWAP1 POP SLOAD DUP2 JUMP JUMPDEST PUSH1 0x60 PUSH0 PUSH0 SWAP1 SLOAD SWAP1 PUSH2 0x100 EXP SWAP1 DIV PUSH20 0xFFFFFFFFFFFFFFFFFFFFFFFFFFFFFFFFFFFFFFFF AND PUSH20 0xFFFFFFFFFFFFFFFFFFFFFFFFFFFFFFFFFFFFFFFF AND CALLER PUSH20 0xFFFFFFFFFFFFFFFFFFFFFFFFFFFFFFFFFFFFFFFF AND EQ PUSH2 0x1B8 JUMPI PUSH1 0x40 MLOAD PUSH32 0x8C379A000000000000000000000000000000000000000000000000000000000 DUP2 MSTORE PUSH1 0x4 ADD PUSH2 0x1AF SWAP1 PUSH2 0x7AE JUMP JUMPDEST PUSH1 0x40 MLOAD DUP1 SWAP2 SUB SWAP1 REVERT JUMPDEST PUSH0 PUSH0 SWAP1 SLOAD SWAP1 PUSH2 0x100 EXP SWAP1 DIV PUSH20 0xFFFFFFFFFFFFFFFFFFFFFFFFFFFFFFFFFFFFFFFF AND PUSH20 0xFFFFFFFFFFFFFFFFFFFFFFFFFFFFFFFFFFFFFFFF AND CALLER PUSH20 0xFFFFFFFFFFFFFFFFFFFFFFFFFFFFFFFFFFFFFFFF AND EQ PUSH2 0x315 JUMPI DUP3 PUSH1 0x1 PUSH0 CALLER PUSH20 0xFFFFFFFFFFFFFFFFFFFFFFFFFFFFFFFFFFFFFFFF AND PUSH20 0xFFFFFFFFFFFFFFFFFFFFFFFFFFFFFFFFFFFFFFFF AND DUP2 MSTORE PUSH1 0x20 ADD SWAP1 DUP2 MSTORE PUSH1 0x20 ADD PUSH0 KECCAK256 SLOAD LT ISZERO PUSH2 0x28B JUMPI PUSH1 0x40 MLOAD PUSH32 0x8C379A000000000000000000000000000000000000000000000000000000000 DUP2 MSTORE PUSH1 0x4 ADD PUSH2 0x282 SWAP1 PUSH2 0x83C JUMP JUMPDEST PUSH1 0x40 MLOAD DUP1 SWAP2 SUB SWAP1 REVERT JUMPDEST PUSH1 0x2 PUSH0 CALLER PUSH20 0xFFFFFFFFFFFFFFFFFFFFFFFFFFFFFFFFFFFFFFFF AND PUSH20 0xFFFFFFFFFFFFFFFFFFFFFFFFFFFFFFFFFFFFFFFF AND DUP2 MSTORE PUSH1 0x20 ADD SWAP1 DUP2 MSTORE PUSH1 0x20 ADD PUSH0 KECCAK256 PUSH0 SWAP1 SLOAD SWAP1 PUSH2 0x100 EXP SWAP1 DIV PUSH1 0xFF AND PUSH2 0x314 JUMPI PUSH1 0x40 MLOAD PUSH32 0x8C379A000000000000000000000000000000000000000000000000000000000 DUP2 MSTORE PUSH1 0x4 ADD PUSH2 0x30B SWAP1 PUSH2 0x8CA JUMP JUMPDEST PUSH1 0x40 MLOAD DUP1 SWAP2 SUB SWAP1 REVERT JUMPDEST JUMPDEST PUSH0 PUSH0 DUP6 PUSH20 0xFFFFFFFFFFFFFFFFFFFFFFFFFFFFFFFFFFFFFFFF AND DUP6 DUP6 PUSH1 0x40 MLOAD PUSH2 0x33D SWAP2 SWAP1 PUSH2 0x922 JUMP JUMPDEST PUSH0 PUSH1 0x40 MLOAD DUP1 DUP4 SUB DUP2 DUP6 DUP8 GAS CALL SWAP3 POP POP POP RETURNDATASIZE DUP1 PUSH0 DUP2 EQ PUSH2 0x377 JUMPI PUSH1 0x40 MLOAD SWAP2 POP PUSH1 0x1F NOT PUSH1 0x3F RETURNDATASIZE ADD AND DUP3 ADD PUSH1 0x40 MSTORE RETURNDATASIZE DUP3 MSTORE RETURNDATASIZE PUSH0 PUSH1 0x20 DUP5 ADD RETURNDATACOPY PUSH2 0x37C JUMP JUMPDEST PUSH1 0x60 SWAP2 POP JUMPDEST POP SWAP2 POP SWAP2 POP DUP2 PUSH2 0x3C1 JUMPI PUSH1 0x40 MLOAD PUSH32 0x8C379A000000000000000000000000000000000000000000000000000000000 DUP2 MSTORE PUSH1 0x4 ADD PUSH2 0x3B8 SWAP1 PUSH2 0x9A8 JUMP JUMPDEST PUSH1 0x40 MLOAD DUP1 SWAP2 SUB SWAP1 REVERT JUMPDEST DUP1 SWAP3 POP POP POP SWAP4 SWAP3 POP POP POP JUMP JUMPDEST PUSH0 PUSH1 0x40 MLOAD SWAP1 POP SWAP1 JUMP JUMPDEST PUSH0 PUSH0 REVERT JUMPDEST PUSH0 PUSH0 REVERT JUMPDEST PUSH0 PUSH20 0xFFFFFFFFFFFFFFFFFFFFFFFFFFFFFFFFFFFFFFFF DUP3 AND SWAP1 POP SWAP2 SWAP1 POP JUMP JUMPDEST PUSH0 PUSH2 0x407 DUP3 PUSH2 0x3DE JUMP JUMPDEST SWAP1 POP SWAP2 SWAP1 POP JUMP JUMPDEST PUSH2 0x417 DUP2 PUSH2 0x3FD JUMP JUMPDEST DUP2 EQ PUSH2 0x421 JUMPI PUSH0 PUSH0 REVERT JUMPDEST POP JUMP JUMPDEST PUSH0 DUP2 CALLDATALOAD SWAP1 POP PUSH2 0x432 DUP2 PUSH2 0x40E JUMP JUMPDEST SWAP3 SWAP2 POP POP JUMP JUMPDEST PUSH0 PUSH1 0x20 DUP3 DUP5 SUB SLT ISZERO PUSH2 0x44D JUMPI PUSH2 0x44C PUSH2 0x3D6 JUMP JUMPDEST JUMPDEST PUSH0 PUSH2 0x45A DUP5 DUP3 DUP6 ADD PUSH2 0x424 JUMP JUMPDEST SWAP2 POP POP SWAP3 SWAP2 POP POP JUMP JUMPDEST PUSH0 DUP2 ISZERO ISZERO SWAP1 POP SWAP2 SWAP1 POP JUMP JUMPDEST PUSH2 0x477 DUP2 PUSH2 0x463 JUMP JUMPDEST DUP3 MSTORE POP POP JUMP JUMPDEST PUSH0 PUSH1 0x20 DUP3 ADD SWAP1 POP PUSH2 0x490 PUSH0 DUP4 ADD DUP5 PUSH2 0x46E JUMP JUMPDEST SWAP3 SWAP2 POP POP JUMP JUMPDEST PUSH0 DUP2 SWAP1 POP SWAP2 SWAP1 POP JUMP JUMPDEST PUSH2 0x4A8 DUP2 PUSH2 0x496 JUMP JUMPDEST DUP3 MSTORE POP POP JUMP JUMPDEST PUSH0 PUSH1 0x20 DUP3 ADD SWAP1 POP PUSH2 0x4C1 PUSH0 DUP4 ADD DUP5 PUSH2 0x49F JUMP JUMPDEST SWAP3 SWAP2 POP POP JUMP JUMPDEST PUSH0 PUSH2 0x4D1 DUP3 PUSH2 0x3DE JUMP JUMPDEST SWAP1 POP SWAP2 SWAP1 POP JUMP JUMPDEST PUSH2 0x4E1 DUP2 PUSH2 0x4C7 JUMP JUMPDEST DUP2 EQ PUSH2 0x4EB JUMPI PUSH0 PUSH0 REVERT JUMPDEST POP JUMP JUMPDEST PUSH0 DUP2 CALLDATALOAD SWAP1 POP PUSH2 0x4FC DUP2 PUSH2 0x4D8 JUMP JUMPDEST SWAP3 SWAP2 POP POP JUMP JUMPDEST PUSH2 0x50B DUP2 PUSH2 0x496 JUMP JUMPDEST DUP2 EQ PUSH2 0x515 JUMPI PUSH0 PUSH0 REVERT JUMPDEST POP JUMP JUMPDEST PUSH0 DUP2 CALLDATALOAD SWAP1 POP PUSH2 0x526 DUP2 PUSH2 0x502 JUMP JUMPDEST SWAP3 SWAP2 POP POP JUMP JUMPDEST PUSH0 PUSH0 REVERT JUMPDEST PUSH0 PUSH0 REVERT JUMPDEST PUSH0 PUSH1 0x1F NOT PUSH1 0x1F DUP4 ADD AND SWAP1 POP SWAP2 SWAP1 POP JUMP JUMPDEST PUSH32 0x4E487B7100000000000000000000000000000000000000000000000000000000 PUSH0 MSTORE PUSH1 0x41 PUSH1 0x4 MSTORE PUSH1 0x24 PUSH0 REVERT JUMPDEST PUSH2 0x57A DUP3 PUSH2 0x534 JUMP JUMPDEST DUP2 ADD DUP2 DUP2 LT PUSH8 0xFFFFFFFFFFFFFFFF DUP3 GT OR ISZERO PUSH2 0x599 JUMPI PUSH2 0x598 PUSH2 0x544 JUMP JUMPDEST JUMPDEST DUP1 PUSH1 0x40 MSTORE POP POP POP JUMP JUMPDEST PUSH0 PUSH2 0x5AB PUSH2 0x3CD JUMP JUMPDEST SWAP1 POP PUSH2 0x5B7 DUP3 DUP3 PUSH2 0x571 JUMP JUMPDEST SWAP2 SWAP1 POP JUMP JUMPDEST PUSH0 PUSH8 0xFFFFFFFFFFFFFFFF DUP3 GT ISZERO PUSH2 0x5D6 JUMPI PUSH2 0x5D5 PUSH2 0x544 JUMP JUMPDEST JUMPDEST PUSH2 0x5DF DUP3 PUSH2 0x534 JUMP JUMPDEST SWAP1 POP PUSH1 0x20 DUP2 ADD SWAP1 POP SWAP2 SWAP1 POP JUMP JUMPDEST DUP3 DUP2 DUP4 CALLDATACOPY PUSH0 DUP4 DUP4 ADD MSTORE POP POP POP JUMP JUMPDEST PUSH0 PUSH2 0x60C PUSH2 0x607 DUP5 PUSH2 0x5BC JUMP JUMPDEST PUSH2 0x5A2 JUMP JUMPDEST SWAP1 POP DUP3 DUP2 MSTORE PUSH1 0x20 DUP2 ADD DUP5 DUP5 DUP5 ADD GT ISZERO PUSH2 0x628 JUMPI PUSH2 0x627 PUSH2 0x530 JUMP JUMPDEST JUMPDEST PUSH2 0x633 DUP5 DUP3 DUP6 PUSH2 0x5EC JUMP JUMPDEST POP SWAP4 SWAP3 POP POP POP JUMP JUMPDEST PUSH0 DUP3 PUSH1 0x1F DUP4 ADD SLT PUSH2 0x64F JUMPI PUSH2 0x64E PUSH2 0x52C JUMP JUMPDEST JUMPDEST DUP2 CALLDATALOAD PUSH2 0x65F DUP5 DUP3 PUSH1 0x20 DUP7 ADD PUSH2 0x5FA JUMP JUMPDEST SWAP2 POP POP SWAP3 SWAP2 POP POP JUMP JUMPDEST PUSH0 PUSH0 PUSH0 PUSH1 0x60 DUP5 DUP7 SUB SLT ISZERO PUSH2 0x67F JUMPI PUSH2 0x67E PUSH2 0x3D6 JUMP JUMPDEST JUMPDEST PUSH0 PUSH2 0x68C DUP7 DUP3 DUP8 ADD PUSH2 0x4EE JUMP JUMPDEST SWAP4 POP POP PUSH1 0x20 PUSH2 0x69D DUP7 DUP3 DUP8 ADD PUSH2 0x518 JUMP JUMPDEST SWAP3 POP POP PUSH1 0x40 DUP5 ADD CALLDATALOAD PUSH8 0xFFFFFFFFFFFFFFFF DUP2 GT ISZERO PUSH2 0x6BE JUMPI PUSH2 0x6BD PUSH2 0x3DA JUMP JUMPDEST JUMPDEST PUSH2 0x6CA DUP7 DUP3 DUP8 ADD PUSH2 0x63B JUMP JUMPDEST SWAP2 POP POP SWAP3 POP SWAP3 POP SWAP3 JUMP JUMPDEST PUSH0 DUP2 MLOAD SWAP1 POP SWAP2 SWAP1 POP JUMP JUMPDEST PUSH0 DUP3 DUP3 MSTORE PUSH1 0x20 DUP3 ADD SWAP1 POP SWAP3 SWAP2 POP POP JUMP JUMPDEST DUP3 DUP2 DUP4 MCOPY PUSH0 DUP4 DUP4 ADD MSTORE POP POP POP JUMP JUMPDEST PUSH0 PUSH2 0x706 DUP3 PUSH2 0x6D4 JUMP JUMPDEST PUSH2 0x710 DUP2 DUP6 PUSH2 0x6DE JUMP JUMPDEST SWAP4 POP PUSH2 0x720 DUP2 DUP6 PUSH1 0x20 DUP7 ADD PUSH2 0x6EE JUMP JUMPDEST PUSH2 0x729 DUP2 PUSH2 0x534 JUMP JUMPDEST DUP5 ADD SWAP2 POP POP SWAP3 SWAP2 POP POP JUMP JUMPDEST PUSH0 PUSH1 0x20 DUP3 ADD SWAP1 POP DUP2 DUP2 SUB PUSH0 DUP4 ADD MSTORE PUSH2 0x74C DUP2 DUP5 PUSH2 0x6FC JUMP JUMPDEST SWAP1 POP SWAP3 SWAP2 POP POP JUMP JUMPDEST PUSH0 DUP3 DUP3 MSTORE PUSH1 0x20 DUP3 ADD SWAP1 POP SWAP3 SWAP2 POP POP JUMP JUMPDEST PUSH32 0x796F7520617265206E6F7420746865206F776E65722C2061626F7274696E6721 PUSH0 DUP3 ADD MSTORE POP JUMP JUMPDEST PUSH0 PUSH2 0x798 PUSH1 0x20 DUP4 PUSH2 0x754 JUMP JUMPDEST SWAP2 POP PUSH2 0x7A3 DUP3 PUSH2 0x764 JUMP JUMPDEST PUSH1 0x20 DUP3 ADD SWAP1 POP SWAP2 SWAP1 POP JUMP JUMPDEST PUSH0 PUSH1 0x20 DUP3 ADD SWAP1 POP DUP2 DUP2 SUB PUSH0 DUP4 ADD MSTORE PUSH2 0x7C5 DUP2 PUSH2 0x78C JUMP JUMPDEST SWAP1 POP SWAP2 SWAP1 POP JUMP JUMPDEST PUSH32 0x596F752061726520747279696E6720746F2073656E64206D6F7265207468616E PUSH0 DUP3 ADD MSTORE PUSH32 0x20796F7520616C6C6F77656420746F2C2061626F7274696E6721000000000000 PUSH1 0x20 DUP3 ADD MSTORE POP JUMP JUMPDEST PUSH0 PUSH2 0x826 PUSH1 0x3A DUP4 PUSH2 0x754 JUMP JUMPDEST SWAP2 POP PUSH2 0x831 DUP3 PUSH2 0x7CC JUMP JUMPDEST PUSH1 0x40 DUP3 ADD SWAP1 POP SWAP2 SWAP1 POP JUMP JUMPDEST PUSH0 PUSH1 0x20 DUP3 ADD SWAP1 POP DUP2 DUP2 SUB PUSH0 DUP4 ADD MSTORE PUSH2 0x853 DUP2 PUSH2 0x81A JUMP JUMPDEST SWAP1 POP SWAP2 SWAP1 POP JUMP JUMPDEST PUSH32 0x596F7520617265206E6F7420616C6C6F77656420746F2073656E6420616E7974 PUSH0 DUP3 ADD MSTORE PUSH32 0x68696E672066726F6D207468697320736D2061626F7274696E67210000000000 PUSH1 0x20 DUP3 ADD MSTORE POP JUMP JUMPDEST PUSH0 PUSH2 0x8B4 PUSH1 0x3B DUP4 PUSH2 0x754 JUMP JUMPDEST SWAP2 POP PUSH2 0x8BF DUP3 PUSH2 0x85A JUMP JUMPDEST PUSH1 0x40 DUP3 ADD SWAP1 POP SWAP2 SWAP1 POP JUMP JUMPDEST PUSH0 PUSH1 0x20 DUP3 ADD SWAP1 POP DUP2 DUP2 SUB PUSH0 DUP4 ADD MSTORE PUSH2 0x8E1 DUP2 PUSH2 0x8A8 JUMP JUMPDEST SWAP1 POP SWAP2 SWAP1 POP JUMP JUMPDEST PUSH0 DUP2 SWAP1 POP SWAP3 SWAP2 POP POP JUMP JUMPDEST PUSH0 PUSH2 0x8FC DUP3 PUSH2 0x6D4 JUMP JUMPDEST PUSH2 0x906 DUP2 DUP6 PUSH2 0x8E8 JUMP JUMPDEST SWAP4 POP PUSH2 0x916 DUP2 DUP6 PUSH1 0x20 DUP7 ADD PUSH2 0x6EE JUMP JUMPDEST DUP1 DUP5 ADD SWAP2 POP POP SWAP3 SWAP2 POP POP JUMP JUMPDEST PUSH0 PUSH2 0x92D DUP3 DUP5 PUSH2 0x8F2 JUMP JUMPDEST SWAP2 POP DUP2 SWAP1 POP SWAP3 SWAP2 POP POP JUMP JUMPDEST PUSH32 0x41626F7274696E672C2063616C6C20776173206E6F7420737563636573736675 PUSH0 DUP3 ADD MSTORE PUSH32 0x6C00000000000000000000000000000000000000000000000000000000000000 PUSH1 0x20 DUP3 ADD MSTORE POP JUMP JUMPDEST PUSH0 PUSH2 0x992 PUSH1 0x21 DUP4 PUSH2 0x754 JUMP JUMPDEST SWAP2 POP PUSH2 0x99D DUP3 PUSH2 0x938 JUMP JUMPDEST PUSH1 0x40 DUP3 ADD SWAP1 POP SWAP2 SWAP1 POP JUMP JUMPDEST PUSH0 PUSH1 0x20 DUP3 ADD SWAP1 POP DUP2 DUP2 SUB PUSH0 DUP4 ADD MSTORE PUSH2 0x9BF DUP2 PUSH2 0x986 JUMP JUMPDEST SWAP1 POP SWAP2 SWAP1 POP JUMP INVALID LOG2 PUSH5 0x6970667358 0x22 SLT KECCAK256 0xD7 0xDB SWAP4 GASLIMIT 0xD3 0xF PUSH9 0x14D76315F2522D6283 0x23 LOG4 0x4C TSTORE PUSH23 0x7BA0912E24BF023770410364736F6C634300081E003300 "
				},
				"gasEstimates": {
					"creation": {
						"codeDepositCost": "511200",
						"executionCost": "24805",
						"totalCost": "536005"
					},
					"external": {
						"allowance(address)": "2802",
						"isAllowedToSend(address)": "2811",
						"transfer(address,uint256,bytes)": "infinite"
					}
				},
				"methodIdentifiers": {
					"allowance(address)": "3e5beab9",
					"isAllowedToSend(address)": "0bc605ad",
					"transfer(address,uint256,bytes)": "be45fd62"
				}
			},
			"storageLayout": {
				"storage": [
					{
						"astId": 3,
						"contract": "contracts/smartContractWallet.sol:SmartCobtractWallet",
						"label": "owner",
						"offset": 0,
						"slot": "0",
						"type": "t_address_payable"
					},
					{
						"astId": 7,
						"contract": "contracts/smartContractWallet.sol:SmartCobtractWallet",
						"label": "allowance",
						"offset": 0,
						"slot": "1",
						"type": "t_mapping(t_address,t_uint256)"
					},
					{
						"astId": 11,
						"contract": "contracts/smartContractWallet.sol:SmartCobtractWallet",
						"label": "isAllowedToSend",
						"offset": 0,
						"slot": "2",
						"type": "t_mapping(t_address,t_bool)"
					}
				],
				"types": {
					"t_address": {
						"encoding": "inplace",
						"label": "address",
						"numberOfBytes": "20"
					},
					"t_address_payable": {
						"encoding": "inplace",
						"label": "address payable",
						"numberOfBytes": "20"
					},
					"t_bool": {
						"encoding": "inplace",
						"label": "bool",
						"numberOfBytes": "1"
					},
					"t_mapping(t_address,t_bool)": {
						"encoding": "mapping",
						"key": "t_address",
						"label": "mapping(address => bool)",
						"numberOfBytes": "32",
						"value": "t_bool"
					},
					"t_mapping(t_address,t_uint256)": {
						"encoding": "mapping",
						"key": "t_address",
						"label": "mapping(address => uint256)",
						"numberOfBytes": "32",
						"value": "t_uint256"
					},
					"t_uint256": {
						"encoding": "inplace",
						"label": "uint256",
						"numberOfBytes": "32"
					}
				}
			},
			"userdoc": {
				"kind": "user",
				"methods": {},
				"version": 1
			}
		}
	}
}