{
	"contracts/smartContractWallet.sol": {
		"SmartCobtractWallet": {
			"abi": [
				{
					"inputs": [],
					"stateMutability": "nonpayable",
					"type": "constructor"
				},
				{
					"inputs": [
						{
							"internalType": "address",
							"name": "",
							"type": "address"
						}
					],
					"name": "allowance",
					"outputs": [
						{
							"internalType": "uint256",
							"name": "",
							"type": "uint256"
						}
					],
					"stateMutability": "view",
					"type": "function"
				},
				{
					"inputs": [],
					"name": "confirmationFromGuardianForReset",
					"outputs": [
						{
							"internalType": "uint256",
							"name": "",
							"type": "uint256"
						}
					],
					"stateMutability": "view",
					"type": "function"
				},
				{
					"inputs": [
						{
							"internalType": "address",
							"name": "",
							"type": "address"
						}
					],
					"name": "guardians",
					"outputs": [
						{
							"internalType": "bool",
							"name": "",
							"type": "bool"
						}
					],
					"stateMutability": "view",
					"type": "function"
				},
				{
					"inputs": [
						{
							"internalType": "address",
							"name": "",
							"type": "address"
						}
					],
					"name": "isAllowedToSend",
					"outputs": [
						{
							"internalType": "bool",
							"name": "",
							"type": "bool"
						}
					],
					"stateMutability": "view",
					"type": "function"
				},
				{
					"inputs": [],
					"name": "owner",
					"outputs": [
						{
							"internalType": "address payable",
							"name": "",
							"type": "address"
						}
					],
					"stateMutability": "view",
					"type": "function"
				},
				{
					"inputs": [
						{
							"internalType": "address payable",
							"name": "_newOwner",
							"type": "address"
						}
					],
					"name": "proposeNewOwner",
					"outputs": [],
					"stateMutability": "nonpayable",
					"type": "function"
				},
				{
					"inputs": [
						{
							"internalType": "address",
							"name": "_for",
							"type": "address"
						},
						{
							"internalType": "uint256",
							"name": "_amount",
							"type": "uint256"
						}
					],
					"name": "setAllowance",
					"outputs": [],
					"stateMutability": "nonpayable",
					"type": "function"
				},
				{
					"inputs": [
						{
							"internalType": "address",
							"name": "_guardian",
							"type": "address"
						},
						{
							"internalType": "bool",
							"name": "_isGuardian",
							"type": "bool"
						}
					],
					"name": "setGuardian",
					"outputs": [],
					"stateMutability": "nonpayable",
					"type": "function"
				},
				{
					"inputs": [
						{
							"internalType": "address payable",
							"name": "_to",
							"type": "address"
						},
						{
							"internalType": "uint256",
							"name": "_amount",
							"type": "uint256"
						},
						{
							"internalType": "bytes",
							"name": "_payload",
							"type": "bytes"
						}
					],
					"name": "transfer",
					"outputs": [
						{
							"internalType": "bytes",
							"name": "",
							"type": "bytes"
						}
					],
					"stateMutability": "nonpayable",
					"type": "function"
				},
				{
					"stateMutability": "payable",
					"type": "receive"
				}
			],
			"devdoc": {
				"kind": "dev",
				"methods": {},
				"version": 1
			},
			"evm": {
				"assembly": "    /* \"contracts/smartContractWallet.sol\":220:2758  contract SmartCobtractWallet {... */\n  mstore(0x40, 0x80)\n    /* \"contracts/smartContractWallet.sol\":647:705  constructor() {... */\n  callvalue\n  dup1\n  iszero\n  tag_1\n  jumpi\n  revert(0x00, 0x00)\ntag_1:\n  pop\n    /* \"contracts/smartContractWallet.sol\":687:697  msg.sender */\n  caller\n    /* \"contracts/smartContractWallet.sol\":671:676  owner */\n  0x00\n  0x00\n    /* \"contracts/smartContractWallet.sol\":671:698  owner = payable(msg.sender) */\n  0x0100\n  exp\n  dup2\n  sload\n  dup2\n  0xffffffffffffffffffffffffffffffffffffffff\n  mul\n  not\n  and\n  swap1\n  dup4\n  0xffffffffffffffffffffffffffffffffffffffff\n  and\n  mul\n  or\n  swap1\n  sstore\n  pop\n    /* \"contracts/smartContractWallet.sol\":220:2758  contract SmartCobtractWallet {... */\n  dataSize(sub_0)\n  dup1\n  dataOffset(sub_0)\n  0x00\n  codecopy\n  0x00\n  return\nstop\n\nsub_0: assembly {\n        /* \"contracts/smartContractWallet.sol\":220:2758  contract SmartCobtractWallet {... */\n      mstore(0x40, 0x80)\n      jumpi(tag_1, lt(calldatasize, 0x04))\n      shr(0xe0, calldataload(0x00))\n      dup1\n      0x3e5beab9\n      gt\n      tag_12\n      jumpi\n      dup1\n      0x3e5beab9\n      eq\n      tag_7\n      jumpi\n      dup1\n      0x8da5cb5b\n      eq\n      tag_8\n      jumpi\n      dup1\n      0xb1f8100d\n      eq\n      tag_9\n      jumpi\n      dup1\n      0xbe45fd62\n      eq\n      tag_10\n      jumpi\n      dup1\n      0xcaf5b411\n      eq\n      tag_11\n      jumpi\n      jump(tag_2)\n    tag_12:\n      dup1\n      0x0633b14a\n      eq\n      tag_3\n      jumpi\n      dup1\n      0x0bc605ad\n      eq\n      tag_4\n      jumpi\n      dup1\n      0x2b8a1c5a\n      eq\n      tag_5\n      jumpi\n      dup1\n      0x310ec4a7\n      eq\n      tag_6\n      jumpi\n      jump(tag_2)\n    tag_1:\n      jumpi(tag_2, calldatasize)\n      stop\n    tag_2:\n      revert(0x00, 0x00)\n        /* \"contracts/smartContractWallet.sol\":394:435  mapping(address => bool) public guardians */\n    tag_3:\n      callvalue\n      dup1\n      iszero\n      tag_15\n      jumpi\n      revert(0x00, 0x00)\n    tag_15:\n      pop\n      tag_16\n      0x04\n      dup1\n      calldatasize\n      sub\n      dup2\n      add\n      swap1\n      tag_17\n      swap2\n      swap1\n      tag_18\n      jump\t// in\n    tag_17:\n      tag_19\n      jump\t// in\n    tag_16:\n      mload(0x40)\n      tag_20\n      swap2\n      swap1\n      tag_21\n      jump\t// in\n    tag_20:\n      mload(0x40)\n      dup1\n      swap2\n      sub\n      swap1\n      return\n        /* \"contracts/smartContractWallet.sol\":340:387  mapping(address => bool) public isAllowedToSend */\n    tag_4:\n      callvalue\n      dup1\n      iszero\n      tag_22\n      jumpi\n      revert(0x00, 0x00)\n    tag_22:\n      pop\n      tag_23\n      0x04\n      dup1\n      calldatasize\n      sub\n      dup2\n      add\n      swap1\n      tag_24\n      swap2\n      swap1\n      tag_18\n      jump\t// in\n    tag_24:\n      tag_25\n      jump\t// in\n    tag_23:\n      mload(0x40)\n      tag_26\n      swap2\n      swap1\n      tag_21\n      jump\t// in\n    tag_26:\n      mload(0x40)\n      dup1\n      swap2\n      sub\n      swap1\n      return\n        /* \"contracts/smartContractWallet.sol\":711:901  function setGuardian(address _guardian, bool _isGuardian) public {... */\n    tag_5:\n      callvalue\n      dup1\n      iszero\n      tag_27\n      jumpi\n      revert(0x00, 0x00)\n    tag_27:\n      pop\n      tag_28\n      0x04\n      dup1\n      calldatasize\n      sub\n      dup2\n      add\n      swap1\n      tag_29\n      swap2\n      swap1\n      tag_30\n      jump\t// in\n    tag_29:\n      tag_31\n      jump\t// in\n    tag_28:\n      stop\n        /* \"contracts/smartContractWallet.sol\":1552:1869  function setAllowance(address _for, uint256 _amount) public {... */\n    tag_6:\n      callvalue\n      dup1\n      iszero\n      tag_32\n      jumpi\n      revert(0x00, 0x00)\n    tag_32:\n      pop\n      tag_33\n      0x04\n      dup1\n      calldatasize\n      sub\n      dup2\n      add\n      swap1\n      tag_34\n      swap2\n      swap1\n      tag_35\n      jump\t// in\n    tag_34:\n      tag_36\n      jump\t// in\n    tag_33:\n      stop\n        /* \"contracts/smartContractWallet.sol\":290:334  mapping(address => uint256) public allowance */\n    tag_7:\n      callvalue\n      dup1\n      iszero\n      tag_37\n      jumpi\n      revert(0x00, 0x00)\n    tag_37:\n      pop\n      tag_38\n      0x04\n      dup1\n      calldatasize\n      sub\n      dup2\n      add\n      swap1\n      tag_39\n      swap2\n      swap1\n      tag_18\n      jump\t// in\n    tag_39:\n      tag_40\n      jump\t// in\n    tag_38:\n      mload(0x40)\n      tag_41\n      swap2\n      swap1\n      tag_42\n      jump\t// in\n    tag_41:\n      mload(0x40)\n      dup1\n      swap2\n      sub\n      swap1\n      return\n        /* \"contracts/smartContractWallet.sol\":255:283  address payable public owner */\n    tag_8:\n      callvalue\n      dup1\n      iszero\n      tag_43\n      jumpi\n      revert(0x00, 0x00)\n    tag_43:\n      pop\n      tag_44\n      tag_45\n      jump\t// in\n    tag_44:\n      mload(0x40)\n      tag_46\n      swap2\n      swap1\n      tag_47\n      jump\t// in\n    tag_46:\n      mload(0x40)\n      dup1\n      swap2\n      sub\n      swap1\n      return\n        /* \"contracts/smartContractWallet.sol\":907:1546  function proposeNewOwner(address payable _newOwner) public {... */\n    tag_9:\n      callvalue\n      dup1\n      iszero\n      tag_48\n      jumpi\n      revert(0x00, 0x00)\n    tag_48:\n      pop\n      tag_49\n      0x04\n      dup1\n      calldatasize\n      sub\n      dup2\n      add\n      swap1\n      tag_50\n      swap2\n      swap1\n      tag_51\n      jump\t// in\n    tag_50:\n      tag_52\n      jump\t// in\n    tag_49:\n      stop\n        /* \"contracts/smartContractWallet.sol\":1875:2721  function transfer(... */\n    tag_10:\n      callvalue\n      dup1\n      iszero\n      tag_53\n      jumpi\n      revert(0x00, 0x00)\n    tag_53:\n      pop\n      tag_54\n      0x04\n      dup1\n      calldatasize\n      sub\n      dup2\n      add\n      swap1\n      tag_55\n      swap2\n      swap1\n      tag_56\n      jump\t// in\n    tag_55:\n      tag_57\n      jump\t// in\n    tag_54:\n      mload(0x40)\n      tag_58\n      swap2\n      swap1\n      tag_59\n      jump\t// in\n    tag_58:\n      mload(0x40)\n      dup1\n      swap2\n      sub\n      swap1\n      return\n        /* \"contracts/smartContractWallet.sol\":580:640  uint256 public constant confirmationFromGuardianForReset = 3 */\n    tag_11:\n      callvalue\n      dup1\n      iszero\n      tag_60\n      jumpi\n      revert(0x00, 0x00)\n    tag_60:\n      pop\n      tag_61\n      tag_62\n      jump\t// in\n    tag_61:\n      mload(0x40)\n      tag_63\n      swap2\n      swap1\n      tag_42\n      jump\t// in\n    tag_63:\n      mload(0x40)\n      dup1\n      swap2\n      sub\n      swap1\n      return\n        /* \"contracts/smartContractWallet.sol\":394:435  mapping(address => bool) public guardians */\n    tag_19:\n      mstore(0x20, 0x03)\n      dup1\n      0x00\n      mstore\n      keccak256(0x00, 0x40)\n      0x00\n      swap2\n      pop\n      sload\n      swap1\n      0x0100\n      exp\n      swap1\n      div\n      0xff\n      and\n      dup2\n      jump\t// out\n        /* \"contracts/smartContractWallet.sol\":340:387  mapping(address => bool) public isAllowedToSend */\n    tag_25:\n      mstore(0x20, 0x02)\n      dup1\n      0x00\n      mstore\n      keccak256(0x00, 0x40)\n      0x00\n      swap2\n      pop\n      sload\n      swap1\n      0x0100\n      exp\n      swap1\n      div\n      0xff\n      and\n      dup2\n      jump\t// out\n        /* \"contracts/smartContractWallet.sol\":711:901  function setGuardian(address _guardian, bool _isGuardian) public {... */\n    tag_31:\n        /* \"contracts/smartContractWallet.sol\":808:813  owner */\n      0x00\n      0x00\n      swap1\n      sload\n      swap1\n      0x0100\n      exp\n      swap1\n      div\n      0xffffffffffffffffffffffffffffffffffffffff\n      and\n        /* \"contracts/smartContractWallet.sol\":794:813  msg.sender == owner */\n      0xffffffffffffffffffffffffffffffffffffffff\n      and\n        /* \"contracts/smartContractWallet.sol\":794:804  msg.sender */\n      caller\n        /* \"contracts/smartContractWallet.sol\":794:813  msg.sender == owner */\n      0xffffffffffffffffffffffffffffffffffffffff\n      and\n      eq\n        /* \"contracts/smartContractWallet.sol\":786:850  require(msg.sender == owner, \"You are not the owner, aborting!\") */\n      tag_65\n      jumpi\n      mload(0x40)\n      0x08c379a000000000000000000000000000000000000000000000000000000000\n      dup2\n      mstore\n      0x04\n      add\n      tag_66\n      swap1\n      tag_67\n      jump\t// in\n    tag_66:\n      mload(0x40)\n      dup1\n      swap2\n      sub\n      swap1\n      revert\n    tag_65:\n        /* \"contracts/smartContractWallet.sol\":883:894  _isGuardian */\n      dup1\n        /* \"contracts/smartContractWallet.sol\":860:869  guardians */\n      0x03\n        /* \"contracts/smartContractWallet.sol\":860:880  guardians[_guardian] */\n      0x00\n        /* \"contracts/smartContractWallet.sol\":870:879  _guardian */\n      dup5\n        /* \"contracts/smartContractWallet.sol\":860:880  guardians[_guardian] */\n      0xffffffffffffffffffffffffffffffffffffffff\n      and\n      0xffffffffffffffffffffffffffffffffffffffff\n      and\n      dup2\n      mstore\n      0x20\n      add\n      swap1\n      dup2\n      mstore\n      0x20\n      add\n      0x00\n      keccak256\n      0x00\n        /* \"contracts/smartContractWallet.sol\":860:894  guardians[_guardian] = _isGuardian */\n      0x0100\n      exp\n      dup2\n      sload\n      dup2\n      0xff\n      mul\n      not\n      and\n      swap1\n      dup4\n      iszero\n      iszero\n      mul\n      or\n      swap1\n      sstore\n      pop\n        /* \"contracts/smartContractWallet.sol\":711:901  function setGuardian(address _guardian, bool _isGuardian) public {... */\n      pop\n      pop\n      jump\t// out\n        /* \"contracts/smartContractWallet.sol\":1552:1869  function setAllowance(address _for, uint256 _amount) public {... */\n    tag_36:\n        /* \"contracts/smartContractWallet.sol\":1644:1649  owner */\n      0x00\n      0x00\n      swap1\n      sload\n      swap1\n      0x0100\n      exp\n      swap1\n      div\n      0xffffffffffffffffffffffffffffffffffffffff\n      and\n        /* \"contracts/smartContractWallet.sol\":1630:1649  msg.sender == owner */\n      0xffffffffffffffffffffffffffffffffffffffff\n      and\n        /* \"contracts/smartContractWallet.sol\":1630:1640  msg.sender */\n      caller\n        /* \"contracts/smartContractWallet.sol\":1630:1649  msg.sender == owner */\n      0xffffffffffffffffffffffffffffffffffffffff\n      and\n      eq\n        /* \"contracts/smartContractWallet.sol\":1622:1687  require(msg.sender == owner, \"You are not the owner, aborting !\") */\n      tag_69\n      jumpi\n      mload(0x40)\n      0x08c379a000000000000000000000000000000000000000000000000000000000\n      dup2\n      mstore\n      0x04\n      add\n      tag_70\n      swap1\n      tag_71\n      jump\t// in\n    tag_70:\n      mload(0x40)\n      dup1\n      swap2\n      sub\n      swap1\n      revert\n    tag_69:\n        /* \"contracts/smartContractWallet.sol\":1715:1722  _amount */\n      dup1\n        /* \"contracts/smartContractWallet.sol\":1697:1706  allowance */\n      0x01\n        /* \"contracts/smartContractWallet.sol\":1697:1712  allowance[_for] */\n      0x00\n        /* \"contracts/smartContractWallet.sol\":1707:1711  _for */\n      dup5\n        /* \"contracts/smartContractWallet.sol\":1697:1712  allowance[_for] */\n      0xffffffffffffffffffffffffffffffffffffffff\n      and\n      0xffffffffffffffffffffffffffffffffffffffff\n      and\n      dup2\n      mstore\n      0x20\n      add\n      swap1\n      dup2\n      mstore\n      0x20\n      add\n      0x00\n      keccak256\n        /* \"contracts/smartContractWallet.sol\":1697:1722  allowance[_for] = _amount */\n      dup2\n      swap1\n      sstore\n      pop\n        /* \"contracts/smartContractWallet.sol\":1747:1748  0 */\n      0x00\n        /* \"contracts/smartContractWallet.sol\":1737:1744  _amount */\n      dup2\n        /* \"contracts/smartContractWallet.sol\":1737:1748  _amount > 0 */\n      gt\n        /* \"contracts/smartContractWallet.sol\":1733:1863  if (_amount > 0) {... */\n      iszero\n      tag_72\n      jumpi\n        /* \"contracts/smartContractWallet.sol\":1788:1792  true */\n      0x01\n        /* \"contracts/smartContractWallet.sol\":1764:1779  isAllowedToSend */\n      0x02\n        /* \"contracts/smartContractWallet.sol\":1764:1785  isAllowedToSend[_for] */\n      0x00\n        /* \"contracts/smartContractWallet.sol\":1780:1784  _for */\n      dup5\n        /* \"contracts/smartContractWallet.sol\":1764:1785  isAllowedToSend[_for] */\n      0xffffffffffffffffffffffffffffffffffffffff\n      and\n      0xffffffffffffffffffffffffffffffffffffffff\n      and\n      dup2\n      mstore\n      0x20\n      add\n      swap1\n      dup2\n      mstore\n      0x20\n      add\n      0x00\n      keccak256\n      0x00\n        /* \"contracts/smartContractWallet.sol\":1764:1792  isAllowedToSend[_for] = true */\n      0x0100\n      exp\n      dup2\n      sload\n      dup2\n      0xff\n      mul\n      not\n      and\n      swap1\n      dup4\n      iszero\n      iszero\n      mul\n      or\n      swap1\n      sstore\n      pop\n        /* \"contracts/smartContractWallet.sol\":1733:1863  if (_amount > 0) {... */\n      jump(tag_73)\n    tag_72:\n        /* \"contracts/smartContractWallet.sol\":1847:1852  false */\n      0x00\n        /* \"contracts/smartContractWallet.sol\":1823:1838  isAllowedToSend */\n      0x02\n        /* \"contracts/smartContractWallet.sol\":1823:1844  isAllowedToSend[_for] */\n      0x00\n        /* \"contracts/smartContractWallet.sol\":1839:1843  _for */\n      dup5\n        /* \"contracts/smartContractWallet.sol\":1823:1844  isAllowedToSend[_for] */\n      0xffffffffffffffffffffffffffffffffffffffff\n      and\n      0xffffffffffffffffffffffffffffffffffffffff\n      and\n      dup2\n      mstore\n      0x20\n      add\n      swap1\n      dup2\n      mstore\n      0x20\n      add\n      0x00\n      keccak256\n      0x00\n        /* \"contracts/smartContractWallet.sol\":1823:1852  isAllowedToSend[_for] = false */\n      0x0100\n      exp\n      dup2\n      sload\n      dup2\n      0xff\n      mul\n      not\n      and\n      swap1\n      dup4\n      iszero\n      iszero\n      mul\n      or\n      swap1\n      sstore\n      pop\n        /* \"contracts/smartContractWallet.sol\":1733:1863  if (_amount > 0) {... */\n    tag_73:\n        /* \"contracts/smartContractWallet.sol\":1552:1869  function setAllowance(address _for, uint256 _amount) public {... */\n      pop\n      pop\n      jump\t// out\n        /* \"contracts/smartContractWallet.sol\":290:334  mapping(address => uint256) public allowance */\n    tag_40:\n      mstore(0x20, 0x01)\n      dup1\n      0x00\n      mstore\n      keccak256(0x00, 0x40)\n      0x00\n      swap2\n      pop\n      swap1\n      pop\n      sload\n      dup2\n      jump\t// out\n        /* \"contracts/smartContractWallet.sol\":255:283  address payable public owner */\n    tag_45:\n      0x00\n      0x00\n      swap1\n      sload\n      swap1\n      0x0100\n      exp\n      swap1\n      div\n      0xffffffffffffffffffffffffffffffffffffffff\n      and\n      dup2\n      jump\t// out\n        /* \"contracts/smartContractWallet.sol\":907:1546  function proposeNewOwner(address payable _newOwner) public {... */\n    tag_52:\n        /* \"contracts/smartContractWallet.sol\":997:1006  guardians */\n      0x03\n        /* \"contracts/smartContractWallet.sol\":997:1018  guardians[msg.sender] */\n      0x00\n        /* \"contracts/smartContractWallet.sol\":1007:1017  msg.sender */\n      caller\n        /* \"contracts/smartContractWallet.sol\":997:1018  guardians[msg.sender] */\n      0xffffffffffffffffffffffffffffffffffffffff\n      and\n      0xffffffffffffffffffffffffffffffffffffffff\n      and\n      dup2\n      mstore\n      0x20\n      add\n      swap1\n      dup2\n      mstore\n      0x20\n      add\n      0x00\n      keccak256\n      0x00\n      swap1\n      sload\n      swap1\n      0x0100\n      exp\n      swap1\n      div\n      0xff\n      and\n        /* \"contracts/smartContractWallet.sol\":976:1090  require(... */\n      tag_75\n      jumpi\n      mload(0x40)\n      0x08c379a000000000000000000000000000000000000000000000000000000000\n      dup2\n      mstore\n      0x04\n      add\n      tag_76\n      swap1\n      tag_77\n      jump\t// in\n    tag_76:\n      mload(0x40)\n      dup1\n      swap2\n      sub\n      swap1\n      revert\n    tag_75:\n        /* \"contracts/smartContractWallet.sol\":1173:1178  false */\n      0x00\n        /* \"contracts/smartContractWallet.sol\":1121:1178  nextOwnerGuardianVoteBool[_newOwner][msg.sender] == false */\n      iszero\n      iszero\n        /* \"contracts/smartContractWallet.sol\":1121:1146  nextOwnerGuardianVoteBool */\n      0x05\n        /* \"contracts/smartContractWallet.sol\":1121:1157  nextOwnerGuardianVoteBool[_newOwner] */\n      0x00\n        /* \"contracts/smartContractWallet.sol\":1147:1156  _newOwner */\n      dup4\n        /* \"contracts/smartContractWallet.sol\":1121:1157  nextOwnerGuardianVoteBool[_newOwner] */\n      0xffffffffffffffffffffffffffffffffffffffff\n      and\n      0xffffffffffffffffffffffffffffffffffffffff\n      and\n      dup2\n      mstore\n      0x20\n      add\n      swap1\n      dup2\n      mstore\n      0x20\n      add\n      0x00\n      keccak256\n        /* \"contracts/smartContractWallet.sol\":1121:1169  nextOwnerGuardianVoteBool[_newOwner][msg.sender] */\n      0x00\n        /* \"contracts/smartContractWallet.sol\":1158:1168  msg.sender */\n      caller\n        /* \"contracts/smartContractWallet.sol\":1121:1169  nextOwnerGuardianVoteBool[_newOwner][msg.sender] */\n      0xffffffffffffffffffffffffffffffffffffffff\n      and\n      0xffffffffffffffffffffffffffffffffffffffff\n      and\n      dup2\n      mstore\n      0x20\n      add\n      swap1\n      dup2\n      mstore\n      0x20\n      add\n      0x00\n      keccak256\n      0x00\n      swap1\n      sload\n      swap1\n      0x0100\n      exp\n      swap1\n      div\n      0xff\n      and\n        /* \"contracts/smartContractWallet.sol\":1121:1178  nextOwnerGuardianVoteBool[_newOwner][msg.sender] == false */\n      iszero\n      iszero\n      eq\n        /* \"contracts/smartContractWallet.sol\":1100:1233  require(... */\n      tag_78\n      jumpi\n      mload(0x40)\n      0x08c379a000000000000000000000000000000000000000000000000000000000\n      dup2\n      mstore\n      0x04\n      add\n      tag_79\n      swap1\n      tag_80\n      jump\t// in\n    tag_79:\n      mload(0x40)\n      dup1\n      swap2\n      sub\n      swap1\n      revert\n    tag_78:\n        /* \"contracts/smartContractWallet.sol\":1260:1269  nextOwner */\n      0x04\n      0x00\n      swap1\n      sload\n      swap1\n      0x0100\n      exp\n      swap1\n      div\n      0xffffffffffffffffffffffffffffffffffffffff\n      and\n        /* \"contracts/smartContractWallet.sol\":1247:1269  _newOwner != nextOwner */\n      0xffffffffffffffffffffffffffffffffffffffff\n      and\n        /* \"contracts/smartContractWallet.sol\":1247:1256  _newOwner */\n      dup2\n        /* \"contracts/smartContractWallet.sol\":1247:1269  _newOwner != nextOwner */\n      0xffffffffffffffffffffffffffffffffffffffff\n      and\n      eq\n        /* \"contracts/smartContractWallet.sol\":1243:1353  if (_newOwner != nextOwner) {... */\n      tag_81\n      jumpi\n        /* \"contracts/smartContractWallet.sol\":1297:1306  _newOwner */\n      dup1\n        /* \"contracts/smartContractWallet.sol\":1285:1294  nextOwner */\n      0x04\n      0x00\n        /* \"contracts/smartContractWallet.sol\":1285:1306  nextOwner = _newOwner */\n      0x0100\n      exp\n      dup2\n      sload\n      dup2\n      0xffffffffffffffffffffffffffffffffffffffff\n      mul\n      not\n      and\n      swap1\n      dup4\n      0xffffffffffffffffffffffffffffffffffffffff\n      and\n      mul\n      or\n      swap1\n      sstore\n      pop\n        /* \"contracts/smartContractWallet.sol\":1341:1342  0 */\n      0x00\n        /* \"contracts/smartContractWallet.sol\":1320:1338  guardianResetCount */\n      0x06\n        /* \"contracts/smartContractWallet.sol\":1320:1342  guardianResetCount = 0 */\n      dup2\n      swap1\n      sstore\n      pop\n        /* \"contracts/smartContractWallet.sol\":1243:1353  if (_newOwner != nextOwner) {... */\n    tag_81:\n        /* \"contracts/smartContractWallet.sol\":1362:1380  guardianResetCount */\n      0x06\n      0x00\n        /* \"contracts/smartContractWallet.sol\":1362:1382  guardianResetCount++ */\n      dup2\n      sload\n      dup1\n      swap3\n      swap2\n      swap1\n      tag_82\n      swap1\n      tag_83\n      jump\t// in\n    tag_82:\n      swap2\n      swap1\n      pop\n      sstore\n      pop\n        /* \"contracts/smartContractWallet.sol\":639:640  3 */\n      0x03\n        /* \"contracts/smartContractWallet.sol\":1397:1415  guardianResetCount */\n      sload(0x06)\n        /* \"contracts/smartContractWallet.sol\":1397:1451  guardianResetCount >= confirmationFromGuardianForReset */\n      lt\n        /* \"contracts/smartContractWallet.sol\":1393:1540  if (guardianResetCount >= confirmationFromGuardianForReset) {... */\n      tag_84\n      jumpi\n        /* \"contracts/smartContractWallet.sol\":1475:1484  nextOwner */\n      0x04\n      0x00\n      swap1\n      sload\n      swap1\n      0x0100\n      exp\n      swap1\n      div\n      0xffffffffffffffffffffffffffffffffffffffff\n      and\n        /* \"contracts/smartContractWallet.sol\":1467:1472  owner */\n      0x00\n      0x00\n        /* \"contracts/smartContractWallet.sol\":1467:1484  owner = nextOwner */\n      0x0100\n      exp\n      dup2\n      sload\n      dup2\n      0xffffffffffffffffffffffffffffffffffffffff\n      mul\n      not\n      and\n      swap1\n      dup4\n      0xffffffffffffffffffffffffffffffffffffffff\n      and\n      mul\n      or\n      swap1\n      sstore\n      pop\n        /* \"contracts/smartContractWallet.sol\":1526:1527  0 */\n      0x00\n        /* \"contracts/smartContractWallet.sol\":1498:1507  nextOwner */\n      0x04\n      0x00\n        /* \"contracts/smartContractWallet.sol\":1498:1529  nextOwner = payable(address(0)) */\n      0x0100\n      exp\n      dup2\n      sload\n      dup2\n      0xffffffffffffffffffffffffffffffffffffffff\n      mul\n      not\n      and\n      swap1\n      dup4\n      0xffffffffffffffffffffffffffffffffffffffff\n      and\n      mul\n      or\n      swap1\n      sstore\n      pop\n        /* \"contracts/smartContractWallet.sol\":1393:1540  if (guardianResetCount >= confirmationFromGuardianForReset) {... */\n    tag_84:\n        /* \"contracts/smartContractWallet.sol\":907:1546  function proposeNewOwner(address payable _newOwner) public {... */\n      pop\n      jump\t// out\n        /* \"contracts/smartContractWallet.sol\":1875:2721  function transfer(... */\n    tag_57:\n        /* \"contracts/smartContractWallet.sol\":2000:2012  bytes memory */\n      0x60\n        /* \"contracts/smartContractWallet.sol\":2046:2051  owner */\n      0x00\n      0x00\n      swap1\n      sload\n      swap1\n      0x0100\n      exp\n      swap1\n      div\n      0xffffffffffffffffffffffffffffffffffffffff\n      and\n        /* \"contracts/smartContractWallet.sol\":2032:2051  msg.sender == owner */\n      0xffffffffffffffffffffffffffffffffffffffff\n      and\n        /* \"contracts/smartContractWallet.sol\":2032:2042  msg.sender */\n      caller\n        /* \"contracts/smartContractWallet.sol\":2032:2051  msg.sender == owner */\n      0xffffffffffffffffffffffffffffffffffffffff\n      and\n      eq\n        /* \"contracts/smartContractWallet.sol\":2024:2088  require(msg.sender == owner, \"you are not the owner, aborting!\") */\n      tag_86\n      jumpi\n      mload(0x40)\n      0x08c379a000000000000000000000000000000000000000000000000000000000\n      dup2\n      mstore\n      0x04\n      add\n      tag_87\n      swap1\n      tag_88\n      jump\t// in\n    tag_87:\n      mload(0x40)\n      dup1\n      swap2\n      sub\n      swap1\n      revert\n    tag_86:\n        /* \"contracts/smartContractWallet.sol\":2116:2121  owner */\n      0x00\n      0x00\n      swap1\n      sload\n      swap1\n      0x0100\n      exp\n      swap1\n      div\n      0xffffffffffffffffffffffffffffffffffffffff\n      and\n        /* \"contracts/smartContractWallet.sol\":2102:2121  msg.sender != owner */\n      0xffffffffffffffffffffffffffffffffffffffff\n      and\n        /* \"contracts/smartContractWallet.sol\":2102:2112  msg.sender */\n      caller\n        /* \"contracts/smartContractWallet.sol\":2102:2121  msg.sender != owner */\n      0xffffffffffffffffffffffffffffffffffffffff\n      and\n      eq\n        /* \"contracts/smartContractWallet.sol\":2098:2516  if (msg.sender != owner) {... */\n      tag_89\n      jumpi\n        /* \"contracts/smartContractWallet.sol\":2162:2177  isAllowedToSend */\n      0x02\n        /* \"contracts/smartContractWallet.sol\":2162:2189  isAllowedToSend[msg.sender] */\n      0x00\n        /* \"contracts/smartContractWallet.sol\":2178:2188  msg.sender */\n      caller\n        /* \"contracts/smartContractWallet.sol\":2162:2189  isAllowedToSend[msg.sender] */\n      0xffffffffffffffffffffffffffffffffffffffff\n      and\n      0xffffffffffffffffffffffffffffffffffffffff\n      and\n      dup2\n      mstore\n      0x20\n      add\n      swap1\n      dup2\n      mstore\n      0x20\n      add\n      0x00\n      keccak256\n      0x00\n      swap1\n      sload\n      swap1\n      0x0100\n      exp\n      swap1\n      div\n      0xff\n      and\n        /* \"contracts/smartContractWallet.sol\":2137:2295  require(... */\n      tag_90\n      jumpi\n      mload(0x40)\n      0x08c379a000000000000000000000000000000000000000000000000000000000\n      dup2\n      mstore\n      0x04\n      add\n      tag_91\n      swap1\n      tag_92\n      jump\t// in\n    tag_91:\n      mload(0x40)\n      dup1\n      swap2\n      sub\n      swap1\n      revert\n    tag_90:\n        /* \"contracts/smartContractWallet.sol\":2359:2366  _amount */\n      dup3\n        /* \"contracts/smartContractWallet.sol\":2334:2343  allowance */\n      0x01\n        /* \"contracts/smartContractWallet.sol\":2334:2355  allowance[msg.sender] */\n      0x00\n        /* \"contracts/smartContractWallet.sol\":2344:2354  msg.sender */\n      caller\n        /* \"contracts/smartContractWallet.sol\":2334:2355  allowance[msg.sender] */\n      0xffffffffffffffffffffffffffffffffffffffff\n      and\n      0xffffffffffffffffffffffffffffffffffffffff\n      and\n      dup2\n      mstore\n      0x20\n      add\n      swap1\n      dup2\n      mstore\n      0x20\n      add\n      0x00\n      keccak256\n      sload\n        /* \"contracts/smartContractWallet.sol\":2334:2366  allowance[msg.sender] >= _amount */\n      lt\n      iszero\n        /* \"contracts/smartContractWallet.sol\":2309:2458  require(... */\n      tag_93\n      jumpi\n      mload(0x40)\n      0x08c379a000000000000000000000000000000000000000000000000000000000\n      dup2\n      mstore\n      0x04\n      add\n      tag_94\n      swap1\n      tag_95\n      jump\t// in\n    tag_94:\n      mload(0x40)\n      dup1\n      swap2\n      sub\n      swap1\n      revert\n    tag_93:\n        /* \"contracts/smartContractWallet.sol\":2498:2505  _amount */\n      dup3\n        /* \"contracts/smartContractWallet.sol\":2473:2482  allowance */\n      0x01\n        /* \"contracts/smartContractWallet.sol\":2473:2494  allowance[msg.sender] */\n      0x00\n        /* \"contracts/smartContractWallet.sol\":2483:2493  msg.sender */\n      caller\n        /* \"contracts/smartContractWallet.sol\":2473:2494  allowance[msg.sender] */\n      0xffffffffffffffffffffffffffffffffffffffff\n      and\n      0xffffffffffffffffffffffffffffffffffffffff\n      and\n      dup2\n      mstore\n      0x20\n      add\n      swap1\n      dup2\n      mstore\n      0x20\n      add\n      0x00\n      keccak256\n      0x00\n        /* \"contracts/smartContractWallet.sol\":2473:2505  allowance[msg.sender] -= _amount */\n      dup3\n      dup3\n      sload\n      tag_96\n      swap2\n      swap1\n      tag_97\n      jump\t// in\n    tag_96:\n      swap3\n      pop\n      pop\n      dup2\n      swap1\n      sstore\n      pop\n        /* \"contracts/smartContractWallet.sol\":2098:2516  if (msg.sender != owner) {... */\n    tag_89:\n        /* \"contracts/smartContractWallet.sol\":2527:2539  bool success */\n      0x00\n        /* \"contracts/smartContractWallet.sol\":2541:2564  bytes memory returnData */\n      0x00\n        /* \"contracts/smartContractWallet.sol\":2568:2571  _to */\n      dup6\n        /* \"contracts/smartContractWallet.sol\":2568:2576  _to.call */\n      0xffffffffffffffffffffffffffffffffffffffff\n      and\n        /* \"contracts/smartContractWallet.sol\":2584:2591  _amount */\n      dup6\n        /* \"contracts/smartContractWallet.sol\":2606:2614  _payload */\n      dup6\n        /* \"contracts/smartContractWallet.sol\":2568:2624  _to.call{value: _amount}(... */\n      mload(0x40)\n      tag_98\n      swap2\n      swap1\n      tag_99\n      jump\t// in\n    tag_98:\n      0x00\n      mload(0x40)\n      dup1\n      dup4\n      sub\n      dup2\n      dup6\n      dup8\n      gas\n      call\n      swap3\n      pop\n      pop\n      pop\n      returndatasize\n      dup1\n      0x00\n      dup2\n      eq\n      tag_102\n      jumpi\n      mload(0x40)\n      swap2\n      pop\n      and(add(returndatasize, 0x3f), not(0x1f))\n      dup3\n      add\n      0x40\n      mstore\n      returndatasize\n      dup3\n      mstore\n      returndatasize\n      0x00\n      0x20\n      dup5\n      add\n      returndatacopy\n      jump(tag_101)\n    tag_102:\n      0x60\n      swap2\n      pop\n    tag_101:\n      pop\n        /* \"contracts/smartContractWallet.sol\":2526:2624  (bool success, bytes memory returnData) = _to.call{value: _amount}(... */\n      swap2\n      pop\n      swap2\n      pop\n        /* \"contracts/smartContractWallet.sol\":2642:2649  success */\n      dup2\n        /* \"contracts/smartContractWallet.sol\":2634:2687  require(success, \"Aborting, call was not successful\") */\n      tag_103\n      jumpi\n      mload(0x40)\n      0x08c379a000000000000000000000000000000000000000000000000000000000\n      dup2\n      mstore\n      0x04\n      add\n      tag_104\n      swap1\n      tag_105\n      jump\t// in\n    tag_104:\n      mload(0x40)\n      dup1\n      swap2\n      sub\n      swap1\n      revert\n    tag_103:\n        /* \"contracts/smartContractWallet.sol\":2704:2714  returnData */\n      dup1\n        /* \"contracts/smartContractWallet.sol\":2697:2714  return returnData */\n      swap3\n      pop\n      pop\n      pop\n        /* \"contracts/smartContractWallet.sol\":1875:2721  function transfer(... */\n      swap4\n      swap3\n      pop\n      pop\n      pop\n      jump\t// out\n        /* \"contracts/smartContractWallet.sol\":580:640  uint256 public constant confirmationFromGuardianForReset = 3 */\n    tag_62:\n        /* \"contracts/smartContractWallet.sol\":639:640  3 */\n      0x03\n        /* \"contracts/smartContractWallet.sol\":580:640  uint256 public constant confirmationFromGuardianForReset = 3 */\n      dup2\n      jump\t// out\n        /* \"#utility.yul\":7:82   */\n    tag_106:\n        /* \"#utility.yul\":40:46   */\n      0x00\n        /* \"#utility.yul\":73:75   */\n      0x40\n        /* \"#utility.yul\":67:76   */\n      mload\n        /* \"#utility.yul\":57:76   */\n      swap1\n      pop\n        /* \"#utility.yul\":7:82   */\n      swap1\n      jump\t// out\n        /* \"#utility.yul\":88:205   */\n    tag_107:\n        /* \"#utility.yul\":197:198   */\n      0x00\n        /* \"#utility.yul\":194:195   */\n      0x00\n        /* \"#utility.yul\":187:199   */\n      revert\n        /* \"#utility.yul\":211:328   */\n    tag_108:\n        /* \"#utility.yul\":320:321   */\n      0x00\n        /* \"#utility.yul\":317:318   */\n      0x00\n        /* \"#utility.yul\":310:322   */\n      revert\n        /* \"#utility.yul\":334:460   */\n    tag_109:\n        /* \"#utility.yul\":371:378   */\n      0x00\n        /* \"#utility.yul\":411:453   */\n      0xffffffffffffffffffffffffffffffffffffffff\n        /* \"#utility.yul\":404:409   */\n      dup3\n        /* \"#utility.yul\":400:454   */\n      and\n        /* \"#utility.yul\":389:454   */\n      swap1\n      pop\n        /* \"#utility.yul\":334:460   */\n      swap2\n      swap1\n      pop\n      jump\t// out\n        /* \"#utility.yul\":466:562   */\n    tag_110:\n        /* \"#utility.yul\":503:510   */\n      0x00\n        /* \"#utility.yul\":532:556   */\n      tag_165\n        /* \"#utility.yul\":550:555   */\n      dup3\n        /* \"#utility.yul\":532:556   */\n      tag_109\n      jump\t// in\n    tag_165:\n        /* \"#utility.yul\":521:556   */\n      swap1\n      pop\n        /* \"#utility.yul\":466:562   */\n      swap2\n      swap1\n      pop\n      jump\t// out\n        /* \"#utility.yul\":568:690   */\n    tag_111:\n        /* \"#utility.yul\":641:665   */\n      tag_167\n        /* \"#utility.yul\":659:664   */\n      dup2\n        /* \"#utility.yul\":641:665   */\n      tag_110\n      jump\t// in\n    tag_167:\n        /* \"#utility.yul\":634:639   */\n      dup2\n        /* \"#utility.yul\":631:666   */\n      eq\n        /* \"#utility.yul\":621:684   */\n      tag_168\n      jumpi\n        /* \"#utility.yul\":680:681   */\n      0x00\n        /* \"#utility.yul\":677:678   */\n      0x00\n        /* \"#utility.yul\":670:682   */\n      revert\n        /* \"#utility.yul\":621:684   */\n    tag_168:\n        /* \"#utility.yul\":568:690   */\n      pop\n      jump\t// out\n        /* \"#utility.yul\":696:835   */\n    tag_112:\n        /* \"#utility.yul\":742:747   */\n      0x00\n        /* \"#utility.yul\":780:786   */\n      dup2\n        /* \"#utility.yul\":767:787   */\n      calldataload\n        /* \"#utility.yul\":758:787   */\n      swap1\n      pop\n        /* \"#utility.yul\":796:829   */\n      tag_170\n        /* \"#utility.yul\":823:828   */\n      dup2\n        /* \"#utility.yul\":796:829   */\n      tag_111\n      jump\t// in\n    tag_170:\n        /* \"#utility.yul\":696:835   */\n      swap3\n      swap2\n      pop\n      pop\n      jump\t// out\n        /* \"#utility.yul\":841:1170   */\n    tag_18:\n        /* \"#utility.yul\":900:906   */\n      0x00\n        /* \"#utility.yul\":949:951   */\n      0x20\n        /* \"#utility.yul\":937:946   */\n      dup3\n        /* \"#utility.yul\":928:935   */\n      dup5\n        /* \"#utility.yul\":924:947   */\n      sub\n        /* \"#utility.yul\":920:952   */\n      slt\n        /* \"#utility.yul\":917:1036   */\n      iszero\n      tag_172\n      jumpi\n        /* \"#utility.yul\":955:1034   */\n      tag_173\n      tag_107\n      jump\t// in\n    tag_173:\n        /* \"#utility.yul\":917:1036   */\n    tag_172:\n        /* \"#utility.yul\":1075:1076   */\n      0x00\n        /* \"#utility.yul\":1100:1153   */\n      tag_174\n        /* \"#utility.yul\":1145:1152   */\n      dup5\n        /* \"#utility.yul\":1136:1142   */\n      dup3\n        /* \"#utility.yul\":1125:1134   */\n      dup6\n        /* \"#utility.yul\":1121:1143   */\n      add\n        /* \"#utility.yul\":1100:1153   */\n      tag_112\n      jump\t// in\n    tag_174:\n        /* \"#utility.yul\":1090:1153   */\n      swap2\n      pop\n        /* \"#utility.yul\":1046:1163   */\n      pop\n        /* \"#utility.yul\":841:1170   */\n      swap3\n      swap2\n      pop\n      pop\n      jump\t// out\n        /* \"#utility.yul\":1176:1266   */\n    tag_113:\n        /* \"#utility.yul\":1210:1217   */\n      0x00\n        /* \"#utility.yul\":1253:1258   */\n      dup2\n        /* \"#utility.yul\":1246:1259   */\n      iszero\n        /* \"#utility.yul\":1239:1260   */\n      iszero\n        /* \"#utility.yul\":1228:1260   */\n      swap1\n      pop\n        /* \"#utility.yul\":1176:1266   */\n      swap2\n      swap1\n      pop\n      jump\t// out\n        /* \"#utility.yul\":1272:1381   */\n    tag_114:\n        /* \"#utility.yul\":1353:1374   */\n      tag_177\n        /* \"#utility.yul\":1368:1373   */\n      dup2\n        /* \"#utility.yul\":1353:1374   */\n      tag_113\n      jump\t// in\n    tag_177:\n        /* \"#utility.yul\":1348:1351   */\n      dup3\n        /* \"#utility.yul\":1341:1375   */\n      mstore\n        /* \"#utility.yul\":1272:1381   */\n      pop\n      pop\n      jump\t// out\n        /* \"#utility.yul\":1387:1597   */\n    tag_21:\n        /* \"#utility.yul\":1474:1478   */\n      0x00\n        /* \"#utility.yul\":1512:1514   */\n      0x20\n        /* \"#utility.yul\":1501:1510   */\n      dup3\n        /* \"#utility.yul\":1497:1515   */\n      add\n        /* \"#utility.yul\":1489:1515   */\n      swap1\n      pop\n        /* \"#utility.yul\":1525:1590   */\n      tag_179\n        /* \"#utility.yul\":1587:1588   */\n      0x00\n        /* \"#utility.yul\":1576:1585   */\n      dup4\n        /* \"#utility.yul\":1572:1589   */\n      add\n        /* \"#utility.yul\":1563:1569   */\n      dup5\n        /* \"#utility.yul\":1525:1590   */\n      tag_114\n      jump\t// in\n    tag_179:\n        /* \"#utility.yul\":1387:1597   */\n      swap3\n      swap2\n      pop\n      pop\n      jump\t// out\n        /* \"#utility.yul\":1603:1719   */\n    tag_115:\n        /* \"#utility.yul\":1673:1694   */\n      tag_181\n        /* \"#utility.yul\":1688:1693   */\n      dup2\n        /* \"#utility.yul\":1673:1694   */\n      tag_113\n      jump\t// in\n    tag_181:\n        /* \"#utility.yul\":1666:1671   */\n      dup2\n        /* \"#utility.yul\":1663:1695   */\n      eq\n        /* \"#utility.yul\":1653:1713   */\n      tag_182\n      jumpi\n        /* \"#utility.yul\":1709:1710   */\n      0x00\n        /* \"#utility.yul\":1706:1707   */\n      0x00\n        /* \"#utility.yul\":1699:1711   */\n      revert\n        /* \"#utility.yul\":1653:1713   */\n    tag_182:\n        /* \"#utility.yul\":1603:1719   */\n      pop\n      jump\t// out\n        /* \"#utility.yul\":1725:1858   */\n    tag_116:\n        /* \"#utility.yul\":1768:1773   */\n      0x00\n        /* \"#utility.yul\":1806:1812   */\n      dup2\n        /* \"#utility.yul\":1793:1813   */\n      calldataload\n        /* \"#utility.yul\":1784:1813   */\n      swap1\n      pop\n        /* \"#utility.yul\":1822:1852   */\n      tag_184\n        /* \"#utility.yul\":1846:1851   */\n      dup2\n        /* \"#utility.yul\":1822:1852   */\n      tag_115\n      jump\t// in\n    tag_184:\n        /* \"#utility.yul\":1725:1858   */\n      swap3\n      swap2\n      pop\n      pop\n      jump\t// out\n        /* \"#utility.yul\":1864:2332   */\n    tag_30:\n        /* \"#utility.yul\":1929:1935   */\n      0x00\n        /* \"#utility.yul\":1937:1943   */\n      0x00\n        /* \"#utility.yul\":1986:1988   */\n      0x40\n        /* \"#utility.yul\":1974:1983   */\n      dup4\n        /* \"#utility.yul\":1965:1972   */\n      dup6\n        /* \"#utility.yul\":1961:1984   */\n      sub\n        /* \"#utility.yul\":1957:1989   */\n      slt\n        /* \"#utility.yul\":1954:2073   */\n      iszero\n      tag_186\n      jumpi\n        /* \"#utility.yul\":1992:2071   */\n      tag_187\n      tag_107\n      jump\t// in\n    tag_187:\n        /* \"#utility.yul\":1954:2073   */\n    tag_186:\n        /* \"#utility.yul\":2112:2113   */\n      0x00\n        /* \"#utility.yul\":2137:2190   */\n      tag_188\n        /* \"#utility.yul\":2182:2189   */\n      dup6\n        /* \"#utility.yul\":2173:2179   */\n      dup3\n        /* \"#utility.yul\":2162:2171   */\n      dup7\n        /* \"#utility.yul\":2158:2180   */\n      add\n        /* \"#utility.yul\":2137:2190   */\n      tag_112\n      jump\t// in\n    tag_188:\n        /* \"#utility.yul\":2127:2190   */\n      swap3\n      pop\n        /* \"#utility.yul\":2083:2200   */\n      pop\n        /* \"#utility.yul\":2239:2241   */\n      0x20\n        /* \"#utility.yul\":2265:2315   */\n      tag_189\n        /* \"#utility.yul\":2307:2314   */\n      dup6\n        /* \"#utility.yul\":2298:2304   */\n      dup3\n        /* \"#utility.yul\":2287:2296   */\n      dup7\n        /* \"#utility.yul\":2283:2305   */\n      add\n        /* \"#utility.yul\":2265:2315   */\n      tag_116\n      jump\t// in\n    tag_189:\n        /* \"#utility.yul\":2255:2315   */\n      swap2\n      pop\n        /* \"#utility.yul\":2210:2325   */\n      pop\n        /* \"#utility.yul\":1864:2332   */\n      swap3\n      pop\n      swap3\n      swap1\n      pop\n      jump\t// out\n        /* \"#utility.yul\":2338:2415   */\n    tag_117:\n        /* \"#utility.yul\":2375:2382   */\n      0x00\n        /* \"#utility.yul\":2404:2409   */\n      dup2\n        /* \"#utility.yul\":2393:2409   */\n      swap1\n      pop\n        /* \"#utility.yul\":2338:2415   */\n      swap2\n      swap1\n      pop\n      jump\t// out\n        /* \"#utility.yul\":2421:2543   */\n    tag_118:\n        /* \"#utility.yul\":2494:2518   */\n      tag_192\n        /* \"#utility.yul\":2512:2517   */\n      dup2\n        /* \"#utility.yul\":2494:2518   */\n      tag_117\n      jump\t// in\n    tag_192:\n        /* \"#utility.yul\":2487:2492   */\n      dup2\n        /* \"#utility.yul\":2484:2519   */\n      eq\n        /* \"#utility.yul\":2474:2537   */\n      tag_193\n      jumpi\n        /* \"#utility.yul\":2533:2534   */\n      0x00\n        /* \"#utility.yul\":2530:2531   */\n      0x00\n        /* \"#utility.yul\":2523:2535   */\n      revert\n        /* \"#utility.yul\":2474:2537   */\n    tag_193:\n        /* \"#utility.yul\":2421:2543   */\n      pop\n      jump\t// out\n        /* \"#utility.yul\":2549:2688   */\n    tag_119:\n        /* \"#utility.yul\":2595:2600   */\n      0x00\n        /* \"#utility.yul\":2633:2639   */\n      dup2\n        /* \"#utility.yul\":2620:2640   */\n      calldataload\n        /* \"#utility.yul\":2611:2640   */\n      swap1\n      pop\n        /* \"#utility.yul\":2649:2682   */\n      tag_195\n        /* \"#utility.yul\":2676:2681   */\n      dup2\n        /* \"#utility.yul\":2649:2682   */\n      tag_118\n      jump\t// in\n    tag_195:\n        /* \"#utility.yul\":2549:2688   */\n      swap3\n      swap2\n      pop\n      pop\n      jump\t// out\n        /* \"#utility.yul\":2694:3168   */\n    tag_35:\n        /* \"#utility.yul\":2762:2768   */\n      0x00\n        /* \"#utility.yul\":2770:2776   */\n      0x00\n        /* \"#utility.yul\":2819:2821   */\n      0x40\n        /* \"#utility.yul\":2807:2816   */\n      dup4\n        /* \"#utility.yul\":2798:2805   */\n      dup6\n        /* \"#utility.yul\":2794:2817   */\n      sub\n        /* \"#utility.yul\":2790:2822   */\n      slt\n        /* \"#utility.yul\":2787:2906   */\n      iszero\n      tag_197\n      jumpi\n        /* \"#utility.yul\":2825:2904   */\n      tag_198\n      tag_107\n      jump\t// in\n    tag_198:\n        /* \"#utility.yul\":2787:2906   */\n    tag_197:\n        /* \"#utility.yul\":2945:2946   */\n      0x00\n        /* \"#utility.yul\":2970:3023   */\n      tag_199\n        /* \"#utility.yul\":3015:3022   */\n      dup6\n        /* \"#utility.yul\":3006:3012   */\n      dup3\n        /* \"#utility.yul\":2995:3004   */\n      dup7\n        /* \"#utility.yul\":2991:3013   */\n      add\n        /* \"#utility.yul\":2970:3023   */\n      tag_112\n      jump\t// in\n    tag_199:\n        /* \"#utility.yul\":2960:3023   */\n      swap3\n      pop\n        /* \"#utility.yul\":2916:3033   */\n      pop\n        /* \"#utility.yul\":3072:3074   */\n      0x20\n        /* \"#utility.yul\":3098:3151   */\n      tag_200\n        /* \"#utility.yul\":3143:3150   */\n      dup6\n        /* \"#utility.yul\":3134:3140   */\n      dup3\n        /* \"#utility.yul\":3123:3132   */\n      dup7\n        /* \"#utility.yul\":3119:3141   */\n      add\n        /* \"#utility.yul\":3098:3151   */\n      tag_119\n      jump\t// in\n    tag_200:\n        /* \"#utility.yul\":3088:3151   */\n      swap2\n      pop\n        /* \"#utility.yul\":3043:3161   */\n      pop\n        /* \"#utility.yul\":2694:3168   */\n      swap3\n      pop\n      swap3\n      swap1\n      pop\n      jump\t// out\n        /* \"#utility.yul\":3174:3292   */\n    tag_120:\n        /* \"#utility.yul\":3261:3285   */\n      tag_202\n        /* \"#utility.yul\":3279:3284   */\n      dup2\n        /* \"#utility.yul\":3261:3285   */\n      tag_117\n      jump\t// in\n    tag_202:\n        /* \"#utility.yul\":3256:3259   */\n      dup3\n        /* \"#utility.yul\":3249:3286   */\n      mstore\n        /* \"#utility.yul\":3174:3292   */\n      pop\n      pop\n      jump\t// out\n        /* \"#utility.yul\":3298:3520   */\n    tag_42:\n        /* \"#utility.yul\":3391:3395   */\n      0x00\n        /* \"#utility.yul\":3429:3431   */\n      0x20\n        /* \"#utility.yul\":3418:3427   */\n      dup3\n        /* \"#utility.yul\":3414:3432   */\n      add\n        /* \"#utility.yul\":3406:3432   */\n      swap1\n      pop\n        /* \"#utility.yul\":3442:3513   */\n      tag_204\n        /* \"#utility.yul\":3510:3511   */\n      0x00\n        /* \"#utility.yul\":3499:3508   */\n      dup4\n        /* \"#utility.yul\":3495:3512   */\n      add\n        /* \"#utility.yul\":3486:3492   */\n      dup5\n        /* \"#utility.yul\":3442:3513   */\n      tag_120\n      jump\t// in\n    tag_204:\n        /* \"#utility.yul\":3298:3520   */\n      swap3\n      swap2\n      pop\n      pop\n      jump\t// out\n        /* \"#utility.yul\":3526:3630   */\n    tag_121:\n        /* \"#utility.yul\":3571:3578   */\n      0x00\n        /* \"#utility.yul\":3600:3624   */\n      tag_206\n        /* \"#utility.yul\":3618:3623   */\n      dup3\n        /* \"#utility.yul\":3600:3624   */\n      tag_109\n      jump\t// in\n    tag_206:\n        /* \"#utility.yul\":3589:3624   */\n      swap1\n      pop\n        /* \"#utility.yul\":3526:3630   */\n      swap2\n      swap1\n      pop\n      jump\t// out\n        /* \"#utility.yul\":3636:3778   */\n    tag_122:\n        /* \"#utility.yul\":3739:3771   */\n      tag_208\n        /* \"#utility.yul\":3765:3770   */\n      dup2\n        /* \"#utility.yul\":3739:3771   */\n      tag_121\n      jump\t// in\n    tag_208:\n        /* \"#utility.yul\":3734:3737   */\n      dup3\n        /* \"#utility.yul\":3727:3772   */\n      mstore\n        /* \"#utility.yul\":3636:3778   */\n      pop\n      pop\n      jump\t// out\n        /* \"#utility.yul\":3784:4038   */\n    tag_47:\n        /* \"#utility.yul\":3893:3897   */\n      0x00\n        /* \"#utility.yul\":3931:3933   */\n      0x20\n        /* \"#utility.yul\":3920:3929   */\n      dup3\n        /* \"#utility.yul\":3916:3934   */\n      add\n        /* \"#utility.yul\":3908:3934   */\n      swap1\n      pop\n        /* \"#utility.yul\":3944:4031   */\n      tag_210\n        /* \"#utility.yul\":4028:4029   */\n      0x00\n        /* \"#utility.yul\":4017:4026   */\n      dup4\n        /* \"#utility.yul\":4013:4030   */\n      add\n        /* \"#utility.yul\":4004:4010   */\n      dup5\n        /* \"#utility.yul\":3944:4031   */\n      tag_122\n      jump\t// in\n    tag_210:\n        /* \"#utility.yul\":3784:4038   */\n      swap3\n      swap2\n      pop\n      pop\n      jump\t// out\n        /* \"#utility.yul\":4044:4182   */\n    tag_123:\n        /* \"#utility.yul\":4125:4157   */\n      tag_212\n        /* \"#utility.yul\":4151:4156   */\n      dup2\n        /* \"#utility.yul\":4125:4157   */\n      tag_121\n      jump\t// in\n    tag_212:\n        /* \"#utility.yul\":4118:4123   */\n      dup2\n        /* \"#utility.yul\":4115:4158   */\n      eq\n        /* \"#utility.yul\":4105:4176   */\n      tag_213\n      jumpi\n        /* \"#utility.yul\":4172:4173   */\n      0x00\n        /* \"#utility.yul\":4169:4170   */\n      0x00\n        /* \"#utility.yul\":4162:4174   */\n      revert\n        /* \"#utility.yul\":4105:4176   */\n    tag_213:\n        /* \"#utility.yul\":4044:4182   */\n      pop\n      jump\t// out\n        /* \"#utility.yul\":4188:4343   */\n    tag_124:\n        /* \"#utility.yul\":4242:4247   */\n      0x00\n        /* \"#utility.yul\":4280:4286   */\n      dup2\n        /* \"#utility.yul\":4267:4287   */\n      calldataload\n        /* \"#utility.yul\":4258:4287   */\n      swap1\n      pop\n        /* \"#utility.yul\":4296:4337   */\n      tag_215\n        /* \"#utility.yul\":4331:4336   */\n      dup2\n        /* \"#utility.yul\":4296:4337   */\n      tag_123\n      jump\t// in\n    tag_215:\n        /* \"#utility.yul\":4188:4343   */\n      swap3\n      swap2\n      pop\n      pop\n      jump\t// out\n        /* \"#utility.yul\":4349:4694   */\n    tag_51:\n        /* \"#utility.yul\":4416:4422   */\n      0x00\n        /* \"#utility.yul\":4465:4467   */\n      0x20\n        /* \"#utility.yul\":4453:4462   */\n      dup3\n        /* \"#utility.yul\":4444:4451   */\n      dup5\n        /* \"#utility.yul\":4440:4463   */\n      sub\n        /* \"#utility.yul\":4436:4468   */\n      slt\n        /* \"#utility.yul\":4433:4552   */\n      iszero\n      tag_217\n      jumpi\n        /* \"#utility.yul\":4471:4550   */\n      tag_218\n      tag_107\n      jump\t// in\n    tag_218:\n        /* \"#utility.yul\":4433:4552   */\n    tag_217:\n        /* \"#utility.yul\":4591:4592   */\n      0x00\n        /* \"#utility.yul\":4616:4677   */\n      tag_219\n        /* \"#utility.yul\":4669:4676   */\n      dup5\n        /* \"#utility.yul\":4660:4666   */\n      dup3\n        /* \"#utility.yul\":4649:4658   */\n      dup6\n        /* \"#utility.yul\":4645:4667   */\n      add\n        /* \"#utility.yul\":4616:4677   */\n      tag_124\n      jump\t// in\n    tag_219:\n        /* \"#utility.yul\":4606:4677   */\n      swap2\n      pop\n        /* \"#utility.yul\":4562:4687   */\n      pop\n        /* \"#utility.yul\":4349:4694   */\n      swap3\n      swap2\n      pop\n      pop\n      jump\t// out\n        /* \"#utility.yul\":4700:4817   */\n    tag_125:\n        /* \"#utility.yul\":4809:4810   */\n      0x00\n        /* \"#utility.yul\":4806:4807   */\n      0x00\n        /* \"#utility.yul\":4799:4811   */\n      revert\n        /* \"#utility.yul\":4823:4940   */\n    tag_126:\n        /* \"#utility.yul\":4932:4933   */\n      0x00\n        /* \"#utility.yul\":4929:4930   */\n      0x00\n        /* \"#utility.yul\":4922:4934   */\n      revert\n        /* \"#utility.yul\":4946:5048   */\n    tag_127:\n        /* \"#utility.yul\":4987:4993   */\n      0x00\n        /* \"#utility.yul\":5038:5040   */\n      0x1f\n        /* \"#utility.yul\":5034:5041   */\n      not\n        /* \"#utility.yul\":5029:5031   */\n      0x1f\n        /* \"#utility.yul\":5022:5027   */\n      dup4\n        /* \"#utility.yul\":5018:5032   */\n      add\n        /* \"#utility.yul\":5014:5042   */\n      and\n        /* \"#utility.yul\":5004:5042   */\n      swap1\n      pop\n        /* \"#utility.yul\":4946:5048   */\n      swap2\n      swap1\n      pop\n      jump\t// out\n        /* \"#utility.yul\":5054:5234   */\n    tag_128:\n        /* \"#utility.yul\":5102:5179   */\n      0x4e487b7100000000000000000000000000000000000000000000000000000000\n        /* \"#utility.yul\":5099:5100   */\n      0x00\n        /* \"#utility.yul\":5092:5180   */\n      mstore\n        /* \"#utility.yul\":5199:5203   */\n      0x41\n        /* \"#utility.yul\":5196:5197   */\n      0x04\n        /* \"#utility.yul\":5189:5204   */\n      mstore\n        /* \"#utility.yul\":5223:5227   */\n      0x24\n        /* \"#utility.yul\":5220:5221   */\n      0x00\n        /* \"#utility.yul\":5213:5228   */\n      revert\n        /* \"#utility.yul\":5240:5521   */\n    tag_129:\n        /* \"#utility.yul\":5323:5350   */\n      tag_225\n        /* \"#utility.yul\":5345:5349   */\n      dup3\n        /* \"#utility.yul\":5323:5350   */\n      tag_127\n      jump\t// in\n    tag_225:\n        /* \"#utility.yul\":5315:5321   */\n      dup2\n        /* \"#utility.yul\":5311:5351   */\n      add\n        /* \"#utility.yul\":5453:5459   */\n      dup2\n        /* \"#utility.yul\":5441:5451   */\n      dup2\n        /* \"#utility.yul\":5438:5460   */\n      lt\n        /* \"#utility.yul\":5417:5435   */\n      0xffffffffffffffff\n        /* \"#utility.yul\":5405:5415   */\n      dup3\n        /* \"#utility.yul\":5402:5436   */\n      gt\n        /* \"#utility.yul\":5399:5461   */\n      or\n        /* \"#utility.yul\":5396:5484   */\n      iszero\n      tag_226\n      jumpi\n        /* \"#utility.yul\":5464:5482   */\n      tag_227\n      tag_128\n      jump\t// in\n    tag_227:\n        /* \"#utility.yul\":5396:5484   */\n    tag_226:\n        /* \"#utility.yul\":5504:5514   */\n      dup1\n        /* \"#utility.yul\":5500:5502   */\n      0x40\n        /* \"#utility.yul\":5493:5515   */\n      mstore\n        /* \"#utility.yul\":5283:5521   */\n      pop\n        /* \"#utility.yul\":5240:5521   */\n      pop\n      pop\n      jump\t// out\n        /* \"#utility.yul\":5527:5656   */\n    tag_130:\n        /* \"#utility.yul\":5561:5567   */\n      0x00\n        /* \"#utility.yul\":5588:5608   */\n      tag_229\n      tag_106\n      jump\t// in\n    tag_229:\n        /* \"#utility.yul\":5578:5608   */\n      swap1\n      pop\n        /* \"#utility.yul\":5617:5650   */\n      tag_230\n        /* \"#utility.yul\":5645:5649   */\n      dup3\n        /* \"#utility.yul\":5637:5643   */\n      dup3\n        /* \"#utility.yul\":5617:5650   */\n      tag_129\n      jump\t// in\n    tag_230:\n        /* \"#utility.yul\":5527:5656   */\n      swap2\n      swap1\n      pop\n      jump\t// out\n        /* \"#utility.yul\":5662:5969   */\n    tag_131:\n        /* \"#utility.yul\":5723:5727   */\n      0x00\n        /* \"#utility.yul\":5813:5831   */\n      0xffffffffffffffff\n        /* \"#utility.yul\":5805:5811   */\n      dup3\n        /* \"#utility.yul\":5802:5832   */\n      gt\n        /* \"#utility.yul\":5799:5855   */\n      iszero\n      tag_232\n      jumpi\n        /* \"#utility.yul\":5835:5853   */\n      tag_233\n      tag_128\n      jump\t// in\n    tag_233:\n        /* \"#utility.yul\":5799:5855   */\n    tag_232:\n        /* \"#utility.yul\":5873:5902   */\n      tag_234\n        /* \"#utility.yul\":5895:5901   */\n      dup3\n        /* \"#utility.yul\":5873:5902   */\n      tag_127\n      jump\t// in\n    tag_234:\n        /* \"#utility.yul\":5865:5902   */\n      swap1\n      pop\n        /* \"#utility.yul\":5957:5961   */\n      0x20\n        /* \"#utility.yul\":5951:5955   */\n      dup2\n        /* \"#utility.yul\":5947:5962   */\n      add\n        /* \"#utility.yul\":5939:5962   */\n      swap1\n      pop\n        /* \"#utility.yul\":5662:5969   */\n      swap2\n      swap1\n      pop\n      jump\t// out\n        /* \"#utility.yul\":5975:6123   */\n    tag_132:\n        /* \"#utility.yul\":6073:6079   */\n      dup3\n        /* \"#utility.yul\":6068:6071   */\n      dup2\n        /* \"#utility.yul\":6063:6066   */\n      dup4\n        /* \"#utility.yul\":6050:6080   */\n      calldatacopy\n        /* \"#utility.yul\":6114:6115   */\n      0x00\n        /* \"#utility.yul\":6105:6111   */\n      dup4\n        /* \"#utility.yul\":6100:6103   */\n      dup4\n        /* \"#utility.yul\":6096:6112   */\n      add\n        /* \"#utility.yul\":6089:6116   */\n      mstore\n        /* \"#utility.yul\":5975:6123   */\n      pop\n      pop\n      pop\n      jump\t// out\n        /* \"#utility.yul\":6129:6552   */\n    tag_133:\n        /* \"#utility.yul\":6206:6211   */\n      0x00\n        /* \"#utility.yul\":6231:6296   */\n      tag_237\n        /* \"#utility.yul\":6247:6295   */\n      tag_238\n        /* \"#utility.yul\":6288:6294   */\n      dup5\n        /* \"#utility.yul\":6247:6295   */\n      tag_131\n      jump\t// in\n    tag_238:\n        /* \"#utility.yul\":6231:6296   */\n      tag_130\n      jump\t// in\n    tag_237:\n        /* \"#utility.yul\":6222:6296   */\n      swap1\n      pop\n        /* \"#utility.yul\":6319:6325   */\n      dup3\n        /* \"#utility.yul\":6312:6317   */\n      dup2\n        /* \"#utility.yul\":6305:6326   */\n      mstore\n        /* \"#utility.yul\":6357:6361   */\n      0x20\n        /* \"#utility.yul\":6350:6355   */\n      dup2\n        /* \"#utility.yul\":6346:6362   */\n      add\n        /* \"#utility.yul\":6395:6398   */\n      dup5\n        /* \"#utility.yul\":6386:6392   */\n      dup5\n        /* \"#utility.yul\":6381:6384   */\n      dup5\n        /* \"#utility.yul\":6377:6393   */\n      add\n        /* \"#utility.yul\":6374:6399   */\n      gt\n        /* \"#utility.yul\":6371:6483   */\n      iszero\n      tag_239\n      jumpi\n        /* \"#utility.yul\":6402:6481   */\n      tag_240\n      tag_126\n      jump\t// in\n    tag_240:\n        /* \"#utility.yul\":6371:6483   */\n    tag_239:\n        /* \"#utility.yul\":6492:6546   */\n      tag_241\n        /* \"#utility.yul\":6539:6545   */\n      dup5\n        /* \"#utility.yul\":6534:6537   */\n      dup3\n        /* \"#utility.yul\":6529:6532   */\n      dup6\n        /* \"#utility.yul\":6492:6546   */\n      tag_132\n      jump\t// in\n    tag_241:\n        /* \"#utility.yul\":6212:6552   */\n      pop\n        /* \"#utility.yul\":6129:6552   */\n      swap4\n      swap3\n      pop\n      pop\n      pop\n      jump\t// out\n        /* \"#utility.yul\":6571:6909   */\n    tag_134:\n        /* \"#utility.yul\":6626:6631   */\n      0x00\n        /* \"#utility.yul\":6675:6678   */\n      dup3\n        /* \"#utility.yul\":6668:6672   */\n      0x1f\n        /* \"#utility.yul\":6660:6666   */\n      dup4\n        /* \"#utility.yul\":6656:6673   */\n      add\n        /* \"#utility.yul\":6652:6679   */\n      slt\n        /* \"#utility.yul\":6642:6764   */\n      tag_243\n      jumpi\n        /* \"#utility.yul\":6683:6762   */\n      tag_244\n      tag_125\n      jump\t// in\n    tag_244:\n        /* \"#utility.yul\":6642:6764   */\n    tag_243:\n        /* \"#utility.yul\":6800:6806   */\n      dup2\n        /* \"#utility.yul\":6787:6807   */\n      calldataload\n        /* \"#utility.yul\":6825:6903   */\n      tag_245\n        /* \"#utility.yul\":6899:6902   */\n      dup5\n        /* \"#utility.yul\":6891:6897   */\n      dup3\n        /* \"#utility.yul\":6884:6888   */\n      0x20\n        /* \"#utility.yul\":6876:6882   */\n      dup7\n        /* \"#utility.yul\":6872:6889   */\n      add\n        /* \"#utility.yul\":6825:6903   */\n      tag_133\n      jump\t// in\n    tag_245:\n        /* \"#utility.yul\":6816:6903   */\n      swap2\n      pop\n        /* \"#utility.yul\":6632:6909   */\n      pop\n        /* \"#utility.yul\":6571:6909   */\n      swap3\n      swap2\n      pop\n      pop\n      jump\t// out\n        /* \"#utility.yul\":6915:7728   */\n    tag_56:\n        /* \"#utility.yul\":7009:7015   */\n      0x00\n        /* \"#utility.yul\":7017:7023   */\n      0x00\n        /* \"#utility.yul\":7025:7031   */\n      0x00\n        /* \"#utility.yul\":7074:7076   */\n      0x60\n        /* \"#utility.yul\":7062:7071   */\n      dup5\n        /* \"#utility.yul\":7053:7060   */\n      dup7\n        /* \"#utility.yul\":7049:7072   */\n      sub\n        /* \"#utility.yul\":7045:7077   */\n      slt\n        /* \"#utility.yul\":7042:7161   */\n      iszero\n      tag_247\n      jumpi\n        /* \"#utility.yul\":7080:7159   */\n      tag_248\n      tag_107\n      jump\t// in\n    tag_248:\n        /* \"#utility.yul\":7042:7161   */\n    tag_247:\n        /* \"#utility.yul\":7200:7201   */\n      0x00\n        /* \"#utility.yul\":7225:7286   */\n      tag_249\n        /* \"#utility.yul\":7278:7285   */\n      dup7\n        /* \"#utility.yul\":7269:7275   */\n      dup3\n        /* \"#utility.yul\":7258:7267   */\n      dup8\n        /* \"#utility.yul\":7254:7276   */\n      add\n        /* \"#utility.yul\":7225:7286   */\n      tag_124\n      jump\t// in\n    tag_249:\n        /* \"#utility.yul\":7215:7286   */\n      swap4\n      pop\n        /* \"#utility.yul\":7171:7296   */\n      pop\n        /* \"#utility.yul\":7335:7337   */\n      0x20\n        /* \"#utility.yul\":7361:7414   */\n      tag_250\n        /* \"#utility.yul\":7406:7413   */\n      dup7\n        /* \"#utility.yul\":7397:7403   */\n      dup3\n        /* \"#utility.yul\":7386:7395   */\n      dup8\n        /* \"#utility.yul\":7382:7404   */\n      add\n        /* \"#utility.yul\":7361:7414   */\n      tag_119\n      jump\t// in\n    tag_250:\n        /* \"#utility.yul\":7351:7414   */\n      swap3\n      pop\n        /* \"#utility.yul\":7306:7424   */\n      pop\n        /* \"#utility.yul\":7491:7493   */\n      0x40\n        /* \"#utility.yul\":7480:7489   */\n      dup5\n        /* \"#utility.yul\":7476:7494   */\n      add\n        /* \"#utility.yul\":7463:7495   */\n      calldataload\n        /* \"#utility.yul\":7522:7540   */\n      0xffffffffffffffff\n        /* \"#utility.yul\":7514:7520   */\n      dup2\n        /* \"#utility.yul\":7511:7541   */\n      gt\n        /* \"#utility.yul\":7508:7625   */\n      iszero\n      tag_251\n      jumpi\n        /* \"#utility.yul\":7544:7623   */\n      tag_252\n      tag_108\n      jump\t// in\n    tag_252:\n        /* \"#utility.yul\":7508:7625   */\n    tag_251:\n        /* \"#utility.yul\":7649:7711   */\n      tag_253\n        /* \"#utility.yul\":7703:7710   */\n      dup7\n        /* \"#utility.yul\":7694:7700   */\n      dup3\n        /* \"#utility.yul\":7683:7692   */\n      dup8\n        /* \"#utility.yul\":7679:7701   */\n      add\n        /* \"#utility.yul\":7649:7711   */\n      tag_134\n      jump\t// in\n    tag_253:\n        /* \"#utility.yul\":7639:7711   */\n      swap2\n      pop\n        /* \"#utility.yul\":7434:7721   */\n      pop\n        /* \"#utility.yul\":6915:7728   */\n      swap3\n      pop\n      swap3\n      pop\n      swap3\n      jump\t// out\n        /* \"#utility.yul\":7734:7832   */\n    tag_135:\n        /* \"#utility.yul\":7785:7791   */\n      0x00\n        /* \"#utility.yul\":7819:7824   */\n      dup2\n        /* \"#utility.yul\":7813:7825   */\n      mload\n        /* \"#utility.yul\":7803:7825   */\n      swap1\n      pop\n        /* \"#utility.yul\":7734:7832   */\n      swap2\n      swap1\n      pop\n      jump\t// out\n        /* \"#utility.yul\":7838:8006   */\n    tag_136:\n        /* \"#utility.yul\":7921:7932   */\n      0x00\n        /* \"#utility.yul\":7955:7961   */\n      dup3\n        /* \"#utility.yul\":7950:7953   */\n      dup3\n        /* \"#utility.yul\":7943:7962   */\n      mstore\n        /* \"#utility.yul\":7995:7999   */\n      0x20\n        /* \"#utility.yul\":7990:7993   */\n      dup3\n        /* \"#utility.yul\":7986:8000   */\n      add\n        /* \"#utility.yul\":7971:8000   */\n      swap1\n      pop\n        /* \"#utility.yul\":7838:8006   */\n      swap3\n      swap2\n      pop\n      pop\n      jump\t// out\n        /* \"#utility.yul\":8012:8151   */\n    tag_137:\n        /* \"#utility.yul\":8101:8107   */\n      dup3\n        /* \"#utility.yul\":8096:8099   */\n      dup2\n        /* \"#utility.yul\":8091:8094   */\n      dup4\n        /* \"#utility.yul\":8085:8108   */\n      mcopy\n        /* \"#utility.yul\":8142:8143   */\n      0x00\n        /* \"#utility.yul\":8133:8139   */\n      dup4\n        /* \"#utility.yul\":8128:8131   */\n      dup4\n        /* \"#utility.yul\":8124:8140   */\n      add\n        /* \"#utility.yul\":8117:8144   */\n      mstore\n        /* \"#utility.yul\":8012:8151   */\n      pop\n      pop\n      pop\n      jump\t// out\n        /* \"#utility.yul\":8157:8530   */\n    tag_138:\n        /* \"#utility.yul\":8243:8246   */\n      0x00\n        /* \"#utility.yul\":8271:8309   */\n      tag_258\n        /* \"#utility.yul\":8303:8308   */\n      dup3\n        /* \"#utility.yul\":8271:8309   */\n      tag_135\n      jump\t// in\n    tag_258:\n        /* \"#utility.yul\":8325:8395   */\n      tag_259\n        /* \"#utility.yul\":8388:8394   */\n      dup2\n        /* \"#utility.yul\":8383:8386   */\n      dup6\n        /* \"#utility.yul\":8325:8395   */\n      tag_136\n      jump\t// in\n    tag_259:\n        /* \"#utility.yul\":8318:8395   */\n      swap4\n      pop\n        /* \"#utility.yul\":8404:8469   */\n      tag_260\n        /* \"#utility.yul\":8462:8468   */\n      dup2\n        /* \"#utility.yul\":8457:8460   */\n      dup6\n        /* \"#utility.yul\":8450:8454   */\n      0x20\n        /* \"#utility.yul\":8443:8448   */\n      dup7\n        /* \"#utility.yul\":8439:8455   */\n      add\n        /* \"#utility.yul\":8404:8469   */\n      tag_137\n      jump\t// in\n    tag_260:\n        /* \"#utility.yul\":8494:8523   */\n      tag_261\n        /* \"#utility.yul\":8516:8522   */\n      dup2\n        /* \"#utility.yul\":8494:8523   */\n      tag_127\n      jump\t// in\n    tag_261:\n        /* \"#utility.yul\":8489:8492   */\n      dup5\n        /* \"#utility.yul\":8485:8524   */\n      add\n        /* \"#utility.yul\":8478:8524   */\n      swap2\n      pop\n        /* \"#utility.yul\":8247:8530   */\n      pop\n        /* \"#utility.yul\":8157:8530   */\n      swap3\n      swap2\n      pop\n      pop\n      jump\t// out\n        /* \"#utility.yul\":8536:8845   */\n    tag_59:\n        /* \"#utility.yul\":8647:8651   */\n      0x00\n        /* \"#utility.yul\":8685:8687   */\n      0x20\n        /* \"#utility.yul\":8674:8683   */\n      dup3\n        /* \"#utility.yul\":8670:8688   */\n      add\n        /* \"#utility.yul\":8662:8688   */\n      swap1\n      pop\n        /* \"#utility.yul\":8734:8743   */\n      dup2\n        /* \"#utility.yul\":8728:8732   */\n      dup2\n        /* \"#utility.yul\":8724:8744   */\n      sub\n        /* \"#utility.yul\":8720:8721   */\n      0x00\n        /* \"#utility.yul\":8709:8718   */\n      dup4\n        /* \"#utility.yul\":8705:8722   */\n      add\n        /* \"#utility.yul\":8698:8745   */\n      mstore\n        /* \"#utility.yul\":8762:8838   */\n      tag_263\n        /* \"#utility.yul\":8833:8837   */\n      dup2\n        /* \"#utility.yul\":8824:8830   */\n      dup5\n        /* \"#utility.yul\":8762:8838   */\n      tag_138\n      jump\t// in\n    tag_263:\n        /* \"#utility.yul\":8754:8838   */\n      swap1\n      pop\n        /* \"#utility.yul\":8536:8845   */\n      swap3\n      swap2\n      pop\n      pop\n      jump\t// out\n        /* \"#utility.yul\":8851:9020   */\n    tag_139:\n        /* \"#utility.yul\":8935:8946   */\n      0x00\n        /* \"#utility.yul\":8969:8975   */\n      dup3\n        /* \"#utility.yul\":8964:8967   */\n      dup3\n        /* \"#utility.yul\":8957:8976   */\n      mstore\n        /* \"#utility.yul\":9009:9013   */\n      0x20\n        /* \"#utility.yul\":9004:9007   */\n      dup3\n        /* \"#utility.yul\":9000:9014   */\n      add\n        /* \"#utility.yul\":8985:9014   */\n      swap1\n      pop\n        /* \"#utility.yul\":8851:9020   */\n      swap3\n      swap2\n      pop\n      pop\n      jump\t// out\n        /* \"#utility.yul\":9026:9208   */\n    tag_140:\n        /* \"#utility.yul\":9166:9200   */\n      0x596f7520617265206e6f7420746865206f776e65722c2061626f7274696e6721\n        /* \"#utility.yul\":9162:9163   */\n      0x00\n        /* \"#utility.yul\":9154:9160   */\n      dup3\n        /* \"#utility.yul\":9150:9164   */\n      add\n        /* \"#utility.yul\":9143:9201   */\n      mstore\n        /* \"#utility.yul\":9026:9208   */\n      pop\n      jump\t// out\n        /* \"#utility.yul\":9214:9580   */\n    tag_141:\n        /* \"#utility.yul\":9356:9359   */\n      0x00\n        /* \"#utility.yul\":9377:9444   */\n      tag_267\n        /* \"#utility.yul\":9441:9443   */\n      0x20\n        /* \"#utility.yul\":9436:9439   */\n      dup4\n        /* \"#utility.yul\":9377:9444   */\n      tag_139\n      jump\t// in\n    tag_267:\n        /* \"#utility.yul\":9370:9444   */\n      swap2\n      pop\n        /* \"#utility.yul\":9453:9546   */\n      tag_268\n        /* \"#utility.yul\":9542:9545   */\n      dup3\n        /* \"#utility.yul\":9453:9546   */\n      tag_140\n      jump\t// in\n    tag_268:\n        /* \"#utility.yul\":9571:9573   */\n      0x20\n        /* \"#utility.yul\":9566:9569   */\n      dup3\n        /* \"#utility.yul\":9562:9574   */\n      add\n        /* \"#utility.yul\":9555:9574   */\n      swap1\n      pop\n        /* \"#utility.yul\":9214:9580   */\n      swap2\n      swap1\n      pop\n      jump\t// out\n        /* \"#utility.yul\":9586:10005   */\n    tag_67:\n        /* \"#utility.yul\":9752:9756   */\n      0x00\n        /* \"#utility.yul\":9790:9792   */\n      0x20\n        /* \"#utility.yul\":9779:9788   */\n      dup3\n        /* \"#utility.yul\":9775:9793   */\n      add\n        /* \"#utility.yul\":9767:9793   */\n      swap1\n      pop\n        /* \"#utility.yul\":9839:9848   */\n      dup2\n        /* \"#utility.yul\":9833:9837   */\n      dup2\n        /* \"#utility.yul\":9829:9849   */\n      sub\n        /* \"#utility.yul\":9825:9826   */\n      0x00\n        /* \"#utility.yul\":9814:9823   */\n      dup4\n        /* \"#utility.yul\":9810:9827   */\n      add\n        /* \"#utility.yul\":9803:9850   */\n      mstore\n        /* \"#utility.yul\":9867:9998   */\n      tag_270\n        /* \"#utility.yul\":9993:9997   */\n      dup2\n        /* \"#utility.yul\":9867:9998   */\n      tag_141\n      jump\t// in\n    tag_270:\n        /* \"#utility.yul\":9859:9998   */\n      swap1\n      pop\n        /* \"#utility.yul\":9586:10005   */\n      swap2\n      swap1\n      pop\n      jump\t// out\n        /* \"#utility.yul\":10011:10231   */\n    tag_142:\n        /* \"#utility.yul\":10151:10185   */\n      0x596f7520617265206e6f7420746865206f776e65722c2061626f7274696e6720\n        /* \"#utility.yul\":10147:10148   */\n      0x00\n        /* \"#utility.yul\":10139:10145   */\n      dup3\n        /* \"#utility.yul\":10135:10149   */\n      add\n        /* \"#utility.yul\":10128:10186   */\n      mstore\n        /* \"#utility.yul\":10220:10223   */\n      0x2100000000000000000000000000000000000000000000000000000000000000\n        /* \"#utility.yul\":10215:10217   */\n      0x20\n        /* \"#utility.yul\":10207:10213   */\n      dup3\n        /* \"#utility.yul\":10203:10218   */\n      add\n        /* \"#utility.yul\":10196:10224   */\n      mstore\n        /* \"#utility.yul\":10011:10231   */\n      pop\n      jump\t// out\n        /* \"#utility.yul\":10237:10603   */\n    tag_143:\n        /* \"#utility.yul\":10379:10382   */\n      0x00\n        /* \"#utility.yul\":10400:10467   */\n      tag_273\n        /* \"#utility.yul\":10464:10466   */\n      0x21\n        /* \"#utility.yul\":10459:10462   */\n      dup4\n        /* \"#utility.yul\":10400:10467   */\n      tag_139\n      jump\t// in\n    tag_273:\n        /* \"#utility.yul\":10393:10467   */\n      swap2\n      pop\n        /* \"#utility.yul\":10476:10569   */\n      tag_274\n        /* \"#utility.yul\":10565:10568   */\n      dup3\n        /* \"#utility.yul\":10476:10569   */\n      tag_142\n      jump\t// in\n    tag_274:\n        /* \"#utility.yul\":10594:10596   */\n      0x40\n        /* \"#utility.yul\":10589:10592   */\n      dup3\n        /* \"#utility.yul\":10585:10597   */\n      add\n        /* \"#utility.yul\":10578:10597   */\n      swap1\n      pop\n        /* \"#utility.yul\":10237:10603   */\n      swap2\n      swap1\n      pop\n      jump\t// out\n        /* \"#utility.yul\":10609:11028   */\n    tag_71:\n        /* \"#utility.yul\":10775:10779   */\n      0x00\n        /* \"#utility.yul\":10813:10815   */\n      0x20\n        /* \"#utility.yul\":10802:10811   */\n      dup3\n        /* \"#utility.yul\":10798:10816   */\n      add\n        /* \"#utility.yul\":10790:10816   */\n      swap1\n      pop\n        /* \"#utility.yul\":10862:10871   */\n      dup2\n        /* \"#utility.yul\":10856:10860   */\n      dup2\n        /* \"#utility.yul\":10852:10872   */\n      sub\n        /* \"#utility.yul\":10848:10849   */\n      0x00\n        /* \"#utility.yul\":10837:10846   */\n      dup4\n        /* \"#utility.yul\":10833:10850   */\n      add\n        /* \"#utility.yul\":10826:10873   */\n      mstore\n        /* \"#utility.yul\":10890:11021   */\n      tag_276\n        /* \"#utility.yul\":11016:11020   */\n      dup2\n        /* \"#utility.yul\":10890:11021   */\n      tag_143\n      jump\t// in\n    tag_276:\n        /* \"#utility.yul\":10882:11021   */\n      swap1\n      pop\n        /* \"#utility.yul\":10609:11028   */\n      swap2\n      swap1\n      pop\n      jump\t// out\n        /* \"#utility.yul\":11034:11267   */\n    tag_144:\n        /* \"#utility.yul\":11174:11208   */\n      0x596f7520617265206e6f7420677561726469616e206f6620746869732077616c\n        /* \"#utility.yul\":11170:11171   */\n      0x00\n        /* \"#utility.yul\":11162:11168   */\n      dup3\n        /* \"#utility.yul\":11158:11172   */\n      add\n        /* \"#utility.yul\":11151:11209   */\n      mstore\n        /* \"#utility.yul\":11243:11259   */\n      0x6c65742c2061626f7274696e6721000000000000000000000000000000000000\n        /* \"#utility.yul\":11238:11240   */\n      0x20\n        /* \"#utility.yul\":11230:11236   */\n      dup3\n        /* \"#utility.yul\":11226:11241   */\n      add\n        /* \"#utility.yul\":11219:11260   */\n      mstore\n        /* \"#utility.yul\":11034:11267   */\n      pop\n      jump\t// out\n        /* \"#utility.yul\":11273:11639   */\n    tag_145:\n        /* \"#utility.yul\":11415:11418   */\n      0x00\n        /* \"#utility.yul\":11436:11503   */\n      tag_279\n        /* \"#utility.yul\":11500:11502   */\n      0x2e\n        /* \"#utility.yul\":11495:11498   */\n      dup4\n        /* \"#utility.yul\":11436:11503   */\n      tag_139\n      jump\t// in\n    tag_279:\n        /* \"#utility.yul\":11429:11503   */\n      swap2\n      pop\n        /* \"#utility.yul\":11512:11605   */\n      tag_280\n        /* \"#utility.yul\":11601:11604   */\n      dup3\n        /* \"#utility.yul\":11512:11605   */\n      tag_144\n      jump\t// in\n    tag_280:\n        /* \"#utility.yul\":11630:11632   */\n      0x40\n        /* \"#utility.yul\":11625:11628   */\n      dup3\n        /* \"#utility.yul\":11621:11633   */\n      add\n        /* \"#utility.yul\":11614:11633   */\n      swap1\n      pop\n        /* \"#utility.yul\":11273:11639   */\n      swap2\n      swap1\n      pop\n      jump\t// out\n        /* \"#utility.yul\":11645:12064   */\n    tag_77:\n        /* \"#utility.yul\":11811:11815   */\n      0x00\n        /* \"#utility.yul\":11849:11851   */\n      0x20\n        /* \"#utility.yul\":11838:11847   */\n      dup3\n        /* \"#utility.yul\":11834:11852   */\n      add\n        /* \"#utility.yul\":11826:11852   */\n      swap1\n      pop\n        /* \"#utility.yul\":11898:11907   */\n      dup2\n        /* \"#utility.yul\":11892:11896   */\n      dup2\n        /* \"#utility.yul\":11888:11908   */\n      sub\n        /* \"#utility.yul\":11884:11885   */\n      0x00\n        /* \"#utility.yul\":11873:11882   */\n      dup4\n        /* \"#utility.yul\":11869:11886   */\n      add\n        /* \"#utility.yul\":11862:11909   */\n      mstore\n        /* \"#utility.yul\":11926:12057   */\n      tag_282\n        /* \"#utility.yul\":12052:12056   */\n      dup2\n        /* \"#utility.yul\":11926:12057   */\n      tag_145\n      jump\t// in\n    tag_282:\n        /* \"#utility.yul\":11918:12057   */\n      swap1\n      pop\n        /* \"#utility.yul\":11645:12064   */\n      swap2\n      swap1\n      pop\n      jump\t// out\n        /* \"#utility.yul\":12070:12249   */\n    tag_146:\n        /* \"#utility.yul\":12210:12241   */\n      0x596f7520616c726561647920766f7465642c2061626f7274696e677421000000\n        /* \"#utility.yul\":12206:12207   */\n      0x00\n        /* \"#utility.yul\":12198:12204   */\n      dup3\n        /* \"#utility.yul\":12194:12208   */\n      add\n        /* \"#utility.yul\":12187:12242   */\n      mstore\n        /* \"#utility.yul\":12070:12249   */\n      pop\n      jump\t// out\n        /* \"#utility.yul\":12255:12621   */\n    tag_147:\n        /* \"#utility.yul\":12397:12400   */\n      0x00\n        /* \"#utility.yul\":12418:12485   */\n      tag_285\n        /* \"#utility.yul\":12482:12484   */\n      0x1d\n        /* \"#utility.yul\":12477:12480   */\n      dup4\n        /* \"#utility.yul\":12418:12485   */\n      tag_139\n      jump\t// in\n    tag_285:\n        /* \"#utility.yul\":12411:12485   */\n      swap2\n      pop\n        /* \"#utility.yul\":12494:12587   */\n      tag_286\n        /* \"#utility.yul\":12583:12586   */\n      dup3\n        /* \"#utility.yul\":12494:12587   */\n      tag_146\n      jump\t// in\n    tag_286:\n        /* \"#utility.yul\":12612:12614   */\n      0x20\n        /* \"#utility.yul\":12607:12610   */\n      dup3\n        /* \"#utility.yul\":12603:12615   */\n      add\n        /* \"#utility.yul\":12596:12615   */\n      swap1\n      pop\n        /* \"#utility.yul\":12255:12621   */\n      swap2\n      swap1\n      pop\n      jump\t// out\n        /* \"#utility.yul\":12627:13046   */\n    tag_80:\n        /* \"#utility.yul\":12793:12797   */\n      0x00\n        /* \"#utility.yul\":12831:12833   */\n      0x20\n        /* \"#utility.yul\":12820:12829   */\n      dup3\n        /* \"#utility.yul\":12816:12834   */\n      add\n        /* \"#utility.yul\":12808:12834   */\n      swap1\n      pop\n        /* \"#utility.yul\":12880:12889   */\n      dup2\n        /* \"#utility.yul\":12874:12878   */\n      dup2\n        /* \"#utility.yul\":12870:12890   */\n      sub\n        /* \"#utility.yul\":12866:12867   */\n      0x00\n        /* \"#utility.yul\":12855:12864   */\n      dup4\n        /* \"#utility.yul\":12851:12868   */\n      add\n        /* \"#utility.yul\":12844:12891   */\n      mstore\n        /* \"#utility.yul\":12908:13039   */\n      tag_288\n        /* \"#utility.yul\":13034:13038   */\n      dup2\n        /* \"#utility.yul\":12908:13039   */\n      tag_147\n      jump\t// in\n    tag_288:\n        /* \"#utility.yul\":12900:13039   */\n      swap1\n      pop\n        /* \"#utility.yul\":12627:13046   */\n      swap2\n      swap1\n      pop\n      jump\t// out\n        /* \"#utility.yul\":13052:13232   */\n    tag_148:\n        /* \"#utility.yul\":13100:13177   */\n      0x4e487b7100000000000000000000000000000000000000000000000000000000\n        /* \"#utility.yul\":13097:13098   */\n      0x00\n        /* \"#utility.yul\":13090:13178   */\n      mstore\n        /* \"#utility.yul\":13197:13201   */\n      0x11\n        /* \"#utility.yul\":13194:13195   */\n      0x04\n        /* \"#utility.yul\":13187:13202   */\n      mstore\n        /* \"#utility.yul\":13221:13225   */\n      0x24\n        /* \"#utility.yul\":13218:13219   */\n      0x00\n        /* \"#utility.yul\":13211:13226   */\n      revert\n        /* \"#utility.yul\":13238:13471   */\n    tag_83:\n        /* \"#utility.yul\":13277:13280   */\n      0x00\n        /* \"#utility.yul\":13300:13324   */\n      tag_291\n        /* \"#utility.yul\":13318:13323   */\n      dup3\n        /* \"#utility.yul\":13300:13324   */\n      tag_117\n      jump\t// in\n    tag_291:\n        /* \"#utility.yul\":13291:13324   */\n      swap2\n      pop\n        /* \"#utility.yul\":13346:13412   */\n      0xffffffffffffffffffffffffffffffffffffffffffffffffffffffffffffffff\n        /* \"#utility.yul\":13339:13344   */\n      dup3\n        /* \"#utility.yul\":13336:13413   */\n      sub\n        /* \"#utility.yul\":13333:13436   */\n      tag_292\n      jumpi\n        /* \"#utility.yul\":13416:13434   */\n      tag_293\n      tag_148\n      jump\t// in\n    tag_293:\n        /* \"#utility.yul\":13333:13436   */\n    tag_292:\n        /* \"#utility.yul\":13463:13464   */\n      0x01\n        /* \"#utility.yul\":13456:13461   */\n      dup3\n        /* \"#utility.yul\":13452:13465   */\n      add\n        /* \"#utility.yul\":13445:13465   */\n      swap1\n      pop\n        /* \"#utility.yul\":13238:13471   */\n      swap2\n      swap1\n      pop\n      jump\t// out\n        /* \"#utility.yul\":13477:13659   */\n    tag_149:\n        /* \"#utility.yul\":13617:13651   */\n      0x796f7520617265206e6f7420746865206f776e65722c2061626f7274696e6721\n        /* \"#utility.yul\":13613:13614   */\n      0x00\n        /* \"#utility.yul\":13605:13611   */\n      dup3\n        /* \"#utility.yul\":13601:13615   */\n      add\n        /* \"#utility.yul\":13594:13652   */\n      mstore\n        /* \"#utility.yul\":13477:13659   */\n      pop\n      jump\t// out\n        /* \"#utility.yul\":13665:14031   */\n    tag_150:\n        /* \"#utility.yul\":13807:13810   */\n      0x00\n        /* \"#utility.yul\":13828:13895   */\n      tag_296\n        /* \"#utility.yul\":13892:13894   */\n      0x20\n        /* \"#utility.yul\":13887:13890   */\n      dup4\n        /* \"#utility.yul\":13828:13895   */\n      tag_139\n      jump\t// in\n    tag_296:\n        /* \"#utility.yul\":13821:13895   */\n      swap2\n      pop\n        /* \"#utility.yul\":13904:13997   */\n      tag_297\n        /* \"#utility.yul\":13993:13996   */\n      dup3\n        /* \"#utility.yul\":13904:13997   */\n      tag_149\n      jump\t// in\n    tag_297:\n        /* \"#utility.yul\":14022:14024   */\n      0x20\n        /* \"#utility.yul\":14017:14020   */\n      dup3\n        /* \"#utility.yul\":14013:14025   */\n      add\n        /* \"#utility.yul\":14006:14025   */\n      swap1\n      pop\n        /* \"#utility.yul\":13665:14031   */\n      swap2\n      swap1\n      pop\n      jump\t// out\n        /* \"#utility.yul\":14037:14456   */\n    tag_88:\n        /* \"#utility.yul\":14203:14207   */\n      0x00\n        /* \"#utility.yul\":14241:14243   */\n      0x20\n        /* \"#utility.yul\":14230:14239   */\n      dup3\n        /* \"#utility.yul\":14226:14244   */\n      add\n        /* \"#utility.yul\":14218:14244   */\n      swap1\n      pop\n        /* \"#utility.yul\":14290:14299   */\n      dup2\n        /* \"#utility.yul\":14284:14288   */\n      dup2\n        /* \"#utility.yul\":14280:14300   */\n      sub\n        /* \"#utility.yul\":14276:14277   */\n      0x00\n        /* \"#utility.yul\":14265:14274   */\n      dup4\n        /* \"#utility.yul\":14261:14278   */\n      add\n        /* \"#utility.yul\":14254:14301   */\n      mstore\n        /* \"#utility.yul\":14318:14449   */\n      tag_299\n        /* \"#utility.yul\":14444:14448   */\n      dup2\n        /* \"#utility.yul\":14318:14449   */\n      tag_150\n      jump\t// in\n    tag_299:\n        /* \"#utility.yul\":14310:14449   */\n      swap1\n      pop\n        /* \"#utility.yul\":14037:14456   */\n      swap2\n      swap1\n      pop\n      jump\t// out\n        /* \"#utility.yul\":14462:14758   */\n    tag_151:\n        /* \"#utility.yul\":14602:14636   */\n      0x596f7520617265206e6f7420616c6c6f77656420746f2073656e6420616e7974\n        /* \"#utility.yul\":14598:14599   */\n      0x00\n        /* \"#utility.yul\":14590:14596   */\n      dup3\n        /* \"#utility.yul\":14586:14600   */\n      add\n        /* \"#utility.yul\":14579:14637   */\n      mstore\n        /* \"#utility.yul\":14671:14705   */\n      0x68696e672066726f6d207468697320736d61727420636f6e74726163742c2061\n        /* \"#utility.yul\":14666:14668   */\n      0x20\n        /* \"#utility.yul\":14658:14664   */\n      dup3\n        /* \"#utility.yul\":14654:14669   */\n      add\n        /* \"#utility.yul\":14647:14706   */\n      mstore\n        /* \"#utility.yul\":14740:14750   */\n      0x626f7274696e6721000000000000000000000000000000000000000000000000\n        /* \"#utility.yul\":14735:14737   */\n      0x40\n        /* \"#utility.yul\":14727:14733   */\n      dup3\n        /* \"#utility.yul\":14723:14738   */\n      add\n        /* \"#utility.yul\":14716:14751   */\n      mstore\n        /* \"#utility.yul\":14462:14758   */\n      pop\n      jump\t// out\n        /* \"#utility.yul\":14764:15130   */\n    tag_152:\n        /* \"#utility.yul\":14906:14909   */\n      0x00\n        /* \"#utility.yul\":14927:14994   */\n      tag_302\n        /* \"#utility.yul\":14991:14993   */\n      0x48\n        /* \"#utility.yul\":14986:14989   */\n      dup4\n        /* \"#utility.yul\":14927:14994   */\n      tag_139\n      jump\t// in\n    tag_302:\n        /* \"#utility.yul\":14920:14994   */\n      swap2\n      pop\n        /* \"#utility.yul\":15003:15096   */\n      tag_303\n        /* \"#utility.yul\":15092:15095   */\n      dup3\n        /* \"#utility.yul\":15003:15096   */\n      tag_151\n      jump\t// in\n    tag_303:\n        /* \"#utility.yul\":15121:15123   */\n      0x60\n        /* \"#utility.yul\":15116:15119   */\n      dup3\n        /* \"#utility.yul\":15112:15124   */\n      add\n        /* \"#utility.yul\":15105:15124   */\n      swap1\n      pop\n        /* \"#utility.yul\":14764:15130   */\n      swap2\n      swap1\n      pop\n      jump\t// out\n        /* \"#utility.yul\":15136:15555   */\n    tag_92:\n        /* \"#utility.yul\":15302:15306   */\n      0x00\n        /* \"#utility.yul\":15340:15342   */\n      0x20\n        /* \"#utility.yul\":15329:15338   */\n      dup3\n        /* \"#utility.yul\":15325:15343   */\n      add\n        /* \"#utility.yul\":15317:15343   */\n      swap1\n      pop\n        /* \"#utility.yul\":15389:15398   */\n      dup2\n        /* \"#utility.yul\":15383:15387   */\n      dup2\n        /* \"#utility.yul\":15379:15399   */\n      sub\n        /* \"#utility.yul\":15375:15376   */\n      0x00\n        /* \"#utility.yul\":15364:15373   */\n      dup4\n        /* \"#utility.yul\":15360:15377   */\n      add\n        /* \"#utility.yul\":15353:15400   */\n      mstore\n        /* \"#utility.yul\":15417:15548   */\n      tag_305\n        /* \"#utility.yul\":15543:15547   */\n      dup2\n        /* \"#utility.yul\":15417:15548   */\n      tag_152\n      jump\t// in\n    tag_305:\n        /* \"#utility.yul\":15409:15548   */\n      swap1\n      pop\n        /* \"#utility.yul\":15136:15555   */\n      swap2\n      swap1\n      pop\n      jump\t// out\n        /* \"#utility.yul\":15561:15806   */\n    tag_153:\n        /* \"#utility.yul\":15701:15735   */\n      0x596f752061726520747279696e6720746f2073656e64206d6f7265207468616e\n        /* \"#utility.yul\":15697:15698   */\n      0x00\n        /* \"#utility.yul\":15689:15695   */\n      dup3\n        /* \"#utility.yul\":15685:15699   */\n      add\n        /* \"#utility.yul\":15678:15736   */\n      mstore\n        /* \"#utility.yul\":15770:15798   */\n      0x20796f7520616c6c6f77656420746f2c2061626f7274696e6721000000000000\n        /* \"#utility.yul\":15765:15767   */\n      0x20\n        /* \"#utility.yul\":15757:15763   */\n      dup3\n        /* \"#utility.yul\":15753:15768   */\n      add\n        /* \"#utility.yul\":15746:15799   */\n      mstore\n        /* \"#utility.yul\":15561:15806   */\n      pop\n      jump\t// out\n        /* \"#utility.yul\":15812:16178   */\n    tag_154:\n        /* \"#utility.yul\":15954:15957   */\n      0x00\n        /* \"#utility.yul\":15975:16042   */\n      tag_308\n        /* \"#utility.yul\":16039:16041   */\n      0x3a\n        /* \"#utility.yul\":16034:16037   */\n      dup4\n        /* \"#utility.yul\":15975:16042   */\n      tag_139\n      jump\t// in\n    tag_308:\n        /* \"#utility.yul\":15968:16042   */\n      swap2\n      pop\n        /* \"#utility.yul\":16051:16144   */\n      tag_309\n        /* \"#utility.yul\":16140:16143   */\n      dup3\n        /* \"#utility.yul\":16051:16144   */\n      tag_153\n      jump\t// in\n    tag_309:\n        /* \"#utility.yul\":16169:16171   */\n      0x40\n        /* \"#utility.yul\":16164:16167   */\n      dup3\n        /* \"#utility.yul\":16160:16172   */\n      add\n        /* \"#utility.yul\":16153:16172   */\n      swap1\n      pop\n        /* \"#utility.yul\":15812:16178   */\n      swap2\n      swap1\n      pop\n      jump\t// out\n        /* \"#utility.yul\":16184:16603   */\n    tag_95:\n        /* \"#utility.yul\":16350:16354   */\n      0x00\n        /* \"#utility.yul\":16388:16390   */\n      0x20\n        /* \"#utility.yul\":16377:16386   */\n      dup3\n        /* \"#utility.yul\":16373:16391   */\n      add\n        /* \"#utility.yul\":16365:16391   */\n      swap1\n      pop\n        /* \"#utility.yul\":16437:16446   */\n      dup2\n        /* \"#utility.yul\":16431:16435   */\n      dup2\n        /* \"#utility.yul\":16427:16447   */\n      sub\n        /* \"#utility.yul\":16423:16424   */\n      0x00\n        /* \"#utility.yul\":16412:16421   */\n      dup4\n        /* \"#utility.yul\":16408:16425   */\n      add\n        /* \"#utility.yul\":16401:16448   */\n      mstore\n        /* \"#utility.yul\":16465:16596   */\n      tag_311\n        /* \"#utility.yul\":16591:16595   */\n      dup2\n        /* \"#utility.yul\":16465:16596   */\n      tag_154\n      jump\t// in\n    tag_311:\n        /* \"#utility.yul\":16457:16596   */\n      swap1\n      pop\n        /* \"#utility.yul\":16184:16603   */\n      swap2\n      swap1\n      pop\n      jump\t// out\n        /* \"#utility.yul\":16609:16803   */\n    tag_97:\n        /* \"#utility.yul\":16649:16653   */\n      0x00\n        /* \"#utility.yul\":16669:16689   */\n      tag_313\n        /* \"#utility.yul\":16687:16688   */\n      dup3\n        /* \"#utility.yul\":16669:16689   */\n      tag_117\n      jump\t// in\n    tag_313:\n        /* \"#utility.yul\":16664:16689   */\n      swap2\n      pop\n        /* \"#utility.yul\":16703:16723   */\n      tag_314\n        /* \"#utility.yul\":16721:16722   */\n      dup4\n        /* \"#utility.yul\":16703:16723   */\n      tag_117\n      jump\t// in\n    tag_314:\n        /* \"#utility.yul\":16698:16723   */\n      swap3\n      pop\n        /* \"#utility.yul\":16747:16748   */\n      dup3\n        /* \"#utility.yul\":16744:16745   */\n      dup3\n        /* \"#utility.yul\":16740:16749   */\n      sub\n        /* \"#utility.yul\":16732:16749   */\n      swap1\n      pop\n        /* \"#utility.yul\":16771:16772   */\n      dup2\n        /* \"#utility.yul\":16765:16769   */\n      dup2\n        /* \"#utility.yul\":16762:16773   */\n      gt\n        /* \"#utility.yul\":16759:16796   */\n      iszero\n      tag_315\n      jumpi\n        /* \"#utility.yul\":16776:16794   */\n      tag_316\n      tag_148\n      jump\t// in\n    tag_316:\n        /* \"#utility.yul\":16759:16796   */\n    tag_315:\n        /* \"#utility.yul\":16609:16803   */\n      swap3\n      swap2\n      pop\n      pop\n      jump\t// out\n        /* \"#utility.yul\":16809:16956   */\n    tag_155:\n        /* \"#utility.yul\":16910:16921   */\n      0x00\n        /* \"#utility.yul\":16947:16950   */\n      dup2\n        /* \"#utility.yul\":16932:16950   */\n      swap1\n      pop\n        /* \"#utility.yul\":16809:16956   */\n      swap3\n      swap2\n      pop\n      pop\n      jump\t// out\n        /* \"#utility.yul\":16962:17348   */\n    tag_156:\n        /* \"#utility.yul\":17066:17069   */\n      0x00\n        /* \"#utility.yul\":17094:17132   */\n      tag_319\n        /* \"#utility.yul\":17126:17131   */\n      dup3\n        /* \"#utility.yul\":17094:17132   */\n      tag_135\n      jump\t// in\n    tag_319:\n        /* \"#utility.yul\":17148:17236   */\n      tag_320\n        /* \"#utility.yul\":17229:17235   */\n      dup2\n        /* \"#utility.yul\":17224:17227   */\n      dup6\n        /* \"#utility.yul\":17148:17236   */\n      tag_155\n      jump\t// in\n    tag_320:\n        /* \"#utility.yul\":17141:17236   */\n      swap4\n      pop\n        /* \"#utility.yul\":17245:17310   */\n      tag_321\n        /* \"#utility.yul\":17303:17309   */\n      dup2\n        /* \"#utility.yul\":17298:17301   */\n      dup6\n        /* \"#utility.yul\":17291:17295   */\n      0x20\n        /* \"#utility.yul\":17284:17289   */\n      dup7\n        /* \"#utility.yul\":17280:17296   */\n      add\n        /* \"#utility.yul\":17245:17310   */\n      tag_137\n      jump\t// in\n    tag_321:\n        /* \"#utility.yul\":17335:17341   */\n      dup1\n        /* \"#utility.yul\":17330:17333   */\n      dup5\n        /* \"#utility.yul\":17326:17342   */\n      add\n        /* \"#utility.yul\":17319:17342   */\n      swap2\n      pop\n        /* \"#utility.yul\":17070:17348   */\n      pop\n        /* \"#utility.yul\":16962:17348   */\n      swap3\n      swap2\n      pop\n      pop\n      jump\t// out\n        /* \"#utility.yul\":17354:17625   */\n    tag_99:\n        /* \"#utility.yul\":17484:17487   */\n      0x00\n        /* \"#utility.yul\":17506:17599   */\n      tag_323\n        /* \"#utility.yul\":17595:17598   */\n      dup3\n        /* \"#utility.yul\":17586:17592   */\n      dup5\n        /* \"#utility.yul\":17506:17599   */\n      tag_156\n      jump\t// in\n    tag_323:\n        /* \"#utility.yul\":17499:17599   */\n      swap2\n      pop\n        /* \"#utility.yul\":17616:17619   */\n      dup2\n        /* \"#utility.yul\":17609:17619   */\n      swap1\n      pop\n        /* \"#utility.yul\":17354:17625   */\n      swap3\n      swap2\n      pop\n      pop\n      jump\t// out\n        /* \"#utility.yul\":17631:17851   */\n    tag_157:\n        /* \"#utility.yul\":17771:17805   */\n      0x41626f7274696e672c2063616c6c20776173206e6f7420737563636573736675\n        /* \"#utility.yul\":17767:17768   */\n      0x00\n        /* \"#utility.yul\":17759:17765   */\n      dup3\n        /* \"#utility.yul\":17755:17769   */\n      add\n        /* \"#utility.yul\":17748:17806   */\n      mstore\n        /* \"#utility.yul\":17840:17843   */\n      0x6c00000000000000000000000000000000000000000000000000000000000000\n        /* \"#utility.yul\":17835:17837   */\n      0x20\n        /* \"#utility.yul\":17827:17833   */\n      dup3\n        /* \"#utility.yul\":17823:17838   */\n      add\n        /* \"#utility.yul\":17816:17844   */\n      mstore\n        /* \"#utility.yul\":17631:17851   */\n      pop\n      jump\t// out\n        /* \"#utility.yul\":17857:18223   */\n    tag_158:\n        /* \"#utility.yul\":17999:18002   */\n      0x00\n        /* \"#utility.yul\":18020:18087   */\n      tag_326\n        /* \"#utility.yul\":18084:18086   */\n      0x21\n        /* \"#utility.yul\":18079:18082   */\n      dup4\n        /* \"#utility.yul\":18020:18087   */\n      tag_139\n      jump\t// in\n    tag_326:\n        /* \"#utility.yul\":18013:18087   */\n      swap2\n      pop\n        /* \"#utility.yul\":18096:18189   */\n      tag_327\n        /* \"#utility.yul\":18185:18188   */\n      dup3\n        /* \"#utility.yul\":18096:18189   */\n      tag_157\n      jump\t// in\n    tag_327:\n        /* \"#utility.yul\":18214:18216   */\n      0x40\n        /* \"#utility.yul\":18209:18212   */\n      dup3\n        /* \"#utility.yul\":18205:18217   */\n      add\n        /* \"#utility.yul\":18198:18217   */\n      swap1\n      pop\n        /* \"#utility.yul\":17857:18223   */\n      swap2\n      swap1\n      pop\n      jump\t// out\n        /* \"#utility.yul\":18229:18648   */\n    tag_105:\n        /* \"#utility.yul\":18395:18399   */\n      0x00\n        /* \"#utility.yul\":18433:18435   */\n      0x20\n        /* \"#utility.yul\":18422:18431   */\n      dup3\n        /* \"#utility.yul\":18418:18436   */\n      add\n        /* \"#utility.yul\":18410:18436   */\n      swap1\n      pop\n        /* \"#utility.yul\":18482:18491   */\n      dup2\n        /* \"#utility.yul\":18476:18480   */\n      dup2\n        /* \"#utility.yul\":18472:18492   */\n      sub\n        /* \"#utility.yul\":18468:18469   */\n      0x00\n        /* \"#utility.yul\":18457:18466   */\n      dup4\n        /* \"#utility.yul\":18453:18470   */\n      add\n        /* \"#utility.yul\":18446:18493   */\n      mstore\n        /* \"#utility.yul\":18510:18641   */\n      tag_329\n        /* \"#utility.yul\":18636:18640   */\n      dup2\n        /* \"#utility.yul\":18510:18641   */\n      tag_158\n      jump\t// in\n    tag_329:\n        /* \"#utility.yul\":18502:18641   */\n      swap1\n      pop\n        /* \"#utility.yul\":18229:18648   */\n      swap2\n      swap1\n      pop\n      jump\t// out\n\n    auxdata: 0xa2646970667358221220eb894ae565f02522f929fbb6b6751befcb3a566b9934db8815707b65a0583bd864736f6c634300081e0033\n}\n",
				"bytecode": {
					"linkReferences": {},
					"object": "6080604052348015600e575f5ffd5b50335f5f6101000a81548173ffffffffffffffffffffffffffffffffffffffff021916908373ffffffffffffffffffffffffffffffffffffffff1602179055506114c68061005b5f395ff3fe608060405260043610610089575f3560e01c80633e5beab9116100585780633e5beab91461015c5780638da5cb5b14610198578063b1f8100d146101c2578063be45fd62146101ea578063caf5b4111461022657610090565b80630633b14a146100945780630bc605ad146100d05780632b8a1c5a1461010c578063310ec4a71461013457610090565b3661009057005b5f5ffd5b34801561009f575f5ffd5b506100ba60048036038101906100b59190610b50565b610250565b6040516100c79190610b95565b60405180910390f35b3480156100db575f5ffd5b506100f660048036038101906100f19190610b50565b61026d565b6040516101039190610b95565b60405180910390f35b348015610117575f5ffd5b50610132600480360381019061012d9190610bd8565b61028a565b005b34801561013f575f5ffd5b5061015a60048036038101906101559190610c49565b610370565b005b348015610167575f5ffd5b50610182600480360381019061017d9190610b50565b6104fb565b60405161018f9190610c96565b60405180910390f35b3480156101a3575f5ffd5b506101ac610510565b6040516101b99190610ccf565b60405180910390f35b3480156101cd575f5ffd5b506101e860048036038101906101e39190610d12565b610534565b005b3480156101f5575f5ffd5b50610210600480360381019061020b9190610e79565b6107e8565b60405161021d9190610f45565b60405180910390f35b348015610231575f5ffd5b5061023a610ae0565b6040516102479190610c96565b60405180910390f35b6003602052805f5260405f205f915054906101000a900460ff1681565b6002602052805f5260405f205f915054906101000a900460ff1681565b5f5f9054906101000a900473ffffffffffffffffffffffffffffffffffffffff1673ffffffffffffffffffffffffffffffffffffffff163373ffffffffffffffffffffffffffffffffffffffff1614610318576040517f08c379a000000000000000000000000000000000000000000000000000000000815260040161030f90610fbf565b60405180910390fd5b8060035f8473ffffffffffffffffffffffffffffffffffffffff1673ffffffffffffffffffffffffffffffffffffffff1681526020019081526020015f205f6101000a81548160ff0219169083151502179055505050565b5f5f9054906101000a900473ffffffffffffffffffffffffffffffffffffffff1673ffffffffffffffffffffffffffffffffffffffff163373ffffffffffffffffffffffffffffffffffffffff16146103fe576040517f08c379a00000000000000000000000000000000000000000000000000000000081526004016103f59061104d565b60405180910390fd5b8060015f8473ffffffffffffffffffffffffffffffffffffffff1673ffffffffffffffffffffffffffffffffffffffff1681526020019081526020015f20819055505f8111156104a257600160025f8473ffffffffffffffffffffffffffffffffffffffff1673ffffffffffffffffffffffffffffffffffffffff1681526020019081526020015f205f6101000a81548160ff0219169083151502179055506104f7565b5f60025f8473ffffffffffffffffffffffffffffffffffffffff1673ffffffffffffffffffffffffffffffffffffffff1681526020019081526020015f205f6101000a81548160ff0219169083151502179055505b5050565b6001602052805f5260405f205f915090505481565b5f5f9054906101000a900473ffffffffffffffffffffffffffffffffffffffff1681565b60035f3373ffffffffffffffffffffffffffffffffffffffff1673ffffffffffffffffffffffffffffffffffffffff1681526020019081526020015f205f9054906101000a900460ff166105bd576040517f08c379a00000000000000000000000000000000000000000000000000000000081526004016105b4906110db565b60405180910390fd5b5f151560055f8373ffffffffffffffffffffffffffffffffffffffff1673ffffffffffffffffffffffffffffffffffffffff1681526020019081526020015f205f3373ffffffffffffffffffffffffffffffffffffffff1673ffffffffffffffffffffffffffffffffffffffff1681526020019081526020015f205f9054906101000a900460ff16151514610687576040517f08c379a000000000000000000000000000000000000000000000000000000000815260040161067e90611143565b60405180910390fd5b60045f9054906101000a900473ffffffffffffffffffffffffffffffffffffffff1673ffffffffffffffffffffffffffffffffffffffff168173ffffffffffffffffffffffffffffffffffffffff1614610723578060045f6101000a81548173ffffffffffffffffffffffffffffffffffffffff021916908373ffffffffffffffffffffffffffffffffffffffff1602179055505f6006819055505b60065f8154809291906107359061118e565b91905055506003600654106107e55760045f9054906101000a900473ffffffffffffffffffffffffffffffffffffffff165f5f6101000a81548173ffffffffffffffffffffffffffffffffffffffff021916908373ffffffffffffffffffffffffffffffffffffffff1602179055505f60045f6101000a81548173ffffffffffffffffffffffffffffffffffffffff021916908373ffffffffffffffffffffffffffffffffffffffff1602179055505b50565b60605f5f9054906101000a900473ffffffffffffffffffffffffffffffffffffffff1673ffffffffffffffffffffffffffffffffffffffff163373ffffffffffffffffffffffffffffffffffffffff1614610878576040517f08c379a000000000000000000000000000000000000000000000000000000000815260040161086f9061121f565b60405180910390fd5b5f5f9054906101000a900473ffffffffffffffffffffffffffffffffffffffff1673ffffffffffffffffffffffffffffffffffffffff163373ffffffffffffffffffffffffffffffffffffffff1614610a285760025f3373ffffffffffffffffffffffffffffffffffffffff1673ffffffffffffffffffffffffffffffffffffffff1681526020019081526020015f205f9054906101000a900460ff16610954576040517f08c379a000000000000000000000000000000000000000000000000000000000815260040161094b906112d3565b60405180910390fd5b8260015f3373ffffffffffffffffffffffffffffffffffffffff1673ffffffffffffffffffffffffffffffffffffffff1681526020019081526020015f205410156109d4576040517f08c379a00000000000000000000000000000000000000000000000000000000081526004016109cb90611361565b60405180910390fd5b8260015f3373ffffffffffffffffffffffffffffffffffffffff1673ffffffffffffffffffffffffffffffffffffffff1681526020019081526020015f205f828254610a20919061137f565b925050819055505b5f5f8573ffffffffffffffffffffffffffffffffffffffff168585604051610a5091906113ec565b5f6040518083038185875af1925050503d805f8114610a8a576040519150601f19603f3d011682016040523d82523d5f602084013e610a8f565b606091505b509150915081610ad4576040517f08c379a0000000000000000000000000000000000000000000000000000000008152600401610acb90611472565b60405180910390fd5b80925050509392505050565b600381565b5f604051905090565b5f5ffd5b5f5ffd5b5f73ffffffffffffffffffffffffffffffffffffffff82169050919050565b5f610b1f82610af6565b9050919050565b610b2f81610b15565b8114610b39575f5ffd5b50565b5f81359050610b4a81610b26565b92915050565b5f60208284031215610b6557610b64610aee565b5b5f610b7284828501610b3c565b91505092915050565b5f8115159050919050565b610b8f81610b7b565b82525050565b5f602082019050610ba85f830184610b86565b92915050565b610bb781610b7b565b8114610bc1575f5ffd5b50565b5f81359050610bd281610bae565b92915050565b5f5f60408385031215610bee57610bed610aee565b5b5f610bfb85828601610b3c565b9250506020610c0c85828601610bc4565b9150509250929050565b5f819050919050565b610c2881610c16565b8114610c32575f5ffd5b50565b5f81359050610c4381610c1f565b92915050565b5f5f60408385031215610c5f57610c5e610aee565b5b5f610c6c85828601610b3c565b9250506020610c7d85828601610c35565b9150509250929050565b610c9081610c16565b82525050565b5f602082019050610ca95f830184610c87565b92915050565b5f610cb982610af6565b9050919050565b610cc981610caf565b82525050565b5f602082019050610ce25f830184610cc0565b92915050565b610cf181610caf565b8114610cfb575f5ffd5b50565b5f81359050610d0c81610ce8565b92915050565b5f60208284031215610d2757610d26610aee565b5b5f610d3484828501610cfe565b91505092915050565b5f5ffd5b5f5ffd5b5f601f19601f8301169050919050565b7f4e487b71000000000000000000000000000000000000000000000000000000005f52604160045260245ffd5b610d8b82610d45565b810181811067ffffffffffffffff82111715610daa57610da9610d55565b5b80604052505050565b5f610dbc610ae5565b9050610dc88282610d82565b919050565b5f67ffffffffffffffff821115610de757610de6610d55565b5b610df082610d45565b9050602081019050919050565b828183375f83830152505050565b5f610e1d610e1884610dcd565b610db3565b905082815260208101848484011115610e3957610e38610d41565b5b610e44848285610dfd565b509392505050565b5f82601f830112610e6057610e5f610d3d565b5b8135610e70848260208601610e0b565b91505092915050565b5f5f5f60608486031215610e9057610e8f610aee565b5b5f610e9d86828701610cfe565b9350506020610eae86828701610c35565b925050604084013567ffffffffffffffff811115610ecf57610ece610af2565b5b610edb86828701610e4c565b9150509250925092565b5f81519050919050565b5f82825260208201905092915050565b8281835e5f83830152505050565b5f610f1782610ee5565b610f218185610eef565b9350610f31818560208601610eff565b610f3a81610d45565b840191505092915050565b5f6020820190508181035f830152610f5d8184610f0d565b905092915050565b5f82825260208201905092915050565b7f596f7520617265206e6f7420746865206f776e65722c2061626f7274696e67215f82015250565b5f610fa9602083610f65565b9150610fb482610f75565b602082019050919050565b5f6020820190508181035f830152610fd681610f9d565b9050919050565b7f596f7520617265206e6f7420746865206f776e65722c2061626f7274696e67205f8201527f2100000000000000000000000000000000000000000000000000000000000000602082015250565b5f611037602183610f65565b915061104282610fdd565b604082019050919050565b5f6020820190508181035f8301526110648161102b565b9050919050565b7f596f7520617265206e6f7420677561726469616e206f6620746869732077616c5f8201527f6c65742c2061626f7274696e6721000000000000000000000000000000000000602082015250565b5f6110c5602e83610f65565b91506110d08261106b565b604082019050919050565b5f6020820190508181035f8301526110f2816110b9565b9050919050565b7f596f7520616c726561647920766f7465642c2061626f7274696e6774210000005f82015250565b5f61112d601d83610f65565b9150611138826110f9565b602082019050919050565b5f6020820190508181035f83015261115a81611121565b9050919050565b7f4e487b71000000000000000000000000000000000000000000000000000000005f52601160045260245ffd5b5f61119882610c16565b91507fffffffffffffffffffffffffffffffffffffffffffffffffffffffffffffffff82036111ca576111c9611161565b5b600182019050919050565b7f796f7520617265206e6f7420746865206f776e65722c2061626f7274696e67215f82015250565b5f611209602083610f65565b9150611214826111d5565b602082019050919050565b5f6020820190508181035f830152611236816111fd565b9050919050565b7f596f7520617265206e6f7420616c6c6f77656420746f2073656e6420616e79745f8201527f68696e672066726f6d207468697320736d61727420636f6e74726163742c206160208201527f626f7274696e6721000000000000000000000000000000000000000000000000604082015250565b5f6112bd604883610f65565b91506112c88261123d565b606082019050919050565b5f6020820190508181035f8301526112ea816112b1565b9050919050565b7f596f752061726520747279696e6720746f2073656e64206d6f7265207468616e5f8201527f20796f7520616c6c6f77656420746f2c2061626f7274696e6721000000000000602082015250565b5f61134b603a83610f65565b9150611356826112f1565b604082019050919050565b5f6020820190508181035f8301526113788161133f565b9050919050565b5f61138982610c16565b915061139483610c16565b92508282039050818111156113ac576113ab611161565b5b92915050565b5f81905092915050565b5f6113c682610ee5565b6113d081856113b2565b93506113e0818560208601610eff565b80840191505092915050565b5f6113f782846113bc565b915081905092915050565b7f41626f7274696e672c2063616c6c20776173206e6f74207375636365737366755f8201527f6c00000000000000000000000000000000000000000000000000000000000000602082015250565b5f61145c602183610f65565b915061146782611402565b604082019050919050565b5f6020820190508181035f83015261148981611450565b905091905056fea2646970667358221220eb894ae565f02522f929fbb6b6751befcb3a566b9934db8815707b65a0583bd864736f6c634300081e0033",
					"opcodes": "PUSH1 0x80 PUSH1 0x40 MSTORE CALLVALUE DUP1 ISZERO PUSH1 0xE JUMPI PUSH0 PUSH0 REVERT JUMPDEST POP CALLER PUSH0 PUSH0 PUSH2 0x100 EXP DUP2 SLOAD DUP2 PUSH20 0xFFFFFFFFFFFFFFFFFFFFFFFFFFFFFFFFFFFFFFFF MUL NOT AND SWAP1 DUP4 PUSH20 0xFFFFFFFFFFFFFFFFFFFFFFFFFFFFFFFFFFFFFFFF AND MUL OR SWAP1 SSTORE POP PUSH2 0x14C6 DUP1 PUSH2 0x5B PUSH0 CODECOPY PUSH0 RETURN INVALID PUSH1 0x80 PUSH1 0x40 MSTORE PUSH1 0x4 CALLDATASIZE LT PUSH2 0x89 JUMPI PUSH0 CALLDATALOAD PUSH1 0xE0 SHR DUP1 PUSH4 0x3E5BEAB9 GT PUSH2 0x58 JUMPI DUP1 PUSH4 0x3E5BEAB9 EQ PUSH2 0x15C JUMPI DUP1 PUSH4 0x8DA5CB5B EQ PUSH2 0x198 JUMPI DUP1 PUSH4 0xB1F8100D EQ PUSH2 0x1C2 JUMPI DUP1 PUSH4 0xBE45FD62 EQ PUSH2 0x1EA JUMPI DUP1 PUSH4 0xCAF5B411 EQ PUSH2 0x226 JUMPI PUSH2 0x90 JUMP JUMPDEST DUP1 PUSH4 0x633B14A EQ PUSH2 0x94 JUMPI DUP1 PUSH4 0xBC605AD EQ PUSH2 0xD0 JUMPI DUP1 PUSH4 0x2B8A1C5A EQ PUSH2 0x10C JUMPI DUP1 PUSH4 0x310EC4A7 EQ PUSH2 0x134 JUMPI PUSH2 0x90 JUMP JUMPDEST CALLDATASIZE PUSH2 0x90 JUMPI STOP JUMPDEST PUSH0 PUSH0 REVERT JUMPDEST CALLVALUE DUP1 ISZERO PUSH2 0x9F JUMPI PUSH0 PUSH0 REVERT JUMPDEST POP PUSH2 0xBA PUSH1 0x4 DUP1 CALLDATASIZE SUB DUP2 ADD SWAP1 PUSH2 0xB5 SWAP2 SWAP1 PUSH2 0xB50 JUMP JUMPDEST PUSH2 0x250 JUMP JUMPDEST PUSH1 0x40 MLOAD PUSH2 0xC7 SWAP2 SWAP1 PUSH2 0xB95 JUMP JUMPDEST PUSH1 0x40 MLOAD DUP1 SWAP2 SUB SWAP1 RETURN JUMPDEST CALLVALUE DUP1 ISZERO PUSH2 0xDB JUMPI PUSH0 PUSH0 REVERT JUMPDEST POP PUSH2 0xF6 PUSH1 0x4 DUP1 CALLDATASIZE SUB DUP2 ADD SWAP1 PUSH2 0xF1 SWAP2 SWAP1 PUSH2 0xB50 JUMP JUMPDEST PUSH2 0x26D JUMP JUMPDEST PUSH1 0x40 MLOAD PUSH2 0x103 SWAP2 SWAP1 PUSH2 0xB95 JUMP JUMPDEST PUSH1 0x40 MLOAD DUP1 SWAP2 SUB SWAP1 RETURN JUMPDEST CALLVALUE DUP1 ISZERO PUSH2 0x117 JUMPI PUSH0 PUSH0 REVERT JUMPDEST POP PUSH2 0x132 PUSH1 0x4 DUP1 CALLDATASIZE SUB DUP2 ADD SWAP1 PUSH2 0x12D SWAP2 SWAP1 PUSH2 0xBD8 JUMP JUMPDEST PUSH2 0x28A JUMP JUMPDEST STOP JUMPDEST CALLVALUE DUP1 ISZERO PUSH2 0x13F JUMPI PUSH0 PUSH0 REVERT JUMPDEST POP PUSH2 0x15A PUSH1 0x4 DUP1 CALLDATASIZE SUB DUP2 ADD SWAP1 PUSH2 0x155 SWAP2 SWAP1 PUSH2 0xC49 JUMP JUMPDEST PUSH2 0x370 JUMP JUMPDEST STOP JUMPDEST CALLVALUE DUP1 ISZERO PUSH2 0x167 JUMPI PUSH0 PUSH0 REVERT JUMPDEST POP PUSH2 0x182 PUSH1 0x4 DUP1 CALLDATASIZE SUB DUP2 ADD SWAP1 PUSH2 0x17D SWAP2 SWAP1 PUSH2 0xB50 JUMP JUMPDEST PUSH2 0x4FB JUMP JUMPDEST PUSH1 0x40 MLOAD PUSH2 0x18F SWAP2 SWAP1 PUSH2 0xC96 JUMP JUMPDEST PUSH1 0x40 MLOAD DUP1 SWAP2 SUB SWAP1 RETURN JUMPDEST CALLVALUE DUP1 ISZERO PUSH2 0x1A3 JUMPI PUSH0 PUSH0 REVERT JUMPDEST POP PUSH2 0x1AC PUSH2 0x510 JUMP JUMPDEST PUSH1 0x40 MLOAD PUSH2 0x1B9 SWAP2 SWAP1 PUSH2 0xCCF JUMP JUMPDEST PUSH1 0x40 MLOAD DUP1 SWAP2 SUB SWAP1 RETURN JUMPDEST CALLVALUE DUP1 ISZERO PUSH2 0x1CD JUMPI PUSH0 PUSH0 REVERT JUMPDEST POP PUSH2 0x1E8 PUSH1 0x4 DUP1 CALLDATASIZE SUB DUP2 ADD SWAP1 PUSH2 0x1E3 SWAP2 SWAP1 PUSH2 0xD12 JUMP JUMPDEST PUSH2 0x534 JUMP JUMPDEST STOP JUMPDEST CALLVALUE DUP1 ISZERO PUSH2 0x1F5 JUMPI PUSH0 PUSH0 REVERT JUMPDEST POP PUSH2 0x210 PUSH1 0x4 DUP1 CALLDATASIZE SUB DUP2 ADD SWAP1 PUSH2 0x20B SWAP2 SWAP1 PUSH2 0xE79 JUMP JUMPDEST PUSH2 0x7E8 JUMP JUMPDEST PUSH1 0x40 MLOAD PUSH2 0x21D SWAP2 SWAP1 PUSH2 0xF45 JUMP JUMPDEST PUSH1 0x40 MLOAD DUP1 SWAP2 SUB SWAP1 RETURN JUMPDEST CALLVALUE DUP1 ISZERO PUSH2 0x231 JUMPI PUSH0 PUSH0 REVERT JUMPDEST POP PUSH2 0x23A PUSH2 0xAE0 JUMP JUMPDEST PUSH1 0x40 MLOAD PUSH2 0x247 SWAP2 SWAP1 PUSH2 0xC96 JUMP JUMPDEST PUSH1 0x40 MLOAD DUP1 SWAP2 SUB SWAP1 RETURN JUMPDEST PUSH1 0x3 PUSH1 0x20 MSTORE DUP1 PUSH0 MSTORE PUSH1 0x40 PUSH0 KECCAK256 PUSH0 SWAP2 POP SLOAD SWAP1 PUSH2 0x100 EXP SWAP1 DIV PUSH1 0xFF AND DUP2 JUMP JUMPDEST PUSH1 0x2 PUSH1 0x20 MSTORE DUP1 PUSH0 MSTORE PUSH1 0x40 PUSH0 KECCAK256 PUSH0 SWAP2 POP SLOAD SWAP1 PUSH2 0x100 EXP SWAP1 DIV PUSH1 0xFF AND DUP2 JUMP JUMPDEST PUSH0 PUSH0 SWAP1 SLOAD SWAP1 PUSH2 0x100 EXP SWAP1 DIV PUSH20 0xFFFFFFFFFFFFFFFFFFFFFFFFFFFFFFFFFFFFFFFF AND PUSH20 0xFFFFFFFFFFFFFFFFFFFFFFFFFFFFFFFFFFFFFFFF AND CALLER PUSH20 0xFFFFFFFFFFFFFFFFFFFFFFFFFFFFFFFFFFFFFFFF AND EQ PUSH2 0x318 JUMPI PUSH1 0x40 MLOAD PUSH32 0x8C379A000000000000000000000000000000000000000000000000000000000 DUP2 MSTORE PUSH1 0x4 ADD PUSH2 0x30F SWAP1 PUSH2 0xFBF JUMP JUMPDEST PUSH1 0x40 MLOAD DUP1 SWAP2 SUB SWAP1 REVERT JUMPDEST DUP1 PUSH1 0x3 PUSH0 DUP5 PUSH20 0xFFFFFFFFFFFFFFFFFFFFFFFFFFFFFFFFFFFFFFFF AND PUSH20 0xFFFFFFFFFFFFFFFFFFFFFFFFFFFFFFFFFFFFFFFF AND DUP2 MSTORE PUSH1 0x20 ADD SWAP1 DUP2 MSTORE PUSH1 0x20 ADD PUSH0 KECCAK256 PUSH0 PUSH2 0x100 EXP DUP2 SLOAD DUP2 PUSH1 0xFF MUL NOT AND SWAP1 DUP4 ISZERO ISZERO MUL OR SWAP1 SSTORE POP POP POP JUMP JUMPDEST PUSH0 PUSH0 SWAP1 SLOAD SWAP1 PUSH2 0x100 EXP SWAP1 DIV PUSH20 0xFFFFFFFFFFFFFFFFFFFFFFFFFFFFFFFFFFFFFFFF AND PUSH20 0xFFFFFFFFFFFFFFFFFFFFFFFFFFFFFFFFFFFFFFFF AND CALLER PUSH20 0xFFFFFFFFFFFFFFFFFFFFFFFFFFFFFFFFFFFFFFFF AND EQ PUSH2 0x3FE JUMPI PUSH1 0x40 MLOAD PUSH32 0x8C379A000000000000000000000000000000000000000000000000000000000 DUP2 MSTORE PUSH1 0x4 ADD PUSH2 0x3F5 SWAP1 PUSH2 0x104D JUMP JUMPDEST PUSH1 0x40 MLOAD DUP1 SWAP2 SUB SWAP1 REVERT JUMPDEST DUP1 PUSH1 0x1 PUSH0 DUP5 PUSH20 0xFFFFFFFFFFFFFFFFFFFFFFFFFFFFFFFFFFFFFFFF AND PUSH20 0xFFFFFFFFFFFFFFFFFFFFFFFFFFFFFFFFFFFFFFFF AND DUP2 MSTORE PUSH1 0x20 ADD SWAP1 DUP2 MSTORE PUSH1 0x20 ADD PUSH0 KECCAK256 DUP2 SWAP1 SSTORE POP PUSH0 DUP2 GT ISZERO PUSH2 0x4A2 JUMPI PUSH1 0x1 PUSH1 0x2 PUSH0 DUP5 PUSH20 0xFFFFFFFFFFFFFFFFFFFFFFFFFFFFFFFFFFFFFFFF AND PUSH20 0xFFFFFFFFFFFFFFFFFFFFFFFFFFFFFFFFFFFFFFFF AND DUP2 MSTORE PUSH1 0x20 ADD SWAP1 DUP2 MSTORE PUSH1 0x20 ADD PUSH0 KECCAK256 PUSH0 PUSH2 0x100 EXP DUP2 SLOAD DUP2 PUSH1 0xFF MUL NOT AND SWAP1 DUP4 ISZERO ISZERO MUL OR SWAP1 SSTORE POP PUSH2 0x4F7 JUMP JUMPDEST PUSH0 PUSH1 0x2 PUSH0 DUP5 PUSH20 0xFFFFFFFFFFFFFFFFFFFFFFFFFFFFFFFFFFFFFFFF AND PUSH20 0xFFFFFFFFFFFFFFFFFFFFFFFFFFFFFFFFFFFFFFFF AND DUP2 MSTORE PUSH1 0x20 ADD SWAP1 DUP2 MSTORE PUSH1 0x20 ADD PUSH0 KECCAK256 PUSH0 PUSH2 0x100 EXP DUP2 SLOAD DUP2 PUSH1 0xFF MUL NOT AND SWAP1 DUP4 ISZERO ISZERO MUL OR SWAP1 SSTORE POP JUMPDEST POP POP JUMP JUMPDEST PUSH1 0x1 PUSH1 0x20 MSTORE DUP1 PUSH0 MSTORE PUSH1 0x40 PUSH0 KECCAK256 PUSH0 SWAP2 POP SWAP1 POP SLOAD DUP2 JUMP JUMPDEST PUSH0 PUSH0 SWAP1 SLOAD SWAP1 PUSH2 0x100 EXP SWAP1 DIV PUSH20 0xFFFFFFFFFFFFFFFFFFFFFFFFFFFFFFFFFFFFFFFF AND DUP2 JUMP JUMPDEST PUSH1 0x3 PUSH0 CALLER PUSH20 0xFFFFFFFFFFFFFFFFFFFFFFFFFFFFFFFFFFFFFFFF AND PUSH20 0xFFFFFFFFFFFFFFFFFFFFFFFFFFFFFFFFFFFFFFFF AND DUP2 MSTORE PUSH1 0x20 ADD SWAP1 DUP2 MSTORE PUSH1 0x20 ADD PUSH0 KECCAK256 PUSH0 SWAP1 SLOAD SWAP1 PUSH2 0x100 EXP SWAP1 DIV PUSH1 0xFF AND PUSH2 0x5BD JUMPI PUSH1 0x40 MLOAD PUSH32 0x8C379A000000000000000000000000000000000000000000000000000000000 DUP2 MSTORE PUSH1 0x4 ADD PUSH2 0x5B4 SWAP1 PUSH2 0x10DB JUMP JUMPDEST PUSH1 0x40 MLOAD DUP1 SWAP2 SUB SWAP1 REVERT JUMPDEST PUSH0 ISZERO ISZERO PUSH1 0x5 PUSH0 DUP4 PUSH20 0xFFFFFFFFFFFFFFFFFFFFFFFFFFFFFFFFFFFFFFFF AND PUSH20 0xFFFFFFFFFFFFFFFFFFFFFFFFFFFFFFFFFFFFFFFF AND DUP2 MSTORE PUSH1 0x20 ADD SWAP1 DUP2 MSTORE PUSH1 0x20 ADD PUSH0 KECCAK256 PUSH0 CALLER PUSH20 0xFFFFFFFFFFFFFFFFFFFFFFFFFFFFFFFFFFFFFFFF AND PUSH20 0xFFFFFFFFFFFFFFFFFFFFFFFFFFFFFFFFFFFFFFFF AND DUP2 MSTORE PUSH1 0x20 ADD SWAP1 DUP2 MSTORE PUSH1 0x20 ADD PUSH0 KECCAK256 PUSH0 SWAP1 SLOAD SWAP1 PUSH2 0x100 EXP SWAP1 DIV PUSH1 0xFF AND ISZERO ISZERO EQ PUSH2 0x687 JUMPI PUSH1 0x40 MLOAD PUSH32 0x8C379A000000000000000000000000000000000000000000000000000000000 DUP2 MSTORE PUSH1 0x4 ADD PUSH2 0x67E SWAP1 PUSH2 0x1143 JUMP JUMPDEST PUSH1 0x40 MLOAD DUP1 SWAP2 SUB SWAP1 REVERT JUMPDEST PUSH1 0x4 PUSH0 SWAP1 SLOAD SWAP1 PUSH2 0x100 EXP SWAP1 DIV PUSH20 0xFFFFFFFFFFFFFFFFFFFFFFFFFFFFFFFFFFFFFFFF AND PUSH20 0xFFFFFFFFFFFFFFFFFFFFFFFFFFFFFFFFFFFFFFFF AND DUP2 PUSH20 0xFFFFFFFFFFFFFFFFFFFFFFFFFFFFFFFFFFFFFFFF AND EQ PUSH2 0x723 JUMPI DUP1 PUSH1 0x4 PUSH0 PUSH2 0x100 EXP DUP2 SLOAD DUP2 PUSH20 0xFFFFFFFFFFFFFFFFFFFFFFFFFFFFFFFFFFFFFFFF MUL NOT AND SWAP1 DUP4 PUSH20 0xFFFFFFFFFFFFFFFFFFFFFFFFFFFFFFFFFFFFFFFF AND MUL OR SWAP1 SSTORE POP PUSH0 PUSH1 0x6 DUP2 SWAP1 SSTORE POP JUMPDEST PUSH1 0x6 PUSH0 DUP2 SLOAD DUP1 SWAP3 SWAP2 SWAP1 PUSH2 0x735 SWAP1 PUSH2 0x118E JUMP JUMPDEST SWAP2 SWAP1 POP SSTORE POP PUSH1 0x3 PUSH1 0x6 SLOAD LT PUSH2 0x7E5 JUMPI PUSH1 0x4 PUSH0 SWAP1 SLOAD SWAP1 PUSH2 0x100 EXP SWAP1 DIV PUSH20 0xFFFFFFFFFFFFFFFFFFFFFFFFFFFFFFFFFFFFFFFF AND PUSH0 PUSH0 PUSH2 0x100 EXP DUP2 SLOAD DUP2 PUSH20 0xFFFFFFFFFFFFFFFFFFFFFFFFFFFFFFFFFFFFFFFF MUL NOT AND SWAP1 DUP4 PUSH20 0xFFFFFFFFFFFFFFFFFFFFFFFFFFFFFFFFFFFFFFFF AND MUL OR SWAP1 SSTORE POP PUSH0 PUSH1 0x4 PUSH0 PUSH2 0x100 EXP DUP2 SLOAD DUP2 PUSH20 0xFFFFFFFFFFFFFFFFFFFFFFFFFFFFFFFFFFFFFFFF MUL NOT AND SWAP1 DUP4 PUSH20 0xFFFFFFFFFFFFFFFFFFFFFFFFFFFFFFFFFFFFFFFF AND MUL OR SWAP1 SSTORE POP JUMPDEST POP JUMP JUMPDEST PUSH1 0x60 PUSH0 PUSH0 SWAP1 SLOAD SWAP1 PUSH2 0x100 EXP SWAP1 DIV PUSH20 0xFFFFFFFFFFFFFFFFFFFFFFFFFFFFFFFFFFFFFFFF AND PUSH20 0xFFFFFFFFFFFFFFFFFFFFFFFFFFFFFFFFFFFFFFFF AND CALLER PUSH20 0xFFFFFFFFFFFFFFFFFFFFFFFFFFFFFFFFFFFFFFFF AND EQ PUSH2 0x878 JUMPI PUSH1 0x40 MLOAD PUSH32 0x8C379A000000000000000000000000000000000000000000000000000000000 DUP2 MSTORE PUSH1 0x4 ADD PUSH2 0x86F SWAP1 PUSH2 0x121F JUMP JUMPDEST PUSH1 0x40 MLOAD DUP1 SWAP2 SUB SWAP1 REVERT JUMPDEST PUSH0 PUSH0 SWAP1 SLOAD SWAP1 PUSH2 0x100 EXP SWAP1 DIV PUSH20 0xFFFFFFFFFFFFFFFFFFFFFFFFFFFFFFFFFFFFFFFF AND PUSH20 0xFFFFFFFFFFFFFFFFFFFFFFFFFFFFFFFFFFFFFFFF AND CALLER PUSH20 0xFFFFFFFFFFFFFFFFFFFFFFFFFFFFFFFFFFFFFFFF AND EQ PUSH2 0xA28 JUMPI PUSH1 0x2 PUSH0 CALLER PUSH20 0xFFFFFFFFFFFFFFFFFFFFFFFFFFFFFFFFFFFFFFFF AND PUSH20 0xFFFFFFFFFFFFFFFFFFFFFFFFFFFFFFFFFFFFFFFF AND DUP2 MSTORE PUSH1 0x20 ADD SWAP1 DUP2 MSTORE PUSH1 0x20 ADD PUSH0 KECCAK256 PUSH0 SWAP1 SLOAD SWAP1 PUSH2 0x100 EXP SWAP1 DIV PUSH1 0xFF AND PUSH2 0x954 JUMPI PUSH1 0x40 MLOAD PUSH32 0x8C379A000000000000000000000000000000000000000000000000000000000 DUP2 MSTORE PUSH1 0x4 ADD PUSH2 0x94B SWAP1 PUSH2 0x12D3 JUMP JUMPDEST PUSH1 0x40 MLOAD DUP1 SWAP2 SUB SWAP1 REVERT JUMPDEST DUP3 PUSH1 0x1 PUSH0 CALLER PUSH20 0xFFFFFFFFFFFFFFFFFFFFFFFFFFFFFFFFFFFFFFFF AND PUSH20 0xFFFFFFFFFFFFFFFFFFFFFFFFFFFFFFFFFFFFFFFF AND DUP2 MSTORE PUSH1 0x20 ADD SWAP1 DUP2 MSTORE PUSH1 0x20 ADD PUSH0 KECCAK256 SLOAD LT ISZERO PUSH2 0x9D4 JUMPI PUSH1 0x40 MLOAD PUSH32 0x8C379A000000000000000000000000000000000000000000000000000000000 DUP2 MSTORE PUSH1 0x4 ADD PUSH2 0x9CB SWAP1 PUSH2 0x1361 JUMP JUMPDEST PUSH1 0x40 MLOAD DUP1 SWAP2 SUB SWAP1 REVERT JUMPDEST DUP3 PUSH1 0x1 PUSH0 CALLER PUSH20 0xFFFFFFFFFFFFFFFFFFFFFFFFFFFFFFFFFFFFFFFF AND PUSH20 0xFFFFFFFFFFFFFFFFFFFFFFFFFFFFFFFFFFFFFFFF AND DUP2 MSTORE PUSH1 0x20 ADD SWAP1 DUP2 MSTORE PUSH1 0x20 ADD PUSH0 KECCAK256 PUSH0 DUP3 DUP3 SLOAD PUSH2 0xA20 SWAP2 SWAP1 PUSH2 0x137F JUMP JUMPDEST SWAP3 POP POP DUP2 SWAP1 SSTORE POP JUMPDEST PUSH0 PUSH0 DUP6 PUSH20 0xFFFFFFFFFFFFFFFFFFFFFFFFFFFFFFFFFFFFFFFF AND DUP6 DUP6 PUSH1 0x40 MLOAD PUSH2 0xA50 SWAP2 SWAP1 PUSH2 0x13EC JUMP JUMPDEST PUSH0 PUSH1 0x40 MLOAD DUP1 DUP4 SUB DUP2 DUP6 DUP8 GAS CALL SWAP3 POP POP POP RETURNDATASIZE DUP1 PUSH0 DUP2 EQ PUSH2 0xA8A JUMPI PUSH1 0x40 MLOAD SWAP2 POP PUSH1 0x1F NOT PUSH1 0x3F RETURNDATASIZE ADD AND DUP3 ADD PUSH1 0x40 MSTORE RETURNDATASIZE DUP3 MSTORE RETURNDATASIZE PUSH0 PUSH1 0x20 DUP5 ADD RETURNDATACOPY PUSH2 0xA8F JUMP JUMPDEST PUSH1 0x60 SWAP2 POP JUMPDEST POP SWAP2 POP SWAP2 POP DUP2 PUSH2 0xAD4 JUMPI PUSH1 0x40 MLOAD PUSH32 0x8C379A000000000000000000000000000000000000000000000000000000000 DUP2 MSTORE PUSH1 0x4 ADD PUSH2 0xACB SWAP1 PUSH2 0x1472 JUMP JUMPDEST PUSH1 0x40 MLOAD DUP1 SWAP2 SUB SWAP1 REVERT JUMPDEST DUP1 SWAP3 POP POP POP SWAP4 SWAP3 POP POP POP JUMP JUMPDEST PUSH1 0x3 DUP2 JUMP JUMPDEST PUSH0 PUSH1 0x40 MLOAD SWAP1 POP SWAP1 JUMP JUMPDEST PUSH0 PUSH0 REVERT JUMPDEST PUSH0 PUSH0 REVERT JUMPDEST PUSH0 PUSH20 0xFFFFFFFFFFFFFFFFFFFFFFFFFFFFFFFFFFFFFFFF DUP3 AND SWAP1 POP SWAP2 SWAP1 POP JUMP JUMPDEST PUSH0 PUSH2 0xB1F DUP3 PUSH2 0xAF6 JUMP JUMPDEST SWAP1 POP SWAP2 SWAP1 POP JUMP JUMPDEST PUSH2 0xB2F DUP2 PUSH2 0xB15 JUMP JUMPDEST DUP2 EQ PUSH2 0xB39 JUMPI PUSH0 PUSH0 REVERT JUMPDEST POP JUMP JUMPDEST PUSH0 DUP2 CALLDATALOAD SWAP1 POP PUSH2 0xB4A DUP2 PUSH2 0xB26 JUMP JUMPDEST SWAP3 SWAP2 POP POP JUMP JUMPDEST PUSH0 PUSH1 0x20 DUP3 DUP5 SUB SLT ISZERO PUSH2 0xB65 JUMPI PUSH2 0xB64 PUSH2 0xAEE JUMP JUMPDEST JUMPDEST PUSH0 PUSH2 0xB72 DUP5 DUP3 DUP6 ADD PUSH2 0xB3C JUMP JUMPDEST SWAP2 POP POP SWAP3 SWAP2 POP POP JUMP JUMPDEST PUSH0 DUP2 ISZERO ISZERO SWAP1 POP SWAP2 SWAP1 POP JUMP JUMPDEST PUSH2 0xB8F DUP2 PUSH2 0xB7B JUMP JUMPDEST DUP3 MSTORE POP POP JUMP JUMPDEST PUSH0 PUSH1 0x20 DUP3 ADD SWAP1 POP PUSH2 0xBA8 PUSH0 DUP4 ADD DUP5 PUSH2 0xB86 JUMP JUMPDEST SWAP3 SWAP2 POP POP JUMP JUMPDEST PUSH2 0xBB7 DUP2 PUSH2 0xB7B JUMP JUMPDEST DUP2 EQ PUSH2 0xBC1 JUMPI PUSH0 PUSH0 REVERT JUMPDEST POP JUMP JUMPDEST PUSH0 DUP2 CALLDATALOAD SWAP1 POP PUSH2 0xBD2 DUP2 PUSH2 0xBAE JUMP JUMPDEST SWAP3 SWAP2 POP POP JUMP JUMPDEST PUSH0 PUSH0 PUSH1 0x40 DUP4 DUP6 SUB SLT ISZERO PUSH2 0xBEE JUMPI PUSH2 0xBED PUSH2 0xAEE JUMP JUMPDEST JUMPDEST PUSH0 PUSH2 0xBFB DUP6 DUP3 DUP7 ADD PUSH2 0xB3C JUMP JUMPDEST SWAP3 POP POP PUSH1 0x20 PUSH2 0xC0C DUP6 DUP3 DUP7 ADD PUSH2 0xBC4 JUMP JUMPDEST SWAP2 POP POP SWAP3 POP SWAP3 SWAP1 POP JUMP JUMPDEST PUSH0 DUP2 SWAP1 POP SWAP2 SWAP1 POP JUMP JUMPDEST PUSH2 0xC28 DUP2 PUSH2 0xC16 JUMP JUMPDEST DUP2 EQ PUSH2 0xC32 JUMPI PUSH0 PUSH0 REVERT JUMPDEST POP JUMP JUMPDEST PUSH0 DUP2 CALLDATALOAD SWAP1 POP PUSH2 0xC43 DUP2 PUSH2 0xC1F JUMP JUMPDEST SWAP3 SWAP2 POP POP JUMP JUMPDEST PUSH0 PUSH0 PUSH1 0x40 DUP4 DUP6 SUB SLT ISZERO PUSH2 0xC5F JUMPI PUSH2 0xC5E PUSH2 0xAEE JUMP JUMPDEST JUMPDEST PUSH0 PUSH2 0xC6C DUP6 DUP3 DUP7 ADD PUSH2 0xB3C JUMP JUMPDEST SWAP3 POP POP PUSH1 0x20 PUSH2 0xC7D DUP6 DUP3 DUP7 ADD PUSH2 0xC35 JUMP JUMPDEST SWAP2 POP POP SWAP3 POP SWAP3 SWAP1 POP JUMP JUMPDEST PUSH2 0xC90 DUP2 PUSH2 0xC16 JUMP JUMPDEST DUP3 MSTORE POP POP JUMP JUMPDEST PUSH0 PUSH1 0x20 DUP3 ADD SWAP1 POP PUSH2 0xCA9 PUSH0 DUP4 ADD DUP5 PUSH2 0xC87 JUMP JUMPDEST SWAP3 SWAP2 POP POP JUMP JUMPDEST PUSH0 PUSH2 0xCB9 DUP3 PUSH2 0xAF6 JUMP JUMPDEST SWAP1 POP SWAP2 SWAP1 POP JUMP JUMPDEST PUSH2 0xCC9 DUP2 PUSH2 0xCAF JUMP JUMPDEST DUP3 MSTORE POP POP JUMP JUMPDEST PUSH0 PUSH1 0x20 DUP3 ADD SWAP1 POP PUSH2 0xCE2 PUSH0 DUP4 ADD DUP5 PUSH2 0xCC0 JUMP JUMPDEST SWAP3 SWAP2 POP POP JUMP JUMPDEST PUSH2 0xCF1 DUP2 PUSH2 0xCAF JUMP JUMPDEST DUP2 EQ PUSH2 0xCFB JUMPI PUSH0 PUSH0 REVERT JUMPDEST POP JUMP JUMPDEST PUSH0 DUP2 CALLDATALOAD SWAP1 POP PUSH2 0xD0C DUP2 PUSH2 0xCE8 JUMP JUMPDEST SWAP3 SWAP2 POP POP JUMP JUMPDEST PUSH0 PUSH1 0x20 DUP3 DUP5 SUB SLT ISZERO PUSH2 0xD27 JUMPI PUSH2 0xD26 PUSH2 0xAEE JUMP JUMPDEST JUMPDEST PUSH0 PUSH2 0xD34 DUP5 DUP3 DUP6 ADD PUSH2 0xCFE JUMP JUMPDEST SWAP2 POP POP SWAP3 SWAP2 POP POP JUMP JUMPDEST PUSH0 PUSH0 REVERT JUMPDEST PUSH0 PUSH0 REVERT JUMPDEST PUSH0 PUSH1 0x1F NOT PUSH1 0x1F DUP4 ADD AND SWAP1 POP SWAP2 SWAP1 POP JUMP JUMPDEST PUSH32 0x4E487B7100000000000000000000000000000000000000000000000000000000 PUSH0 MSTORE PUSH1 0x41 PUSH1 0x4 MSTORE PUSH1 0x24 PUSH0 REVERT JUMPDEST PUSH2 0xD8B DUP3 PUSH2 0xD45 JUMP JUMPDEST DUP2 ADD DUP2 DUP2 LT PUSH8 0xFFFFFFFFFFFFFFFF DUP3 GT OR ISZERO PUSH2 0xDAA JUMPI PUSH2 0xDA9 PUSH2 0xD55 JUMP JUMPDEST JUMPDEST DUP1 PUSH1 0x40 MSTORE POP POP POP JUMP JUMPDEST PUSH0 PUSH2 0xDBC PUSH2 0xAE5 JUMP JUMPDEST SWAP1 POP PUSH2 0xDC8 DUP3 DUP3 PUSH2 0xD82 JUMP JUMPDEST SWAP2 SWAP1 POP JUMP JUMPDEST PUSH0 PUSH8 0xFFFFFFFFFFFFFFFF DUP3 GT ISZERO PUSH2 0xDE7 JUMPI PUSH2 0xDE6 PUSH2 0xD55 JUMP JUMPDEST JUMPDEST PUSH2 0xDF0 DUP3 PUSH2 0xD45 JUMP JUMPDEST SWAP1 POP PUSH1 0x20 DUP2 ADD SWAP1 POP SWAP2 SWAP1 POP JUMP JUMPDEST DUP3 DUP2 DUP4 CALLDATACOPY PUSH0 DUP4 DUP4 ADD MSTORE POP POP POP JUMP JUMPDEST PUSH0 PUSH2 0xE1D PUSH2 0xE18 DUP5 PUSH2 0xDCD JUMP JUMPDEST PUSH2 0xDB3 JUMP JUMPDEST SWAP1 POP DUP3 DUP2 MSTORE PUSH1 0x20 DUP2 ADD DUP5 DUP5 DUP5 ADD GT ISZERO PUSH2 0xE39 JUMPI PUSH2 0xE38 PUSH2 0xD41 JUMP JUMPDEST JUMPDEST PUSH2 0xE44 DUP5 DUP3 DUP6 PUSH2 0xDFD JUMP JUMPDEST POP SWAP4 SWAP3 POP POP POP JUMP JUMPDEST PUSH0 DUP3 PUSH1 0x1F DUP4 ADD SLT PUSH2 0xE60 JUMPI PUSH2 0xE5F PUSH2 0xD3D JUMP JUMPDEST JUMPDEST DUP2 CALLDATALOAD PUSH2 0xE70 DUP5 DUP3 PUSH1 0x20 DUP7 ADD PUSH2 0xE0B JUMP JUMPDEST SWAP2 POP POP SWAP3 SWAP2 POP POP JUMP JUMPDEST PUSH0 PUSH0 PUSH0 PUSH1 0x60 DUP5 DUP7 SUB SLT ISZERO PUSH2 0xE90 JUMPI PUSH2 0xE8F PUSH2 0xAEE JUMP JUMPDEST JUMPDEST PUSH0 PUSH2 0xE9D DUP7 DUP3 DUP8 ADD PUSH2 0xCFE JUMP JUMPDEST SWAP4 POP POP PUSH1 0x20 PUSH2 0xEAE DUP7 DUP3 DUP8 ADD PUSH2 0xC35 JUMP JUMPDEST SWAP3 POP POP PUSH1 0x40 DUP5 ADD CALLDATALOAD PUSH8 0xFFFFFFFFFFFFFFFF DUP2 GT ISZERO PUSH2 0xECF JUMPI PUSH2 0xECE PUSH2 0xAF2 JUMP JUMPDEST JUMPDEST PUSH2 0xEDB DUP7 DUP3 DUP8 ADD PUSH2 0xE4C JUMP JUMPDEST SWAP2 POP POP SWAP3 POP SWAP3 POP SWAP3 JUMP JUMPDEST PUSH0 DUP2 MLOAD SWAP1 POP SWAP2 SWAP1 POP JUMP JUMPDEST PUSH0 DUP3 DUP3 MSTORE PUSH1 0x20 DUP3 ADD SWAP1 POP SWAP3 SWAP2 POP POP JUMP JUMPDEST DUP3 DUP2 DUP4 MCOPY PUSH0 DUP4 DUP4 ADD MSTORE POP POP POP JUMP JUMPDEST PUSH0 PUSH2 0xF17 DUP3 PUSH2 0xEE5 JUMP JUMPDEST PUSH2 0xF21 DUP2 DUP6 PUSH2 0xEEF JUMP JUMPDEST SWAP4 POP PUSH2 0xF31 DUP2 DUP6 PUSH1 0x20 DUP7 ADD PUSH2 0xEFF JUMP JUMPDEST PUSH2 0xF3A DUP2 PUSH2 0xD45 JUMP JUMPDEST DUP5 ADD SWAP2 POP POP SWAP3 SWAP2 POP POP JUMP JUMPDEST PUSH0 PUSH1 0x20 DUP3 ADD SWAP1 POP DUP2 DUP2 SUB PUSH0 DUP4 ADD MSTORE PUSH2 0xF5D DUP2 DUP5 PUSH2 0xF0D JUMP JUMPDEST SWAP1 POP SWAP3 SWAP2 POP POP JUMP JUMPDEST PUSH0 DUP3 DUP3 MSTORE PUSH1 0x20 DUP3 ADD SWAP1 POP SWAP3 SWAP2 POP POP JUMP JUMPDEST PUSH32 0x596F7520617265206E6F7420746865206F776E65722C2061626F7274696E6721 PUSH0 DUP3 ADD MSTORE POP JUMP JUMPDEST PUSH0 PUSH2 0xFA9 PUSH1 0x20 DUP4 PUSH2 0xF65 JUMP JUMPDEST SWAP2 POP PUSH2 0xFB4 DUP3 PUSH2 0xF75 JUMP JUMPDEST PUSH1 0x20 DUP3 ADD SWAP1 POP SWAP2 SWAP1 POP JUMP JUMPDEST PUSH0 PUSH1 0x20 DUP3 ADD SWAP1 POP DUP2 DUP2 SUB PUSH0 DUP4 ADD MSTORE PUSH2 0xFD6 DUP2 PUSH2 0xF9D JUMP JUMPDEST SWAP1 POP SWAP2 SWAP1 POP JUMP JUMPDEST PUSH32 0x596F7520617265206E6F7420746865206F776E65722C2061626F7274696E6720 PUSH0 DUP3 ADD MSTORE PUSH32 0x2100000000000000000000000000000000000000000000000000000000000000 PUSH1 0x20 DUP3 ADD MSTORE POP JUMP JUMPDEST PUSH0 PUSH2 0x1037 PUSH1 0x21 DUP4 PUSH2 0xF65 JUMP JUMPDEST SWAP2 POP PUSH2 0x1042 DUP3 PUSH2 0xFDD JUMP JUMPDEST PUSH1 0x40 DUP3 ADD SWAP1 POP SWAP2 SWAP1 POP JUMP JUMPDEST PUSH0 PUSH1 0x20 DUP3 ADD SWAP1 POP DUP2 DUP2 SUB PUSH0 DUP4 ADD MSTORE PUSH2 0x1064 DUP2 PUSH2 0x102B JUMP JUMPDEST SWAP1 POP SWAP2 SWAP1 POP JUMP JUMPDEST PUSH32 0x596F7520617265206E6F7420677561726469616E206F6620746869732077616C PUSH0 DUP3 ADD MSTORE PUSH32 0x6C65742C2061626F7274696E6721000000000000000000000000000000000000 PUSH1 0x20 DUP3 ADD MSTORE POP JUMP JUMPDEST PUSH0 PUSH2 0x10C5 PUSH1 0x2E DUP4 PUSH2 0xF65 JUMP JUMPDEST SWAP2 POP PUSH2 0x10D0 DUP3 PUSH2 0x106B JUMP JUMPDEST PUSH1 0x40 DUP3 ADD SWAP1 POP SWAP2 SWAP1 POP JUMP JUMPDEST PUSH0 PUSH1 0x20 DUP3 ADD SWAP1 POP DUP2 DUP2 SUB PUSH0 DUP4 ADD MSTORE PUSH2 0x10F2 DUP2 PUSH2 0x10B9 JUMP JUMPDEST SWAP1 POP SWAP2 SWAP1 POP JUMP JUMPDEST PUSH32 0x596F7520616C726561647920766F7465642C2061626F7274696E677421000000 PUSH0 DUP3 ADD MSTORE POP JUMP JUMPDEST PUSH0 PUSH2 0x112D PUSH1 0x1D DUP4 PUSH2 0xF65 JUMP JUMPDEST SWAP2 POP PUSH2 0x1138 DUP3 PUSH2 0x10F9 JUMP JUMPDEST PUSH1 0x20 DUP3 ADD SWAP1 POP SWAP2 SWAP1 POP JUMP JUMPDEST PUSH0 PUSH1 0x20 DUP3 ADD SWAP1 POP DUP2 DUP2 SUB PUSH0 DUP4 ADD MSTORE PUSH2 0x115A DUP2 PUSH2 0x1121 JUMP JUMPDEST SWAP1 POP SWAP2 SWAP1 POP JUMP JUMPDEST PUSH32 0x4E487B7100000000000000000000000000000000000000000000000000000000 PUSH0 MSTORE PUSH1 0x11 PUSH1 0x4 MSTORE PUSH1 0x24 PUSH0 REVERT JUMPDEST PUSH0 PUSH2 0x1198 DUP3 PUSH2 0xC16 JUMP JUMPDEST SWAP2 POP PUSH32 0xFFFFFFFFFFFFFFFFFFFFFFFFFFFFFFFFFFFFFFFFFFFFFFFFFFFFFFFFFFFFFFFF DUP3 SUB PUSH2 0x11CA JUMPI PUSH2 0x11C9 PUSH2 0x1161 JUMP JUMPDEST JUMPDEST PUSH1 0x1 DUP3 ADD SWAP1 POP SWAP2 SWAP1 POP JUMP JUMPDEST PUSH32 0x796F7520617265206E6F7420746865206F776E65722C2061626F7274696E6721 PUSH0 DUP3 ADD MSTORE POP JUMP JUMPDEST PUSH0 PUSH2 0x1209 PUSH1 0x20 DUP4 PUSH2 0xF65 JUMP JUMPDEST SWAP2 POP PUSH2 0x1214 DUP3 PUSH2 0x11D5 JUMP JUMPDEST PUSH1 0x20 DUP3 ADD SWAP1 POP SWAP2 SWAP1 POP JUMP JUMPDEST PUSH0 PUSH1 0x20 DUP3 ADD SWAP1 POP DUP2 DUP2 SUB PUSH0 DUP4 ADD MSTORE PUSH2 0x1236 DUP2 PUSH2 0x11FD JUMP JUMPDEST SWAP1 POP SWAP2 SWAP1 POP JUMP JUMPDEST PUSH32 0x596F7520617265206E6F7420616C6C6F77656420746F2073656E6420616E7974 PUSH0 DUP3 ADD MSTORE PUSH32 0x68696E672066726F6D207468697320736D61727420636F6E74726163742C2061 PUSH1 0x20 DUP3 ADD MSTORE PUSH32 0x626F7274696E6721000000000000000000000000000000000000000000000000 PUSH1 0x40 DUP3 ADD MSTORE POP JUMP JUMPDEST PUSH0 PUSH2 0x12BD PUSH1 0x48 DUP4 PUSH2 0xF65 JUMP JUMPDEST SWAP2 POP PUSH2 0x12C8 DUP3 PUSH2 0x123D JUMP JUMPDEST PUSH1 0x60 DUP3 ADD SWAP1 POP SWAP2 SWAP1 POP JUMP JUMPDEST PUSH0 PUSH1 0x20 DUP3 ADD SWAP1 POP DUP2 DUP2 SUB PUSH0 DUP4 ADD MSTORE PUSH2 0x12EA DUP2 PUSH2 0x12B1 JUMP JUMPDEST SWAP1 POP SWAP2 SWAP1 POP JUMP JUMPDEST PUSH32 0x596F752061726520747279696E6720746F2073656E64206D6F7265207468616E PUSH0 DUP3 ADD MSTORE PUSH32 0x20796F7520616C6C6F77656420746F2C2061626F7274696E6721000000000000 PUSH1 0x20 DUP3 ADD MSTORE POP JUMP JUMPDEST PUSH0 PUSH2 0x134B PUSH1 0x3A DUP4 PUSH2 0xF65 JUMP JUMPDEST SWAP2 POP PUSH2 0x1356 DUP3 PUSH2 0x12F1 JUMP JUMPDEST PUSH1 0x40 DUP3 ADD SWAP1 POP SWAP2 SWAP1 POP JUMP JUMPDEST PUSH0 PUSH1 0x20 DUP3 ADD SWAP1 POP DUP2 DUP2 SUB PUSH0 DUP4 ADD MSTORE PUSH2 0x1378 DUP2 PUSH2 0x133F JUMP JUMPDEST SWAP1 POP SWAP2 SWAP1 POP JUMP JUMPDEST PUSH0 PUSH2 0x1389 DUP3 PUSH2 0xC16 JUMP JUMPDEST SWAP2 POP PUSH2 0x1394 DUP4 PUSH2 0xC16 JUMP JUMPDEST SWAP3 POP DUP3 DUP3 SUB SWAP1 POP DUP2 DUP2 GT ISZERO PUSH2 0x13AC JUMPI PUSH2 0x13AB PUSH2 0x1161 JUMP JUMPDEST JUMPDEST SWAP3 SWAP2 POP POP JUMP JUMPDEST PUSH0 DUP2 SWAP1 POP SWAP3 SWAP2 POP POP JUMP JUMPDEST PUSH0 PUSH2 0x13C6 DUP3 PUSH2 0xEE5 JUMP JUMPDEST PUSH2 0x13D0 DUP2 DUP6 PUSH2 0x13B2 JUMP JUMPDEST SWAP4 POP PUSH2 0x13E0 DUP2 DUP6 PUSH1 0x20 DUP7 ADD PUSH2 0xEFF JUMP JUMPDEST DUP1 DUP5 ADD SWAP2 POP POP SWAP3 SWAP2 POP POP JUMP JUMPDEST PUSH0 PUSH2 0x13F7 DUP3 DUP5 PUSH2 0x13BC JUMP JUMPDEST SWAP2 POP DUP2 SWAP1 POP SWAP3 SWAP2 POP POP JUMP JUMPDEST PUSH32 0x41626F7274696E672C2063616C6C20776173206E6F7420737563636573736675 PUSH0 DUP3 ADD MSTORE PUSH32 0x6C00000000000000000000000000000000000000000000000000000000000000 PUSH1 0x20 DUP3 ADD MSTORE POP JUMP JUMPDEST PUSH0 PUSH2 0x145C PUSH1 0x21 DUP4 PUSH2 0xF65 JUMP JUMPDEST SWAP2 POP PUSH2 0x1467 DUP3 PUSH2 0x1402 JUMP JUMPDEST PUSH1 0x40 DUP3 ADD SWAP1 POP SWAP2 SWAP1 POP JUMP JUMPDEST PUSH0 PUSH1 0x20 DUP3 ADD SWAP1 POP DUP2 DUP2 SUB PUSH0 DUP4 ADD MSTORE PUSH2 0x1489 DUP2 PUSH2 0x1450 JUMP JUMPDEST SWAP1 POP SWAP2 SWAP1 POP JUMP INVALID LOG2 PUSH5 0x6970667358 0x22 SLT KECCAK256 0xEB DUP10 BLOBBASEFEE JUMPF 0x65F0 0x25 0x22 EXTDELEGATECALL 0x29 EXTSTATICCALL 0xB6 0xB6 PUSH22 0x1BEFCB3A566B9934DB8815707B65A0583BD864736F6C PUSH4 0x4300081E STOP CALLER "
				},
				"gasEstimates": {
					"creation": {
						"codeDepositCost": "1063600",
						"executionCost": "25369",
						"totalCost": "1088969"
					},
					"external": {
						"allowance(address)": "2802",
						"confirmationFromGuardianForReset()": "413",
						"guardians(address)": "2834",
						"isAllowedToSend(address)": "2856",
						"owner()": "2529",
						"proposeNewOwner(address)": "63002",
						"setAllowance(address,uint256)": "49446",
						"setGuardian(address,bool)": "27192",
						"transfer(address,uint256,bytes)": "infinite"
					}
				},
				"methodIdentifiers": {
					"allowance(address)": "3e5beab9",
					"confirmationFromGuardianForReset()": "caf5b411",
					"guardians(address)": "0633b14a",
					"isAllowedToSend(address)": "0bc605ad",
					"owner()": "8da5cb5b",
					"proposeNewOwner(address)": "b1f8100d",
					"setAllowance(address,uint256)": "310ec4a7",
					"setGuardian(address,bool)": "2b8a1c5a",
					"transfer(address,uint256,bytes)": "be45fd62"
				}
			},
			"storageLayout": {
				"storage": [
					{
						"astId": 20,
						"contract": "contracts/smartContractWallet.sol:SmartCobtractWallet",
						"label": "owner",
						"offset": 0,
						"slot": "0",
						"type": "t_address_payable"
					},
					{
						"astId": 24,
						"contract": "contracts/smartContractWallet.sol:SmartCobtractWallet",
						"label": "allowance",
						"offset": 0,
						"slot": "1",
						"type": "t_mapping(t_address,t_uint256)"
					},
					{
						"astId": 28,
						"contract": "contracts/smartContractWallet.sol:SmartCobtractWallet",
						"label": "isAllowedToSend",
						"offset": 0,
						"slot": "2",
						"type": "t_mapping(t_address,t_bool)"
					},
					{
						"astId": 32,
						"contract": "contracts/smartContractWallet.sol:SmartCobtractWallet",
						"label": "guardians",
						"offset": 0,
						"slot": "3",
						"type": "t_mapping(t_address,t_bool)"
					},
					{
						"astId": 34,
						"contract": "contracts/smartContractWallet.sol:SmartCobtractWallet",
						"label": "nextOwner",
						"offset": 0,
						"slot": "4",
						"type": "t_address_payable"
					},
					{
						"astId": 40,
						"contract": "contracts/smartContractWallet.sol:SmartCobtractWallet",
						"label": "nextOwnerGuardianVoteBool",
						"offset": 0,
						"slot": "5",
						"type": "t_mapping(t_address,t_mapping(t_address,t_bool))"
					},
					{
						"astId": 42,
						"contract": "contracts/smartContractWallet.sol:SmartCobtractWallet",
						"label": "guardianResetCount",
						"offset": 0,
						"slot": "6",
						"type": "t_uint256"
					}
				],
				"types": {
					"t_address": {
						"encoding": "inplace",
						"label": "address",
						"numberOfBytes": "20"
					},
					"t_address_payable": {
						"encoding": "inplace",
						"label": "address payable",
						"numberOfBytes": "20"
					},
					"t_bool": {
						"encoding": "inplace",
						"label": "bool",
						"numberOfBytes": "1"
					},
					"t_mapping(t_address,t_bool)": {
						"encoding": "mapping",
						"key": "t_address",
						"label": "mapping(address => bool)",
						"numberOfBytes": "32",
						"value": "t_bool"
					},
					"t_mapping(t_address,t_mapping(t_address,t_bool))": {
						"encoding": "mapping",
						"key": "t_address",
						"label": "mapping(address => mapping(address => bool))",
						"numberOfBytes": "32",
						"value": "t_mapping(t_address,t_bool)"
					},
					"t_mapping(t_address,t_uint256)": {
						"encoding": "mapping",
						"key": "t_address",
						"label": "mapping(address => uint256)",
						"numberOfBytes": "32",
						"value": "t_uint256"
					},
					"t_uint256": {
						"encoding": "inplace",
						"label": "uint256",
						"numberOfBytes": "32"
					}
				}
			},
			"userdoc": {
				"kind": "user",
				"methods": {},
				"version": 1
			}
		}
	}
}