{
	"contracts/19-ExampleSendTransfer.sol": {
		"Sender": {
			"abi": [
				{
					"inputs": [
						{
							"internalType": "address payable",
							"name": "_to",
							"type": "address"
						}
					],
					"name": "withdrawSend",
					"outputs": [],
					"stateMutability": "nonpayable",
					"type": "function"
				},
				{
					"inputs": [
						{
							"internalType": "address payable",
							"name": "_to",
							"type": "address"
						}
					],
					"name": "withdrawTransfer",
					"outputs": [],
					"stateMutability": "nonpayable",
					"type": "function"
				},
				{
					"stateMutability": "payable",
					"type": "receive"
				}
			],
			"devdoc": {
				"kind": "dev",
				"methods": {},
				"version": 1
			},
			"evm": {
				"assembly": "    /* \"contracts/19-ExampleSendTransfer.sol\":57:360  contract Sender {... */\n  mstore(0x40, 0x80)\n  callvalue\n  dup1\n  iszero\n  tag_1\n  jumpi\n  revert(0x00, 0x00)\ntag_1:\n  pop\n  dataSize(sub_0)\n  dup1\n  dataOffset(sub_0)\n  0x00\n  codecopy\n  0x00\n  return\nstop\n\nsub_0: assembly {\n        /* \"contracts/19-ExampleSendTransfer.sol\":57:360  contract Sender {... */\n      mstore(0x40, 0x80)\n      jumpi(tag_1, lt(calldatasize, 0x04))\n      shr(0xe0, calldataload(0x00))\n      dup1\n      0x20d68c5e\n      eq\n      tag_3\n      jumpi\n      dup1\n      0x700d9df3\n      eq\n      tag_4\n      jumpi\n      jump(tag_2)\n    tag_1:\n      jumpi(tag_2, calldatasize)\n      stop\n    tag_2:\n      revert(0x00, 0x00)\n        /* \"contracts/19-ExampleSendTransfer.sol\":207:358  function withdrawSend(address payable _to) public {... */\n    tag_3:\n      callvalue\n      dup1\n      iszero\n      tag_7\n      jumpi\n      revert(0x00, 0x00)\n    tag_7:\n      pop\n      tag_8\n      0x04\n      dup1\n      calldatasize\n      sub\n      dup2\n      add\n      swap1\n      tag_9\n      swap2\n      swap1\n      tag_10\n      jump\t// in\n    tag_9:\n      tag_11\n      jump\t// in\n    tag_8:\n      stop\n        /* \"contracts/19-ExampleSendTransfer.sol\":114:201  function withdrawTransfer(address payable _to) public {... */\n    tag_4:\n      callvalue\n      dup1\n      iszero\n      tag_12\n      jumpi\n      revert(0x00, 0x00)\n    tag_12:\n      pop\n      tag_13\n      0x04\n      dup1\n      calldatasize\n      sub\n      dup2\n      add\n      swap1\n      tag_14\n      swap2\n      swap1\n      tag_10\n      jump\t// in\n    tag_14:\n      tag_15\n      jump\t// in\n    tag_13:\n      stop\n        /* \"contracts/19-ExampleSendTransfer.sol\":207:358  function withdrawSend(address payable _to) public {... */\n    tag_11:\n        /* \"contracts/19-ExampleSendTransfer.sol\":267:278  bool isSent */\n      0x00\n        /* \"contracts/19-ExampleSendTransfer.sol\":279:282  _to */\n      dup2\n        /* \"contracts/19-ExampleSendTransfer.sol\":279:287  _to.send */\n      0xffffffffffffffffffffffffffffffffffffffff\n      and\n        /* \"contracts/19-ExampleSendTransfer.sol\":279:291  _to.send(10) */\n      0x08fc\n        /* \"contracts/19-ExampleSendTransfer.sol\":288:290  10 */\n      0x0a\n        /* \"contracts/19-ExampleSendTransfer.sol\":279:291  _to.send(10) */\n      swap1\n      dup2\n      iszero\n      mul\n      swap1\n      mload(0x40)\n      0x00\n      mload(0x40)\n      dup1\n      dup4\n      sub\n      dup2\n      dup6\n      dup9\n      dup9\n      call\n      swap4\n      pop\n      pop\n      pop\n      pop\n        /* \"contracts/19-ExampleSendTransfer.sol\":267:291  bool isSent=_to.send(10) */\n      swap1\n      pop\n        /* \"contracts/19-ExampleSendTransfer.sol\":310:316  isSent */\n      dup1\n        /* \"contracts/19-ExampleSendTransfer.sol\":302:351  require(isSent,\"Sending the funds was unsuccess\") */\n      tag_18\n      jumpi\n      mload(0x40)\n      0x08c379a000000000000000000000000000000000000000000000000000000000\n      dup2\n      mstore\n      0x04\n      add\n      tag_19\n      swap1\n      tag_20\n      jump\t// in\n    tag_19:\n      mload(0x40)\n      dup1\n      swap2\n      sub\n      swap1\n      revert\n    tag_18:\n        /* \"contracts/19-ExampleSendTransfer.sol\":257:358  {... */\n      pop\n        /* \"contracts/19-ExampleSendTransfer.sol\":207:358  function withdrawSend(address payable _to) public {... */\n      pop\n      jump\t// out\n        /* \"contracts/19-ExampleSendTransfer.sol\":114:201  function withdrawTransfer(address payable _to) public {... */\n    tag_15:\n        /* \"contracts/19-ExampleSendTransfer.sol\":178:181  _to */\n      dup1\n        /* \"contracts/19-ExampleSendTransfer.sol\":178:190  _to.transfer */\n      0xffffffffffffffffffffffffffffffffffffffff\n      and\n        /* \"contracts/19-ExampleSendTransfer.sol\":178:194  _to.transfer(10) */\n      0x08fc\n        /* \"contracts/19-ExampleSendTransfer.sol\":191:193  10 */\n      0x0a\n        /* \"contracts/19-ExampleSendTransfer.sol\":178:194  _to.transfer(10) */\n      swap1\n      dup2\n      iszero\n      mul\n      swap1\n      mload(0x40)\n      0x00\n      mload(0x40)\n      dup1\n      dup4\n      sub\n      dup2\n      dup6\n      dup9\n      dup9\n      call\n      swap4\n      pop\n      pop\n      pop\n      pop\n      iszero\n      dup1\n      iszero\n      tag_23\n      jumpi\n      returndatacopy(0x00, 0x00, returndatasize)\n      revert(0x00, returndatasize)\n    tag_23:\n      pop\n        /* \"contracts/19-ExampleSendTransfer.sol\":114:201  function withdrawTransfer(address payable _to) public {... */\n      pop\n      jump\t// out\n        /* \"#utility.yul\":88:205   */\n    tag_25:\n        /* \"#utility.yul\":197:198   */\n      0x00\n        /* \"#utility.yul\":194:195   */\n      0x00\n        /* \"#utility.yul\":187:199   */\n      revert\n        /* \"#utility.yul\":334:460   */\n    tag_27:\n        /* \"#utility.yul\":371:378   */\n      0x00\n        /* \"#utility.yul\":411:453   */\n      0xffffffffffffffffffffffffffffffffffffffff\n        /* \"#utility.yul\":404:409   */\n      dup3\n        /* \"#utility.yul\":400:454   */\n      and\n        /* \"#utility.yul\":389:454   */\n      swap1\n      pop\n        /* \"#utility.yul\":334:460   */\n      swap2\n      swap1\n      pop\n      jump\t// out\n        /* \"#utility.yul\":466:570   */\n    tag_28:\n        /* \"#utility.yul\":511:518   */\n      0x00\n        /* \"#utility.yul\":540:564   */\n      tag_40\n        /* \"#utility.yul\":558:563   */\n      dup3\n        /* \"#utility.yul\":540:564   */\n      tag_27\n      jump\t// in\n    tag_40:\n        /* \"#utility.yul\":529:564   */\n      swap1\n      pop\n        /* \"#utility.yul\":466:570   */\n      swap2\n      swap1\n      pop\n      jump\t// out\n        /* \"#utility.yul\":576:714   */\n    tag_29:\n        /* \"#utility.yul\":657:689   */\n      tag_42\n        /* \"#utility.yul\":683:688   */\n      dup2\n        /* \"#utility.yul\":657:689   */\n      tag_28\n      jump\t// in\n    tag_42:\n        /* \"#utility.yul\":650:655   */\n      dup2\n        /* \"#utility.yul\":647:690   */\n      eq\n        /* \"#utility.yul\":637:708   */\n      tag_43\n      jumpi\n        /* \"#utility.yul\":704:705   */\n      0x00\n        /* \"#utility.yul\":701:702   */\n      0x00\n        /* \"#utility.yul\":694:706   */\n      revert\n        /* \"#utility.yul\":637:708   */\n    tag_43:\n        /* \"#utility.yul\":576:714   */\n      pop\n      jump\t// out\n        /* \"#utility.yul\":720:875   */\n    tag_30:\n        /* \"#utility.yul\":774:779   */\n      0x00\n        /* \"#utility.yul\":812:818   */\n      dup2\n        /* \"#utility.yul\":799:819   */\n      calldataload\n        /* \"#utility.yul\":790:819   */\n      swap1\n      pop\n        /* \"#utility.yul\":828:869   */\n      tag_45\n        /* \"#utility.yul\":863:868   */\n      dup2\n        /* \"#utility.yul\":828:869   */\n      tag_29\n      jump\t// in\n    tag_45:\n        /* \"#utility.yul\":720:875   */\n      swap3\n      swap2\n      pop\n      pop\n      jump\t// out\n        /* \"#utility.yul\":881:1226   */\n    tag_10:\n        /* \"#utility.yul\":948:954   */\n      0x00\n        /* \"#utility.yul\":997:999   */\n      0x20\n        /* \"#utility.yul\":985:994   */\n      dup3\n        /* \"#utility.yul\":976:983   */\n      dup5\n        /* \"#utility.yul\":972:995   */\n      sub\n        /* \"#utility.yul\":968:1000   */\n      slt\n        /* \"#utility.yul\":965:1084   */\n      iszero\n      tag_47\n      jumpi\n        /* \"#utility.yul\":1003:1082   */\n      tag_48\n      tag_25\n      jump\t// in\n    tag_48:\n        /* \"#utility.yul\":965:1084   */\n    tag_47:\n        /* \"#utility.yul\":1123:1124   */\n      0x00\n        /* \"#utility.yul\":1148:1209   */\n      tag_49\n        /* \"#utility.yul\":1201:1208   */\n      dup5\n        /* \"#utility.yul\":1192:1198   */\n      dup3\n        /* \"#utility.yul\":1181:1190   */\n      dup6\n        /* \"#utility.yul\":1177:1199   */\n      add\n        /* \"#utility.yul\":1148:1209   */\n      tag_30\n      jump\t// in\n    tag_49:\n        /* \"#utility.yul\":1138:1209   */\n      swap2\n      pop\n        /* \"#utility.yul\":1094:1219   */\n      pop\n        /* \"#utility.yul\":881:1226   */\n      swap3\n      swap2\n      pop\n      pop\n      jump\t// out\n        /* \"#utility.yul\":1232:1401   */\n    tag_31:\n        /* \"#utility.yul\":1316:1327   */\n      0x00\n        /* \"#utility.yul\":1350:1356   */\n      dup3\n        /* \"#utility.yul\":1345:1348   */\n      dup3\n        /* \"#utility.yul\":1338:1357   */\n      mstore\n        /* \"#utility.yul\":1390:1394   */\n      0x20\n        /* \"#utility.yul\":1385:1388   */\n      dup3\n        /* \"#utility.yul\":1381:1395   */\n      add\n        /* \"#utility.yul\":1366:1395   */\n      swap1\n      pop\n        /* \"#utility.yul\":1232:1401   */\n      swap3\n      swap2\n      pop\n      pop\n      jump\t// out\n        /* \"#utility.yul\":1407:1588   */\n    tag_32:\n        /* \"#utility.yul\":1547:1580   */\n      0x53656e64696e67207468652066756e64732077617320756e7375636365737300\n        /* \"#utility.yul\":1543:1544   */\n      0x00\n        /* \"#utility.yul\":1535:1541   */\n      dup3\n        /* \"#utility.yul\":1531:1545   */\n      add\n        /* \"#utility.yul\":1524:1581   */\n      mstore\n        /* \"#utility.yul\":1407:1588   */\n      pop\n      jump\t// out\n        /* \"#utility.yul\":1594:1960   */\n    tag_33:\n        /* \"#utility.yul\":1736:1739   */\n      0x00\n        /* \"#utility.yul\":1757:1824   */\n      tag_53\n        /* \"#utility.yul\":1821:1823   */\n      0x1f\n        /* \"#utility.yul\":1816:1819   */\n      dup4\n        /* \"#utility.yul\":1757:1824   */\n      tag_31\n      jump\t// in\n    tag_53:\n        /* \"#utility.yul\":1750:1824   */\n      swap2\n      pop\n        /* \"#utility.yul\":1833:1926   */\n      tag_54\n        /* \"#utility.yul\":1922:1925   */\n      dup3\n        /* \"#utility.yul\":1833:1926   */\n      tag_32\n      jump\t// in\n    tag_54:\n        /* \"#utility.yul\":1951:1953   */\n      0x20\n        /* \"#utility.yul\":1946:1949   */\n      dup3\n        /* \"#utility.yul\":1942:1954   */\n      add\n        /* \"#utility.yul\":1935:1954   */\n      swap1\n      pop\n        /* \"#utility.yul\":1594:1960   */\n      swap2\n      swap1\n      pop\n      jump\t// out\n        /* \"#utility.yul\":1966:2385   */\n    tag_20:\n        /* \"#utility.yul\":2132:2136   */\n      0x00\n        /* \"#utility.yul\":2170:2172   */\n      0x20\n        /* \"#utility.yul\":2159:2168   */\n      dup3\n        /* \"#utility.yul\":2155:2173   */\n      add\n        /* \"#utility.yul\":2147:2173   */\n      swap1\n      pop\n        /* \"#utility.yul\":2219:2228   */\n      dup2\n        /* \"#utility.yul\":2213:2217   */\n      dup2\n        /* \"#utility.yul\":2209:2229   */\n      sub\n        /* \"#utility.yul\":2205:2206   */\n      0x00\n        /* \"#utility.yul\":2194:2203   */\n      dup4\n        /* \"#utility.yul\":2190:2207   */\n      add\n        /* \"#utility.yul\":2183:2230   */\n      mstore\n        /* \"#utility.yul\":2247:2378   */\n      tag_56\n        /* \"#utility.yul\":2373:2377   */\n      dup2\n        /* \"#utility.yul\":2247:2378   */\n      tag_33\n      jump\t// in\n    tag_56:\n        /* \"#utility.yul\":2239:2378   */\n      swap1\n      pop\n        /* \"#utility.yul\":1966:2385   */\n      swap2\n      swap1\n      pop\n      jump\t// out\n\n    auxdata: 0xa26469706673582212206e8215dd5d00363a5cceca77d2ec55ba9ddad963bacaafa881a98025ad2d061264736f6c634300081e0033\n}\n",
				"bytecode": {
					"linkReferences": {},
					"object": "6080604052348015600e575f5ffd5b506102828061001c5f395ff3fe60806040526004361061002c575f3560e01c806320d68c5e14610037578063700d9df31461005f57610033565b3661003357005b5f5ffd5b348015610042575f5ffd5b5061005d600480360381019061005891906101a9565b610087565b005b34801561006a575f5ffd5b50610085600480360381019061008091906101a9565b610103565b005b5f8173ffffffffffffffffffffffffffffffffffffffff166108fc600a90811502906040515f60405180830381858888f193505050509050806100ff576040517f08c379a00000000000000000000000000000000000000000000000000000000081526004016100f69061022e565b60405180910390fd5b5050565b8073ffffffffffffffffffffffffffffffffffffffff166108fc600a90811502906040515f60405180830381858888f19350505050158015610147573d5f5f3e3d5ffd5b5050565b5f5ffd5b5f73ffffffffffffffffffffffffffffffffffffffff82169050919050565b5f6101788261014f565b9050919050565b6101888161016e565b8114610192575f5ffd5b50565b5f813590506101a38161017f565b92915050565b5f602082840312156101be576101bd61014b565b5b5f6101cb84828501610195565b91505092915050565b5f82825260208201905092915050565b7f53656e64696e67207468652066756e64732077617320756e73756363657373005f82015250565b5f610218601f836101d4565b9150610223826101e4565b602082019050919050565b5f6020820190508181035f8301526102458161020c565b905091905056fea26469706673582212206e8215dd5d00363a5cceca77d2ec55ba9ddad963bacaafa881a98025ad2d061264736f6c634300081e0033",
					"opcodes": "PUSH1 0x80 PUSH1 0x40 MSTORE CALLVALUE DUP1 ISZERO PUSH1 0xE JUMPI PUSH0 PUSH0 REVERT JUMPDEST POP PUSH2 0x282 DUP1 PUSH2 0x1C PUSH0 CODECOPY PUSH0 RETURN INVALID PUSH1 0x80 PUSH1 0x40 MSTORE PUSH1 0x4 CALLDATASIZE LT PUSH2 0x2C JUMPI PUSH0 CALLDATALOAD PUSH1 0xE0 SHR DUP1 PUSH4 0x20D68C5E EQ PUSH2 0x37 JUMPI DUP1 PUSH4 0x700D9DF3 EQ PUSH2 0x5F JUMPI PUSH2 0x33 JUMP JUMPDEST CALLDATASIZE PUSH2 0x33 JUMPI STOP JUMPDEST PUSH0 PUSH0 REVERT JUMPDEST CALLVALUE DUP1 ISZERO PUSH2 0x42 JUMPI PUSH0 PUSH0 REVERT JUMPDEST POP PUSH2 0x5D PUSH1 0x4 DUP1 CALLDATASIZE SUB DUP2 ADD SWAP1 PUSH2 0x58 SWAP2 SWAP1 PUSH2 0x1A9 JUMP JUMPDEST PUSH2 0x87 JUMP JUMPDEST STOP JUMPDEST CALLVALUE DUP1 ISZERO PUSH2 0x6A JUMPI PUSH0 PUSH0 REVERT JUMPDEST POP PUSH2 0x85 PUSH1 0x4 DUP1 CALLDATASIZE SUB DUP2 ADD SWAP1 PUSH2 0x80 SWAP2 SWAP1 PUSH2 0x1A9 JUMP JUMPDEST PUSH2 0x103 JUMP JUMPDEST STOP JUMPDEST PUSH0 DUP2 PUSH20 0xFFFFFFFFFFFFFFFFFFFFFFFFFFFFFFFFFFFFFFFF AND PUSH2 0x8FC PUSH1 0xA SWAP1 DUP2 ISZERO MUL SWAP1 PUSH1 0x40 MLOAD PUSH0 PUSH1 0x40 MLOAD DUP1 DUP4 SUB DUP2 DUP6 DUP9 DUP9 CALL SWAP4 POP POP POP POP SWAP1 POP DUP1 PUSH2 0xFF JUMPI PUSH1 0x40 MLOAD PUSH32 0x8C379A000000000000000000000000000000000000000000000000000000000 DUP2 MSTORE PUSH1 0x4 ADD PUSH2 0xF6 SWAP1 PUSH2 0x22E JUMP JUMPDEST PUSH1 0x40 MLOAD DUP1 SWAP2 SUB SWAP1 REVERT JUMPDEST POP POP JUMP JUMPDEST DUP1 PUSH20 0xFFFFFFFFFFFFFFFFFFFFFFFFFFFFFFFFFFFFFFFF AND PUSH2 0x8FC PUSH1 0xA SWAP1 DUP2 ISZERO MUL SWAP1 PUSH1 0x40 MLOAD PUSH0 PUSH1 0x40 MLOAD DUP1 DUP4 SUB DUP2 DUP6 DUP9 DUP9 CALL SWAP4 POP POP POP POP ISZERO DUP1 ISZERO PUSH2 0x147 JUMPI RETURNDATASIZE PUSH0 PUSH0 RETURNDATACOPY RETURNDATASIZE PUSH0 REVERT JUMPDEST POP POP JUMP JUMPDEST PUSH0 PUSH0 REVERT JUMPDEST PUSH0 PUSH20 0xFFFFFFFFFFFFFFFFFFFFFFFFFFFFFFFFFFFFFFFF DUP3 AND SWAP1 POP SWAP2 SWAP1 POP JUMP JUMPDEST PUSH0 PUSH2 0x178 DUP3 PUSH2 0x14F JUMP JUMPDEST SWAP1 POP SWAP2 SWAP1 POP JUMP JUMPDEST PUSH2 0x188 DUP2 PUSH2 0x16E JUMP JUMPDEST DUP2 EQ PUSH2 0x192 JUMPI PUSH0 PUSH0 REVERT JUMPDEST POP JUMP JUMPDEST PUSH0 DUP2 CALLDATALOAD SWAP1 POP PUSH2 0x1A3 DUP2 PUSH2 0x17F JUMP JUMPDEST SWAP3 SWAP2 POP POP JUMP JUMPDEST PUSH0 PUSH1 0x20 DUP3 DUP5 SUB SLT ISZERO PUSH2 0x1BE JUMPI PUSH2 0x1BD PUSH2 0x14B JUMP JUMPDEST JUMPDEST PUSH0 PUSH2 0x1CB DUP5 DUP3 DUP6 ADD PUSH2 0x195 JUMP JUMPDEST SWAP2 POP POP SWAP3 SWAP2 POP POP JUMP JUMPDEST PUSH0 DUP3 DUP3 MSTORE PUSH1 0x20 DUP3 ADD SWAP1 POP SWAP3 SWAP2 POP POP JUMP JUMPDEST PUSH32 0x53656E64696E67207468652066756E64732077617320756E7375636365737300 PUSH0 DUP3 ADD MSTORE POP JUMP JUMPDEST PUSH0 PUSH2 0x218 PUSH1 0x1F DUP4 PUSH2 0x1D4 JUMP JUMPDEST SWAP2 POP PUSH2 0x223 DUP3 PUSH2 0x1E4 JUMP JUMPDEST PUSH1 0x20 DUP3 ADD SWAP1 POP SWAP2 SWAP1 POP JUMP JUMPDEST PUSH0 PUSH1 0x20 DUP3 ADD SWAP1 POP DUP2 DUP2 SUB PUSH0 DUP4 ADD MSTORE PUSH2 0x245 DUP2 PUSH2 0x20C JUMP JUMPDEST SWAP1 POP SWAP2 SWAP1 POP JUMP INVALID LOG2 PUSH5 0x6970667358 0x22 SLT KECCAK256 PUSH15 0x8215DD5D00363A5CCECA77D2EC55BA SWAP14 0xDA 0xD9 PUSH4 0xBACAAFA8 DUP2 0xA9 DUP1 0x25 0xAD 0x2D MOD SLT PUSH5 0x736F6C6343 STOP ADDMOD 0x1E STOP CALLER "
				},
				"gasEstimates": {
					"creation": {
						"codeDepositCost": "128400",
						"executionCost": "175",
						"totalCost": "128575"
					},
					"external": {
						"withdrawSend(address)": "infinite",
						"withdrawTransfer(address)": "infinite"
					}
				},
				"methodIdentifiers": {
					"withdrawSend(address)": "20d68c5e",
					"withdrawTransfer(address)": "700d9df3"
				}
			},
			"storageLayout": {
				"storage": [],
				"types": null
			},
			"userdoc": {
				"kind": "user",
				"methods": {},
				"version": 1
			}
		}
	}
}