{
	"contracts/smartContractWallet.sol": {
		"SmartCobtractWallet": {
			"abi": [
				{
					"inputs": [],
					"stateMutability": "nonpayable",
					"type": "constructor"
				},
				{
					"inputs": [
						{
							"internalType": "address",
							"name": "",
							"type": "address"
						}
					],
					"name": "allowance",
					"outputs": [
						{
							"internalType": "uint256",
							"name": "",
							"type": "uint256"
						}
					],
					"stateMutability": "view",
					"type": "function"
				},
				{
					"inputs": [],
					"name": "confirmationFromGuardianForReset",
					"outputs": [
						{
							"internalType": "uint256",
							"name": "",
							"type": "uint256"
						}
					],
					"stateMutability": "view",
					"type": "function"
				},
				{
					"inputs": [
						{
							"internalType": "address",
							"name": "",
							"type": "address"
						}
					],
					"name": "guardians",
					"outputs": [
						{
							"internalType": "bool",
							"name": "",
							"type": "bool"
						}
					],
					"stateMutability": "view",
					"type": "function"
				},
				{
					"inputs": [
						{
							"internalType": "address",
							"name": "",
							"type": "address"
						}
					],
					"name": "isAllowedToSend",
					"outputs": [
						{
							"internalType": "bool",
							"name": "",
							"type": "bool"
						}
					],
					"stateMutability": "view",
					"type": "function"
				},
				{
					"inputs": [
						{
							"internalType": "address payable",
							"name": "_newOwner",
							"type": "address"
						}
					],
					"name": "proposeNewOwner",
					"outputs": [],
					"stateMutability": "nonpayable",
					"type": "function"
				},
				{
					"inputs": [
						{
							"internalType": "address",
							"name": "_for",
							"type": "address"
						},
						{
							"internalType": "uint256",
							"name": "_amount",
							"type": "uint256"
						}
					],
					"name": "setAllowance",
					"outputs": [],
					"stateMutability": "nonpayable",
					"type": "function"
				},
				{
					"inputs": [
						{
							"internalType": "address",
							"name": "_guardian",
							"type": "address"
						},
						{
							"internalType": "bool",
							"name": "_isGuardian",
							"type": "bool"
						}
					],
					"name": "setGuardian",
					"outputs": [],
					"stateMutability": "nonpayable",
					"type": "function"
				},
				{
					"inputs": [
						{
							"internalType": "address payable",
							"name": "_to",
							"type": "address"
						},
						{
							"internalType": "uint256",
							"name": "_amount",
							"type": "uint256"
						},
						{
							"internalType": "bytes",
							"name": "_payload",
							"type": "bytes"
						}
					],
					"name": "transfer",
					"outputs": [
						{
							"internalType": "bytes",
							"name": "",
							"type": "bytes"
						}
					],
					"stateMutability": "nonpayable",
					"type": "function"
				},
				{
					"stateMutability": "payable",
					"type": "receive"
				}
			],
			"devdoc": {
				"kind": "dev",
				"methods": {},
				"version": 1
			},
			"evm": {
				"assembly": "    /* \"contracts/smartContractWallet.sol\":57:2379  contract SmartCobtractWallet {... */\n  mstore(0x40, 0x80)\n    /* \"contracts/smartContractWallet.sol\":467:525  constructor() {... */\n  callvalue\n  dup1\n  iszero\n  tag_1\n  jumpi\n  revert(0x00, 0x00)\ntag_1:\n  pop\n    /* \"contracts/smartContractWallet.sol\":507:517  msg.sender */\n  caller\n    /* \"contracts/smartContractWallet.sol\":491:496  owner */\n  0x00\n  0x00\n    /* \"contracts/smartContractWallet.sol\":491:518  owner = payable(msg.sender) */\n  0x0100\n  exp\n  dup2\n  sload\n  dup2\n  0xffffffffffffffffffffffffffffffffffffffff\n  mul\n  not\n  and\n  swap1\n  dup4\n  0xffffffffffffffffffffffffffffffffffffffff\n  and\n  mul\n  or\n  swap1\n  sstore\n  pop\n    /* \"contracts/smartContractWallet.sol\":57:2379  contract SmartCobtractWallet {... */\n  dataSize(sub_0)\n  dup1\n  dataOffset(sub_0)\n  0x00\n  codecopy\n  0x00\n  return\nstop\n\nsub_0: assembly {\n        /* \"contracts/smartContractWallet.sol\":57:2379  contract SmartCobtractWallet {... */\n      mstore(0x40, 0x80)\n      jumpi(tag_1, lt(calldatasize, 0x04))\n      shr(0xe0, calldataload(0x00))\n      dup1\n      0x3e5beab9\n      gt\n      tag_11\n      jumpi\n      dup1\n      0x3e5beab9\n      eq\n      tag_7\n      jumpi\n      dup1\n      0xb1f8100d\n      eq\n      tag_8\n      jumpi\n      dup1\n      0xbe45fd62\n      eq\n      tag_9\n      jumpi\n      dup1\n      0xcaf5b411\n      eq\n      tag_10\n      jumpi\n      jump(tag_2)\n    tag_11:\n      dup1\n      0x0633b14a\n      eq\n      tag_3\n      jumpi\n      dup1\n      0x0bc605ad\n      eq\n      tag_4\n      jumpi\n      dup1\n      0x2b8a1c5a\n      eq\n      tag_5\n      jumpi\n      dup1\n      0x310ec4a7\n      eq\n      tag_6\n      jumpi\n      jump(tag_2)\n    tag_1:\n      jumpi(tag_2, calldatasize)\n      stop\n    tag_2:\n      revert(0x00, 0x00)\n        /* \"contracts/smartContractWallet.sol\":221:262  mapping(address => bool) public guardians */\n    tag_3:\n      callvalue\n      dup1\n      iszero\n      tag_14\n      jumpi\n      revert(0x00, 0x00)\n    tag_14:\n      pop\n      tag_15\n      0x04\n      dup1\n      calldatasize\n      sub\n      dup2\n      add\n      swap1\n      tag_16\n      swap2\n      swap1\n      tag_17\n      jump\t// in\n    tag_16:\n      tag_18\n      jump\t// in\n    tag_15:\n      mload(0x40)\n      tag_19\n      swap2\n      swap1\n      tag_20\n      jump\t// in\n    tag_19:\n      mload(0x40)\n      dup1\n      swap2\n      sub\n      swap1\n      return\n        /* \"contracts/smartContractWallet.sol\":167:214  mapping(address => bool) public isAllowedToSend */\n    tag_4:\n      callvalue\n      dup1\n      iszero\n      tag_21\n      jumpi\n      revert(0x00, 0x00)\n    tag_21:\n      pop\n      tag_22\n      0x04\n      dup1\n      calldatasize\n      sub\n      dup2\n      add\n      swap1\n      tag_23\n      swap2\n      swap1\n      tag_17\n      jump\t// in\n    tag_23:\n      tag_24\n      jump\t// in\n    tag_22:\n      mload(0x40)\n      tag_25\n      swap2\n      swap1\n      tag_20\n      jump\t// in\n    tag_25:\n      mload(0x40)\n      dup1\n      swap2\n      sub\n      swap1\n      return\n        /* \"contracts/smartContractWallet.sol\":531:718  function setGuardian(address _guardian, bool _isGuardian) public {... */\n    tag_5:\n      callvalue\n      dup1\n      iszero\n      tag_26\n      jumpi\n      revert(0x00, 0x00)\n    tag_26:\n      pop\n      tag_27\n      0x04\n      dup1\n      calldatasize\n      sub\n      dup2\n      add\n      swap1\n      tag_28\n      swap2\n      swap1\n      tag_29\n      jump\t// in\n    tag_28:\n      tag_30\n      jump\t// in\n    tag_27:\n      stop\n        /* \"contracts/smartContractWallet.sol\":1272:1586  function setAllowance(address _for, uint _amount) public {... */\n    tag_6:\n      callvalue\n      dup1\n      iszero\n      tag_31\n      jumpi\n      revert(0x00, 0x00)\n    tag_31:\n      pop\n      tag_32\n      0x04\n      dup1\n      calldatasize\n      sub\n      dup2\n      add\n      swap1\n      tag_33\n      swap2\n      swap1\n      tag_34\n      jump\t// in\n    tag_33:\n      tag_35\n      jump\t// in\n    tag_32:\n      stop\n        /* \"contracts/smartContractWallet.sol\":120:161  mapping(address => uint) public allowance */\n    tag_7:\n      callvalue\n      dup1\n      iszero\n      tag_36\n      jumpi\n      revert(0x00, 0x00)\n    tag_36:\n      pop\n      tag_37\n      0x04\n      dup1\n      calldatasize\n      sub\n      dup2\n      add\n      swap1\n      tag_38\n      swap2\n      swap1\n      tag_17\n      jump\t// in\n    tag_38:\n      tag_39\n      jump\t// in\n    tag_37:\n      mload(0x40)\n      tag_40\n      swap2\n      swap1\n      tag_41\n      jump\t// in\n    tag_40:\n      mload(0x40)\n      dup1\n      swap2\n      sub\n      swap1\n      return\n        /* \"contracts/smartContractWallet.sol\":724:1266  function proposeNewOwner(address payable _newOwner) public {... */\n    tag_8:\n      callvalue\n      dup1\n      iszero\n      tag_42\n      jumpi\n      revert(0x00, 0x00)\n    tag_42:\n      pop\n      tag_43\n      0x04\n      dup1\n      calldatasize\n      sub\n      dup2\n      add\n      swap1\n      tag_44\n      swap2\n      swap1\n      tag_45\n      jump\t// in\n    tag_44:\n      tag_46\n      jump\t// in\n    tag_43:\n      stop\n        /* \"contracts/smartContractWallet.sol\":1592:2342  function transfer(... */\n    tag_9:\n      callvalue\n      dup1\n      iszero\n      tag_47\n      jumpi\n      revert(0x00, 0x00)\n    tag_47:\n      pop\n      tag_48\n      0x04\n      dup1\n      calldatasize\n      sub\n      dup2\n      add\n      swap1\n      tag_49\n      swap2\n      swap1\n      tag_50\n      jump\t// in\n    tag_49:\n      tag_51\n      jump\t// in\n    tag_48:\n      mload(0x40)\n      tag_52\n      swap2\n      swap1\n      tag_53\n      jump\t// in\n    tag_52:\n      mload(0x40)\n      dup1\n      swap2\n      sub\n      swap1\n      return\n        /* \"contracts/smartContractWallet.sol\":403:460  uint public constant confirmationFromGuardianForReset = 3 */\n    tag_10:\n      callvalue\n      dup1\n      iszero\n      tag_54\n      jumpi\n      revert(0x00, 0x00)\n    tag_54:\n      pop\n      tag_55\n      tag_56\n      jump\t// in\n    tag_55:\n      mload(0x40)\n      tag_57\n      swap2\n      swap1\n      tag_41\n      jump\t// in\n    tag_57:\n      mload(0x40)\n      dup1\n      swap2\n      sub\n      swap1\n      return\n        /* \"contracts/smartContractWallet.sol\":221:262  mapping(address => bool) public guardians */\n    tag_18:\n      mstore(0x20, 0x03)\n      dup1\n      0x00\n      mstore\n      keccak256(0x00, 0x40)\n      0x00\n      swap2\n      pop\n      sload\n      swap1\n      0x0100\n      exp\n      swap1\n      div\n      0xff\n      and\n      dup2\n      jump\t// out\n        /* \"contracts/smartContractWallet.sol\":167:214  mapping(address => bool) public isAllowedToSend */\n    tag_24:\n      mstore(0x20, 0x02)\n      dup1\n      0x00\n      mstore\n      keccak256(0x00, 0x40)\n      0x00\n      swap2\n      pop\n      sload\n      swap1\n      0x0100\n      exp\n      swap1\n      div\n      0xff\n      and\n      dup2\n      jump\t// out\n        /* \"contracts/smartContractWallet.sol\":531:718  function setGuardian(address _guardian, bool _isGuardian) public {... */\n    tag_30:\n        /* \"contracts/smartContractWallet.sol\":628:633  owner */\n      0x00\n      0x00\n      swap1\n      sload\n      swap1\n      0x0100\n      exp\n      swap1\n      div\n      0xffffffffffffffffffffffffffffffffffffffff\n      and\n        /* \"contracts/smartContractWallet.sol\":614:633  msg.sender == owner */\n      0xffffffffffffffffffffffffffffffffffffffff\n      and\n        /* \"contracts/smartContractWallet.sol\":614:624  msg.sender */\n      caller\n        /* \"contracts/smartContractWallet.sol\":614:633  msg.sender == owner */\n      0xffffffffffffffffffffffffffffffffffffffff\n      and\n      eq\n        /* \"contracts/smartContractWallet.sol\":606:669  require(msg.sender == owner,\"You are not the owner, aborting!\") */\n      tag_59\n      jumpi\n      mload(0x40)\n      0x08c379a000000000000000000000000000000000000000000000000000000000\n      dup2\n      mstore\n      0x04\n      add\n      tag_60\n      swap1\n      tag_61\n      jump\t// in\n    tag_60:\n      mload(0x40)\n      dup1\n      swap2\n      sub\n      swap1\n      revert\n    tag_59:\n        /* \"contracts/smartContractWallet.sol\":700:711  _isGuardian */\n      dup1\n        /* \"contracts/smartContractWallet.sol\":679:688  guardians */\n      0x03\n        /* \"contracts/smartContractWallet.sol\":679:699  guardians[_guardian] */\n      0x00\n        /* \"contracts/smartContractWallet.sol\":689:698  _guardian */\n      dup5\n        /* \"contracts/smartContractWallet.sol\":679:699  guardians[_guardian] */\n      0xffffffffffffffffffffffffffffffffffffffff\n      and\n      0xffffffffffffffffffffffffffffffffffffffff\n      and\n      dup2\n      mstore\n      0x20\n      add\n      swap1\n      dup2\n      mstore\n      0x20\n      add\n      0x00\n      keccak256\n      0x00\n        /* \"contracts/smartContractWallet.sol\":679:711  guardians[_guardian]=_isGuardian */\n      0x0100\n      exp\n      dup2\n      sload\n      dup2\n      0xff\n      mul\n      not\n      and\n      swap1\n      dup4\n      iszero\n      iszero\n      mul\n      or\n      swap1\n      sstore\n      pop\n        /* \"contracts/smartContractWallet.sol\":531:718  function setGuardian(address _guardian, bool _isGuardian) public {... */\n      pop\n      pop\n      jump\t// out\n        /* \"contracts/smartContractWallet.sol\":1272:1586  function setAllowance(address _for, uint _amount) public {... */\n    tag_35:\n        /* \"contracts/smartContractWallet.sol\":1361:1366  owner */\n      0x00\n      0x00\n      swap1\n      sload\n      swap1\n      0x0100\n      exp\n      swap1\n      div\n      0xffffffffffffffffffffffffffffffffffffffff\n      and\n        /* \"contracts/smartContractWallet.sol\":1347:1366  msg.sender == owner */\n      0xffffffffffffffffffffffffffffffffffffffff\n      and\n        /* \"contracts/smartContractWallet.sol\":1347:1357  msg.sender */\n      caller\n        /* \"contracts/smartContractWallet.sol\":1347:1366  msg.sender == owner */\n      0xffffffffffffffffffffffffffffffffffffffff\n      and\n      eq\n        /* \"contracts/smartContractWallet.sol\":1339:1404  require(msg.sender == owner, \"You are not the owner, aborting !\") */\n      tag_63\n      jumpi\n      mload(0x40)\n      0x08c379a000000000000000000000000000000000000000000000000000000000\n      dup2\n      mstore\n      0x04\n      add\n      tag_64\n      swap1\n      tag_65\n      jump\t// in\n    tag_64:\n      mload(0x40)\n      dup1\n      swap2\n      sub\n      swap1\n      revert\n    tag_63:\n        /* \"contracts/smartContractWallet.sol\":1438:1445  _amount */\n      dup1\n        /* \"contracts/smartContractWallet.sol\":1414:1423  allowance */\n      0x01\n        /* \"contracts/smartContractWallet.sol\":1414:1435  allowance[msg.sender] */\n      0x00\n        /* \"contracts/smartContractWallet.sol\":1424:1434  msg.sender */\n      caller\n        /* \"contracts/smartContractWallet.sol\":1414:1435  allowance[msg.sender] */\n      0xffffffffffffffffffffffffffffffffffffffff\n      and\n      0xffffffffffffffffffffffffffffffffffffffff\n      and\n      dup2\n      mstore\n      0x20\n      add\n      swap1\n      dup2\n      mstore\n      0x20\n      add\n      0x00\n      keccak256\n        /* \"contracts/smartContractWallet.sol\":1414:1445  allowance[msg.sender] = _amount */\n      dup2\n      swap1\n      sstore\n      pop\n        /* \"contracts/smartContractWallet.sol\":1469:1470  0 */\n      0x00\n        /* \"contracts/smartContractWallet.sol\":1459:1466  _amount */\n      dup2\n        /* \"contracts/smartContractWallet.sol\":1459:1470  _amount > 0 */\n      gt\n        /* \"contracts/smartContractWallet.sol\":1456:1580  if(_amount > 0) {... */\n      iszero\n      tag_66\n      jumpi\n        /* \"contracts/smartContractWallet.sol\":1508:1512  true */\n      0x01\n        /* \"contracts/smartContractWallet.sol\":1486:1501  isAllowedToSend */\n      0x02\n        /* \"contracts/smartContractWallet.sol\":1486:1507  isAllowedToSend[_for] */\n      0x00\n        /* \"contracts/smartContractWallet.sol\":1502:1506  _for */\n      dup5\n        /* \"contracts/smartContractWallet.sol\":1486:1507  isAllowedToSend[_for] */\n      0xffffffffffffffffffffffffffffffffffffffff\n      and\n      0xffffffffffffffffffffffffffffffffffffffff\n      and\n      dup2\n      mstore\n      0x20\n      add\n      swap1\n      dup2\n      mstore\n      0x20\n      add\n      0x00\n      keccak256\n      0x00\n        /* \"contracts/smartContractWallet.sol\":1486:1512  isAllowedToSend[_for]=true */\n      0x0100\n      exp\n      dup2\n      sload\n      dup2\n      0xff\n      mul\n      not\n      and\n      swap1\n      dup4\n      iszero\n      iszero\n      mul\n      or\n      swap1\n      sstore\n      pop\n        /* \"contracts/smartContractWallet.sol\":1456:1580  if(_amount > 0) {... */\n      jump(tag_67)\n    tag_66:\n        /* \"contracts/smartContractWallet.sol\":1564:1569  false */\n      0x00\n        /* \"contracts/smartContractWallet.sol\":1541:1556  isAllowedToSend */\n      0x02\n        /* \"contracts/smartContractWallet.sol\":1541:1562  isAllowedToSend[_for] */\n      0x00\n        /* \"contracts/smartContractWallet.sol\":1557:1561  _for */\n      dup5\n        /* \"contracts/smartContractWallet.sol\":1541:1562  isAllowedToSend[_for] */\n      0xffffffffffffffffffffffffffffffffffffffff\n      and\n      0xffffffffffffffffffffffffffffffffffffffff\n      and\n      dup2\n      mstore\n      0x20\n      add\n      swap1\n      dup2\n      mstore\n      0x20\n      add\n      0x00\n      keccak256\n      0x00\n        /* \"contracts/smartContractWallet.sol\":1541:1569  isAllowedToSend[_for]= false */\n      0x0100\n      exp\n      dup2\n      sload\n      dup2\n      0xff\n      mul\n      not\n      and\n      swap1\n      dup4\n      iszero\n      iszero\n      mul\n      or\n      swap1\n      sstore\n      pop\n        /* \"contracts/smartContractWallet.sol\":1456:1580  if(_amount > 0) {... */\n    tag_67:\n        /* \"contracts/smartContractWallet.sol\":1272:1586  function setAllowance(address _for, uint _amount) public {... */\n      pop\n      pop\n      jump\t// out\n        /* \"contracts/smartContractWallet.sol\":120:161  mapping(address => uint) public allowance */\n    tag_39:\n      mstore(0x20, 0x01)\n      dup1\n      0x00\n      mstore\n      keccak256(0x00, 0x40)\n      0x00\n      swap2\n      pop\n      swap1\n      pop\n      sload\n      dup2\n      jump\t// out\n        /* \"contracts/smartContractWallet.sol\":724:1266  function proposeNewOwner(address payable _newOwner) public {... */\n    tag_46:\n        /* \"contracts/smartContractWallet.sol\":801:810  guardians */\n      0x03\n        /* \"contracts/smartContractWallet.sol\":801:822  guardians[msg.sender] */\n      0x00\n        /* \"contracts/smartContractWallet.sol\":811:821  msg.sender */\n      caller\n        /* \"contracts/smartContractWallet.sol\":801:822  guardians[msg.sender] */\n      0xffffffffffffffffffffffffffffffffffffffff\n      and\n      0xffffffffffffffffffffffffffffffffffffffff\n      and\n      dup2\n      mstore\n      0x20\n      add\n      swap1\n      dup2\n      mstore\n      0x20\n      add\n      0x00\n      keccak256\n      0x00\n      swap1\n      sload\n      swap1\n      0x0100\n      exp\n      swap1\n      div\n      0xff\n      and\n        /* \"contracts/smartContractWallet.sol\":793:873  require(guardians[msg.sender], \"You are not guardian of this wallet, aborting!\") */\n      tag_69\n      jumpi\n      mload(0x40)\n      0x08c379a000000000000000000000000000000000000000000000000000000000\n      dup2\n      mstore\n      0x04\n      add\n      tag_70\n      swap1\n      tag_71\n      jump\t// in\n    tag_70:\n      mload(0x40)\n      dup1\n      swap2\n      sub\n      swap1\n      revert\n    tag_69:\n        /* \"contracts/smartContractWallet.sol\":943:948  false */\n      0x00\n        /* \"contracts/smartContractWallet.sol\":891:948  nextOwnerGuardianVoteBool[_newOwner][msg.sender] == false */\n      iszero\n      iszero\n        /* \"contracts/smartContractWallet.sol\":891:916  nextOwnerGuardianVoteBool */\n      0x05\n        /* \"contracts/smartContractWallet.sol\":891:927  nextOwnerGuardianVoteBool[_newOwner] */\n      0x00\n        /* \"contracts/smartContractWallet.sol\":917:926  _newOwner */\n      dup4\n        /* \"contracts/smartContractWallet.sol\":891:927  nextOwnerGuardianVoteBool[_newOwner] */\n      0xffffffffffffffffffffffffffffffffffffffff\n      and\n      0xffffffffffffffffffffffffffffffffffffffff\n      and\n      dup2\n      mstore\n      0x20\n      add\n      swap1\n      dup2\n      mstore\n      0x20\n      add\n      0x00\n      keccak256\n        /* \"contracts/smartContractWallet.sol\":891:939  nextOwnerGuardianVoteBool[_newOwner][msg.sender] */\n      0x00\n        /* \"contracts/smartContractWallet.sol\":928:938  msg.sender */\n      caller\n        /* \"contracts/smartContractWallet.sol\":891:939  nextOwnerGuardianVoteBool[_newOwner][msg.sender] */\n      0xffffffffffffffffffffffffffffffffffffffff\n      and\n      0xffffffffffffffffffffffffffffffffffffffff\n      and\n      dup2\n      mstore\n      0x20\n      add\n      swap1\n      dup2\n      mstore\n      0x20\n      add\n      0x00\n      keccak256\n      0x00\n      swap1\n      sload\n      swap1\n      0x0100\n      exp\n      swap1\n      div\n      0xff\n      and\n        /* \"contracts/smartContractWallet.sol\":891:948  nextOwnerGuardianVoteBool[_newOwner][msg.sender] == false */\n      iszero\n      iszero\n      eq\n        /* \"contracts/smartContractWallet.sol\":883:964  require(nextOwnerGuardianVoteBool[_newOwner][msg.sender] == false, \"You already\") */\n      tag_72\n      jumpi\n      mload(0x40)\n      0x08c379a000000000000000000000000000000000000000000000000000000000\n      dup2\n      mstore\n      0x04\n      add\n      tag_73\n      swap1\n      tag_74\n      jump\t// in\n    tag_73:\n      mload(0x40)\n      dup1\n      swap2\n      sub\n      swap1\n      revert\n    tag_72:\n        /* \"contracts/smartContractWallet.sol\":988:997  nextOwner */\n      0x04\n      0x00\n      swap1\n      sload\n      swap1\n      0x0100\n      exp\n      swap1\n      div\n      0xffffffffffffffffffffffffffffffffffffffff\n      and\n        /* \"contracts/smartContractWallet.sol\":977:997  _newOwner!=nextOwner */\n      0xffffffffffffffffffffffffffffffffffffffff\n      and\n        /* \"contracts/smartContractWallet.sol\":977:986  _newOwner */\n      dup2\n        /* \"contracts/smartContractWallet.sol\":977:997  _newOwner!=nextOwner */\n      0xffffffffffffffffffffffffffffffffffffffff\n      and\n      eq\n        /* \"contracts/smartContractWallet.sol\":974:1078  if(_newOwner!=nextOwner){... */\n      tag_75\n      jumpi\n        /* \"contracts/smartContractWallet.sol\":1022:1031  _newOwner */\n      dup1\n        /* \"contracts/smartContractWallet.sol\":1012:1021  nextOwner */\n      0x04\n      0x00\n        /* \"contracts/smartContractWallet.sol\":1012:1031  nextOwner=_newOwner */\n      0x0100\n      exp\n      dup2\n      sload\n      dup2\n      0xffffffffffffffffffffffffffffffffffffffff\n      mul\n      not\n      and\n      swap1\n      dup4\n      0xffffffffffffffffffffffffffffffffffffffff\n      and\n      mul\n      or\n      swap1\n      sstore\n      pop\n        /* \"contracts/smartContractWallet.sol\":1066:1067  0 */\n      0x00\n        /* \"contracts/smartContractWallet.sol\":1045:1063  guardianResetCount */\n      0x06\n        /* \"contracts/smartContractWallet.sol\":1045:1067  guardianResetCount = 0 */\n      dup2\n      swap1\n      sstore\n      pop\n        /* \"contracts/smartContractWallet.sol\":974:1078  if(_newOwner!=nextOwner){... */\n    tag_75:\n        /* \"contracts/smartContractWallet.sol\":1087:1105  guardianResetCount */\n      0x06\n      0x00\n        /* \"contracts/smartContractWallet.sol\":1087:1107  guardianResetCount++ */\n      dup2\n      sload\n      dup1\n      swap3\n      swap2\n      swap1\n      tag_76\n      swap1\n      tag_77\n      jump\t// in\n    tag_76:\n      swap2\n      swap1\n      pop\n      sstore\n      pop\n        /* \"contracts/smartContractWallet.sol\":459:460  3 */\n      0x03\n        /* \"contracts/smartContractWallet.sol\":1121:1139  guardianResetCount */\n      sload(0x06)\n        /* \"contracts/smartContractWallet.sol\":1121:1175  guardianResetCount >= confirmationFromGuardianForReset */\n      lt\n        /* \"contracts/smartContractWallet.sol\":1118:1260  if(guardianResetCount >= confirmationFromGuardianForReset) {... */\n      tag_78\n      jumpi\n        /* \"contracts/smartContractWallet.sol\":1197:1206  nextOwner */\n      0x04\n      0x00\n      swap1\n      sload\n      swap1\n      0x0100\n      exp\n      swap1\n      div\n      0xffffffffffffffffffffffffffffffffffffffff\n      and\n        /* \"contracts/smartContractWallet.sol\":1191:1196  owner */\n      0x00\n      0x00\n        /* \"contracts/smartContractWallet.sol\":1191:1206  owner=nextOwner */\n      0x0100\n      exp\n      dup2\n      sload\n      dup2\n      0xffffffffffffffffffffffffffffffffffffffff\n      mul\n      not\n      and\n      swap1\n      dup4\n      0xffffffffffffffffffffffffffffffffffffffff\n      and\n      mul\n      or\n      swap1\n      sstore\n      pop\n        /* \"contracts/smartContractWallet.sol\":1246:1247  0 */\n      0x00\n        /* \"contracts/smartContractWallet.sol\":1220:1229  nextOwner */\n      0x04\n      0x00\n        /* \"contracts/smartContractWallet.sol\":1220:1249  nextOwner=payable(address(0)) */\n      0x0100\n      exp\n      dup2\n      sload\n      dup2\n      0xffffffffffffffffffffffffffffffffffffffff\n      mul\n      not\n      and\n      swap1\n      dup4\n      0xffffffffffffffffffffffffffffffffffffffff\n      and\n      mul\n      or\n      swap1\n      sstore\n      pop\n        /* \"contracts/smartContractWallet.sol\":1118:1260  if(guardianResetCount >= confirmationFromGuardianForReset) {... */\n    tag_78:\n        /* \"contracts/smartContractWallet.sol\":724:1266  function proposeNewOwner(address payable _newOwner) public {... */\n      pop\n      jump\t// out\n        /* \"contracts/smartContractWallet.sol\":1592:2342  function transfer(... */\n    tag_51:\n        /* \"contracts/smartContractWallet.sol\":1717:1729  bytes memory */\n      0x60\n        /* \"contracts/smartContractWallet.sol\":1763:1768  owner */\n      0x00\n      0x00\n      swap1\n      sload\n      swap1\n      0x0100\n      exp\n      swap1\n      div\n      0xffffffffffffffffffffffffffffffffffffffff\n      and\n        /* \"contracts/smartContractWallet.sol\":1749:1768  msg.sender == owner */\n      0xffffffffffffffffffffffffffffffffffffffff\n      and\n        /* \"contracts/smartContractWallet.sol\":1749:1759  msg.sender */\n      caller\n        /* \"contracts/smartContractWallet.sol\":1749:1768  msg.sender == owner */\n      0xffffffffffffffffffffffffffffffffffffffff\n      and\n      eq\n        /* \"contracts/smartContractWallet.sol\":1741:1805  require(msg.sender == owner, \"you are not the owner, aborting!\") */\n      tag_80\n      jumpi\n      mload(0x40)\n      0x08c379a000000000000000000000000000000000000000000000000000000000\n      dup2\n      mstore\n      0x04\n      add\n      tag_81\n      swap1\n      tag_82\n      jump\t// in\n    tag_81:\n      mload(0x40)\n      dup1\n      swap2\n      sub\n      swap1\n      revert\n    tag_80:\n        /* \"contracts/smartContractWallet.sol\":1832:1837  owner */\n      0x00\n      0x00\n      swap1\n      sload\n      swap1\n      0x0100\n      exp\n      swap1\n      div\n      0xffffffffffffffffffffffffffffffffffffffff\n      and\n        /* \"contracts/smartContractWallet.sol\":1818:1837  msg.sender != owner */\n      0xffffffffffffffffffffffffffffffffffffffff\n      and\n        /* \"contracts/smartContractWallet.sol\":1818:1828  msg.sender */\n      caller\n        /* \"contracts/smartContractWallet.sol\":1818:1837  msg.sender != owner */\n      0xffffffffffffffffffffffffffffffffffffffff\n      and\n      eq\n        /* \"contracts/smartContractWallet.sol\":1815:2137  if(msg.sender != owner) {... */\n      tag_83\n      jumpi\n        /* \"contracts/smartContractWallet.sol\":1861:1876  isAllowedToSend */\n      0x02\n        /* \"contracts/smartContractWallet.sol\":1861:1888  isAllowedToSend[msg.sender] */\n      0x00\n        /* \"contracts/smartContractWallet.sol\":1877:1887  msg.sender */\n      caller\n        /* \"contracts/smartContractWallet.sol\":1861:1888  isAllowedToSend[msg.sender] */\n      0xffffffffffffffffffffffffffffffffffffffff\n      and\n      0xffffffffffffffffffffffffffffffffffffffff\n      and\n      dup2\n      mstore\n      0x20\n      add\n      swap1\n      dup2\n      mstore\n      0x20\n      add\n      0x00\n      keccak256\n      0x00\n      swap1\n      sload\n      swap1\n      0x0100\n      exp\n      swap1\n      div\n      0xff\n      and\n        /* \"contracts/smartContractWallet.sol\":1853:1965  require(isAllowedToSend[msg.sender], \"You are not allowed to send anything from this smart contract, aborting!\") */\n      tag_84\n      jumpi\n      mload(0x40)\n      0x08c379a000000000000000000000000000000000000000000000000000000000\n      dup2\n      mstore\n      0x04\n      add\n      tag_85\n      swap1\n      tag_86\n      jump\t// in\n    tag_85:\n      mload(0x40)\n      dup1\n      swap2\n      sub\n      swap1\n      revert\n    tag_84:\n        /* \"contracts/smartContractWallet.sol\":2010:2017  _amount */\n      dup3\n        /* \"contracts/smartContractWallet.sol\":1987:1996  allowance */\n      0x01\n        /* \"contracts/smartContractWallet.sol\":1987:2008  allowance[msg.sender] */\n      0x00\n        /* \"contracts/smartContractWallet.sol\":1997:2007  msg.sender */\n      caller\n        /* \"contracts/smartContractWallet.sol\":1987:2008  allowance[msg.sender] */\n      0xffffffffffffffffffffffffffffffffffffffff\n      and\n      0xffffffffffffffffffffffffffffffffffffffff\n      and\n      dup2\n      mstore\n      0x20\n      add\n      swap1\n      dup2\n      mstore\n      0x20\n      add\n      0x00\n      keccak256\n      sload\n        /* \"contracts/smartContractWallet.sol\":1987:2017  allowance[msg.sender]>=_amount */\n      lt\n      iszero\n        /* \"contracts/smartContractWallet.sol\":1979:2080  require(allowance[msg.sender]>=_amount, \"You are trying to send more than you allowed to, aborting!\") */\n      tag_87\n      jumpi\n      mload(0x40)\n      0x08c379a000000000000000000000000000000000000000000000000000000000\n      dup2\n      mstore\n      0x04\n      add\n      tag_88\n      swap1\n      tag_89\n      jump\t// in\n    tag_88:\n      mload(0x40)\n      dup1\n      swap2\n      sub\n      swap1\n      revert\n    tag_87:\n        /* \"contracts/smartContractWallet.sol\":2119:2126  _amount */\n      dup3\n        /* \"contracts/smartContractWallet.sol\":2095:2104  allowance */\n      0x01\n        /* \"contracts/smartContractWallet.sol\":2095:2116  allowance[msg.sender] */\n      0x00\n        /* \"contracts/smartContractWallet.sol\":2105:2115  msg.sender */\n      caller\n        /* \"contracts/smartContractWallet.sol\":2095:2116  allowance[msg.sender] */\n      0xffffffffffffffffffffffffffffffffffffffff\n      and\n      0xffffffffffffffffffffffffffffffffffffffff\n      and\n      dup2\n      mstore\n      0x20\n      add\n      swap1\n      dup2\n      mstore\n      0x20\n      add\n      0x00\n      keccak256\n      0x00\n        /* \"contracts/smartContractWallet.sol\":2095:2126  allowance[msg.sender]-= _amount */\n      dup3\n      dup3\n      sload\n      tag_90\n      swap2\n      swap1\n      tag_91\n      jump\t// in\n    tag_90:\n      swap3\n      pop\n      pop\n      dup2\n      swap1\n      sstore\n      pop\n        /* \"contracts/smartContractWallet.sol\":1815:2137  if(msg.sender != owner) {... */\n    tag_83:\n        /* \"contracts/smartContractWallet.sol\":2148:2160  bool success */\n      0x00\n        /* \"contracts/smartContractWallet.sol\":2162:2185  bytes memory returnData */\n      0x00\n        /* \"contracts/smartContractWallet.sol\":2189:2192  _to */\n      dup6\n        /* \"contracts/smartContractWallet.sol\":2189:2197  _to.call */\n      0xffffffffffffffffffffffffffffffffffffffff\n      and\n        /* \"contracts/smartContractWallet.sol\":2205:2212  _amount */\n      dup6\n        /* \"contracts/smartContractWallet.sol\":2227:2235  _payload */\n      dup6\n        /* \"contracts/smartContractWallet.sol\":2189:2245  _to.call{value: _amount}(... */\n      mload(0x40)\n      tag_92\n      swap2\n      swap1\n      tag_93\n      jump\t// in\n    tag_92:\n      0x00\n      mload(0x40)\n      dup1\n      dup4\n      sub\n      dup2\n      dup6\n      dup8\n      gas\n      call\n      swap3\n      pop\n      pop\n      pop\n      returndatasize\n      dup1\n      0x00\n      dup2\n      eq\n      tag_96\n      jumpi\n      mload(0x40)\n      swap2\n      pop\n      and(add(returndatasize, 0x3f), not(0x1f))\n      dup3\n      add\n      0x40\n      mstore\n      returndatasize\n      dup3\n      mstore\n      returndatasize\n      0x00\n      0x20\n      dup5\n      add\n      returndatacopy\n      jump(tag_95)\n    tag_96:\n      0x60\n      swap2\n      pop\n    tag_95:\n      pop\n        /* \"contracts/smartContractWallet.sol\":2147:2245  (bool success, bytes memory returnData) = _to.call{value: _amount}(... */\n      swap2\n      pop\n      swap2\n      pop\n        /* \"contracts/smartContractWallet.sol\":2263:2270  success */\n      dup2\n        /* \"contracts/smartContractWallet.sol\":2255:2308  require(success, \"Aborting, call was not successful\") */\n      tag_97\n      jumpi\n      mload(0x40)\n      0x08c379a000000000000000000000000000000000000000000000000000000000\n      dup2\n      mstore\n      0x04\n      add\n      tag_98\n      swap1\n      tag_99\n      jump\t// in\n    tag_98:\n      mload(0x40)\n      dup1\n      swap2\n      sub\n      swap1\n      revert\n    tag_97:\n        /* \"contracts/smartContractWallet.sol\":2325:2335  returnData */\n      dup1\n        /* \"contracts/smartContractWallet.sol\":2318:2335  return returnData */\n      swap3\n      pop\n      pop\n      pop\n        /* \"contracts/smartContractWallet.sol\":1592:2342  function transfer(... */\n      swap4\n      swap3\n      pop\n      pop\n      pop\n      jump\t// out\n        /* \"contracts/smartContractWallet.sol\":403:460  uint public constant confirmationFromGuardianForReset = 3 */\n    tag_56:\n        /* \"contracts/smartContractWallet.sol\":459:460  3 */\n      0x03\n        /* \"contracts/smartContractWallet.sol\":403:460  uint public constant confirmationFromGuardianForReset = 3 */\n      dup2\n      jump\t// out\n        /* \"#utility.yul\":7:82   */\n    tag_100:\n        /* \"#utility.yul\":40:46   */\n      0x00\n        /* \"#utility.yul\":73:75   */\n      0x40\n        /* \"#utility.yul\":67:76   */\n      mload\n        /* \"#utility.yul\":57:76   */\n      swap1\n      pop\n        /* \"#utility.yul\":7:82   */\n      swap1\n      jump\t// out\n        /* \"#utility.yul\":88:205   */\n    tag_101:\n        /* \"#utility.yul\":197:198   */\n      0x00\n        /* \"#utility.yul\":194:195   */\n      0x00\n        /* \"#utility.yul\":187:199   */\n      revert\n        /* \"#utility.yul\":211:328   */\n    tag_102:\n        /* \"#utility.yul\":320:321   */\n      0x00\n        /* \"#utility.yul\":317:318   */\n      0x00\n        /* \"#utility.yul\":310:322   */\n      revert\n        /* \"#utility.yul\":334:460   */\n    tag_103:\n        /* \"#utility.yul\":371:378   */\n      0x00\n        /* \"#utility.yul\":411:453   */\n      0xffffffffffffffffffffffffffffffffffffffff\n        /* \"#utility.yul\":404:409   */\n      dup3\n        /* \"#utility.yul\":400:454   */\n      and\n        /* \"#utility.yul\":389:454   */\n      swap1\n      pop\n        /* \"#utility.yul\":334:460   */\n      swap2\n      swap1\n      pop\n      jump\t// out\n        /* \"#utility.yul\":466:562   */\n    tag_104:\n        /* \"#utility.yul\":503:510   */\n      0x00\n        /* \"#utility.yul\":532:556   */\n      tag_158\n        /* \"#utility.yul\":550:555   */\n      dup3\n        /* \"#utility.yul\":532:556   */\n      tag_103\n      jump\t// in\n    tag_158:\n        /* \"#utility.yul\":521:556   */\n      swap1\n      pop\n        /* \"#utility.yul\":466:562   */\n      swap2\n      swap1\n      pop\n      jump\t// out\n        /* \"#utility.yul\":568:690   */\n    tag_105:\n        /* \"#utility.yul\":641:665   */\n      tag_160\n        /* \"#utility.yul\":659:664   */\n      dup2\n        /* \"#utility.yul\":641:665   */\n      tag_104\n      jump\t// in\n    tag_160:\n        /* \"#utility.yul\":634:639   */\n      dup2\n        /* \"#utility.yul\":631:666   */\n      eq\n        /* \"#utility.yul\":621:684   */\n      tag_161\n      jumpi\n        /* \"#utility.yul\":680:681   */\n      0x00\n        /* \"#utility.yul\":677:678   */\n      0x00\n        /* \"#utility.yul\":670:682   */\n      revert\n        /* \"#utility.yul\":621:684   */\n    tag_161:\n        /* \"#utility.yul\":568:690   */\n      pop\n      jump\t// out\n        /* \"#utility.yul\":696:835   */\n    tag_106:\n        /* \"#utility.yul\":742:747   */\n      0x00\n        /* \"#utility.yul\":780:786   */\n      dup2\n        /* \"#utility.yul\":767:787   */\n      calldataload\n        /* \"#utility.yul\":758:787   */\n      swap1\n      pop\n        /* \"#utility.yul\":796:829   */\n      tag_163\n        /* \"#utility.yul\":823:828   */\n      dup2\n        /* \"#utility.yul\":796:829   */\n      tag_105\n      jump\t// in\n    tag_163:\n        /* \"#utility.yul\":696:835   */\n      swap3\n      swap2\n      pop\n      pop\n      jump\t// out\n        /* \"#utility.yul\":841:1170   */\n    tag_17:\n        /* \"#utility.yul\":900:906   */\n      0x00\n        /* \"#utility.yul\":949:951   */\n      0x20\n        /* \"#utility.yul\":937:946   */\n      dup3\n        /* \"#utility.yul\":928:935   */\n      dup5\n        /* \"#utility.yul\":924:947   */\n      sub\n        /* \"#utility.yul\":920:952   */\n      slt\n        /* \"#utility.yul\":917:1036   */\n      iszero\n      tag_165\n      jumpi\n        /* \"#utility.yul\":955:1034   */\n      tag_166\n      tag_101\n      jump\t// in\n    tag_166:\n        /* \"#utility.yul\":917:1036   */\n    tag_165:\n        /* \"#utility.yul\":1075:1076   */\n      0x00\n        /* \"#utility.yul\":1100:1153   */\n      tag_167\n        /* \"#utility.yul\":1145:1152   */\n      dup5\n        /* \"#utility.yul\":1136:1142   */\n      dup3\n        /* \"#utility.yul\":1125:1134   */\n      dup6\n        /* \"#utility.yul\":1121:1143   */\n      add\n        /* \"#utility.yul\":1100:1153   */\n      tag_106\n      jump\t// in\n    tag_167:\n        /* \"#utility.yul\":1090:1153   */\n      swap2\n      pop\n        /* \"#utility.yul\":1046:1163   */\n      pop\n        /* \"#utility.yul\":841:1170   */\n      swap3\n      swap2\n      pop\n      pop\n      jump\t// out\n        /* \"#utility.yul\":1176:1266   */\n    tag_107:\n        /* \"#utility.yul\":1210:1217   */\n      0x00\n        /* \"#utility.yul\":1253:1258   */\n      dup2\n        /* \"#utility.yul\":1246:1259   */\n      iszero\n        /* \"#utility.yul\":1239:1260   */\n      iszero\n        /* \"#utility.yul\":1228:1260   */\n      swap1\n      pop\n        /* \"#utility.yul\":1176:1266   */\n      swap2\n      swap1\n      pop\n      jump\t// out\n        /* \"#utility.yul\":1272:1381   */\n    tag_108:\n        /* \"#utility.yul\":1353:1374   */\n      tag_170\n        /* \"#utility.yul\":1368:1373   */\n      dup2\n        /* \"#utility.yul\":1353:1374   */\n      tag_107\n      jump\t// in\n    tag_170:\n        /* \"#utility.yul\":1348:1351   */\n      dup3\n        /* \"#utility.yul\":1341:1375   */\n      mstore\n        /* \"#utility.yul\":1272:1381   */\n      pop\n      pop\n      jump\t// out\n        /* \"#utility.yul\":1387:1597   */\n    tag_20:\n        /* \"#utility.yul\":1474:1478   */\n      0x00\n        /* \"#utility.yul\":1512:1514   */\n      0x20\n        /* \"#utility.yul\":1501:1510   */\n      dup3\n        /* \"#utility.yul\":1497:1515   */\n      add\n        /* \"#utility.yul\":1489:1515   */\n      swap1\n      pop\n        /* \"#utility.yul\":1525:1590   */\n      tag_172\n        /* \"#utility.yul\":1587:1588   */\n      0x00\n        /* \"#utility.yul\":1576:1585   */\n      dup4\n        /* \"#utility.yul\":1572:1589   */\n      add\n        /* \"#utility.yul\":1563:1569   */\n      dup5\n        /* \"#utility.yul\":1525:1590   */\n      tag_108\n      jump\t// in\n    tag_172:\n        /* \"#utility.yul\":1387:1597   */\n      swap3\n      swap2\n      pop\n      pop\n      jump\t// out\n        /* \"#utility.yul\":1603:1719   */\n    tag_109:\n        /* \"#utility.yul\":1673:1694   */\n      tag_174\n        /* \"#utility.yul\":1688:1693   */\n      dup2\n        /* \"#utility.yul\":1673:1694   */\n      tag_107\n      jump\t// in\n    tag_174:\n        /* \"#utility.yul\":1666:1671   */\n      dup2\n        /* \"#utility.yul\":1663:1695   */\n      eq\n        /* \"#utility.yul\":1653:1713   */\n      tag_175\n      jumpi\n        /* \"#utility.yul\":1709:1710   */\n      0x00\n        /* \"#utility.yul\":1706:1707   */\n      0x00\n        /* \"#utility.yul\":1699:1711   */\n      revert\n        /* \"#utility.yul\":1653:1713   */\n    tag_175:\n        /* \"#utility.yul\":1603:1719   */\n      pop\n      jump\t// out\n        /* \"#utility.yul\":1725:1858   */\n    tag_110:\n        /* \"#utility.yul\":1768:1773   */\n      0x00\n        /* \"#utility.yul\":1806:1812   */\n      dup2\n        /* \"#utility.yul\":1793:1813   */\n      calldataload\n        /* \"#utility.yul\":1784:1813   */\n      swap1\n      pop\n        /* \"#utility.yul\":1822:1852   */\n      tag_177\n        /* \"#utility.yul\":1846:1851   */\n      dup2\n        /* \"#utility.yul\":1822:1852   */\n      tag_109\n      jump\t// in\n    tag_177:\n        /* \"#utility.yul\":1725:1858   */\n      swap3\n      swap2\n      pop\n      pop\n      jump\t// out\n        /* \"#utility.yul\":1864:2332   */\n    tag_29:\n        /* \"#utility.yul\":1929:1935   */\n      0x00\n        /* \"#utility.yul\":1937:1943   */\n      0x00\n        /* \"#utility.yul\":1986:1988   */\n      0x40\n        /* \"#utility.yul\":1974:1983   */\n      dup4\n        /* \"#utility.yul\":1965:1972   */\n      dup6\n        /* \"#utility.yul\":1961:1984   */\n      sub\n        /* \"#utility.yul\":1957:1989   */\n      slt\n        /* \"#utility.yul\":1954:2073   */\n      iszero\n      tag_179\n      jumpi\n        /* \"#utility.yul\":1992:2071   */\n      tag_180\n      tag_101\n      jump\t// in\n    tag_180:\n        /* \"#utility.yul\":1954:2073   */\n    tag_179:\n        /* \"#utility.yul\":2112:2113   */\n      0x00\n        /* \"#utility.yul\":2137:2190   */\n      tag_181\n        /* \"#utility.yul\":2182:2189   */\n      dup6\n        /* \"#utility.yul\":2173:2179   */\n      dup3\n        /* \"#utility.yul\":2162:2171   */\n      dup7\n        /* \"#utility.yul\":2158:2180   */\n      add\n        /* \"#utility.yul\":2137:2190   */\n      tag_106\n      jump\t// in\n    tag_181:\n        /* \"#utility.yul\":2127:2190   */\n      swap3\n      pop\n        /* \"#utility.yul\":2083:2200   */\n      pop\n        /* \"#utility.yul\":2239:2241   */\n      0x20\n        /* \"#utility.yul\":2265:2315   */\n      tag_182\n        /* \"#utility.yul\":2307:2314   */\n      dup6\n        /* \"#utility.yul\":2298:2304   */\n      dup3\n        /* \"#utility.yul\":2287:2296   */\n      dup7\n        /* \"#utility.yul\":2283:2305   */\n      add\n        /* \"#utility.yul\":2265:2315   */\n      tag_110\n      jump\t// in\n    tag_182:\n        /* \"#utility.yul\":2255:2315   */\n      swap2\n      pop\n        /* \"#utility.yul\":2210:2325   */\n      pop\n        /* \"#utility.yul\":1864:2332   */\n      swap3\n      pop\n      swap3\n      swap1\n      pop\n      jump\t// out\n        /* \"#utility.yul\":2338:2415   */\n    tag_111:\n        /* \"#utility.yul\":2375:2382   */\n      0x00\n        /* \"#utility.yul\":2404:2409   */\n      dup2\n        /* \"#utility.yul\":2393:2409   */\n      swap1\n      pop\n        /* \"#utility.yul\":2338:2415   */\n      swap2\n      swap1\n      pop\n      jump\t// out\n        /* \"#utility.yul\":2421:2543   */\n    tag_112:\n        /* \"#utility.yul\":2494:2518   */\n      tag_185\n        /* \"#utility.yul\":2512:2517   */\n      dup2\n        /* \"#utility.yul\":2494:2518   */\n      tag_111\n      jump\t// in\n    tag_185:\n        /* \"#utility.yul\":2487:2492   */\n      dup2\n        /* \"#utility.yul\":2484:2519   */\n      eq\n        /* \"#utility.yul\":2474:2537   */\n      tag_186\n      jumpi\n        /* \"#utility.yul\":2533:2534   */\n      0x00\n        /* \"#utility.yul\":2530:2531   */\n      0x00\n        /* \"#utility.yul\":2523:2535   */\n      revert\n        /* \"#utility.yul\":2474:2537   */\n    tag_186:\n        /* \"#utility.yul\":2421:2543   */\n      pop\n      jump\t// out\n        /* \"#utility.yul\":2549:2688   */\n    tag_113:\n        /* \"#utility.yul\":2595:2600   */\n      0x00\n        /* \"#utility.yul\":2633:2639   */\n      dup2\n        /* \"#utility.yul\":2620:2640   */\n      calldataload\n        /* \"#utility.yul\":2611:2640   */\n      swap1\n      pop\n        /* \"#utility.yul\":2649:2682   */\n      tag_188\n        /* \"#utility.yul\":2676:2681   */\n      dup2\n        /* \"#utility.yul\":2649:2682   */\n      tag_112\n      jump\t// in\n    tag_188:\n        /* \"#utility.yul\":2549:2688   */\n      swap3\n      swap2\n      pop\n      pop\n      jump\t// out\n        /* \"#utility.yul\":2694:3168   */\n    tag_34:\n        /* \"#utility.yul\":2762:2768   */\n      0x00\n        /* \"#utility.yul\":2770:2776   */\n      0x00\n        /* \"#utility.yul\":2819:2821   */\n      0x40\n        /* \"#utility.yul\":2807:2816   */\n      dup4\n        /* \"#utility.yul\":2798:2805   */\n      dup6\n        /* \"#utility.yul\":2794:2817   */\n      sub\n        /* \"#utility.yul\":2790:2822   */\n      slt\n        /* \"#utility.yul\":2787:2906   */\n      iszero\n      tag_190\n      jumpi\n        /* \"#utility.yul\":2825:2904   */\n      tag_191\n      tag_101\n      jump\t// in\n    tag_191:\n        /* \"#utility.yul\":2787:2906   */\n    tag_190:\n        /* \"#utility.yul\":2945:2946   */\n      0x00\n        /* \"#utility.yul\":2970:3023   */\n      tag_192\n        /* \"#utility.yul\":3015:3022   */\n      dup6\n        /* \"#utility.yul\":3006:3012   */\n      dup3\n        /* \"#utility.yul\":2995:3004   */\n      dup7\n        /* \"#utility.yul\":2991:3013   */\n      add\n        /* \"#utility.yul\":2970:3023   */\n      tag_106\n      jump\t// in\n    tag_192:\n        /* \"#utility.yul\":2960:3023   */\n      swap3\n      pop\n        /* \"#utility.yul\":2916:3033   */\n      pop\n        /* \"#utility.yul\":3072:3074   */\n      0x20\n        /* \"#utility.yul\":3098:3151   */\n      tag_193\n        /* \"#utility.yul\":3143:3150   */\n      dup6\n        /* \"#utility.yul\":3134:3140   */\n      dup3\n        /* \"#utility.yul\":3123:3132   */\n      dup7\n        /* \"#utility.yul\":3119:3141   */\n      add\n        /* \"#utility.yul\":3098:3151   */\n      tag_113\n      jump\t// in\n    tag_193:\n        /* \"#utility.yul\":3088:3151   */\n      swap2\n      pop\n        /* \"#utility.yul\":3043:3161   */\n      pop\n        /* \"#utility.yul\":2694:3168   */\n      swap3\n      pop\n      swap3\n      swap1\n      pop\n      jump\t// out\n        /* \"#utility.yul\":3174:3292   */\n    tag_114:\n        /* \"#utility.yul\":3261:3285   */\n      tag_195\n        /* \"#utility.yul\":3279:3284   */\n      dup2\n        /* \"#utility.yul\":3261:3285   */\n      tag_111\n      jump\t// in\n    tag_195:\n        /* \"#utility.yul\":3256:3259   */\n      dup3\n        /* \"#utility.yul\":3249:3286   */\n      mstore\n        /* \"#utility.yul\":3174:3292   */\n      pop\n      pop\n      jump\t// out\n        /* \"#utility.yul\":3298:3520   */\n    tag_41:\n        /* \"#utility.yul\":3391:3395   */\n      0x00\n        /* \"#utility.yul\":3429:3431   */\n      0x20\n        /* \"#utility.yul\":3418:3427   */\n      dup3\n        /* \"#utility.yul\":3414:3432   */\n      add\n        /* \"#utility.yul\":3406:3432   */\n      swap1\n      pop\n        /* \"#utility.yul\":3442:3513   */\n      tag_197\n        /* \"#utility.yul\":3510:3511   */\n      0x00\n        /* \"#utility.yul\":3499:3508   */\n      dup4\n        /* \"#utility.yul\":3495:3512   */\n      add\n        /* \"#utility.yul\":3486:3492   */\n      dup5\n        /* \"#utility.yul\":3442:3513   */\n      tag_114\n      jump\t// in\n    tag_197:\n        /* \"#utility.yul\":3298:3520   */\n      swap3\n      swap2\n      pop\n      pop\n      jump\t// out\n        /* \"#utility.yul\":3526:3630   */\n    tag_115:\n        /* \"#utility.yul\":3571:3578   */\n      0x00\n        /* \"#utility.yul\":3600:3624   */\n      tag_199\n        /* \"#utility.yul\":3618:3623   */\n      dup3\n        /* \"#utility.yul\":3600:3624   */\n      tag_103\n      jump\t// in\n    tag_199:\n        /* \"#utility.yul\":3589:3624   */\n      swap1\n      pop\n        /* \"#utility.yul\":3526:3630   */\n      swap2\n      swap1\n      pop\n      jump\t// out\n        /* \"#utility.yul\":3636:3774   */\n    tag_116:\n        /* \"#utility.yul\":3717:3749   */\n      tag_201\n        /* \"#utility.yul\":3743:3748   */\n      dup2\n        /* \"#utility.yul\":3717:3749   */\n      tag_115\n      jump\t// in\n    tag_201:\n        /* \"#utility.yul\":3710:3715   */\n      dup2\n        /* \"#utility.yul\":3707:3750   */\n      eq\n        /* \"#utility.yul\":3697:3768   */\n      tag_202\n      jumpi\n        /* \"#utility.yul\":3764:3765   */\n      0x00\n        /* \"#utility.yul\":3761:3762   */\n      0x00\n        /* \"#utility.yul\":3754:3766   */\n      revert\n        /* \"#utility.yul\":3697:3768   */\n    tag_202:\n        /* \"#utility.yul\":3636:3774   */\n      pop\n      jump\t// out\n        /* \"#utility.yul\":3780:3935   */\n    tag_117:\n        /* \"#utility.yul\":3834:3839   */\n      0x00\n        /* \"#utility.yul\":3872:3878   */\n      dup2\n        /* \"#utility.yul\":3859:3879   */\n      calldataload\n        /* \"#utility.yul\":3850:3879   */\n      swap1\n      pop\n        /* \"#utility.yul\":3888:3929   */\n      tag_204\n        /* \"#utility.yul\":3923:3928   */\n      dup2\n        /* \"#utility.yul\":3888:3929   */\n      tag_116\n      jump\t// in\n    tag_204:\n        /* \"#utility.yul\":3780:3935   */\n      swap3\n      swap2\n      pop\n      pop\n      jump\t// out\n        /* \"#utility.yul\":3941:4286   */\n    tag_45:\n        /* \"#utility.yul\":4008:4014   */\n      0x00\n        /* \"#utility.yul\":4057:4059   */\n      0x20\n        /* \"#utility.yul\":4045:4054   */\n      dup3\n        /* \"#utility.yul\":4036:4043   */\n      dup5\n        /* \"#utility.yul\":4032:4055   */\n      sub\n        /* \"#utility.yul\":4028:4060   */\n      slt\n        /* \"#utility.yul\":4025:4144   */\n      iszero\n      tag_206\n      jumpi\n        /* \"#utility.yul\":4063:4142   */\n      tag_207\n      tag_101\n      jump\t// in\n    tag_207:\n        /* \"#utility.yul\":4025:4144   */\n    tag_206:\n        /* \"#utility.yul\":4183:4184   */\n      0x00\n        /* \"#utility.yul\":4208:4269   */\n      tag_208\n        /* \"#utility.yul\":4261:4268   */\n      dup5\n        /* \"#utility.yul\":4252:4258   */\n      dup3\n        /* \"#utility.yul\":4241:4250   */\n      dup6\n        /* \"#utility.yul\":4237:4259   */\n      add\n        /* \"#utility.yul\":4208:4269   */\n      tag_117\n      jump\t// in\n    tag_208:\n        /* \"#utility.yul\":4198:4269   */\n      swap2\n      pop\n        /* \"#utility.yul\":4154:4279   */\n      pop\n        /* \"#utility.yul\":3941:4286   */\n      swap3\n      swap2\n      pop\n      pop\n      jump\t// out\n        /* \"#utility.yul\":4292:4409   */\n    tag_118:\n        /* \"#utility.yul\":4401:4402   */\n      0x00\n        /* \"#utility.yul\":4398:4399   */\n      0x00\n        /* \"#utility.yul\":4391:4403   */\n      revert\n        /* \"#utility.yul\":4415:4532   */\n    tag_119:\n        /* \"#utility.yul\":4524:4525   */\n      0x00\n        /* \"#utility.yul\":4521:4522   */\n      0x00\n        /* \"#utility.yul\":4514:4526   */\n      revert\n        /* \"#utility.yul\":4538:4640   */\n    tag_120:\n        /* \"#utility.yul\":4579:4585   */\n      0x00\n        /* \"#utility.yul\":4630:4632   */\n      0x1f\n        /* \"#utility.yul\":4626:4633   */\n      not\n        /* \"#utility.yul\":4621:4623   */\n      0x1f\n        /* \"#utility.yul\":4614:4619   */\n      dup4\n        /* \"#utility.yul\":4610:4624   */\n      add\n        /* \"#utility.yul\":4606:4634   */\n      and\n        /* \"#utility.yul\":4596:4634   */\n      swap1\n      pop\n        /* \"#utility.yul\":4538:4640   */\n      swap2\n      swap1\n      pop\n      jump\t// out\n        /* \"#utility.yul\":4646:4826   */\n    tag_121:\n        /* \"#utility.yul\":4694:4771   */\n      0x4e487b7100000000000000000000000000000000000000000000000000000000\n        /* \"#utility.yul\":4691:4692   */\n      0x00\n        /* \"#utility.yul\":4684:4772   */\n      mstore\n        /* \"#utility.yul\":4791:4795   */\n      0x41\n        /* \"#utility.yul\":4788:4789   */\n      0x04\n        /* \"#utility.yul\":4781:4796   */\n      mstore\n        /* \"#utility.yul\":4815:4819   */\n      0x24\n        /* \"#utility.yul\":4812:4813   */\n      0x00\n        /* \"#utility.yul\":4805:4820   */\n      revert\n        /* \"#utility.yul\":4832:5113   */\n    tag_122:\n        /* \"#utility.yul\":4915:4942   */\n      tag_214\n        /* \"#utility.yul\":4937:4941   */\n      dup3\n        /* \"#utility.yul\":4915:4942   */\n      tag_120\n      jump\t// in\n    tag_214:\n        /* \"#utility.yul\":4907:4913   */\n      dup2\n        /* \"#utility.yul\":4903:4943   */\n      add\n        /* \"#utility.yul\":5045:5051   */\n      dup2\n        /* \"#utility.yul\":5033:5043   */\n      dup2\n        /* \"#utility.yul\":5030:5052   */\n      lt\n        /* \"#utility.yul\":5009:5027   */\n      0xffffffffffffffff\n        /* \"#utility.yul\":4997:5007   */\n      dup3\n        /* \"#utility.yul\":4994:5028   */\n      gt\n        /* \"#utility.yul\":4991:5053   */\n      or\n        /* \"#utility.yul\":4988:5076   */\n      iszero\n      tag_215\n      jumpi\n        /* \"#utility.yul\":5056:5074   */\n      tag_216\n      tag_121\n      jump\t// in\n    tag_216:\n        /* \"#utility.yul\":4988:5076   */\n    tag_215:\n        /* \"#utility.yul\":5096:5106   */\n      dup1\n        /* \"#utility.yul\":5092:5094   */\n      0x40\n        /* \"#utility.yul\":5085:5107   */\n      mstore\n        /* \"#utility.yul\":4875:5113   */\n      pop\n        /* \"#utility.yul\":4832:5113   */\n      pop\n      pop\n      jump\t// out\n        /* \"#utility.yul\":5119:5248   */\n    tag_123:\n        /* \"#utility.yul\":5153:5159   */\n      0x00\n        /* \"#utility.yul\":5180:5200   */\n      tag_218\n      tag_100\n      jump\t// in\n    tag_218:\n        /* \"#utility.yul\":5170:5200   */\n      swap1\n      pop\n        /* \"#utility.yul\":5209:5242   */\n      tag_219\n        /* \"#utility.yul\":5237:5241   */\n      dup3\n        /* \"#utility.yul\":5229:5235   */\n      dup3\n        /* \"#utility.yul\":5209:5242   */\n      tag_122\n      jump\t// in\n    tag_219:\n        /* \"#utility.yul\":5119:5248   */\n      swap2\n      swap1\n      pop\n      jump\t// out\n        /* \"#utility.yul\":5254:5561   */\n    tag_124:\n        /* \"#utility.yul\":5315:5319   */\n      0x00\n        /* \"#utility.yul\":5405:5423   */\n      0xffffffffffffffff\n        /* \"#utility.yul\":5397:5403   */\n      dup3\n        /* \"#utility.yul\":5394:5424   */\n      gt\n        /* \"#utility.yul\":5391:5447   */\n      iszero\n      tag_221\n      jumpi\n        /* \"#utility.yul\":5427:5445   */\n      tag_222\n      tag_121\n      jump\t// in\n    tag_222:\n        /* \"#utility.yul\":5391:5447   */\n    tag_221:\n        /* \"#utility.yul\":5465:5494   */\n      tag_223\n        /* \"#utility.yul\":5487:5493   */\n      dup3\n        /* \"#utility.yul\":5465:5494   */\n      tag_120\n      jump\t// in\n    tag_223:\n        /* \"#utility.yul\":5457:5494   */\n      swap1\n      pop\n        /* \"#utility.yul\":5549:5553   */\n      0x20\n        /* \"#utility.yul\":5543:5547   */\n      dup2\n        /* \"#utility.yul\":5539:5554   */\n      add\n        /* \"#utility.yul\":5531:5554   */\n      swap1\n      pop\n        /* \"#utility.yul\":5254:5561   */\n      swap2\n      swap1\n      pop\n      jump\t// out\n        /* \"#utility.yul\":5567:5715   */\n    tag_125:\n        /* \"#utility.yul\":5665:5671   */\n      dup3\n        /* \"#utility.yul\":5660:5663   */\n      dup2\n        /* \"#utility.yul\":5655:5658   */\n      dup4\n        /* \"#utility.yul\":5642:5672   */\n      calldatacopy\n        /* \"#utility.yul\":5706:5707   */\n      0x00\n        /* \"#utility.yul\":5697:5703   */\n      dup4\n        /* \"#utility.yul\":5692:5695   */\n      dup4\n        /* \"#utility.yul\":5688:5704   */\n      add\n        /* \"#utility.yul\":5681:5708   */\n      mstore\n        /* \"#utility.yul\":5567:5715   */\n      pop\n      pop\n      pop\n      jump\t// out\n        /* \"#utility.yul\":5721:6144   */\n    tag_126:\n        /* \"#utility.yul\":5798:5803   */\n      0x00\n        /* \"#utility.yul\":5823:5888   */\n      tag_226\n        /* \"#utility.yul\":5839:5887   */\n      tag_227\n        /* \"#utility.yul\":5880:5886   */\n      dup5\n        /* \"#utility.yul\":5839:5887   */\n      tag_124\n      jump\t// in\n    tag_227:\n        /* \"#utility.yul\":5823:5888   */\n      tag_123\n      jump\t// in\n    tag_226:\n        /* \"#utility.yul\":5814:5888   */\n      swap1\n      pop\n        /* \"#utility.yul\":5911:5917   */\n      dup3\n        /* \"#utility.yul\":5904:5909   */\n      dup2\n        /* \"#utility.yul\":5897:5918   */\n      mstore\n        /* \"#utility.yul\":5949:5953   */\n      0x20\n        /* \"#utility.yul\":5942:5947   */\n      dup2\n        /* \"#utility.yul\":5938:5954   */\n      add\n        /* \"#utility.yul\":5987:5990   */\n      dup5\n        /* \"#utility.yul\":5978:5984   */\n      dup5\n        /* \"#utility.yul\":5973:5976   */\n      dup5\n        /* \"#utility.yul\":5969:5985   */\n      add\n        /* \"#utility.yul\":5966:5991   */\n      gt\n        /* \"#utility.yul\":5963:6075   */\n      iszero\n      tag_228\n      jumpi\n        /* \"#utility.yul\":5994:6073   */\n      tag_229\n      tag_119\n      jump\t// in\n    tag_229:\n        /* \"#utility.yul\":5963:6075   */\n    tag_228:\n        /* \"#utility.yul\":6084:6138   */\n      tag_230\n        /* \"#utility.yul\":6131:6137   */\n      dup5\n        /* \"#utility.yul\":6126:6129   */\n      dup3\n        /* \"#utility.yul\":6121:6124   */\n      dup6\n        /* \"#utility.yul\":6084:6138   */\n      tag_125\n      jump\t// in\n    tag_230:\n        /* \"#utility.yul\":5804:6144   */\n      pop\n        /* \"#utility.yul\":5721:6144   */\n      swap4\n      swap3\n      pop\n      pop\n      pop\n      jump\t// out\n        /* \"#utility.yul\":6163:6501   */\n    tag_127:\n        /* \"#utility.yul\":6218:6223   */\n      0x00\n        /* \"#utility.yul\":6267:6270   */\n      dup3\n        /* \"#utility.yul\":6260:6264   */\n      0x1f\n        /* \"#utility.yul\":6252:6258   */\n      dup4\n        /* \"#utility.yul\":6248:6265   */\n      add\n        /* \"#utility.yul\":6244:6271   */\n      slt\n        /* \"#utility.yul\":6234:6356   */\n      tag_232\n      jumpi\n        /* \"#utility.yul\":6275:6354   */\n      tag_233\n      tag_118\n      jump\t// in\n    tag_233:\n        /* \"#utility.yul\":6234:6356   */\n    tag_232:\n        /* \"#utility.yul\":6392:6398   */\n      dup2\n        /* \"#utility.yul\":6379:6399   */\n      calldataload\n        /* \"#utility.yul\":6417:6495   */\n      tag_234\n        /* \"#utility.yul\":6491:6494   */\n      dup5\n        /* \"#utility.yul\":6483:6489   */\n      dup3\n        /* \"#utility.yul\":6476:6480   */\n      0x20\n        /* \"#utility.yul\":6468:6474   */\n      dup7\n        /* \"#utility.yul\":6464:6481   */\n      add\n        /* \"#utility.yul\":6417:6495   */\n      tag_126\n      jump\t// in\n    tag_234:\n        /* \"#utility.yul\":6408:6495   */\n      swap2\n      pop\n        /* \"#utility.yul\":6224:6501   */\n      pop\n        /* \"#utility.yul\":6163:6501   */\n      swap3\n      swap2\n      pop\n      pop\n      jump\t// out\n        /* \"#utility.yul\":6507:7320   */\n    tag_50:\n        /* \"#utility.yul\":6601:6607   */\n      0x00\n        /* \"#utility.yul\":6609:6615   */\n      0x00\n        /* \"#utility.yul\":6617:6623   */\n      0x00\n        /* \"#utility.yul\":6666:6668   */\n      0x60\n        /* \"#utility.yul\":6654:6663   */\n      dup5\n        /* \"#utility.yul\":6645:6652   */\n      dup7\n        /* \"#utility.yul\":6641:6664   */\n      sub\n        /* \"#utility.yul\":6637:6669   */\n      slt\n        /* \"#utility.yul\":6634:6753   */\n      iszero\n      tag_236\n      jumpi\n        /* \"#utility.yul\":6672:6751   */\n      tag_237\n      tag_101\n      jump\t// in\n    tag_237:\n        /* \"#utility.yul\":6634:6753   */\n    tag_236:\n        /* \"#utility.yul\":6792:6793   */\n      0x00\n        /* \"#utility.yul\":6817:6878   */\n      tag_238\n        /* \"#utility.yul\":6870:6877   */\n      dup7\n        /* \"#utility.yul\":6861:6867   */\n      dup3\n        /* \"#utility.yul\":6850:6859   */\n      dup8\n        /* \"#utility.yul\":6846:6868   */\n      add\n        /* \"#utility.yul\":6817:6878   */\n      tag_117\n      jump\t// in\n    tag_238:\n        /* \"#utility.yul\":6807:6878   */\n      swap4\n      pop\n        /* \"#utility.yul\":6763:6888   */\n      pop\n        /* \"#utility.yul\":6927:6929   */\n      0x20\n        /* \"#utility.yul\":6953:7006   */\n      tag_239\n        /* \"#utility.yul\":6998:7005   */\n      dup7\n        /* \"#utility.yul\":6989:6995   */\n      dup3\n        /* \"#utility.yul\":6978:6987   */\n      dup8\n        /* \"#utility.yul\":6974:6996   */\n      add\n        /* \"#utility.yul\":6953:7006   */\n      tag_113\n      jump\t// in\n    tag_239:\n        /* \"#utility.yul\":6943:7006   */\n      swap3\n      pop\n        /* \"#utility.yul\":6898:7016   */\n      pop\n        /* \"#utility.yul\":7083:7085   */\n      0x40\n        /* \"#utility.yul\":7072:7081   */\n      dup5\n        /* \"#utility.yul\":7068:7086   */\n      add\n        /* \"#utility.yul\":7055:7087   */\n      calldataload\n        /* \"#utility.yul\":7114:7132   */\n      0xffffffffffffffff\n        /* \"#utility.yul\":7106:7112   */\n      dup2\n        /* \"#utility.yul\":7103:7133   */\n      gt\n        /* \"#utility.yul\":7100:7217   */\n      iszero\n      tag_240\n      jumpi\n        /* \"#utility.yul\":7136:7215   */\n      tag_241\n      tag_102\n      jump\t// in\n    tag_241:\n        /* \"#utility.yul\":7100:7217   */\n    tag_240:\n        /* \"#utility.yul\":7241:7303   */\n      tag_242\n        /* \"#utility.yul\":7295:7302   */\n      dup7\n        /* \"#utility.yul\":7286:7292   */\n      dup3\n        /* \"#utility.yul\":7275:7284   */\n      dup8\n        /* \"#utility.yul\":7271:7293   */\n      add\n        /* \"#utility.yul\":7241:7303   */\n      tag_127\n      jump\t// in\n    tag_242:\n        /* \"#utility.yul\":7231:7303   */\n      swap2\n      pop\n        /* \"#utility.yul\":7026:7313   */\n      pop\n        /* \"#utility.yul\":6507:7320   */\n      swap3\n      pop\n      swap3\n      pop\n      swap3\n      jump\t// out\n        /* \"#utility.yul\":7326:7424   */\n    tag_128:\n        /* \"#utility.yul\":7377:7383   */\n      0x00\n        /* \"#utility.yul\":7411:7416   */\n      dup2\n        /* \"#utility.yul\":7405:7417   */\n      mload\n        /* \"#utility.yul\":7395:7417   */\n      swap1\n      pop\n        /* \"#utility.yul\":7326:7424   */\n      swap2\n      swap1\n      pop\n      jump\t// out\n        /* \"#utility.yul\":7430:7598   */\n    tag_129:\n        /* \"#utility.yul\":7513:7524   */\n      0x00\n        /* \"#utility.yul\":7547:7553   */\n      dup3\n        /* \"#utility.yul\":7542:7545   */\n      dup3\n        /* \"#utility.yul\":7535:7554   */\n      mstore\n        /* \"#utility.yul\":7587:7591   */\n      0x20\n        /* \"#utility.yul\":7582:7585   */\n      dup3\n        /* \"#utility.yul\":7578:7592   */\n      add\n        /* \"#utility.yul\":7563:7592   */\n      swap1\n      pop\n        /* \"#utility.yul\":7430:7598   */\n      swap3\n      swap2\n      pop\n      pop\n      jump\t// out\n        /* \"#utility.yul\":7604:7743   */\n    tag_130:\n        /* \"#utility.yul\":7693:7699   */\n      dup3\n        /* \"#utility.yul\":7688:7691   */\n      dup2\n        /* \"#utility.yul\":7683:7686   */\n      dup4\n        /* \"#utility.yul\":7677:7700   */\n      mcopy\n        /* \"#utility.yul\":7734:7735   */\n      0x00\n        /* \"#utility.yul\":7725:7731   */\n      dup4\n        /* \"#utility.yul\":7720:7723   */\n      dup4\n        /* \"#utility.yul\":7716:7732   */\n      add\n        /* \"#utility.yul\":7709:7736   */\n      mstore\n        /* \"#utility.yul\":7604:7743   */\n      pop\n      pop\n      pop\n      jump\t// out\n        /* \"#utility.yul\":7749:8122   */\n    tag_131:\n        /* \"#utility.yul\":7835:7838   */\n      0x00\n        /* \"#utility.yul\":7863:7901   */\n      tag_247\n        /* \"#utility.yul\":7895:7900   */\n      dup3\n        /* \"#utility.yul\":7863:7901   */\n      tag_128\n      jump\t// in\n    tag_247:\n        /* \"#utility.yul\":7917:7987   */\n      tag_248\n        /* \"#utility.yul\":7980:7986   */\n      dup2\n        /* \"#utility.yul\":7975:7978   */\n      dup6\n        /* \"#utility.yul\":7917:7987   */\n      tag_129\n      jump\t// in\n    tag_248:\n        /* \"#utility.yul\":7910:7987   */\n      swap4\n      pop\n        /* \"#utility.yul\":7996:8061   */\n      tag_249\n        /* \"#utility.yul\":8054:8060   */\n      dup2\n        /* \"#utility.yul\":8049:8052   */\n      dup6\n        /* \"#utility.yul\":8042:8046   */\n      0x20\n        /* \"#utility.yul\":8035:8040   */\n      dup7\n        /* \"#utility.yul\":8031:8047   */\n      add\n        /* \"#utility.yul\":7996:8061   */\n      tag_130\n      jump\t// in\n    tag_249:\n        /* \"#utility.yul\":8086:8115   */\n      tag_250\n        /* \"#utility.yul\":8108:8114   */\n      dup2\n        /* \"#utility.yul\":8086:8115   */\n      tag_120\n      jump\t// in\n    tag_250:\n        /* \"#utility.yul\":8081:8084   */\n      dup5\n        /* \"#utility.yul\":8077:8116   */\n      add\n        /* \"#utility.yul\":8070:8116   */\n      swap2\n      pop\n        /* \"#utility.yul\":7839:8122   */\n      pop\n        /* \"#utility.yul\":7749:8122   */\n      swap3\n      swap2\n      pop\n      pop\n      jump\t// out\n        /* \"#utility.yul\":8128:8437   */\n    tag_53:\n        /* \"#utility.yul\":8239:8243   */\n      0x00\n        /* \"#utility.yul\":8277:8279   */\n      0x20\n        /* \"#utility.yul\":8266:8275   */\n      dup3\n        /* \"#utility.yul\":8262:8280   */\n      add\n        /* \"#utility.yul\":8254:8280   */\n      swap1\n      pop\n        /* \"#utility.yul\":8326:8335   */\n      dup2\n        /* \"#utility.yul\":8320:8324   */\n      dup2\n        /* \"#utility.yul\":8316:8336   */\n      sub\n        /* \"#utility.yul\":8312:8313   */\n      0x00\n        /* \"#utility.yul\":8301:8310   */\n      dup4\n        /* \"#utility.yul\":8297:8314   */\n      add\n        /* \"#utility.yul\":8290:8337   */\n      mstore\n        /* \"#utility.yul\":8354:8430   */\n      tag_252\n        /* \"#utility.yul\":8425:8429   */\n      dup2\n        /* \"#utility.yul\":8416:8422   */\n      dup5\n        /* \"#utility.yul\":8354:8430   */\n      tag_131\n      jump\t// in\n    tag_252:\n        /* \"#utility.yul\":8346:8430   */\n      swap1\n      pop\n        /* \"#utility.yul\":8128:8437   */\n      swap3\n      swap2\n      pop\n      pop\n      jump\t// out\n        /* \"#utility.yul\":8443:8612   */\n    tag_132:\n        /* \"#utility.yul\":8527:8538   */\n      0x00\n        /* \"#utility.yul\":8561:8567   */\n      dup3\n        /* \"#utility.yul\":8556:8559   */\n      dup3\n        /* \"#utility.yul\":8549:8568   */\n      mstore\n        /* \"#utility.yul\":8601:8605   */\n      0x20\n        /* \"#utility.yul\":8596:8599   */\n      dup3\n        /* \"#utility.yul\":8592:8606   */\n      add\n        /* \"#utility.yul\":8577:8606   */\n      swap1\n      pop\n        /* \"#utility.yul\":8443:8612   */\n      swap3\n      swap2\n      pop\n      pop\n      jump\t// out\n        /* \"#utility.yul\":8618:8800   */\n    tag_133:\n        /* \"#utility.yul\":8758:8792   */\n      0x596f7520617265206e6f7420746865206f776e65722c2061626f7274696e6721\n        /* \"#utility.yul\":8754:8755   */\n      0x00\n        /* \"#utility.yul\":8746:8752   */\n      dup3\n        /* \"#utility.yul\":8742:8756   */\n      add\n        /* \"#utility.yul\":8735:8793   */\n      mstore\n        /* \"#utility.yul\":8618:8800   */\n      pop\n      jump\t// out\n        /* \"#utility.yul\":8806:9172   */\n    tag_134:\n        /* \"#utility.yul\":8948:8951   */\n      0x00\n        /* \"#utility.yul\":8969:9036   */\n      tag_256\n        /* \"#utility.yul\":9033:9035   */\n      0x20\n        /* \"#utility.yul\":9028:9031   */\n      dup4\n        /* \"#utility.yul\":8969:9036   */\n      tag_132\n      jump\t// in\n    tag_256:\n        /* \"#utility.yul\":8962:9036   */\n      swap2\n      pop\n        /* \"#utility.yul\":9045:9138   */\n      tag_257\n        /* \"#utility.yul\":9134:9137   */\n      dup3\n        /* \"#utility.yul\":9045:9138   */\n      tag_133\n      jump\t// in\n    tag_257:\n        /* \"#utility.yul\":9163:9165   */\n      0x20\n        /* \"#utility.yul\":9158:9161   */\n      dup3\n        /* \"#utility.yul\":9154:9166   */\n      add\n        /* \"#utility.yul\":9147:9166   */\n      swap1\n      pop\n        /* \"#utility.yul\":8806:9172   */\n      swap2\n      swap1\n      pop\n      jump\t// out\n        /* \"#utility.yul\":9178:9597   */\n    tag_61:\n        /* \"#utility.yul\":9344:9348   */\n      0x00\n        /* \"#utility.yul\":9382:9384   */\n      0x20\n        /* \"#utility.yul\":9371:9380   */\n      dup3\n        /* \"#utility.yul\":9367:9385   */\n      add\n        /* \"#utility.yul\":9359:9385   */\n      swap1\n      pop\n        /* \"#utility.yul\":9431:9440   */\n      dup2\n        /* \"#utility.yul\":9425:9429   */\n      dup2\n        /* \"#utility.yul\":9421:9441   */\n      sub\n        /* \"#utility.yul\":9417:9418   */\n      0x00\n        /* \"#utility.yul\":9406:9415   */\n      dup4\n        /* \"#utility.yul\":9402:9419   */\n      add\n        /* \"#utility.yul\":9395:9442   */\n      mstore\n        /* \"#utility.yul\":9459:9590   */\n      tag_259\n        /* \"#utility.yul\":9585:9589   */\n      dup2\n        /* \"#utility.yul\":9459:9590   */\n      tag_134\n      jump\t// in\n    tag_259:\n        /* \"#utility.yul\":9451:9590   */\n      swap1\n      pop\n        /* \"#utility.yul\":9178:9597   */\n      swap2\n      swap1\n      pop\n      jump\t// out\n        /* \"#utility.yul\":9603:9823   */\n    tag_135:\n        /* \"#utility.yul\":9743:9777   */\n      0x596f7520617265206e6f7420746865206f776e65722c2061626f7274696e6720\n        /* \"#utility.yul\":9739:9740   */\n      0x00\n        /* \"#utility.yul\":9731:9737   */\n      dup3\n        /* \"#utility.yul\":9727:9741   */\n      add\n        /* \"#utility.yul\":9720:9778   */\n      mstore\n        /* \"#utility.yul\":9812:9815   */\n      0x2100000000000000000000000000000000000000000000000000000000000000\n        /* \"#utility.yul\":9807:9809   */\n      0x20\n        /* \"#utility.yul\":9799:9805   */\n      dup3\n        /* \"#utility.yul\":9795:9810   */\n      add\n        /* \"#utility.yul\":9788:9816   */\n      mstore\n        /* \"#utility.yul\":9603:9823   */\n      pop\n      jump\t// out\n        /* \"#utility.yul\":9829:10195   */\n    tag_136:\n        /* \"#utility.yul\":9971:9974   */\n      0x00\n        /* \"#utility.yul\":9992:10059   */\n      tag_262\n        /* \"#utility.yul\":10056:10058   */\n      0x21\n        /* \"#utility.yul\":10051:10054   */\n      dup4\n        /* \"#utility.yul\":9992:10059   */\n      tag_132\n      jump\t// in\n    tag_262:\n        /* \"#utility.yul\":9985:10059   */\n      swap2\n      pop\n        /* \"#utility.yul\":10068:10161   */\n      tag_263\n        /* \"#utility.yul\":10157:10160   */\n      dup3\n        /* \"#utility.yul\":10068:10161   */\n      tag_135\n      jump\t// in\n    tag_263:\n        /* \"#utility.yul\":10186:10188   */\n      0x40\n        /* \"#utility.yul\":10181:10184   */\n      dup3\n        /* \"#utility.yul\":10177:10189   */\n      add\n        /* \"#utility.yul\":10170:10189   */\n      swap1\n      pop\n        /* \"#utility.yul\":9829:10195   */\n      swap2\n      swap1\n      pop\n      jump\t// out\n        /* \"#utility.yul\":10201:10620   */\n    tag_65:\n        /* \"#utility.yul\":10367:10371   */\n      0x00\n        /* \"#utility.yul\":10405:10407   */\n      0x20\n        /* \"#utility.yul\":10394:10403   */\n      dup3\n        /* \"#utility.yul\":10390:10408   */\n      add\n        /* \"#utility.yul\":10382:10408   */\n      swap1\n      pop\n        /* \"#utility.yul\":10454:10463   */\n      dup2\n        /* \"#utility.yul\":10448:10452   */\n      dup2\n        /* \"#utility.yul\":10444:10464   */\n      sub\n        /* \"#utility.yul\":10440:10441   */\n      0x00\n        /* \"#utility.yul\":10429:10438   */\n      dup4\n        /* \"#utility.yul\":10425:10442   */\n      add\n        /* \"#utility.yul\":10418:10465   */\n      mstore\n        /* \"#utility.yul\":10482:10613   */\n      tag_265\n        /* \"#utility.yul\":10608:10612   */\n      dup2\n        /* \"#utility.yul\":10482:10613   */\n      tag_136\n      jump\t// in\n    tag_265:\n        /* \"#utility.yul\":10474:10613   */\n      swap1\n      pop\n        /* \"#utility.yul\":10201:10620   */\n      swap2\n      swap1\n      pop\n      jump\t// out\n        /* \"#utility.yul\":10626:10859   */\n    tag_137:\n        /* \"#utility.yul\":10766:10800   */\n      0x596f7520617265206e6f7420677561726469616e206f6620746869732077616c\n        /* \"#utility.yul\":10762:10763   */\n      0x00\n        /* \"#utility.yul\":10754:10760   */\n      dup3\n        /* \"#utility.yul\":10750:10764   */\n      add\n        /* \"#utility.yul\":10743:10801   */\n      mstore\n        /* \"#utility.yul\":10835:10851   */\n      0x6c65742c2061626f7274696e6721000000000000000000000000000000000000\n        /* \"#utility.yul\":10830:10832   */\n      0x20\n        /* \"#utility.yul\":10822:10828   */\n      dup3\n        /* \"#utility.yul\":10818:10833   */\n      add\n        /* \"#utility.yul\":10811:10852   */\n      mstore\n        /* \"#utility.yul\":10626:10859   */\n      pop\n      jump\t// out\n        /* \"#utility.yul\":10865:11231   */\n    tag_138:\n        /* \"#utility.yul\":11007:11010   */\n      0x00\n        /* \"#utility.yul\":11028:11095   */\n      tag_268\n        /* \"#utility.yul\":11092:11094   */\n      0x2e\n        /* \"#utility.yul\":11087:11090   */\n      dup4\n        /* \"#utility.yul\":11028:11095   */\n      tag_132\n      jump\t// in\n    tag_268:\n        /* \"#utility.yul\":11021:11095   */\n      swap2\n      pop\n        /* \"#utility.yul\":11104:11197   */\n      tag_269\n        /* \"#utility.yul\":11193:11196   */\n      dup3\n        /* \"#utility.yul\":11104:11197   */\n      tag_137\n      jump\t// in\n    tag_269:\n        /* \"#utility.yul\":11222:11224   */\n      0x40\n        /* \"#utility.yul\":11217:11220   */\n      dup3\n        /* \"#utility.yul\":11213:11225   */\n      add\n        /* \"#utility.yul\":11206:11225   */\n      swap1\n      pop\n        /* \"#utility.yul\":10865:11231   */\n      swap2\n      swap1\n      pop\n      jump\t// out\n        /* \"#utility.yul\":11237:11656   */\n    tag_71:\n        /* \"#utility.yul\":11403:11407   */\n      0x00\n        /* \"#utility.yul\":11441:11443   */\n      0x20\n        /* \"#utility.yul\":11430:11439   */\n      dup3\n        /* \"#utility.yul\":11426:11444   */\n      add\n        /* \"#utility.yul\":11418:11444   */\n      swap1\n      pop\n        /* \"#utility.yul\":11490:11499   */\n      dup2\n        /* \"#utility.yul\":11484:11488   */\n      dup2\n        /* \"#utility.yul\":11480:11500   */\n      sub\n        /* \"#utility.yul\":11476:11477   */\n      0x00\n        /* \"#utility.yul\":11465:11474   */\n      dup4\n        /* \"#utility.yul\":11461:11478   */\n      add\n        /* \"#utility.yul\":11454:11501   */\n      mstore\n        /* \"#utility.yul\":11518:11649   */\n      tag_271\n        /* \"#utility.yul\":11644:11648   */\n      dup2\n        /* \"#utility.yul\":11518:11649   */\n      tag_138\n      jump\t// in\n    tag_271:\n        /* \"#utility.yul\":11510:11649   */\n      swap1\n      pop\n        /* \"#utility.yul\":11237:11656   */\n      swap2\n      swap1\n      pop\n      jump\t// out\n        /* \"#utility.yul\":11662:11823   */\n    tag_139:\n        /* \"#utility.yul\":11802:11815   */\n      0x596f7520616c7265616479000000000000000000000000000000000000000000\n        /* \"#utility.yul\":11798:11799   */\n      0x00\n        /* \"#utility.yul\":11790:11796   */\n      dup3\n        /* \"#utility.yul\":11786:11800   */\n      add\n        /* \"#utility.yul\":11779:11816   */\n      mstore\n        /* \"#utility.yul\":11662:11823   */\n      pop\n      jump\t// out\n        /* \"#utility.yul\":11829:12195   */\n    tag_140:\n        /* \"#utility.yul\":11971:11974   */\n      0x00\n        /* \"#utility.yul\":11992:12059   */\n      tag_274\n        /* \"#utility.yul\":12056:12058   */\n      0x0b\n        /* \"#utility.yul\":12051:12054   */\n      dup4\n        /* \"#utility.yul\":11992:12059   */\n      tag_132\n      jump\t// in\n    tag_274:\n        /* \"#utility.yul\":11985:12059   */\n      swap2\n      pop\n        /* \"#utility.yul\":12068:12161   */\n      tag_275\n        /* \"#utility.yul\":12157:12160   */\n      dup3\n        /* \"#utility.yul\":12068:12161   */\n      tag_139\n      jump\t// in\n    tag_275:\n        /* \"#utility.yul\":12186:12188   */\n      0x20\n        /* \"#utility.yul\":12181:12184   */\n      dup3\n        /* \"#utility.yul\":12177:12189   */\n      add\n        /* \"#utility.yul\":12170:12189   */\n      swap1\n      pop\n        /* \"#utility.yul\":11829:12195   */\n      swap2\n      swap1\n      pop\n      jump\t// out\n        /* \"#utility.yul\":12201:12620   */\n    tag_74:\n        /* \"#utility.yul\":12367:12371   */\n      0x00\n        /* \"#utility.yul\":12405:12407   */\n      0x20\n        /* \"#utility.yul\":12394:12403   */\n      dup3\n        /* \"#utility.yul\":12390:12408   */\n      add\n        /* \"#utility.yul\":12382:12408   */\n      swap1\n      pop\n        /* \"#utility.yul\":12454:12463   */\n      dup2\n        /* \"#utility.yul\":12448:12452   */\n      dup2\n        /* \"#utility.yul\":12444:12464   */\n      sub\n        /* \"#utility.yul\":12440:12441   */\n      0x00\n        /* \"#utility.yul\":12429:12438   */\n      dup4\n        /* \"#utility.yul\":12425:12442   */\n      add\n        /* \"#utility.yul\":12418:12465   */\n      mstore\n        /* \"#utility.yul\":12482:12613   */\n      tag_277\n        /* \"#utility.yul\":12608:12612   */\n      dup2\n        /* \"#utility.yul\":12482:12613   */\n      tag_140\n      jump\t// in\n    tag_277:\n        /* \"#utility.yul\":12474:12613   */\n      swap1\n      pop\n        /* \"#utility.yul\":12201:12620   */\n      swap2\n      swap1\n      pop\n      jump\t// out\n        /* \"#utility.yul\":12626:12806   */\n    tag_141:\n        /* \"#utility.yul\":12674:12751   */\n      0x4e487b7100000000000000000000000000000000000000000000000000000000\n        /* \"#utility.yul\":12671:12672   */\n      0x00\n        /* \"#utility.yul\":12664:12752   */\n      mstore\n        /* \"#utility.yul\":12771:12775   */\n      0x11\n        /* \"#utility.yul\":12768:12769   */\n      0x04\n        /* \"#utility.yul\":12761:12776   */\n      mstore\n        /* \"#utility.yul\":12795:12799   */\n      0x24\n        /* \"#utility.yul\":12792:12793   */\n      0x00\n        /* \"#utility.yul\":12785:12800   */\n      revert\n        /* \"#utility.yul\":12812:13045   */\n    tag_77:\n        /* \"#utility.yul\":12851:12854   */\n      0x00\n        /* \"#utility.yul\":12874:12898   */\n      tag_280\n        /* \"#utility.yul\":12892:12897   */\n      dup3\n        /* \"#utility.yul\":12874:12898   */\n      tag_111\n      jump\t// in\n    tag_280:\n        /* \"#utility.yul\":12865:12898   */\n      swap2\n      pop\n        /* \"#utility.yul\":12920:12986   */\n      0xffffffffffffffffffffffffffffffffffffffffffffffffffffffffffffffff\n        /* \"#utility.yul\":12913:12918   */\n      dup3\n        /* \"#utility.yul\":12910:12987   */\n      sub\n        /* \"#utility.yul\":12907:13010   */\n      tag_281\n      jumpi\n        /* \"#utility.yul\":12990:13008   */\n      tag_282\n      tag_141\n      jump\t// in\n    tag_282:\n        /* \"#utility.yul\":12907:13010   */\n    tag_281:\n        /* \"#utility.yul\":13037:13038   */\n      0x01\n        /* \"#utility.yul\":13030:13035   */\n      dup3\n        /* \"#utility.yul\":13026:13039   */\n      add\n        /* \"#utility.yul\":13019:13039   */\n      swap1\n      pop\n        /* \"#utility.yul\":12812:13045   */\n      swap2\n      swap1\n      pop\n      jump\t// out\n        /* \"#utility.yul\":13051:13233   */\n    tag_142:\n        /* \"#utility.yul\":13191:13225   */\n      0x796f7520617265206e6f7420746865206f776e65722c2061626f7274696e6721\n        /* \"#utility.yul\":13187:13188   */\n      0x00\n        /* \"#utility.yul\":13179:13185   */\n      dup3\n        /* \"#utility.yul\":13175:13189   */\n      add\n        /* \"#utility.yul\":13168:13226   */\n      mstore\n        /* \"#utility.yul\":13051:13233   */\n      pop\n      jump\t// out\n        /* \"#utility.yul\":13239:13605   */\n    tag_143:\n        /* \"#utility.yul\":13381:13384   */\n      0x00\n        /* \"#utility.yul\":13402:13469   */\n      tag_285\n        /* \"#utility.yul\":13466:13468   */\n      0x20\n        /* \"#utility.yul\":13461:13464   */\n      dup4\n        /* \"#utility.yul\":13402:13469   */\n      tag_132\n      jump\t// in\n    tag_285:\n        /* \"#utility.yul\":13395:13469   */\n      swap2\n      pop\n        /* \"#utility.yul\":13478:13571   */\n      tag_286\n        /* \"#utility.yul\":13567:13570   */\n      dup3\n        /* \"#utility.yul\":13478:13571   */\n      tag_142\n      jump\t// in\n    tag_286:\n        /* \"#utility.yul\":13596:13598   */\n      0x20\n        /* \"#utility.yul\":13591:13594   */\n      dup3\n        /* \"#utility.yul\":13587:13599   */\n      add\n        /* \"#utility.yul\":13580:13599   */\n      swap1\n      pop\n        /* \"#utility.yul\":13239:13605   */\n      swap2\n      swap1\n      pop\n      jump\t// out\n        /* \"#utility.yul\":13611:14030   */\n    tag_82:\n        /* \"#utility.yul\":13777:13781   */\n      0x00\n        /* \"#utility.yul\":13815:13817   */\n      0x20\n        /* \"#utility.yul\":13804:13813   */\n      dup3\n        /* \"#utility.yul\":13800:13818   */\n      add\n        /* \"#utility.yul\":13792:13818   */\n      swap1\n      pop\n        /* \"#utility.yul\":13864:13873   */\n      dup2\n        /* \"#utility.yul\":13858:13862   */\n      dup2\n        /* \"#utility.yul\":13854:13874   */\n      sub\n        /* \"#utility.yul\":13850:13851   */\n      0x00\n        /* \"#utility.yul\":13839:13848   */\n      dup4\n        /* \"#utility.yul\":13835:13852   */\n      add\n        /* \"#utility.yul\":13828:13875   */\n      mstore\n        /* \"#utility.yul\":13892:14023   */\n      tag_288\n        /* \"#utility.yul\":14018:14022   */\n      dup2\n        /* \"#utility.yul\":13892:14023   */\n      tag_143\n      jump\t// in\n    tag_288:\n        /* \"#utility.yul\":13884:14023   */\n      swap1\n      pop\n        /* \"#utility.yul\":13611:14030   */\n      swap2\n      swap1\n      pop\n      jump\t// out\n        /* \"#utility.yul\":14036:14332   */\n    tag_144:\n        /* \"#utility.yul\":14176:14210   */\n      0x596f7520617265206e6f7420616c6c6f77656420746f2073656e6420616e7974\n        /* \"#utility.yul\":14172:14173   */\n      0x00\n        /* \"#utility.yul\":14164:14170   */\n      dup3\n        /* \"#utility.yul\":14160:14174   */\n      add\n        /* \"#utility.yul\":14153:14211   */\n      mstore\n        /* \"#utility.yul\":14245:14279   */\n      0x68696e672066726f6d207468697320736d61727420636f6e74726163742c2061\n        /* \"#utility.yul\":14240:14242   */\n      0x20\n        /* \"#utility.yul\":14232:14238   */\n      dup3\n        /* \"#utility.yul\":14228:14243   */\n      add\n        /* \"#utility.yul\":14221:14280   */\n      mstore\n        /* \"#utility.yul\":14314:14324   */\n      0x626f7274696e6721000000000000000000000000000000000000000000000000\n        /* \"#utility.yul\":14309:14311   */\n      0x40\n        /* \"#utility.yul\":14301:14307   */\n      dup3\n        /* \"#utility.yul\":14297:14312   */\n      add\n        /* \"#utility.yul\":14290:14325   */\n      mstore\n        /* \"#utility.yul\":14036:14332   */\n      pop\n      jump\t// out\n        /* \"#utility.yul\":14338:14704   */\n    tag_145:\n        /* \"#utility.yul\":14480:14483   */\n      0x00\n        /* \"#utility.yul\":14501:14568   */\n      tag_291\n        /* \"#utility.yul\":14565:14567   */\n      0x48\n        /* \"#utility.yul\":14560:14563   */\n      dup4\n        /* \"#utility.yul\":14501:14568   */\n      tag_132\n      jump\t// in\n    tag_291:\n        /* \"#utility.yul\":14494:14568   */\n      swap2\n      pop\n        /* \"#utility.yul\":14577:14670   */\n      tag_292\n        /* \"#utility.yul\":14666:14669   */\n      dup3\n        /* \"#utility.yul\":14577:14670   */\n      tag_144\n      jump\t// in\n    tag_292:\n        /* \"#utility.yul\":14695:14697   */\n      0x60\n        /* \"#utility.yul\":14690:14693   */\n      dup3\n        /* \"#utility.yul\":14686:14698   */\n      add\n        /* \"#utility.yul\":14679:14698   */\n      swap1\n      pop\n        /* \"#utility.yul\":14338:14704   */\n      swap2\n      swap1\n      pop\n      jump\t// out\n        /* \"#utility.yul\":14710:15129   */\n    tag_86:\n        /* \"#utility.yul\":14876:14880   */\n      0x00\n        /* \"#utility.yul\":14914:14916   */\n      0x20\n        /* \"#utility.yul\":14903:14912   */\n      dup3\n        /* \"#utility.yul\":14899:14917   */\n      add\n        /* \"#utility.yul\":14891:14917   */\n      swap1\n      pop\n        /* \"#utility.yul\":14963:14972   */\n      dup2\n        /* \"#utility.yul\":14957:14961   */\n      dup2\n        /* \"#utility.yul\":14953:14973   */\n      sub\n        /* \"#utility.yul\":14949:14950   */\n      0x00\n        /* \"#utility.yul\":14938:14947   */\n      dup4\n        /* \"#utility.yul\":14934:14951   */\n      add\n        /* \"#utility.yul\":14927:14974   */\n      mstore\n        /* \"#utility.yul\":14991:15122   */\n      tag_294\n        /* \"#utility.yul\":15117:15121   */\n      dup2\n        /* \"#utility.yul\":14991:15122   */\n      tag_145\n      jump\t// in\n    tag_294:\n        /* \"#utility.yul\":14983:15122   */\n      swap1\n      pop\n        /* \"#utility.yul\":14710:15129   */\n      swap2\n      swap1\n      pop\n      jump\t// out\n        /* \"#utility.yul\":15135:15380   */\n    tag_146:\n        /* \"#utility.yul\":15275:15309   */\n      0x596f752061726520747279696e6720746f2073656e64206d6f7265207468616e\n        /* \"#utility.yul\":15271:15272   */\n      0x00\n        /* \"#utility.yul\":15263:15269   */\n      dup3\n        /* \"#utility.yul\":15259:15273   */\n      add\n        /* \"#utility.yul\":15252:15310   */\n      mstore\n        /* \"#utility.yul\":15344:15372   */\n      0x20796f7520616c6c6f77656420746f2c2061626f7274696e6721000000000000\n        /* \"#utility.yul\":15339:15341   */\n      0x20\n        /* \"#utility.yul\":15331:15337   */\n      dup3\n        /* \"#utility.yul\":15327:15342   */\n      add\n        /* \"#utility.yul\":15320:15373   */\n      mstore\n        /* \"#utility.yul\":15135:15380   */\n      pop\n      jump\t// out\n        /* \"#utility.yul\":15386:15752   */\n    tag_147:\n        /* \"#utility.yul\":15528:15531   */\n      0x00\n        /* \"#utility.yul\":15549:15616   */\n      tag_297\n        /* \"#utility.yul\":15613:15615   */\n      0x3a\n        /* \"#utility.yul\":15608:15611   */\n      dup4\n        /* \"#utility.yul\":15549:15616   */\n      tag_132\n      jump\t// in\n    tag_297:\n        /* \"#utility.yul\":15542:15616   */\n      swap2\n      pop\n        /* \"#utility.yul\":15625:15718   */\n      tag_298\n        /* \"#utility.yul\":15714:15717   */\n      dup3\n        /* \"#utility.yul\":15625:15718   */\n      tag_146\n      jump\t// in\n    tag_298:\n        /* \"#utility.yul\":15743:15745   */\n      0x40\n        /* \"#utility.yul\":15738:15741   */\n      dup3\n        /* \"#utility.yul\":15734:15746   */\n      add\n        /* \"#utility.yul\":15727:15746   */\n      swap1\n      pop\n        /* \"#utility.yul\":15386:15752   */\n      swap2\n      swap1\n      pop\n      jump\t// out\n        /* \"#utility.yul\":15758:16177   */\n    tag_89:\n        /* \"#utility.yul\":15924:15928   */\n      0x00\n        /* \"#utility.yul\":15962:15964   */\n      0x20\n        /* \"#utility.yul\":15951:15960   */\n      dup3\n        /* \"#utility.yul\":15947:15965   */\n      add\n        /* \"#utility.yul\":15939:15965   */\n      swap1\n      pop\n        /* \"#utility.yul\":16011:16020   */\n      dup2\n        /* \"#utility.yul\":16005:16009   */\n      dup2\n        /* \"#utility.yul\":16001:16021   */\n      sub\n        /* \"#utility.yul\":15997:15998   */\n      0x00\n        /* \"#utility.yul\":15986:15995   */\n      dup4\n        /* \"#utility.yul\":15982:15999   */\n      add\n        /* \"#utility.yul\":15975:16022   */\n      mstore\n        /* \"#utility.yul\":16039:16170   */\n      tag_300\n        /* \"#utility.yul\":16165:16169   */\n      dup2\n        /* \"#utility.yul\":16039:16170   */\n      tag_147\n      jump\t// in\n    tag_300:\n        /* \"#utility.yul\":16031:16170   */\n      swap1\n      pop\n        /* \"#utility.yul\":15758:16177   */\n      swap2\n      swap1\n      pop\n      jump\t// out\n        /* \"#utility.yul\":16183:16377   */\n    tag_91:\n        /* \"#utility.yul\":16223:16227   */\n      0x00\n        /* \"#utility.yul\":16243:16263   */\n      tag_302\n        /* \"#utility.yul\":16261:16262   */\n      dup3\n        /* \"#utility.yul\":16243:16263   */\n      tag_111\n      jump\t// in\n    tag_302:\n        /* \"#utility.yul\":16238:16263   */\n      swap2\n      pop\n        /* \"#utility.yul\":16277:16297   */\n      tag_303\n        /* \"#utility.yul\":16295:16296   */\n      dup4\n        /* \"#utility.yul\":16277:16297   */\n      tag_111\n      jump\t// in\n    tag_303:\n        /* \"#utility.yul\":16272:16297   */\n      swap3\n      pop\n        /* \"#utility.yul\":16321:16322   */\n      dup3\n        /* \"#utility.yul\":16318:16319   */\n      dup3\n        /* \"#utility.yul\":16314:16323   */\n      sub\n        /* \"#utility.yul\":16306:16323   */\n      swap1\n      pop\n        /* \"#utility.yul\":16345:16346   */\n      dup2\n        /* \"#utility.yul\":16339:16343   */\n      dup2\n        /* \"#utility.yul\":16336:16347   */\n      gt\n        /* \"#utility.yul\":16333:16370   */\n      iszero\n      tag_304\n      jumpi\n        /* \"#utility.yul\":16350:16368   */\n      tag_305\n      tag_141\n      jump\t// in\n    tag_305:\n        /* \"#utility.yul\":16333:16370   */\n    tag_304:\n        /* \"#utility.yul\":16183:16377   */\n      swap3\n      swap2\n      pop\n      pop\n      jump\t// out\n        /* \"#utility.yul\":16383:16530   */\n    tag_148:\n        /* \"#utility.yul\":16484:16495   */\n      0x00\n        /* \"#utility.yul\":16521:16524   */\n      dup2\n        /* \"#utility.yul\":16506:16524   */\n      swap1\n      pop\n        /* \"#utility.yul\":16383:16530   */\n      swap3\n      swap2\n      pop\n      pop\n      jump\t// out\n        /* \"#utility.yul\":16536:16922   */\n    tag_149:\n        /* \"#utility.yul\":16640:16643   */\n      0x00\n        /* \"#utility.yul\":16668:16706   */\n      tag_308\n        /* \"#utility.yul\":16700:16705   */\n      dup3\n        /* \"#utility.yul\":16668:16706   */\n      tag_128\n      jump\t// in\n    tag_308:\n        /* \"#utility.yul\":16722:16810   */\n      tag_309\n        /* \"#utility.yul\":16803:16809   */\n      dup2\n        /* \"#utility.yul\":16798:16801   */\n      dup6\n        /* \"#utility.yul\":16722:16810   */\n      tag_148\n      jump\t// in\n    tag_309:\n        /* \"#utility.yul\":16715:16810   */\n      swap4\n      pop\n        /* \"#utility.yul\":16819:16884   */\n      tag_310\n        /* \"#utility.yul\":16877:16883   */\n      dup2\n        /* \"#utility.yul\":16872:16875   */\n      dup6\n        /* \"#utility.yul\":16865:16869   */\n      0x20\n        /* \"#utility.yul\":16858:16863   */\n      dup7\n        /* \"#utility.yul\":16854:16870   */\n      add\n        /* \"#utility.yul\":16819:16884   */\n      tag_130\n      jump\t// in\n    tag_310:\n        /* \"#utility.yul\":16909:16915   */\n      dup1\n        /* \"#utility.yul\":16904:16907   */\n      dup5\n        /* \"#utility.yul\":16900:16916   */\n      add\n        /* \"#utility.yul\":16893:16916   */\n      swap2\n      pop\n        /* \"#utility.yul\":16644:16922   */\n      pop\n        /* \"#utility.yul\":16536:16922   */\n      swap3\n      swap2\n      pop\n      pop\n      jump\t// out\n        /* \"#utility.yul\":16928:17199   */\n    tag_93:\n        /* \"#utility.yul\":17058:17061   */\n      0x00\n        /* \"#utility.yul\":17080:17173   */\n      tag_312\n        /* \"#utility.yul\":17169:17172   */\n      dup3\n        /* \"#utility.yul\":17160:17166   */\n      dup5\n        /* \"#utility.yul\":17080:17173   */\n      tag_149\n      jump\t// in\n    tag_312:\n        /* \"#utility.yul\":17073:17173   */\n      swap2\n      pop\n        /* \"#utility.yul\":17190:17193   */\n      dup2\n        /* \"#utility.yul\":17183:17193   */\n      swap1\n      pop\n        /* \"#utility.yul\":16928:17199   */\n      swap3\n      swap2\n      pop\n      pop\n      jump\t// out\n        /* \"#utility.yul\":17205:17425   */\n    tag_150:\n        /* \"#utility.yul\":17345:17379   */\n      0x41626f7274696e672c2063616c6c20776173206e6f7420737563636573736675\n        /* \"#utility.yul\":17341:17342   */\n      0x00\n        /* \"#utility.yul\":17333:17339   */\n      dup3\n        /* \"#utility.yul\":17329:17343   */\n      add\n        /* \"#utility.yul\":17322:17380   */\n      mstore\n        /* \"#utility.yul\":17414:17417   */\n      0x6c00000000000000000000000000000000000000000000000000000000000000\n        /* \"#utility.yul\":17409:17411   */\n      0x20\n        /* \"#utility.yul\":17401:17407   */\n      dup3\n        /* \"#utility.yul\":17397:17412   */\n      add\n        /* \"#utility.yul\":17390:17418   */\n      mstore\n        /* \"#utility.yul\":17205:17425   */\n      pop\n      jump\t// out\n        /* \"#utility.yul\":17431:17797   */\n    tag_151:\n        /* \"#utility.yul\":17573:17576   */\n      0x00\n        /* \"#utility.yul\":17594:17661   */\n      tag_315\n        /* \"#utility.yul\":17658:17660   */\n      0x21\n        /* \"#utility.yul\":17653:17656   */\n      dup4\n        /* \"#utility.yul\":17594:17661   */\n      tag_132\n      jump\t// in\n    tag_315:\n        /* \"#utility.yul\":17587:17661   */\n      swap2\n      pop\n        /* \"#utility.yul\":17670:17763   */\n      tag_316\n        /* \"#utility.yul\":17759:17762   */\n      dup3\n        /* \"#utility.yul\":17670:17763   */\n      tag_150\n      jump\t// in\n    tag_316:\n        /* \"#utility.yul\":17788:17790   */\n      0x40\n        /* \"#utility.yul\":17783:17786   */\n      dup3\n        /* \"#utility.yul\":17779:17791   */\n      add\n        /* \"#utility.yul\":17772:17791   */\n      swap1\n      pop\n        /* \"#utility.yul\":17431:17797   */\n      swap2\n      swap1\n      pop\n      jump\t// out\n        /* \"#utility.yul\":17803:18222   */\n    tag_99:\n        /* \"#utility.yul\":17969:17973   */\n      0x00\n        /* \"#utility.yul\":18007:18009   */\n      0x20\n        /* \"#utility.yul\":17996:18005   */\n      dup3\n        /* \"#utility.yul\":17992:18010   */\n      add\n        /* \"#utility.yul\":17984:18010   */\n      swap1\n      pop\n        /* \"#utility.yul\":18056:18065   */\n      dup2\n        /* \"#utility.yul\":18050:18054   */\n      dup2\n        /* \"#utility.yul\":18046:18066   */\n      sub\n        /* \"#utility.yul\":18042:18043   */\n      0x00\n        /* \"#utility.yul\":18031:18040   */\n      dup4\n        /* \"#utility.yul\":18027:18044   */\n      add\n        /* \"#utility.yul\":18020:18067   */\n      mstore\n        /* \"#utility.yul\":18084:18215   */\n      tag_318\n        /* \"#utility.yul\":18210:18214   */\n      dup2\n        /* \"#utility.yul\":18084:18215   */\n      tag_151\n      jump\t// in\n    tag_318:\n        /* \"#utility.yul\":18076:18215   */\n      swap1\n      pop\n        /* \"#utility.yul\":17803:18222   */\n      swap2\n      swap1\n      pop\n      jump\t// out\n\n    auxdata: 0xa26469706673582212204de3c02ca7531adb52da2975f54268c2a0f6f0f4a1367943396040049e9e176664736f6c634300081e0033\n}\n",
				"bytecode": {
					"linkReferences": {},
					"object": "6080604052348015600e575f5ffd5b50335f5f6101000a81548173ffffffffffffffffffffffffffffffffffffffff021916908373ffffffffffffffffffffffffffffffffffffffff1602179055506114458061005b5f395ff3fe60806040526004361061007e575f3560e01c80633e5beab91161004d5780633e5beab914610151578063b1f8100d1461018d578063be45fd62146101b5578063caf5b411146101f157610085565b80630633b14a146100895780630bc605ad146100c55780632b8a1c5a14610101578063310ec4a71461012957610085565b3661008557005b5f5ffd5b348015610094575f5ffd5b506100af60048036038101906100aa9190610af7565b61021b565b6040516100bc9190610b3c565b60405180910390f35b3480156100d0575f5ffd5b506100eb60048036038101906100e69190610af7565b610238565b6040516100f89190610b3c565b60405180910390f35b34801561010c575f5ffd5b5061012760048036038101906101229190610b7f565b610255565b005b348015610134575f5ffd5b5061014f600480360381019061014a9190610bf0565b61033b565b005b34801561015c575f5ffd5b5061017760048036038101906101729190610af7565b6104c6565b6040516101849190610c3d565b60405180910390f35b348015610198575f5ffd5b506101b360048036038101906101ae9190610c91565b6104db565b005b3480156101c0575f5ffd5b506101db60048036038101906101d69190610df8565b61078f565b6040516101e89190610ec4565b60405180910390f35b3480156101fc575f5ffd5b50610205610a87565b6040516102129190610c3d565b60405180910390f35b6003602052805f5260405f205f915054906101000a900460ff1681565b6002602052805f5260405f205f915054906101000a900460ff1681565b5f5f9054906101000a900473ffffffffffffffffffffffffffffffffffffffff1673ffffffffffffffffffffffffffffffffffffffff163373ffffffffffffffffffffffffffffffffffffffff16146102e3576040517f08c379a00000000000000000000000000000000000000000000000000000000081526004016102da90610f3e565b60405180910390fd5b8060035f8473ffffffffffffffffffffffffffffffffffffffff1673ffffffffffffffffffffffffffffffffffffffff1681526020019081526020015f205f6101000a81548160ff0219169083151502179055505050565b5f5f9054906101000a900473ffffffffffffffffffffffffffffffffffffffff1673ffffffffffffffffffffffffffffffffffffffff163373ffffffffffffffffffffffffffffffffffffffff16146103c9576040517f08c379a00000000000000000000000000000000000000000000000000000000081526004016103c090610fcc565b60405180910390fd5b8060015f3373ffffffffffffffffffffffffffffffffffffffff1673ffffffffffffffffffffffffffffffffffffffff1681526020019081526020015f20819055505f81111561046d57600160025f8473ffffffffffffffffffffffffffffffffffffffff1673ffffffffffffffffffffffffffffffffffffffff1681526020019081526020015f205f6101000a81548160ff0219169083151502179055506104c2565b5f60025f8473ffffffffffffffffffffffffffffffffffffffff1673ffffffffffffffffffffffffffffffffffffffff1681526020019081526020015f205f6101000a81548160ff0219169083151502179055505b5050565b6001602052805f5260405f205f915090505481565b60035f3373ffffffffffffffffffffffffffffffffffffffff1673ffffffffffffffffffffffffffffffffffffffff1681526020019081526020015f205f9054906101000a900460ff16610564576040517f08c379a000000000000000000000000000000000000000000000000000000000815260040161055b9061105a565b60405180910390fd5b5f151560055f8373ffffffffffffffffffffffffffffffffffffffff1673ffffffffffffffffffffffffffffffffffffffff1681526020019081526020015f205f3373ffffffffffffffffffffffffffffffffffffffff1673ffffffffffffffffffffffffffffffffffffffff1681526020019081526020015f205f9054906101000a900460ff1615151461062e576040517f08c379a0000000000000000000000000000000000000000000000000000000008152600401610625906110c2565b60405180910390fd5b60045f9054906101000a900473ffffffffffffffffffffffffffffffffffffffff1673ffffffffffffffffffffffffffffffffffffffff168173ffffffffffffffffffffffffffffffffffffffff16146106ca578060045f6101000a81548173ffffffffffffffffffffffffffffffffffffffff021916908373ffffffffffffffffffffffffffffffffffffffff1602179055505f6006819055505b60065f8154809291906106dc9061110d565b919050555060036006541061078c5760045f9054906101000a900473ffffffffffffffffffffffffffffffffffffffff165f5f6101000a81548173ffffffffffffffffffffffffffffffffffffffff021916908373ffffffffffffffffffffffffffffffffffffffff1602179055505f60045f6101000a81548173ffffffffffffffffffffffffffffffffffffffff021916908373ffffffffffffffffffffffffffffffffffffffff1602179055505b50565b60605f5f9054906101000a900473ffffffffffffffffffffffffffffffffffffffff1673ffffffffffffffffffffffffffffffffffffffff163373ffffffffffffffffffffffffffffffffffffffff161461081f576040517f08c379a00000000000000000000000000000000000000000000000000000000081526004016108169061119e565b60405180910390fd5b5f5f9054906101000a900473ffffffffffffffffffffffffffffffffffffffff1673ffffffffffffffffffffffffffffffffffffffff163373ffffffffffffffffffffffffffffffffffffffff16146109cf5760025f3373ffffffffffffffffffffffffffffffffffffffff1673ffffffffffffffffffffffffffffffffffffffff1681526020019081526020015f205f9054906101000a900460ff166108fb576040517f08c379a00000000000000000000000000000000000000000000000000000000081526004016108f290611252565b60405180910390fd5b8260015f3373ffffffffffffffffffffffffffffffffffffffff1673ffffffffffffffffffffffffffffffffffffffff1681526020019081526020015f2054101561097b576040517f08c379a0000000000000000000000000000000000000000000000000000000008152600401610972906112e0565b60405180910390fd5b8260015f3373ffffffffffffffffffffffffffffffffffffffff1673ffffffffffffffffffffffffffffffffffffffff1681526020019081526020015f205f8282546109c791906112fe565b925050819055505b5f5f8573ffffffffffffffffffffffffffffffffffffffff1685856040516109f7919061136b565b5f6040518083038185875af1925050503d805f8114610a31576040519150601f19603f3d011682016040523d82523d5f602084013e610a36565b606091505b509150915081610a7b576040517f08c379a0000000000000000000000000000000000000000000000000000000008152600401610a72906113f1565b60405180910390fd5b80925050509392505050565b600381565b5f604051905090565b5f5ffd5b5f5ffd5b5f73ffffffffffffffffffffffffffffffffffffffff82169050919050565b5f610ac682610a9d565b9050919050565b610ad681610abc565b8114610ae0575f5ffd5b50565b5f81359050610af181610acd565b92915050565b5f60208284031215610b0c57610b0b610a95565b5b5f610b1984828501610ae3565b91505092915050565b5f8115159050919050565b610b3681610b22565b82525050565b5f602082019050610b4f5f830184610b2d565b92915050565b610b5e81610b22565b8114610b68575f5ffd5b50565b5f81359050610b7981610b55565b92915050565b5f5f60408385031215610b9557610b94610a95565b5b5f610ba285828601610ae3565b9250506020610bb385828601610b6b565b9150509250929050565b5f819050919050565b610bcf81610bbd565b8114610bd9575f5ffd5b50565b5f81359050610bea81610bc6565b92915050565b5f5f60408385031215610c0657610c05610a95565b5b5f610c1385828601610ae3565b9250506020610c2485828601610bdc565b9150509250929050565b610c3781610bbd565b82525050565b5f602082019050610c505f830184610c2e565b92915050565b5f610c6082610a9d565b9050919050565b610c7081610c56565b8114610c7a575f5ffd5b50565b5f81359050610c8b81610c67565b92915050565b5f60208284031215610ca657610ca5610a95565b5b5f610cb384828501610c7d565b91505092915050565b5f5ffd5b5f5ffd5b5f601f19601f8301169050919050565b7f4e487b71000000000000000000000000000000000000000000000000000000005f52604160045260245ffd5b610d0a82610cc4565b810181811067ffffffffffffffff82111715610d2957610d28610cd4565b5b80604052505050565b5f610d3b610a8c565b9050610d478282610d01565b919050565b5f67ffffffffffffffff821115610d6657610d65610cd4565b5b610d6f82610cc4565b9050602081019050919050565b828183375f83830152505050565b5f610d9c610d9784610d4c565b610d32565b905082815260208101848484011115610db857610db7610cc0565b5b610dc3848285610d7c565b509392505050565b5f82601f830112610ddf57610dde610cbc565b5b8135610def848260208601610d8a565b91505092915050565b5f5f5f60608486031215610e0f57610e0e610a95565b5b5f610e1c86828701610c7d565b9350506020610e2d86828701610bdc565b925050604084013567ffffffffffffffff811115610e4e57610e4d610a99565b5b610e5a86828701610dcb565b9150509250925092565b5f81519050919050565b5f82825260208201905092915050565b8281835e5f83830152505050565b5f610e9682610e64565b610ea08185610e6e565b9350610eb0818560208601610e7e565b610eb981610cc4565b840191505092915050565b5f6020820190508181035f830152610edc8184610e8c565b905092915050565b5f82825260208201905092915050565b7f596f7520617265206e6f7420746865206f776e65722c2061626f7274696e67215f82015250565b5f610f28602083610ee4565b9150610f3382610ef4565b602082019050919050565b5f6020820190508181035f830152610f5581610f1c565b9050919050565b7f596f7520617265206e6f7420746865206f776e65722c2061626f7274696e67205f8201527f2100000000000000000000000000000000000000000000000000000000000000602082015250565b5f610fb6602183610ee4565b9150610fc182610f5c565b604082019050919050565b5f6020820190508181035f830152610fe381610faa565b9050919050565b7f596f7520617265206e6f7420677561726469616e206f6620746869732077616c5f8201527f6c65742c2061626f7274696e6721000000000000000000000000000000000000602082015250565b5f611044602e83610ee4565b915061104f82610fea565b604082019050919050565b5f6020820190508181035f83015261107181611038565b9050919050565b7f596f7520616c72656164790000000000000000000000000000000000000000005f82015250565b5f6110ac600b83610ee4565b91506110b782611078565b602082019050919050565b5f6020820190508181035f8301526110d9816110a0565b9050919050565b7f4e487b71000000000000000000000000000000000000000000000000000000005f52601160045260245ffd5b5f61111782610bbd565b91507fffffffffffffffffffffffffffffffffffffffffffffffffffffffffffffffff8203611149576111486110e0565b5b600182019050919050565b7f796f7520617265206e6f7420746865206f776e65722c2061626f7274696e67215f82015250565b5f611188602083610ee4565b915061119382611154565b602082019050919050565b5f6020820190508181035f8301526111b58161117c565b9050919050565b7f596f7520617265206e6f7420616c6c6f77656420746f2073656e6420616e79745f8201527f68696e672066726f6d207468697320736d61727420636f6e74726163742c206160208201527f626f7274696e6721000000000000000000000000000000000000000000000000604082015250565b5f61123c604883610ee4565b9150611247826111bc565b606082019050919050565b5f6020820190508181035f83015261126981611230565b9050919050565b7f596f752061726520747279696e6720746f2073656e64206d6f7265207468616e5f8201527f20796f7520616c6c6f77656420746f2c2061626f7274696e6721000000000000602082015250565b5f6112ca603a83610ee4565b91506112d582611270565b604082019050919050565b5f6020820190508181035f8301526112f7816112be565b9050919050565b5f61130882610bbd565b915061131383610bbd565b925082820390508181111561132b5761132a6110e0565b5b92915050565b5f81905092915050565b5f61134582610e64565b61134f8185611331565b935061135f818560208601610e7e565b80840191505092915050565b5f611376828461133b565b915081905092915050565b7f41626f7274696e672c2063616c6c20776173206e6f74207375636365737366755f8201527f6c00000000000000000000000000000000000000000000000000000000000000602082015250565b5f6113db602183610ee4565b91506113e682611381565b604082019050919050565b5f6020820190508181035f830152611408816113cf565b905091905056fea26469706673582212204de3c02ca7531adb52da2975f54268c2a0f6f0f4a1367943396040049e9e176664736f6c634300081e0033",
					"opcodes": "PUSH1 0x80 PUSH1 0x40 MSTORE CALLVALUE DUP1 ISZERO PUSH1 0xE JUMPI PUSH0 PUSH0 REVERT JUMPDEST POP CALLER PUSH0 PUSH0 PUSH2 0x100 EXP DUP2 SLOAD DUP2 PUSH20 0xFFFFFFFFFFFFFFFFFFFFFFFFFFFFFFFFFFFFFFFF MUL NOT AND SWAP1 DUP4 PUSH20 0xFFFFFFFFFFFFFFFFFFFFFFFFFFFFFFFFFFFFFFFF AND MUL OR SWAP1 SSTORE POP PUSH2 0x1445 DUP1 PUSH2 0x5B PUSH0 CODECOPY PUSH0 RETURN INVALID PUSH1 0x80 PUSH1 0x40 MSTORE PUSH1 0x4 CALLDATASIZE LT PUSH2 0x7E JUMPI PUSH0 CALLDATALOAD PUSH1 0xE0 SHR DUP1 PUSH4 0x3E5BEAB9 GT PUSH2 0x4D JUMPI DUP1 PUSH4 0x3E5BEAB9 EQ PUSH2 0x151 JUMPI DUP1 PUSH4 0xB1F8100D EQ PUSH2 0x18D JUMPI DUP1 PUSH4 0xBE45FD62 EQ PUSH2 0x1B5 JUMPI DUP1 PUSH4 0xCAF5B411 EQ PUSH2 0x1F1 JUMPI PUSH2 0x85 JUMP JUMPDEST DUP1 PUSH4 0x633B14A EQ PUSH2 0x89 JUMPI DUP1 PUSH4 0xBC605AD EQ PUSH2 0xC5 JUMPI DUP1 PUSH4 0x2B8A1C5A EQ PUSH2 0x101 JUMPI DUP1 PUSH4 0x310EC4A7 EQ PUSH2 0x129 JUMPI PUSH2 0x85 JUMP JUMPDEST CALLDATASIZE PUSH2 0x85 JUMPI STOP JUMPDEST PUSH0 PUSH0 REVERT JUMPDEST CALLVALUE DUP1 ISZERO PUSH2 0x94 JUMPI PUSH0 PUSH0 REVERT JUMPDEST POP PUSH2 0xAF PUSH1 0x4 DUP1 CALLDATASIZE SUB DUP2 ADD SWAP1 PUSH2 0xAA SWAP2 SWAP1 PUSH2 0xAF7 JUMP JUMPDEST PUSH2 0x21B JUMP JUMPDEST PUSH1 0x40 MLOAD PUSH2 0xBC SWAP2 SWAP1 PUSH2 0xB3C JUMP JUMPDEST PUSH1 0x40 MLOAD DUP1 SWAP2 SUB SWAP1 RETURN JUMPDEST CALLVALUE DUP1 ISZERO PUSH2 0xD0 JUMPI PUSH0 PUSH0 REVERT JUMPDEST POP PUSH2 0xEB PUSH1 0x4 DUP1 CALLDATASIZE SUB DUP2 ADD SWAP1 PUSH2 0xE6 SWAP2 SWAP1 PUSH2 0xAF7 JUMP JUMPDEST PUSH2 0x238 JUMP JUMPDEST PUSH1 0x40 MLOAD PUSH2 0xF8 SWAP2 SWAP1 PUSH2 0xB3C JUMP JUMPDEST PUSH1 0x40 MLOAD DUP1 SWAP2 SUB SWAP1 RETURN JUMPDEST CALLVALUE DUP1 ISZERO PUSH2 0x10C JUMPI PUSH0 PUSH0 REVERT JUMPDEST POP PUSH2 0x127 PUSH1 0x4 DUP1 CALLDATASIZE SUB DUP2 ADD SWAP1 PUSH2 0x122 SWAP2 SWAP1 PUSH2 0xB7F JUMP JUMPDEST PUSH2 0x255 JUMP JUMPDEST STOP JUMPDEST CALLVALUE DUP1 ISZERO PUSH2 0x134 JUMPI PUSH0 PUSH0 REVERT JUMPDEST POP PUSH2 0x14F PUSH1 0x4 DUP1 CALLDATASIZE SUB DUP2 ADD SWAP1 PUSH2 0x14A SWAP2 SWAP1 PUSH2 0xBF0 JUMP JUMPDEST PUSH2 0x33B JUMP JUMPDEST STOP JUMPDEST CALLVALUE DUP1 ISZERO PUSH2 0x15C JUMPI PUSH0 PUSH0 REVERT JUMPDEST POP PUSH2 0x177 PUSH1 0x4 DUP1 CALLDATASIZE SUB DUP2 ADD SWAP1 PUSH2 0x172 SWAP2 SWAP1 PUSH2 0xAF7 JUMP JUMPDEST PUSH2 0x4C6 JUMP JUMPDEST PUSH1 0x40 MLOAD PUSH2 0x184 SWAP2 SWAP1 PUSH2 0xC3D JUMP JUMPDEST PUSH1 0x40 MLOAD DUP1 SWAP2 SUB SWAP1 RETURN JUMPDEST CALLVALUE DUP1 ISZERO PUSH2 0x198 JUMPI PUSH0 PUSH0 REVERT JUMPDEST POP PUSH2 0x1B3 PUSH1 0x4 DUP1 CALLDATASIZE SUB DUP2 ADD SWAP1 PUSH2 0x1AE SWAP2 SWAP1 PUSH2 0xC91 JUMP JUMPDEST PUSH2 0x4DB JUMP JUMPDEST STOP JUMPDEST CALLVALUE DUP1 ISZERO PUSH2 0x1C0 JUMPI PUSH0 PUSH0 REVERT JUMPDEST POP PUSH2 0x1DB PUSH1 0x4 DUP1 CALLDATASIZE SUB DUP2 ADD SWAP1 PUSH2 0x1D6 SWAP2 SWAP1 PUSH2 0xDF8 JUMP JUMPDEST PUSH2 0x78F JUMP JUMPDEST PUSH1 0x40 MLOAD PUSH2 0x1E8 SWAP2 SWAP1 PUSH2 0xEC4 JUMP JUMPDEST PUSH1 0x40 MLOAD DUP1 SWAP2 SUB SWAP1 RETURN JUMPDEST CALLVALUE DUP1 ISZERO PUSH2 0x1FC JUMPI PUSH0 PUSH0 REVERT JUMPDEST POP PUSH2 0x205 PUSH2 0xA87 JUMP JUMPDEST PUSH1 0x40 MLOAD PUSH2 0x212 SWAP2 SWAP1 PUSH2 0xC3D JUMP JUMPDEST PUSH1 0x40 MLOAD DUP1 SWAP2 SUB SWAP1 RETURN JUMPDEST PUSH1 0x3 PUSH1 0x20 MSTORE DUP1 PUSH0 MSTORE PUSH1 0x40 PUSH0 KECCAK256 PUSH0 SWAP2 POP SLOAD SWAP1 PUSH2 0x100 EXP SWAP1 DIV PUSH1 0xFF AND DUP2 JUMP JUMPDEST PUSH1 0x2 PUSH1 0x20 MSTORE DUP1 PUSH0 MSTORE PUSH1 0x40 PUSH0 KECCAK256 PUSH0 SWAP2 POP SLOAD SWAP1 PUSH2 0x100 EXP SWAP1 DIV PUSH1 0xFF AND DUP2 JUMP JUMPDEST PUSH0 PUSH0 SWAP1 SLOAD SWAP1 PUSH2 0x100 EXP SWAP1 DIV PUSH20 0xFFFFFFFFFFFFFFFFFFFFFFFFFFFFFFFFFFFFFFFF AND PUSH20 0xFFFFFFFFFFFFFFFFFFFFFFFFFFFFFFFFFFFFFFFF AND CALLER PUSH20 0xFFFFFFFFFFFFFFFFFFFFFFFFFFFFFFFFFFFFFFFF AND EQ PUSH2 0x2E3 JUMPI PUSH1 0x40 MLOAD PUSH32 0x8C379A000000000000000000000000000000000000000000000000000000000 DUP2 MSTORE PUSH1 0x4 ADD PUSH2 0x2DA SWAP1 PUSH2 0xF3E JUMP JUMPDEST PUSH1 0x40 MLOAD DUP1 SWAP2 SUB SWAP1 REVERT JUMPDEST DUP1 PUSH1 0x3 PUSH0 DUP5 PUSH20 0xFFFFFFFFFFFFFFFFFFFFFFFFFFFFFFFFFFFFFFFF AND PUSH20 0xFFFFFFFFFFFFFFFFFFFFFFFFFFFFFFFFFFFFFFFF AND DUP2 MSTORE PUSH1 0x20 ADD SWAP1 DUP2 MSTORE PUSH1 0x20 ADD PUSH0 KECCAK256 PUSH0 PUSH2 0x100 EXP DUP2 SLOAD DUP2 PUSH1 0xFF MUL NOT AND SWAP1 DUP4 ISZERO ISZERO MUL OR SWAP1 SSTORE POP POP POP JUMP JUMPDEST PUSH0 PUSH0 SWAP1 SLOAD SWAP1 PUSH2 0x100 EXP SWAP1 DIV PUSH20 0xFFFFFFFFFFFFFFFFFFFFFFFFFFFFFFFFFFFFFFFF AND PUSH20 0xFFFFFFFFFFFFFFFFFFFFFFFFFFFFFFFFFFFFFFFF AND CALLER PUSH20 0xFFFFFFFFFFFFFFFFFFFFFFFFFFFFFFFFFFFFFFFF AND EQ PUSH2 0x3C9 JUMPI PUSH1 0x40 MLOAD PUSH32 0x8C379A000000000000000000000000000000000000000000000000000000000 DUP2 MSTORE PUSH1 0x4 ADD PUSH2 0x3C0 SWAP1 PUSH2 0xFCC JUMP JUMPDEST PUSH1 0x40 MLOAD DUP1 SWAP2 SUB SWAP1 REVERT JUMPDEST DUP1 PUSH1 0x1 PUSH0 CALLER PUSH20 0xFFFFFFFFFFFFFFFFFFFFFFFFFFFFFFFFFFFFFFFF AND PUSH20 0xFFFFFFFFFFFFFFFFFFFFFFFFFFFFFFFFFFFFFFFF AND DUP2 MSTORE PUSH1 0x20 ADD SWAP1 DUP2 MSTORE PUSH1 0x20 ADD PUSH0 KECCAK256 DUP2 SWAP1 SSTORE POP PUSH0 DUP2 GT ISZERO PUSH2 0x46D JUMPI PUSH1 0x1 PUSH1 0x2 PUSH0 DUP5 PUSH20 0xFFFFFFFFFFFFFFFFFFFFFFFFFFFFFFFFFFFFFFFF AND PUSH20 0xFFFFFFFFFFFFFFFFFFFFFFFFFFFFFFFFFFFFFFFF AND DUP2 MSTORE PUSH1 0x20 ADD SWAP1 DUP2 MSTORE PUSH1 0x20 ADD PUSH0 KECCAK256 PUSH0 PUSH2 0x100 EXP DUP2 SLOAD DUP2 PUSH1 0xFF MUL NOT AND SWAP1 DUP4 ISZERO ISZERO MUL OR SWAP1 SSTORE POP PUSH2 0x4C2 JUMP JUMPDEST PUSH0 PUSH1 0x2 PUSH0 DUP5 PUSH20 0xFFFFFFFFFFFFFFFFFFFFFFFFFFFFFFFFFFFFFFFF AND PUSH20 0xFFFFFFFFFFFFFFFFFFFFFFFFFFFFFFFFFFFFFFFF AND DUP2 MSTORE PUSH1 0x20 ADD SWAP1 DUP2 MSTORE PUSH1 0x20 ADD PUSH0 KECCAK256 PUSH0 PUSH2 0x100 EXP DUP2 SLOAD DUP2 PUSH1 0xFF MUL NOT AND SWAP1 DUP4 ISZERO ISZERO MUL OR SWAP1 SSTORE POP JUMPDEST POP POP JUMP JUMPDEST PUSH1 0x1 PUSH1 0x20 MSTORE DUP1 PUSH0 MSTORE PUSH1 0x40 PUSH0 KECCAK256 PUSH0 SWAP2 POP SWAP1 POP SLOAD DUP2 JUMP JUMPDEST PUSH1 0x3 PUSH0 CALLER PUSH20 0xFFFFFFFFFFFFFFFFFFFFFFFFFFFFFFFFFFFFFFFF AND PUSH20 0xFFFFFFFFFFFFFFFFFFFFFFFFFFFFFFFFFFFFFFFF AND DUP2 MSTORE PUSH1 0x20 ADD SWAP1 DUP2 MSTORE PUSH1 0x20 ADD PUSH0 KECCAK256 PUSH0 SWAP1 SLOAD SWAP1 PUSH2 0x100 EXP SWAP1 DIV PUSH1 0xFF AND PUSH2 0x564 JUMPI PUSH1 0x40 MLOAD PUSH32 0x8C379A000000000000000000000000000000000000000000000000000000000 DUP2 MSTORE PUSH1 0x4 ADD PUSH2 0x55B SWAP1 PUSH2 0x105A JUMP JUMPDEST PUSH1 0x40 MLOAD DUP1 SWAP2 SUB SWAP1 REVERT JUMPDEST PUSH0 ISZERO ISZERO PUSH1 0x5 PUSH0 DUP4 PUSH20 0xFFFFFFFFFFFFFFFFFFFFFFFFFFFFFFFFFFFFFFFF AND PUSH20 0xFFFFFFFFFFFFFFFFFFFFFFFFFFFFFFFFFFFFFFFF AND DUP2 MSTORE PUSH1 0x20 ADD SWAP1 DUP2 MSTORE PUSH1 0x20 ADD PUSH0 KECCAK256 PUSH0 CALLER PUSH20 0xFFFFFFFFFFFFFFFFFFFFFFFFFFFFFFFFFFFFFFFF AND PUSH20 0xFFFFFFFFFFFFFFFFFFFFFFFFFFFFFFFFFFFFFFFF AND DUP2 MSTORE PUSH1 0x20 ADD SWAP1 DUP2 MSTORE PUSH1 0x20 ADD PUSH0 KECCAK256 PUSH0 SWAP1 SLOAD SWAP1 PUSH2 0x100 EXP SWAP1 DIV PUSH1 0xFF AND ISZERO ISZERO EQ PUSH2 0x62E JUMPI PUSH1 0x40 MLOAD PUSH32 0x8C379A000000000000000000000000000000000000000000000000000000000 DUP2 MSTORE PUSH1 0x4 ADD PUSH2 0x625 SWAP1 PUSH2 0x10C2 JUMP JUMPDEST PUSH1 0x40 MLOAD DUP1 SWAP2 SUB SWAP1 REVERT JUMPDEST PUSH1 0x4 PUSH0 SWAP1 SLOAD SWAP1 PUSH2 0x100 EXP SWAP1 DIV PUSH20 0xFFFFFFFFFFFFFFFFFFFFFFFFFFFFFFFFFFFFFFFF AND PUSH20 0xFFFFFFFFFFFFFFFFFFFFFFFFFFFFFFFFFFFFFFFF AND DUP2 PUSH20 0xFFFFFFFFFFFFFFFFFFFFFFFFFFFFFFFFFFFFFFFF AND EQ PUSH2 0x6CA JUMPI DUP1 PUSH1 0x4 PUSH0 PUSH2 0x100 EXP DUP2 SLOAD DUP2 PUSH20 0xFFFFFFFFFFFFFFFFFFFFFFFFFFFFFFFFFFFFFFFF MUL NOT AND SWAP1 DUP4 PUSH20 0xFFFFFFFFFFFFFFFFFFFFFFFFFFFFFFFFFFFFFFFF AND MUL OR SWAP1 SSTORE POP PUSH0 PUSH1 0x6 DUP2 SWAP1 SSTORE POP JUMPDEST PUSH1 0x6 PUSH0 DUP2 SLOAD DUP1 SWAP3 SWAP2 SWAP1 PUSH2 0x6DC SWAP1 PUSH2 0x110D JUMP JUMPDEST SWAP2 SWAP1 POP SSTORE POP PUSH1 0x3 PUSH1 0x6 SLOAD LT PUSH2 0x78C JUMPI PUSH1 0x4 PUSH0 SWAP1 SLOAD SWAP1 PUSH2 0x100 EXP SWAP1 DIV PUSH20 0xFFFFFFFFFFFFFFFFFFFFFFFFFFFFFFFFFFFFFFFF AND PUSH0 PUSH0 PUSH2 0x100 EXP DUP2 SLOAD DUP2 PUSH20 0xFFFFFFFFFFFFFFFFFFFFFFFFFFFFFFFFFFFFFFFF MUL NOT AND SWAP1 DUP4 PUSH20 0xFFFFFFFFFFFFFFFFFFFFFFFFFFFFFFFFFFFFFFFF AND MUL OR SWAP1 SSTORE POP PUSH0 PUSH1 0x4 PUSH0 PUSH2 0x100 EXP DUP2 SLOAD DUP2 PUSH20 0xFFFFFFFFFFFFFFFFFFFFFFFFFFFFFFFFFFFFFFFF MUL NOT AND SWAP1 DUP4 PUSH20 0xFFFFFFFFFFFFFFFFFFFFFFFFFFFFFFFFFFFFFFFF AND MUL OR SWAP1 SSTORE POP JUMPDEST POP JUMP JUMPDEST PUSH1 0x60 PUSH0 PUSH0 SWAP1 SLOAD SWAP1 PUSH2 0x100 EXP SWAP1 DIV PUSH20 0xFFFFFFFFFFFFFFFFFFFFFFFFFFFFFFFFFFFFFFFF AND PUSH20 0xFFFFFFFFFFFFFFFFFFFFFFFFFFFFFFFFFFFFFFFF AND CALLER PUSH20 0xFFFFFFFFFFFFFFFFFFFFFFFFFFFFFFFFFFFFFFFF AND EQ PUSH2 0x81F JUMPI PUSH1 0x40 MLOAD PUSH32 0x8C379A000000000000000000000000000000000000000000000000000000000 DUP2 MSTORE PUSH1 0x4 ADD PUSH2 0x816 SWAP1 PUSH2 0x119E JUMP JUMPDEST PUSH1 0x40 MLOAD DUP1 SWAP2 SUB SWAP1 REVERT JUMPDEST PUSH0 PUSH0 SWAP1 SLOAD SWAP1 PUSH2 0x100 EXP SWAP1 DIV PUSH20 0xFFFFFFFFFFFFFFFFFFFFFFFFFFFFFFFFFFFFFFFF AND PUSH20 0xFFFFFFFFFFFFFFFFFFFFFFFFFFFFFFFFFFFFFFFF AND CALLER PUSH20 0xFFFFFFFFFFFFFFFFFFFFFFFFFFFFFFFFFFFFFFFF AND EQ PUSH2 0x9CF JUMPI PUSH1 0x2 PUSH0 CALLER PUSH20 0xFFFFFFFFFFFFFFFFFFFFFFFFFFFFFFFFFFFFFFFF AND PUSH20 0xFFFFFFFFFFFFFFFFFFFFFFFFFFFFFFFFFFFFFFFF AND DUP2 MSTORE PUSH1 0x20 ADD SWAP1 DUP2 MSTORE PUSH1 0x20 ADD PUSH0 KECCAK256 PUSH0 SWAP1 SLOAD SWAP1 PUSH2 0x100 EXP SWAP1 DIV PUSH1 0xFF AND PUSH2 0x8FB JUMPI PUSH1 0x40 MLOAD PUSH32 0x8C379A000000000000000000000000000000000000000000000000000000000 DUP2 MSTORE PUSH1 0x4 ADD PUSH2 0x8F2 SWAP1 PUSH2 0x1252 JUMP JUMPDEST PUSH1 0x40 MLOAD DUP1 SWAP2 SUB SWAP1 REVERT JUMPDEST DUP3 PUSH1 0x1 PUSH0 CALLER PUSH20 0xFFFFFFFFFFFFFFFFFFFFFFFFFFFFFFFFFFFFFFFF AND PUSH20 0xFFFFFFFFFFFFFFFFFFFFFFFFFFFFFFFFFFFFFFFF AND DUP2 MSTORE PUSH1 0x20 ADD SWAP1 DUP2 MSTORE PUSH1 0x20 ADD PUSH0 KECCAK256 SLOAD LT ISZERO PUSH2 0x97B JUMPI PUSH1 0x40 MLOAD PUSH32 0x8C379A000000000000000000000000000000000000000000000000000000000 DUP2 MSTORE PUSH1 0x4 ADD PUSH2 0x972 SWAP1 PUSH2 0x12E0 JUMP JUMPDEST PUSH1 0x40 MLOAD DUP1 SWAP2 SUB SWAP1 REVERT JUMPDEST DUP3 PUSH1 0x1 PUSH0 CALLER PUSH20 0xFFFFFFFFFFFFFFFFFFFFFFFFFFFFFFFFFFFFFFFF AND PUSH20 0xFFFFFFFFFFFFFFFFFFFFFFFFFFFFFFFFFFFFFFFF AND DUP2 MSTORE PUSH1 0x20 ADD SWAP1 DUP2 MSTORE PUSH1 0x20 ADD PUSH0 KECCAK256 PUSH0 DUP3 DUP3 SLOAD PUSH2 0x9C7 SWAP2 SWAP1 PUSH2 0x12FE JUMP JUMPDEST SWAP3 POP POP DUP2 SWAP1 SSTORE POP JUMPDEST PUSH0 PUSH0 DUP6 PUSH20 0xFFFFFFFFFFFFFFFFFFFFFFFFFFFFFFFFFFFFFFFF AND DUP6 DUP6 PUSH1 0x40 MLOAD PUSH2 0x9F7 SWAP2 SWAP1 PUSH2 0x136B JUMP JUMPDEST PUSH0 PUSH1 0x40 MLOAD DUP1 DUP4 SUB DUP2 DUP6 DUP8 GAS CALL SWAP3 POP POP POP RETURNDATASIZE DUP1 PUSH0 DUP2 EQ PUSH2 0xA31 JUMPI PUSH1 0x40 MLOAD SWAP2 POP PUSH1 0x1F NOT PUSH1 0x3F RETURNDATASIZE ADD AND DUP3 ADD PUSH1 0x40 MSTORE RETURNDATASIZE DUP3 MSTORE RETURNDATASIZE PUSH0 PUSH1 0x20 DUP5 ADD RETURNDATACOPY PUSH2 0xA36 JUMP JUMPDEST PUSH1 0x60 SWAP2 POP JUMPDEST POP SWAP2 POP SWAP2 POP DUP2 PUSH2 0xA7B JUMPI PUSH1 0x40 MLOAD PUSH32 0x8C379A000000000000000000000000000000000000000000000000000000000 DUP2 MSTORE PUSH1 0x4 ADD PUSH2 0xA72 SWAP1 PUSH2 0x13F1 JUMP JUMPDEST PUSH1 0x40 MLOAD DUP1 SWAP2 SUB SWAP1 REVERT JUMPDEST DUP1 SWAP3 POP POP POP SWAP4 SWAP3 POP POP POP JUMP JUMPDEST PUSH1 0x3 DUP2 JUMP JUMPDEST PUSH0 PUSH1 0x40 MLOAD SWAP1 POP SWAP1 JUMP JUMPDEST PUSH0 PUSH0 REVERT JUMPDEST PUSH0 PUSH0 REVERT JUMPDEST PUSH0 PUSH20 0xFFFFFFFFFFFFFFFFFFFFFFFFFFFFFFFFFFFFFFFF DUP3 AND SWAP1 POP SWAP2 SWAP1 POP JUMP JUMPDEST PUSH0 PUSH2 0xAC6 DUP3 PUSH2 0xA9D JUMP JUMPDEST SWAP1 POP SWAP2 SWAP1 POP JUMP JUMPDEST PUSH2 0xAD6 DUP2 PUSH2 0xABC JUMP JUMPDEST DUP2 EQ PUSH2 0xAE0 JUMPI PUSH0 PUSH0 REVERT JUMPDEST POP JUMP JUMPDEST PUSH0 DUP2 CALLDATALOAD SWAP1 POP PUSH2 0xAF1 DUP2 PUSH2 0xACD JUMP JUMPDEST SWAP3 SWAP2 POP POP JUMP JUMPDEST PUSH0 PUSH1 0x20 DUP3 DUP5 SUB SLT ISZERO PUSH2 0xB0C JUMPI PUSH2 0xB0B PUSH2 0xA95 JUMP JUMPDEST JUMPDEST PUSH0 PUSH2 0xB19 DUP5 DUP3 DUP6 ADD PUSH2 0xAE3 JUMP JUMPDEST SWAP2 POP POP SWAP3 SWAP2 POP POP JUMP JUMPDEST PUSH0 DUP2 ISZERO ISZERO SWAP1 POP SWAP2 SWAP1 POP JUMP JUMPDEST PUSH2 0xB36 DUP2 PUSH2 0xB22 JUMP JUMPDEST DUP3 MSTORE POP POP JUMP JUMPDEST PUSH0 PUSH1 0x20 DUP3 ADD SWAP1 POP PUSH2 0xB4F PUSH0 DUP4 ADD DUP5 PUSH2 0xB2D JUMP JUMPDEST SWAP3 SWAP2 POP POP JUMP JUMPDEST PUSH2 0xB5E DUP2 PUSH2 0xB22 JUMP JUMPDEST DUP2 EQ PUSH2 0xB68 JUMPI PUSH0 PUSH0 REVERT JUMPDEST POP JUMP JUMPDEST PUSH0 DUP2 CALLDATALOAD SWAP1 POP PUSH2 0xB79 DUP2 PUSH2 0xB55 JUMP JUMPDEST SWAP3 SWAP2 POP POP JUMP JUMPDEST PUSH0 PUSH0 PUSH1 0x40 DUP4 DUP6 SUB SLT ISZERO PUSH2 0xB95 JUMPI PUSH2 0xB94 PUSH2 0xA95 JUMP JUMPDEST JUMPDEST PUSH0 PUSH2 0xBA2 DUP6 DUP3 DUP7 ADD PUSH2 0xAE3 JUMP JUMPDEST SWAP3 POP POP PUSH1 0x20 PUSH2 0xBB3 DUP6 DUP3 DUP7 ADD PUSH2 0xB6B JUMP JUMPDEST SWAP2 POP POP SWAP3 POP SWAP3 SWAP1 POP JUMP JUMPDEST PUSH0 DUP2 SWAP1 POP SWAP2 SWAP1 POP JUMP JUMPDEST PUSH2 0xBCF DUP2 PUSH2 0xBBD JUMP JUMPDEST DUP2 EQ PUSH2 0xBD9 JUMPI PUSH0 PUSH0 REVERT JUMPDEST POP JUMP JUMPDEST PUSH0 DUP2 CALLDATALOAD SWAP1 POP PUSH2 0xBEA DUP2 PUSH2 0xBC6 JUMP JUMPDEST SWAP3 SWAP2 POP POP JUMP JUMPDEST PUSH0 PUSH0 PUSH1 0x40 DUP4 DUP6 SUB SLT ISZERO PUSH2 0xC06 JUMPI PUSH2 0xC05 PUSH2 0xA95 JUMP JUMPDEST JUMPDEST PUSH0 PUSH2 0xC13 DUP6 DUP3 DUP7 ADD PUSH2 0xAE3 JUMP JUMPDEST SWAP3 POP POP PUSH1 0x20 PUSH2 0xC24 DUP6 DUP3 DUP7 ADD PUSH2 0xBDC JUMP JUMPDEST SWAP2 POP POP SWAP3 POP SWAP3 SWAP1 POP JUMP JUMPDEST PUSH2 0xC37 DUP2 PUSH2 0xBBD JUMP JUMPDEST DUP3 MSTORE POP POP JUMP JUMPDEST PUSH0 PUSH1 0x20 DUP3 ADD SWAP1 POP PUSH2 0xC50 PUSH0 DUP4 ADD DUP5 PUSH2 0xC2E JUMP JUMPDEST SWAP3 SWAP2 POP POP JUMP JUMPDEST PUSH0 PUSH2 0xC60 DUP3 PUSH2 0xA9D JUMP JUMPDEST SWAP1 POP SWAP2 SWAP1 POP JUMP JUMPDEST PUSH2 0xC70 DUP2 PUSH2 0xC56 JUMP JUMPDEST DUP2 EQ PUSH2 0xC7A JUMPI PUSH0 PUSH0 REVERT JUMPDEST POP JUMP JUMPDEST PUSH0 DUP2 CALLDATALOAD SWAP1 POP PUSH2 0xC8B DUP2 PUSH2 0xC67 JUMP JUMPDEST SWAP3 SWAP2 POP POP JUMP JUMPDEST PUSH0 PUSH1 0x20 DUP3 DUP5 SUB SLT ISZERO PUSH2 0xCA6 JUMPI PUSH2 0xCA5 PUSH2 0xA95 JUMP JUMPDEST JUMPDEST PUSH0 PUSH2 0xCB3 DUP5 DUP3 DUP6 ADD PUSH2 0xC7D JUMP JUMPDEST SWAP2 POP POP SWAP3 SWAP2 POP POP JUMP JUMPDEST PUSH0 PUSH0 REVERT JUMPDEST PUSH0 PUSH0 REVERT JUMPDEST PUSH0 PUSH1 0x1F NOT PUSH1 0x1F DUP4 ADD AND SWAP1 POP SWAP2 SWAP1 POP JUMP JUMPDEST PUSH32 0x4E487B7100000000000000000000000000000000000000000000000000000000 PUSH0 MSTORE PUSH1 0x41 PUSH1 0x4 MSTORE PUSH1 0x24 PUSH0 REVERT JUMPDEST PUSH2 0xD0A DUP3 PUSH2 0xCC4 JUMP JUMPDEST DUP2 ADD DUP2 DUP2 LT PUSH8 0xFFFFFFFFFFFFFFFF DUP3 GT OR ISZERO PUSH2 0xD29 JUMPI PUSH2 0xD28 PUSH2 0xCD4 JUMP JUMPDEST JUMPDEST DUP1 PUSH1 0x40 MSTORE POP POP POP JUMP JUMPDEST PUSH0 PUSH2 0xD3B PUSH2 0xA8C JUMP JUMPDEST SWAP1 POP PUSH2 0xD47 DUP3 DUP3 PUSH2 0xD01 JUMP JUMPDEST SWAP2 SWAP1 POP JUMP JUMPDEST PUSH0 PUSH8 0xFFFFFFFFFFFFFFFF DUP3 GT ISZERO PUSH2 0xD66 JUMPI PUSH2 0xD65 PUSH2 0xCD4 JUMP JUMPDEST JUMPDEST PUSH2 0xD6F DUP3 PUSH2 0xCC4 JUMP JUMPDEST SWAP1 POP PUSH1 0x20 DUP2 ADD SWAP1 POP SWAP2 SWAP1 POP JUMP JUMPDEST DUP3 DUP2 DUP4 CALLDATACOPY PUSH0 DUP4 DUP4 ADD MSTORE POP POP POP JUMP JUMPDEST PUSH0 PUSH2 0xD9C PUSH2 0xD97 DUP5 PUSH2 0xD4C JUMP JUMPDEST PUSH2 0xD32 JUMP JUMPDEST SWAP1 POP DUP3 DUP2 MSTORE PUSH1 0x20 DUP2 ADD DUP5 DUP5 DUP5 ADD GT ISZERO PUSH2 0xDB8 JUMPI PUSH2 0xDB7 PUSH2 0xCC0 JUMP JUMPDEST JUMPDEST PUSH2 0xDC3 DUP5 DUP3 DUP6 PUSH2 0xD7C JUMP JUMPDEST POP SWAP4 SWAP3 POP POP POP JUMP JUMPDEST PUSH0 DUP3 PUSH1 0x1F DUP4 ADD SLT PUSH2 0xDDF JUMPI PUSH2 0xDDE PUSH2 0xCBC JUMP JUMPDEST JUMPDEST DUP2 CALLDATALOAD PUSH2 0xDEF DUP5 DUP3 PUSH1 0x20 DUP7 ADD PUSH2 0xD8A JUMP JUMPDEST SWAP2 POP POP SWAP3 SWAP2 POP POP JUMP JUMPDEST PUSH0 PUSH0 PUSH0 PUSH1 0x60 DUP5 DUP7 SUB SLT ISZERO PUSH2 0xE0F JUMPI PUSH2 0xE0E PUSH2 0xA95 JUMP JUMPDEST JUMPDEST PUSH0 PUSH2 0xE1C DUP7 DUP3 DUP8 ADD PUSH2 0xC7D JUMP JUMPDEST SWAP4 POP POP PUSH1 0x20 PUSH2 0xE2D DUP7 DUP3 DUP8 ADD PUSH2 0xBDC JUMP JUMPDEST SWAP3 POP POP PUSH1 0x40 DUP5 ADD CALLDATALOAD PUSH8 0xFFFFFFFFFFFFFFFF DUP2 GT ISZERO PUSH2 0xE4E JUMPI PUSH2 0xE4D PUSH2 0xA99 JUMP JUMPDEST JUMPDEST PUSH2 0xE5A DUP7 DUP3 DUP8 ADD PUSH2 0xDCB JUMP JUMPDEST SWAP2 POP POP SWAP3 POP SWAP3 POP SWAP3 JUMP JUMPDEST PUSH0 DUP2 MLOAD SWAP1 POP SWAP2 SWAP1 POP JUMP JUMPDEST PUSH0 DUP3 DUP3 MSTORE PUSH1 0x20 DUP3 ADD SWAP1 POP SWAP3 SWAP2 POP POP JUMP JUMPDEST DUP3 DUP2 DUP4 MCOPY PUSH0 DUP4 DUP4 ADD MSTORE POP POP POP JUMP JUMPDEST PUSH0 PUSH2 0xE96 DUP3 PUSH2 0xE64 JUMP JUMPDEST PUSH2 0xEA0 DUP2 DUP6 PUSH2 0xE6E JUMP JUMPDEST SWAP4 POP PUSH2 0xEB0 DUP2 DUP6 PUSH1 0x20 DUP7 ADD PUSH2 0xE7E JUMP JUMPDEST PUSH2 0xEB9 DUP2 PUSH2 0xCC4 JUMP JUMPDEST DUP5 ADD SWAP2 POP POP SWAP3 SWAP2 POP POP JUMP JUMPDEST PUSH0 PUSH1 0x20 DUP3 ADD SWAP1 POP DUP2 DUP2 SUB PUSH0 DUP4 ADD MSTORE PUSH2 0xEDC DUP2 DUP5 PUSH2 0xE8C JUMP JUMPDEST SWAP1 POP SWAP3 SWAP2 POP POP JUMP JUMPDEST PUSH0 DUP3 DUP3 MSTORE PUSH1 0x20 DUP3 ADD SWAP1 POP SWAP3 SWAP2 POP POP JUMP JUMPDEST PUSH32 0x596F7520617265206E6F7420746865206F776E65722C2061626F7274696E6721 PUSH0 DUP3 ADD MSTORE POP JUMP JUMPDEST PUSH0 PUSH2 0xF28 PUSH1 0x20 DUP4 PUSH2 0xEE4 JUMP JUMPDEST SWAP2 POP PUSH2 0xF33 DUP3 PUSH2 0xEF4 JUMP JUMPDEST PUSH1 0x20 DUP3 ADD SWAP1 POP SWAP2 SWAP1 POP JUMP JUMPDEST PUSH0 PUSH1 0x20 DUP3 ADD SWAP1 POP DUP2 DUP2 SUB PUSH0 DUP4 ADD MSTORE PUSH2 0xF55 DUP2 PUSH2 0xF1C JUMP JUMPDEST SWAP1 POP SWAP2 SWAP1 POP JUMP JUMPDEST PUSH32 0x596F7520617265206E6F7420746865206F776E65722C2061626F7274696E6720 PUSH0 DUP3 ADD MSTORE PUSH32 0x2100000000000000000000000000000000000000000000000000000000000000 PUSH1 0x20 DUP3 ADD MSTORE POP JUMP JUMPDEST PUSH0 PUSH2 0xFB6 PUSH1 0x21 DUP4 PUSH2 0xEE4 JUMP JUMPDEST SWAP2 POP PUSH2 0xFC1 DUP3 PUSH2 0xF5C JUMP JUMPDEST PUSH1 0x40 DUP3 ADD SWAP1 POP SWAP2 SWAP1 POP JUMP JUMPDEST PUSH0 PUSH1 0x20 DUP3 ADD SWAP1 POP DUP2 DUP2 SUB PUSH0 DUP4 ADD MSTORE PUSH2 0xFE3 DUP2 PUSH2 0xFAA JUMP JUMPDEST SWAP1 POP SWAP2 SWAP1 POP JUMP JUMPDEST PUSH32 0x596F7520617265206E6F7420677561726469616E206F6620746869732077616C PUSH0 DUP3 ADD MSTORE PUSH32 0x6C65742C2061626F7274696E6721000000000000000000000000000000000000 PUSH1 0x20 DUP3 ADD MSTORE POP JUMP JUMPDEST PUSH0 PUSH2 0x1044 PUSH1 0x2E DUP4 PUSH2 0xEE4 JUMP JUMPDEST SWAP2 POP PUSH2 0x104F DUP3 PUSH2 0xFEA JUMP JUMPDEST PUSH1 0x40 DUP3 ADD SWAP1 POP SWAP2 SWAP1 POP JUMP JUMPDEST PUSH0 PUSH1 0x20 DUP3 ADD SWAP1 POP DUP2 DUP2 SUB PUSH0 DUP4 ADD MSTORE PUSH2 0x1071 DUP2 PUSH2 0x1038 JUMP JUMPDEST SWAP1 POP SWAP2 SWAP1 POP JUMP JUMPDEST PUSH32 0x596F7520616C7265616479000000000000000000000000000000000000000000 PUSH0 DUP3 ADD MSTORE POP JUMP JUMPDEST PUSH0 PUSH2 0x10AC PUSH1 0xB DUP4 PUSH2 0xEE4 JUMP JUMPDEST SWAP2 POP PUSH2 0x10B7 DUP3 PUSH2 0x1078 JUMP JUMPDEST PUSH1 0x20 DUP3 ADD SWAP1 POP SWAP2 SWAP1 POP JUMP JUMPDEST PUSH0 PUSH1 0x20 DUP3 ADD SWAP1 POP DUP2 DUP2 SUB PUSH0 DUP4 ADD MSTORE PUSH2 0x10D9 DUP2 PUSH2 0x10A0 JUMP JUMPDEST SWAP1 POP SWAP2 SWAP1 POP JUMP JUMPDEST PUSH32 0x4E487B7100000000000000000000000000000000000000000000000000000000 PUSH0 MSTORE PUSH1 0x11 PUSH1 0x4 MSTORE PUSH1 0x24 PUSH0 REVERT JUMPDEST PUSH0 PUSH2 0x1117 DUP3 PUSH2 0xBBD JUMP JUMPDEST SWAP2 POP PUSH32 0xFFFFFFFFFFFFFFFFFFFFFFFFFFFFFFFFFFFFFFFFFFFFFFFFFFFFFFFFFFFFFFFF DUP3 SUB PUSH2 0x1149 JUMPI PUSH2 0x1148 PUSH2 0x10E0 JUMP JUMPDEST JUMPDEST PUSH1 0x1 DUP3 ADD SWAP1 POP SWAP2 SWAP1 POP JUMP JUMPDEST PUSH32 0x796F7520617265206E6F7420746865206F776E65722C2061626F7274696E6721 PUSH0 DUP3 ADD MSTORE POP JUMP JUMPDEST PUSH0 PUSH2 0x1188 PUSH1 0x20 DUP4 PUSH2 0xEE4 JUMP JUMPDEST SWAP2 POP PUSH2 0x1193 DUP3 PUSH2 0x1154 JUMP JUMPDEST PUSH1 0x20 DUP3 ADD SWAP1 POP SWAP2 SWAP1 POP JUMP JUMPDEST PUSH0 PUSH1 0x20 DUP3 ADD SWAP1 POP DUP2 DUP2 SUB PUSH0 DUP4 ADD MSTORE PUSH2 0x11B5 DUP2 PUSH2 0x117C JUMP JUMPDEST SWAP1 POP SWAP2 SWAP1 POP JUMP JUMPDEST PUSH32 0x596F7520617265206E6F7420616C6C6F77656420746F2073656E6420616E7974 PUSH0 DUP3 ADD MSTORE PUSH32 0x68696E672066726F6D207468697320736D61727420636F6E74726163742C2061 PUSH1 0x20 DUP3 ADD MSTORE PUSH32 0x626F7274696E6721000000000000000000000000000000000000000000000000 PUSH1 0x40 DUP3 ADD MSTORE POP JUMP JUMPDEST PUSH0 PUSH2 0x123C PUSH1 0x48 DUP4 PUSH2 0xEE4 JUMP JUMPDEST SWAP2 POP PUSH2 0x1247 DUP3 PUSH2 0x11BC JUMP JUMPDEST PUSH1 0x60 DUP3 ADD SWAP1 POP SWAP2 SWAP1 POP JUMP JUMPDEST PUSH0 PUSH1 0x20 DUP3 ADD SWAP1 POP DUP2 DUP2 SUB PUSH0 DUP4 ADD MSTORE PUSH2 0x1269 DUP2 PUSH2 0x1230 JUMP JUMPDEST SWAP1 POP SWAP2 SWAP1 POP JUMP JUMPDEST PUSH32 0x596F752061726520747279696E6720746F2073656E64206D6F7265207468616E PUSH0 DUP3 ADD MSTORE PUSH32 0x20796F7520616C6C6F77656420746F2C2061626F7274696E6721000000000000 PUSH1 0x20 DUP3 ADD MSTORE POP JUMP JUMPDEST PUSH0 PUSH2 0x12CA PUSH1 0x3A DUP4 PUSH2 0xEE4 JUMP JUMPDEST SWAP2 POP PUSH2 0x12D5 DUP3 PUSH2 0x1270 JUMP JUMPDEST PUSH1 0x40 DUP3 ADD SWAP1 POP SWAP2 SWAP1 POP JUMP JUMPDEST PUSH0 PUSH1 0x20 DUP3 ADD SWAP1 POP DUP2 DUP2 SUB PUSH0 DUP4 ADD MSTORE PUSH2 0x12F7 DUP2 PUSH2 0x12BE JUMP JUMPDEST SWAP1 POP SWAP2 SWAP1 POP JUMP JUMPDEST PUSH0 PUSH2 0x1308 DUP3 PUSH2 0xBBD JUMP JUMPDEST SWAP2 POP PUSH2 0x1313 DUP4 PUSH2 0xBBD JUMP JUMPDEST SWAP3 POP DUP3 DUP3 SUB SWAP1 POP DUP2 DUP2 GT ISZERO PUSH2 0x132B JUMPI PUSH2 0x132A PUSH2 0x10E0 JUMP JUMPDEST JUMPDEST SWAP3 SWAP2 POP POP JUMP JUMPDEST PUSH0 DUP2 SWAP1 POP SWAP3 SWAP2 POP POP JUMP JUMPDEST PUSH0 PUSH2 0x1345 DUP3 PUSH2 0xE64 JUMP JUMPDEST PUSH2 0x134F DUP2 DUP6 PUSH2 0x1331 JUMP JUMPDEST SWAP4 POP PUSH2 0x135F DUP2 DUP6 PUSH1 0x20 DUP7 ADD PUSH2 0xE7E JUMP JUMPDEST DUP1 DUP5 ADD SWAP2 POP POP SWAP3 SWAP2 POP POP JUMP JUMPDEST PUSH0 PUSH2 0x1376 DUP3 DUP5 PUSH2 0x133B JUMP JUMPDEST SWAP2 POP DUP2 SWAP1 POP SWAP3 SWAP2 POP POP JUMP JUMPDEST PUSH32 0x41626F7274696E672C2063616C6C20776173206E6F7420737563636573736675 PUSH0 DUP3 ADD MSTORE PUSH32 0x6C00000000000000000000000000000000000000000000000000000000000000 PUSH1 0x20 DUP3 ADD MSTORE POP JUMP JUMPDEST PUSH0 PUSH2 0x13DB PUSH1 0x21 DUP4 PUSH2 0xEE4 JUMP JUMPDEST SWAP2 POP PUSH2 0x13E6 DUP3 PUSH2 0x1381 JUMP JUMPDEST PUSH1 0x40 DUP3 ADD SWAP1 POP SWAP2 SWAP1 POP JUMP JUMPDEST PUSH0 PUSH1 0x20 DUP3 ADD SWAP1 POP DUP2 DUP2 SUB PUSH0 DUP4 ADD MSTORE PUSH2 0x1408 DUP2 PUSH2 0x13CF JUMP JUMPDEST SWAP1 POP SWAP2 SWAP1 POP JUMP INVALID LOG2 PUSH5 0x6970667358 0x22 SLT KECCAK256 0x4D CALLF 0xC02C 0xA7 MSTORE8 BYTE 0xDB MSTORE 0xDA 0x29 PUSH22 0xF54268C2A0F6F0F4A1367943396040049E9E17666473 PUSH16 0x6C634300081E00330000000000000000 "
				},
				"gasEstimates": {
					"creation": {
						"codeDepositCost": "1037800",
						"executionCost": "25342",
						"totalCost": "1063142"
					},
					"external": {
						"allowance(address)": "2802",
						"confirmationFromGuardianForReset()": "391",
						"guardians(address)": "2834",
						"isAllowedToSend(address)": "2856",
						"proposeNewOwner(address)": "62980",
						"setAllowance(address,uint256)": "49445",
						"setGuardian(address,bool)": "27192",
						"transfer(address,uint256,bytes)": "infinite"
					}
				},
				"methodIdentifiers": {
					"allowance(address)": "3e5beab9",
					"confirmationFromGuardianForReset()": "caf5b411",
					"guardians(address)": "0633b14a",
					"isAllowedToSend(address)": "0bc605ad",
					"proposeNewOwner(address)": "b1f8100d",
					"setAllowance(address,uint256)": "310ec4a7",
					"setGuardian(address,bool)": "2b8a1c5a",
					"transfer(address,uint256,bytes)": "be45fd62"
				}
			},
			"storageLayout": {
				"storage": [
					{
						"astId": 3,
						"contract": "contracts/smartContractWallet.sol:SmartCobtractWallet",
						"label": "owner",
						"offset": 0,
						"slot": "0",
						"type": "t_address_payable"
					},
					{
						"astId": 7,
						"contract": "contracts/smartContractWallet.sol:SmartCobtractWallet",
						"label": "allowance",
						"offset": 0,
						"slot": "1",
						"type": "t_mapping(t_address,t_uint256)"
					},
					{
						"astId": 11,
						"contract": "contracts/smartContractWallet.sol:SmartCobtractWallet",
						"label": "isAllowedToSend",
						"offset": 0,
						"slot": "2",
						"type": "t_mapping(t_address,t_bool)"
					},
					{
						"astId": 15,
						"contract": "contracts/smartContractWallet.sol:SmartCobtractWallet",
						"label": "guardians",
						"offset": 0,
						"slot": "3",
						"type": "t_mapping(t_address,t_bool)"
					},
					{
						"astId": 17,
						"contract": "contracts/smartContractWallet.sol:SmartCobtractWallet",
						"label": "nextOwner",
						"offset": 0,
						"slot": "4",
						"type": "t_address_payable"
					},
					{
						"astId": 23,
						"contract": "contracts/smartContractWallet.sol:SmartCobtractWallet",
						"label": "nextOwnerGuardianVoteBool",
						"offset": 0,
						"slot": "5",
						"type": "t_mapping(t_address,t_mapping(t_address,t_bool))"
					},
					{
						"astId": 25,
						"contract": "contracts/smartContractWallet.sol:SmartCobtractWallet",
						"label": "guardianResetCount",
						"offset": 0,
						"slot": "6",
						"type": "t_uint256"
					}
				],
				"types": {
					"t_address": {
						"encoding": "inplace",
						"label": "address",
						"numberOfBytes": "20"
					},
					"t_address_payable": {
						"encoding": "inplace",
						"label": "address payable",
						"numberOfBytes": "20"
					},
					"t_bool": {
						"encoding": "inplace",
						"label": "bool",
						"numberOfBytes": "1"
					},
					"t_mapping(t_address,t_bool)": {
						"encoding": "mapping",
						"key": "t_address",
						"label": "mapping(address => bool)",
						"numberOfBytes": "32",
						"value": "t_bool"
					},
					"t_mapping(t_address,t_mapping(t_address,t_bool))": {
						"encoding": "mapping",
						"key": "t_address",
						"label": "mapping(address => mapping(address => bool))",
						"numberOfBytes": "32",
						"value": "t_mapping(t_address,t_bool)"
					},
					"t_mapping(t_address,t_uint256)": {
						"encoding": "mapping",
						"key": "t_address",
						"label": "mapping(address => uint256)",
						"numberOfBytes": "32",
						"value": "t_uint256"
					},
					"t_uint256": {
						"encoding": "inplace",
						"label": "uint256",
						"numberOfBytes": "32"
					}
				}
			},
			"userdoc": {
				"kind": "user",
				"methods": {},
				"version": 1
			}
		}
	}
}